:020000041000EA
:10000000002008205D0100101B0100101D010010E0
:100010001101001011010010110100101101001058
:100020001901001019010010190100101F01001022
:10003000110100101901001021010010230100100E
:100040001101001011010010110100101101001028
:100050001101001011010010110100101101001018
:100060001101001011010010F91000201101001001
:100070001101001011010010110100105D0F00208E
:10008000890F002011010010110100101101001052
:1000900011010010110100101101001011010010D8
:1000A00011010010110100101101001011010010C8
:1000B00011010010110100101101001011010010B8
:1000C00011010010110100101101001011010010A8
:1000D0001101001011010010110100101101001098
:1000E0001101001011010010110100101101001088
:1000F0001101001011010010110100101101001078
:100100001101001011010010110100101101001067
:10011000EFF30580103800BE00BE00BE00BE00BE7A
:1001200000BE00BEF2EB88715C9D0010949D001033
:10013000A001001090A31AE7D3DEFFFF42012110B7
:10014000FF010000BCBA0000793512AB4FF000008F
:100150001E49086006C881F3088810474FF05040D8
:10016000006810B14FF00000F2E70DA40ECC00299A
:1001700002D000F012F8F9E71549164A002000E015
:1001800001C19142FCD11449884714498847144958
:10019000884700BEFDE701C901C29A42FBD3704700
:1001A000949D001010010020701F0020F4BB00106F
:1001B0000000082000000820F4BB001000100820F8
:1001C00000100820000000007047000008ED00E06B
:1001D000701F0020DCF60320CD320010D90700107C
:1001E0008D320010F8B500BF10B5054C237833B937
:1001F000044B13B1044800E000BF0123237010BD7D
:10020000F020002000000000A852001008B5034BA9
:100210001BB10349034800E000BF08BD0000000017
:10022000F4200020A852001008B5002003F09CF92B
:100230000028D4BF0020012008BD000070B584B0A4
:1002400005460C4601AB02AA03A901F04BFB18B905
:1002500054B9204604B070BD0646019A029903982D
:1002600001F00EFB3446F4E72946014800F026FB76
:10027000A85200102DE9F047089E099F6A4C256995
:10028000646934F8111005EB010A684CD4F8108049
:10029000646934F812C008EB0C0915F801E0BEF1EE
:1002A0000F0F04DC0AF102049AF8012007E00AF1BA
:1002B00001044FEA2E1202E04FEA2E120C46002BE8
:1002C0000CDD934209DB9B1A214611F801EBBEF1CC
:1002D0000F0FF1DC62780234F1E7D21A09F101055F
:1002E00018F80CC0BCF10F0F04DC09F1020599F8F5
:1002F000013005E04FEA2C1302E04FEA2C130D46C3
:10030000002E0CDD9E4209DBF61A294611F801CBBE
:10031000BCF10F0FF1DC6B780235F1E79B1B002677
:1003200018E086464FF00B082EF8048B418070468B
:100330009B1A07D12A4612F801CBBCF10F0F35DC0E
:100340006B780235214611F801EBBEF10F0F31DC5D
:1003500062780234BE4265DA4FEA0C11C9B20EF07F
:100360000F0841EA0801DFF8C88038F811109A42F6
:1003700024DC02EB060EBE4500DDBA1B1644012A42
:10038000CFD0022A0AD0022AD2DD4FF0030EA0F805
:1003900000E04180D11E81800630C9E74FF00D0E8C
:1003A000A0F800E0418081800630C1E74FEA2C13BD
:1003B0001546C7E74FEA2E120C46CBE79A42C9DD35
:1003C00003EB060CBC4500DDBB1B1E44012B0CD00F
:1003D000022B1BD0022B0FDD4FF0030CA0F800C046
:1003E0004180D91E8180063006E084464FF00B081C
:1003F0002CF8048B41806046D21A294611F801CBB3
:10040000BCF10F0F0ADC6B780235A3E74FF00D0C3F
:10041000A0F800C0418081800630EDE74FEA2C1340
:100420000D4697E7BDE8F087D47C0010A853001074
:1004300070F2032070B50646614850F821506148BB
:1004400050F8210008302C696D6935F812102144EC
:10045000013235F8122014445A42049DED1A002B43
:1004600029DCA14280F0AA808C461CF8013B0F2BAE
:1004700071DC01F1020C497803F00F0330F813E04E
:100480005318AB4269DDAA1A012A00F08680022ABD
:1004900000F08A80022A40F38F8003233380A6F87D
:1004A00002E0B01D033AB2807DE04FEA2E1C1946EF
:1004B00012EB0C020BD5A142D3D20B4613F801EB81
:1004C000BEF10F0FF1DC91F801C00231F0E7954267
:1004D00012DD0EF00F0E30F81E30012A2BD0022A4A
:1004E00031D0022ABDDD4FF0030CA6F800C07380A6
:1004F000D31EB3800636B4E70EF00F0E30F81E3070
:10050000012D0AD0022D0ED0022D12DD03223280E1
:100510007380B01D033DB58045E030460B2220F8C6
:10052000042B73803FE00D2232807380B01DB380B6
:1005300039E0304637E0B4464FF00B0E2CF804EBB0
:10054000738066468DE74FF00D0CA6F800C07380EF
:10055000B380063685E719118EE701290BD00229F1
:1005600013D002290EDD03223280A6F802E00339FF
:10057000B180063606E032460B2122F8041BA6F8AD
:1005800002E016461A4661466BE70D223280A6F855
:1005900002E0A6F804E00636F4E730460B2320F824
:1005A000043BA6F802E070BD0D233380A6F802E0FC
:1005B000B01DA6F804E0F6E73046F4E73046F2E76F
:1005C000A053001068F2032008B5024804F02CFE86
:1005D00004F03AFEC4F6032008B5054803F088FD90
:1005E000012003F089FD034804F006FE08BD00BFAA
:1005F000309C0010C4F603202DE9F0434FF0000EAC
:1006000060E01D4698461846FF2B56D0C4F5807111
:10061000C1EB012205FB0422C90108FB0413D90A1E
:1006200004FB00F022F4FF6323F0070343EA811385
:100630001BB20EEB0C1143EAD023264A22F81130EC
:100640000CF1010CBCF10F0F3ADC234B03EB8E03D2
:100650005B68224A02EB8C0250681D0EC3F307460A
:10066000C3F307285FFA83F9020EC0F30747C0F30C
:100670000721C0B22B46954238BF13461C46002BBB
:10068000BFD002FB00F000EB400009FB050002EBCD
:100690004209A944B0FBF9F002FB01F101EB410171
:1006A00008FB0518B8FBF9F807FB02F202EB42025F
:1006B00006FB0525B5FBF9F5A6E74FF48074A5E721
:1006C0000EF1010EBEF10F0F02DC4FF0000CB9E786
:1006D000BDE8F08370F2032034910010907C00108C
:1006E00038B5174B1B6803B138BD164D294616485F
:1006F00003F0A8FF124C60602946144803F0A2FFE3
:100700002060FFF779FF124B5A8912498868121A44
:1007100002EBD2725210104802601B8949685B1AC2
:1007200003EBD3735B100D490B60002A05DB002B34
:10073000DADA0A4B00221A60D6E700210160F6E7F8
:1007400068F203200080FFFF907C001034910010BD
:10075000309C0010D47C001098F6032060F2032037
:1007600008B50124184B1C70184800F066FB1820CF
:1007700000F09AF8162000F097F84FF09C7340EEC6
:1007800014304FF4800360EE14301826002545EC39
:1007900040600521162000F06BF844EC40602246D2
:1007A00029460B4800F034FB4FF050431868FFF720
:1007B00097FF2046FFF794FF064803F031FFFFF74D
:1007C0000BFF04F041FD00BFC8210020C021002024
:1007D000C4F60320C905001010B51B23002242EC0B
:1007E0004030184B1C682268174B9A4213D223687A
:1007F000164A93421BD0164A93421DD0124A934286
:1008000010D000F031F8134802F0D6FE124802F082
:10081000D3FEFFF7A5FF0F2001F022F9052000F01D
:1008200015FFE4E701210D48FFF708FDE9E7012185
:100830000B48FFF703FDE4E701210A48FFF7FEFC40
:10084000DFE700BF309C001040D2DF0320EED90864
:10085000808EF20D6C53001074530010D0FB010019
:10086000288804002024070008B502F0EDFF08BD29
:100870000C4B03EB800253F8203083F0400303F06D
:10088000C00302F5805CCCF80030C00000F180406D
:1008900000F52030416002F540524FF48073136040
:1008A000704700BF0480034008B5002242EC4400BA
:1008B00042EC40000521FFF7DBFF08BD0FB400B597
:1008C00083B0049C074802F077FE3CB105A9019172
:1008D000204602F081FE044802F06EFE012002F084
:1008E000B9FC00BF78910010809A0010EFF31080DF
:1008F00072B64FF05043D3F82C31002BF9D0BFF330
:100900005F8F7047BFF35F8F4FF050430022C3F8F3
:100910002C2180F31088704770B505460C461646AA
:10092000FFF7E4FFE208A95C04F0070C012303FAD7
:100930000CF3194205D1DBB20B43AB54FFF7E2FFD6
:1009400070BD21463046FFF7B9FF0000054A107818
:10095000431CDBB21370172B02D9134610221A70F6
:10096000704700BF9C160020002208E002F150539F
:1009700040339B00BFF35F8F0021196001321F2AB3
:10098000F4D9704708B51F2808D800F150504030FE
:100990008000BFF35F8F0023036008BD024B034A52
:1009A0000F21034802F076FC88910010F0910010AE
:1009B000A4910010084B9B68103043F82010BFF33F
:1009C0005F8FBFF35F8F4FF050430021C3F82411B6
:1009D00082F31088704700BF00ED00E000487047C8
:1009E00000E400E008B5FFF7F9FF002304E04FF052
:1009F000803240F8042B01330C2BF8D962B608BDC5
:100A000008B5091A081F01F2FC7140F6FE739942FD
:100A100007D810F0010F04D1C0F34A0040F4604041
:100A200008BD034B034A4FF48771034802F032FCC0
:100A300000920010509400103092001008B5091A6E
:100A400004394B08090B0AD1C1F30A0141F4704182
:100A500001806FEA43536FEA5353438008BD034B51
:100A6000034A4FF48B71034802F014FC64920010A7
:100A70002C940010309200104209064B53F82220AB
:100A800000F01F00012303FA00F0024214BF1846D1
:100A90000020704700E100E021B1044BC3F8800161
:100AA00018607047014BC3F88000704700E100E018
:100AB0003AB1064B00F1600243F8221043F82010CF
:100AC00070472030014B43F82010704700E100E0F0
:100AD00008B50A4600F01F03012199404009FFF7BD
:100AE000E7FF08BD024B9B68103053F820007047A9
:100AF00000ED00E070B504460D46EFF3108672B6C7
:100B00004FF05043D3F82431002BF9D0BFF35F8F5F
:100B10002046FFF7E7FF084B984201D0A84205D1D5
:100B2000324629462046FFF745FF70BD034B044A75
:100B3000ED21044802F0AEFB110100107492001088
:100B40006C940010309200102DE9F04706460D46D7
:100B5000EFF3108872B64FF05043D3F82431002BD6
:100B6000F9D0BFF35F8F564B9B6806F1100A53F81C
:100B70002A70544B9F4207D0AF4200F09E803C4603
:100B8000514BFB1A2F2B06D9424639463046FFF708
:100B900011FFBDE8F0873046FFF76EFF8146002168
:100BA0003046FFF795FFBFF35F8FEFF30580C0B2CC
:100BB00008B1824510D124F001040021A2689542B9
:100BC00012D094F90630002B0DDB03EB43032146D2
:100BD0003D4C04EB8304F1E73C4B3D4A40F20221DB
:100BE0003C4802F057FB214695425FD194F90650EC
:100BF000002D41DB05EB4503334A02EB83039A6882
:100C0000A260DA79E27193F90620A27193F90630B5
:100C1000002B10DA4BF60150A08005EB45022A4B61
:100C200003EB82032C4A11789971157049463046BE
:100C3000FFF74EFFA8E7201D05EB4503224A02EB14
:100C40008303191D9B88DA0A1C2A08D15B050DD481
:100C50005B15023301EB4301FFF7D2FEDCE71F4BCC
:100C60001F4A4FF48E711B4802F014FB03F5FF136B
:100C700003F5FF531F33EBE798B981B1FF238B7165
:100C80004BF601538B80144A1378A3714AF6AA23BA
:100C90000D49641A644163431B0D1370C6E7094F85
:100CA000F1E71049201DFFF7C9FEBFE70E4B084AC8
:100CB0004FF41171074802F0EDFA024F64E700BFEC
:100CC00000ED00E011010010A01600209893001024
:100CD0003C94001030920010D4F603208093001052
:100CE0005C940010DA160020CC93001038B504464E
:100CF0000D46FFF773FEA10850F8213004F00304FD
:100D0000E400FF22A24023EA020305FA04F41C4394
:100D100040F8214038BD000038B540F0010E334B9B
:100D2000AEEB03032F2B2DD8EFF30581C9B20029B9
:100D30002FD0EFF3108472B64FF05043D3F8243124
:100D4000002BF9D0BFF35F8F4AF6AA230246274D46
:100D5000521B524153431B0D4FFA83FC244B9B689B
:100D600053F8213073451BD00023032B37D803EBF6
:100D700043021E4901EB820292F90620624523D00C
:100D80000133F2E71B4B1C4A40F27F211B4802F063
:100D900081FA1B4B184A40F28221184802F07AFA75
:100DA000134B9B68174A43F82120174B1A7882711E
:100DB00083F800C0BFF35F8F4FF050430022C3F8A9
:100DC000242184F3108838BD0A4603EB430102EB6B
:100DD0008101FF258D714BF601528A80E5E70B4BAF
:100DE000054A40F29321054802F054FAA01600206B
:100DF00000ED00E0D4930010109400103092001029
:100E0000FC93001011010010D4F603200894001088
:100E100070B504460E461546FFF798FD014620467C
:100E200000F005F8A680E580BFF35F8F70BD01F18B
:100E30005051403189000160704710B50446FFF7FA
:100E400085FD01462046FFF7F2FFFF232371BFF324
:100E50005F8F10BD10B50446FFF778FD01462046B0
:100E6000FFF7E5FFFF23237100236371BFF35F8F5B
:100E700010BD000010B50D4C09E00D4B0D4A1A21B4
:100E80000D4802F007FA2046FFF7D7FF08340B4B56
:100E90009C4209D22368002BF5D0012BEDD12046CE
:100EA000FFF7D8FF0834F2E710BD00BF601F002035
:100EB0008894001050950010A8940010701F002016
:100EC00041EA0040704700000A4B1A68EFF31081B6
:100ED00072B61368002BFCD0BFF35F8F054B1B6805
:100EE000BFF35F8F00221A6081F3108840BF00209B
:100EF0000021704758F603202DE9F04F85B0EFF33D
:100F00000587FFB2103FBB0815D0B04D07F00307AF
:100F1000AE4B9D4214BF0023012307EB8303AC4A71
:100F200052F823402378BB4207D10122BA4005F58D
:100F300041535A6015E1A74DE8E7A74BA74A922114
:100F4000A74802F0A7F9D4F814A008EB4806F3006C
:100F500002930AEBC606B3680193D6F80C902846B4
:100F600000F00AFB019BC01A61EB0903002BC0F2E1
:100F70000181B9F1000F5FDBD6F810B0994B9B45AA
:100F80003FD0718889B2B4F90800FFF799FF716901
:100F9000D84703908B46039B53EA0B024CD0BBF11E
:100FA000000F3BDA019AD01A69EB0B0BB060C6F860
:100FB0000CB0029B3AF90330002BC0F2DB80D4F86E
:100FC00014E003EB43020EEBC2029168D268411AAF
:100FD0006BEB0202002AC0F2CD80A4462CF8083F39
:100FE000BCF90060002E21DB06EB46030EEBC303C9
:100FF0009968DA68411A6BEB0202002A16DB9C46FC
:10100000EEE7D6F814B0DBF810305846984798B1A0
:10101000DBF800300393DBF804B0BCE7284600F0AF
:10102000ABFA039B18184BEB010BBFE7029B2AF8A6
:101030000360ACF800809DE0029B3AF90330238105
:101040002269EFF3108372B611680029FCD0BFF358
:101050005F8FB4F9022002992AF80120A4F80280D7
:101060002269BFF35F8F0021116083F3108881E054
:101070002269EFF3108172B61368002BFCD0BFF326
:101080005F8FB4F804900FFA89F94FF6FF73A380CD
:101090002369BFF35F8F00221A6081F3108816E086
:1010A0001E46B6F90020002A0BDB02EB42030EEBD2
:1010B000C3039868D968BCEB000068EB0101002904
:1010C000EEDAA6F800903EF90A902EF80A20B9F15F
:1010D000000F54DBD4F814E009EB49034FEAC30ACC
:1010E0000EEBC303D3F808C0D3F80C8004F1080654
:1010F000D7E70023A37104F1080EB4F9083011E01A
:101100004FF0FF384FF0FF39C0E90289B4F9080009
:10111000984206D0AEF80020B4F9080021F80C007F
:1011200023811346B3F1FF3F2CD0616903EB4302E7
:101130004FEAC20C01EBC20031F93220468816F4A6
:10114000004FDDD18646ECE73B1D45F8236028467D
:1011500000F012FA361A68EB0101012E71F100035A
:1011600030DA0123BB40EB63B4F90880B8F1000F1B
:10117000BFF6E9AEA38813F4004F3FF479AFA3792B
:10118000002BB6D1B4F90830002B1BDB626903EBEE
:10119000430302EBC3039E68D3F80C80B8F1FF3F12
:1011A00008BFB6F1FF3FD2D0AA6AB11A3B1D55F86D
:1011B00023309B1A9942C7D32A6A0123BB401A42A3
:1011C000C5D1C1E740BF05B0BDE8F08F00800B403E
:1011D00070F4032000000B4064950010FC95001093
:1011E00090950010F90E00102DE9F0410446884654
:1011F00017461E46C160FFF7A9FB00F15050403072
:10120000800020612770B3B263814FF050421278A2
:1012100062704FF6FF722281A280013B63804FF023
:10122000000C08E00CF1FF3560690CEB4C0E20F867
:101230003E500CF1010CB445F4D3114B98450CBF52
:101240000123002307EB83030E4A42F8234014D006
:1012500000243C44012505FA07F7C8F820700A4924
:101260002046FFF747FC29462046FFF731FC08F5EA
:101270000158C8F80070BDE8F0810424E9E700BF18
:1012800000800B4070F40320F90E001008B5054BE8
:101290001B690BB1034808BD034B044A6521044890
:1012A00001F0F8FFE8160020C0950010E49500104A
:1012B00090950010F8B5044696461A460069EFF37B
:1012C000108C72B601680029FCD0BFF35F8FB4F9AF
:1012D0000250666905EB4500C70006EBC000002D13
:1012E00001DBF35F63802169BFF35F8F00230B6035
:1012F0008CF310889D422CDB069B0361079B4361A6
:10130000C0F808E0C260418889B20131C1F30E0122
:1013100001B9012141802846FFF7D2FD2269EFF390
:10132000108172B61368002BFCD0BFF35F8FA388C7
:10133000F353A5802369BFF35F8F00221A6081F306
:101340001088E368217801228A4003F501535A602E
:10135000F8BD4FF0FF30FBE770B582B0064615468A
:101360001C469DF8203033B900F030F9854264EB1B
:10137000010100290ADB079B0193069B00932A4683
:1013800023463046FFF796FF02B070BD0020FBE712
:1013900003464089B0EB214F2DDD10B40A14586983
:1013A00002EB420200EBC2021C69EFF3108C72B632
:1013B00020680028FCD0BFF35F8F508880B289B2CC
:1013C000884212D000201A69BFF35F8F002111609C
:1013D0008CF3108830B1DA681B780121994002F54E
:1013E000015359605DF8044B704740F40040508051
:1013F00001209871E7E7002070470000F0B585B044
:1014000005460C46EFF30583DBB293B1404B5B6AB4
:101410008B4209D33E4A926A824208D28B4201D063
:10142000012002E0002000E0002005B0F0BD012016
:10143000FBE7FFF72BFFC7680678384600F09CF8FB
:101440002A1A64EB0101043657F82630181A824232
:1014500071F1000312DB20BF2D4B5B6A9C4209D85F
:101460002B4A926AAA4207D29C4201D00120DCE7B3
:101470000020DAE70020D8E70120D6E7FFF706FFD3
:10148000002302930193234B00932A462346FFF740
:1014900063FF061E0BDD1E4B5B6A9C421BD81C4A79
:1014A000926AAA422BD29C4213D0012314E0184B1B
:1014B0005B6A9C4209D8164A926AAA4207D29C42A9
:1014C00001D00120B1E70020AFE70020ADE7012007
:1014D000ABE7002300E0002303B920BFFFF7D6FEEF
:1014E0003146FFF755FF0A4B5B6A9C420BD8084A0E
:1014F000926AAA4209D29C4203D0012095E70123B7
:10150000EAE7002091E700208FE701208DE700BF88
:1015100000000B40C90E00100048704700000B404F
:1015200010B50A4B1B6923B10A210948FFF77FFC5C
:1015300010BDFFF7F1FF0446032100F00BF8102364
:10154000032221460148FFF74FFEEDE7E816002091
:1015500058F6032010B5054A054C064BA04214BFAF
:101560001846581CFFF7D8F910BD00BF149600109C
:1015700000800B40742100200246436A906A19469D
:10158000536A9942FAD17047416A00E0416A994230
:10159000FCD300E0416A994202D1816A9142F9D3B9
:1015A000704770B5064614461D46FFF7E5FF021961
:1015B00041EB0503824273EB010102D24FF0FF328F
:1015C00013463046FFF7E0FF70BD000008B5024843
:1015D000FFF7D2FF08BD00BF00000B4008B5024670
:1015E0000B460248FFF7DDFF08BD00BF00000B40BF
:1015F00008B50246081E05DB916A936A5B1A8342AE
:10160000FBD308BD0021FFF7E9FFFAE708B50E4B51
:10161000994206D84FF47A7303FB01F1FFF7E8FF14
:1016200008BDCA0E4B015B1A62F10002920042EA49
:1016300093729B00591842F10003DB00CA0043EA91
:101640005173FFF7AEFFEBE79BC4200008B50146DE
:101650000148FFF7DBFF08BD00000B4038B5046B05
:1016600014F0010F01D1204638BD00F5405340F27F
:1016700001321A63436A856A05EB8315AD020620C1
:1016800000F0F8F8044BA3FB0030C00AB5FBF0F003
:101690000021FFF7A3FFE6E7757B2B8F70B50546AA
:1016A0000C461646FFF7DAFFE96A4C40344005F570
:1016B0008153DC60286370BD70B505460C4606207A
:1016C00000F0D8F8C300B3FBF4F10131CC0907D026
:1016D0004FF6FE739C4214D82646C1F3450400E041
:1016E00001266E62AC62002211462846FFF7D6FF43
:1016F000062000F0BFF8800004EB8614B0FBF4F085
:1017000070BD00244FF6FF76EBE7000049B10A22D6
:10171000054B984214BF00200120044B23F81020F1
:1017200070474FF48072F3E700800740A0F6032073
:1017300038B504460D46062000F09CF848B3174B18
:101740009C4227D01A2201239340154A1360134B61
:101750009C4221D01A2301229A40124B1A60124B4C
:101760009B6832EA0303FAD100212046FFF7CEFF3F
:1017700029462046FFF7A0FFE36A83F0700303F0D9
:101780007E0304F58152D36040F2013323630323C7
:10179000A36438BD1B22D6E71B23DCE7008007408B
:1017A00000200240003002400000024070B5049D5D
:1017B00000EB400C4FEA8C0C0CF1804C0CF5803C9B
:1017C000DCF80440AC4201D2CCF80450A0F1040E85
:1017D0005FFA8EFEBEF1010F27D90CF540544FF48D
:1017E000006626601D4C54F820603EB16469B4FB6D
:1017F000F6F4013404EB4404033CFDD2DCF8004071
:1018000084EA421202F0E0020CF580542260BEF13C
:10181000010F16D90CF500524FF400611160CCF89D
:1018200004500E4A42F8203070BD0129D5D10CF584
:10183000405403262660DCF8084014F0010FFAD06B
:10184000DCE7DCF800204A4002F003022260DCF80A
:10185000084001228A401442F9D0DBE77C210020B5
:1018600010B582B04FF480340094FFF79FFF02B0B0
:1018700010BD0000014B53F8200070477C21002070
:10188000F0B583B004460D461646134F3B46012281
:1018900011460520FFF7E4FF00962B462246012162
:1018A0000E4800F059F806FB05F5B4FBF5F40C4BB7
:1018B000002202210420FFF7D3FF2346002201214A
:1018C0000520FFF7CDFF3B46022200210620FFF74F
:1018D000C7FF03B0F0BD00BF006CDC020000054094
:1018E000001BB7002DE9F04104460E461746984606
:1018F0004FF4A0751AE0013B9BB103FB00FCB2FB67
:10190000FCFEA645F7D10CFB1E210029F3D1104A9D
:1019100002FB05F535603860C8F800300120BDE8ED
:10192000F081013808B10346E6E7013D0F2D0CD9DF
:1019300042F6E06205FB02F2A2F53723A3F5D87365
:1019400004498B42F1D80720ECE70020E7E700BF0D
:10195000001BB70050F80C0070B5049C344DB5FB6B
:10196000F1FC344D1544344EB54237D8B2FBFCF58A
:10197000A5F1100EBEF5987F36D803F1FF3EBEF1FB
:10198000060F37D804F1FF3EBEF1060F32D8BCEB8C
:10199000121F35D8240344EA03440368002B35DBC7
:1019A000264B984242D00E2301229A40244B1A60C3
:1019B00003F580531A60234B9B6832EA0303FAD184
:1019C0000160856000F540520432212313600368F2
:1019D000002BFCDAC4600823136070BD1A4B1B4A4D
:1019E00011211B4801F056FC1A4B184A19211848BE
:1019F00001F050FC184B154A1C21154801F04AFC17
:101A0000164B124A2321124801F044FC036803F0EC
:101A10003F038B42C4D18368C3F30B03AB42BFD1F6
:101A2000C36803F4EE23A342BAD1D6E70F23BBE782
:101A3000001BB70080E84BD380F8A9320080054036
:101A4000002002400000024038960010409700102D
:101A500088960010BC960010D896001024970010AD
:101A60000C4B0D4A5A600D4BDB6813F4004FFAD152
:101A7000030143F0B54343F4FC03084AD2685340E2
:101A8000074A1A40074BDA60044BDB6813F4004F37
:101A9000FAD17047002010400020FE5A000010408C
:101AA000F001FE5A00101040054A00EB400302EB23
:101AB0008303596000EB40008000012313507047FE
:101AC0000080104008B50023DB8A002242E800F2C3
:101AD00012F4800F02D11021984708BD04219847C5
:101AE000FBE70000034BD3F82838002BFAD0BFF3F4
:101AF0005F8F704700000E40002207E0054B134443
:101B00009B00BFF35F8F002119600132072AF5D9CE
:101B1000704700BF0382031008B5FFF7EDFF08BD53
:101B2000074B4FF42A621A604FF48D72DA6003F5A6
:101B30000053044A1A60024B5B68002BFBDA7047C3
:101B40000080044000B0FA0010B5044602E054F8EA
:101B5000043B9847014B9C42F9D310BDA45200109E
:101B60007047000008B50248FFF7EEFF08BD00BF50
:101B70006852001008B50248FFF7E6FF08BD00BF35
:101B800094520010064B074A1A6003F58053064A28
:101B90001A60064B9A68044B9343FAD1704700BF12
:101BA000002002407F3BEFEFF6FFF303000002400E
:101BB000054BDB6CB3F5004F00D07047034B4FF47F
:101BC0008022DA64F9E700BF0000115000201150B4
:101BD0004FF0E022D2F8881D034B0B43C2F8883D3A
:101BE00010EE3004704700BF03033000054B6FF068
:101BF00060421A60044B9B68DB4333F06043F9D1C9
:101C0000704700BF003002400000024008B545F2B6
:101C10005320FFF757FF03460420984708BD08B537
:101C200045F25320FFF74EFF03460120984708BDB9
:101C300008B5FEF799FE08BD10B50C490C4A521ABA
:101C400092101446442A28BF44229200094803F007
:101C500061F804E0084A074B43F824200134432C80
:101C6000F8D9044A054B9A6010BD00BF000000106F
:101C700010010010000000201101001000ED00E034
:101C800038B50420FFF7F6FD064DA5FB0035AD0C79
:101C9000002404E02946E0B2FFF706FF0134052CDA
:101CA000F8DD38BD83DE1B4330B583B0264B002200
:101CB000C3F88420FFF734FF244B0122DA63224B60
:101CC0005B6C012BFBD1214B03221A631E4B9B6BD8
:101CD000012BFBD10224009405231D4A01211D483C
:101CE000FFF73AFE052500952B461B4A01211B48AC
:101CF000FFF732FE1A4B002221460420FFF7B0FD09
:101D0000184C2346002201212846FFF7A9FD164D55
:101D10002B46002211460820FFF7A2FD2B46002289
:101D200011460920FFF79CFD23460022114606209C
:101D3000FFF796FD2346002211460720FFF790FD8E
:101D4000FFF79EFF03B030BD0000014000300140AE
:101D5000002F685900000540008C86470080054030
:101D6000001BB70080D1F008006CDC0286B003B421
:101D700051FC0804CDE9020151FC0904CDE904013C
:101D800051EC0A04CDE9060103BCF047BDE8005060
:101D90004EEC00C4BDE800504EEC01C4BDE800505C
:101DA0004EEC02C400BD000000B5FFF7DFFF02E00B
:101DB00010FE30F4F8D441EC100443EC112400EE92
:101DC000010410EE010480EE200451EC1004704771
:101DD00000B5FFF7CBFF02E010FE30F4F8D441EC81
:101DE000100443EC112400EE010410EE210480EEF7
:101DF000200451EC3004704700B5FFF7B7FF02E054
:101E000010FE30F4F8D410B541EC100443EC11246A
:101E100051EC040453EC0524A0FB024C5FF0000ECF
:101E2000E0FB03CEE1FB02CE4CEC20440024E1FBBE
:101E300003E444EC30E480EE200451EC5004BDE8AF
:101E40001040704700B5FFF791FF02E010FE30F43C
:101E5000F8D441EC100443EC112451EC2104A0FB14
:101E600001126FEA820252FB100052FB12F252FB87
:101E70001000A0EBD07C53EC04245CFB13F153EC7A
:101E80001524A1FB022001FB030053EC4424A2EB28
:101E9000000050FB1CF24FEA111312EB017043EBF0
:101EA000E27140EA515020EA915020F0070053ECD3
:101EB0007524A0FB023C53EC752400FB03CC01FB12
:101EC00002CC53EC0424ACEB824C40EA5C70A0F1F1
:101ED000010041EC400480EE200451EC7004704796
:101EE00000B5FFF743FF02E010FE30F4F8D440ECF9
:101EF000700400EE010410EE210480EE200451EC89
:101F00003004704700B5FFF731FF02E010FE30F4F7
:101F1000F8D440EC600400EE010410EE210480EEE1
:101F2000200451EC3004704700B5FFF71FFF02E0BA
:101F300010FE30F4F8D441EC800400EE010410EE01
:101F4000010480EE400410EE1304704700B5FFF763
:101F50000DFF02E010FE30F4F8D441EC800400EEF6
:101F6000010410EE010480EE400410EE33047047CB
:101F700000B5FFF7FBFE02E010FE30F4F8D441ECB0
:101F8000100443EC112400EE010410EE3004C0F301
:101F90000070704700B5FFF7E9FE02E010FE30F474
:101FA000F8D443EC102441EC110400EE010410EECF
:101FB00030F48CBF01200020704700BF00B5FFF750
:101FC000D5FE02E010FE30F4F8D443EC102441ECCE
:101FD000110400EE010410EE30F42CBF01200020AB
:101FE000704700BF00B5FFF7C1FE02E010FE30F4FD
:101FF000F8D441EC100443EC112400EE010410EE7F
:1020000030F42CBF01200020704700BF00B5FFF75F
:10201000ADFE02E010FE30F4F8D441EC100443ECC5
:10202000112400EE010410EE30F48CBF01200020DA
:10203000704700BF70B504460A4E304603F00CF9F5
:10204000204602F0A5FB0546304603F0E5F82DB129
:102050002C44054B9C4201D8284670BD0348FEF72E
:102060002DFC00BF601F0020000008204C970010CE
:10207000F8B504460E460C4F384603F0EDF83146ED
:10208000204602F041FB0546384603F0C5F806FB42
:1020900004F42DB12C44054B9C4201D82846F8BDD0
:1020A0000348FEF70BFC00BF601F00200000082063
:1020B0004C970010704720B108B50A6849689047EE
:1020C00008BD70470146002007E000EB8000531C6C
:1020D0000B60137803EB400030380A681378303B0C
:1020E000DBB2092BF1D970472DE9F04F83B00546DB
:1020F0000E4693461F46DDF830A00D9CDDF8389063
:102100000F9B13F0030F19D1A0460192C84509D2C5
:1021100002F1010B3B4631462020A84708F1010897
:102120005A46F3E7DDF804B008E0013C02F101088B
:102130003B4631461AF80400A8474246002CF4D129
:102140000F9B13F0020F03D1104603B0BDE8F08FD0
:10215000A2EB0B034B45F7D2541C3B4631462020E3
:10216000A8472246F4E72DE9F04385B00C9D0D9C6D
:102170009DF83890DDF83C80DDF840E0119F129E1C
:1021800016F0020F21D17FB116F0010F0CD0B9F17A
:10219000000F02D116F00C0F06D0013F04E04FF003
:1021A000300C05F804C00134744501D21F2CF6D957
:1021B00016F0010F09D0BC4207D21F2C05D84FF0F2
:1021C000300C05F804C00134F2E716F0100F17D0F8
:1021D00016F4806F04D11CB1744524D0BC4222D0C7
:1021E000B8F1100F2BD0B8F1100F33D0B8F1020FA7
:1021F0003BD01F2C04D84FF0300C05F804C001343C
:102200001F2C07D8B9F1000F37D04FF02D0C05F86F
:1022100004C001340396029701940095FFF764FF10
:1022200005B0BDE8F083B4F1010C06D0B8F1100F91
:1022300001D06446D4E7023CD2E76446D0E716F00A
:10224000200FD0D11F2CCED84FF0780C05F804C049
:102250000134CEE716F0200FC8D01F2CC6D84FF09F
:10226000580C05F804C00134C3E71F2CC1D84FF047
:10227000620C05F804C00134BBE716F0040F05D06A
:102280004FF02B0C05F804C00134C3E716F0080F1B
:10229000C0D04FF0200C05F804C00134BAE7F0B507
:1022A00091B0169C189D1B9E0CB926F0100616F4D2
:1022B000806E16D064B34FF0000E12E00CF1300CBB
:1022C0005FFA8CFC0EF101070EF1400EEE440EF8A1
:1022D00020CCB4FBF5FCAC421BD31F2F19D8BE4653
:1022E0006446B4FBF5FC05FB1C4C5FFA8CFCBCF1AE
:1022F000090FE3D916F0200F08D04127BC445FFA3C
:102300008CFCACF10A0C5FFA8CFCDBE76127F5E78B
:10231000274606961A9C0594199C049403959DF8EB
:102320005C400294019708AC0094FFF71CFF11B0C9
:10233000F0BD2DE9F04F95B009900A910B929B46A4
:102340001E9D1F9E229FDDF88C80DDF898A055EA27
:10235000060301D12AF0100A1AF480641FD055EA4E
:10236000060330D000241AE003F13002D2B204F1A7
:10237000010904F150030DEB030404F8202C3A4644
:1023800043462846314602F03FFFBD4276EB080344
:102390001BD3B9F11F0F18D84C4605460E463A46D6
:1023A00043462846314602F02FFFD3B2092BDBD932
:1023B0001AF0200F05D041221A44D2B20A3AD2B202
:1023C000D5E76122F8E74FF00009CDF818A0259B6A
:1023D0000593249B049303979DF880300293CDF8D6
:1023E00004900CAB00935B460B9A0A990998FFF78F
:1023F000BAFE15B0BDE8F08F2DE9F04F91B004465C
:102400000D4617461E46DDE91A2310461946FFF70A
:10241000B3FD002840F0ED804FF0FF32AE4BDDE918
:102420001A01FFF7F7FD002840F0E3804FF0FF327C
:102430006FF48013DDE91A01FFF7B0FD002840F0CA
:10244000D88000220023DDE91A01FFF7A7FD00284C
:1024500040F0E2809DED1A7B8DED067B1E9B13F410
:1024600080630D9301D106231C93DDE906231046FA
:102470001946CDE9080152EA030100F0D880C3F300
:102480000A50C3F31303904643F07F5949F44019AF
:10249000A0F2FF30FFF728FD7DA3D3E90023FFF76B
:1024A000AFFC7DA3D3E90023FFF782FC82468B4675
:1024B00000228A4B40464946FFF78EFC78A3D3E9B9
:1024C0000023FFF79DFC02460B4650465946FFF796
:1024D0006FFCFFF72DFD8246FFF706FD804689461B
:1024E00071A3D3E90023FFF78BFC00227C4BFFF79D
:1024F0005FFCFFF71DFD83466DA3D3E90023404633
:102500004946FFF77DFC804689465846FFF7ECFCBC
:1025100069A3D3E90023FFF773FC02460B4640464C
:102520004946FFF759FC8046894602460B46FFF7AD
:1025300067FCCDE90A010BF2FF3B00210022CDE947
:1025400008124FEA0B5309930023089342464B4667
:1025500040464946FFF72CFCCDE90E0142464B466A
:1025600000204FF08041FFF737FC8046894600226B
:102570005C4BDDE90A01FFF769FC00225A4BFFF7CB
:1025800017FC02460B46DDE90A01FFF75FFC00225B
:10259000564BFFF70DFC02460B46DDE90A01FFF73B
:1025A00055FC02460B4640464946FFF701FC0246F1
:1025B0000B46DDE90E01FFF749FC00224C4BFFF70B
:1025C000F7FBDDE90823FFF71BFC80468946CDE9D0
:1025D0000889DDE90623FFF71DFD50B30AF1FF3A34
:1025E0000022414B40464946FFF730FCCDE9080147
:1025F0001FE01E9B04931D9B03931C9B02939DED68
:102600001A7B8DED007B33463A462946204600F082
:1026100003F911B0BDE8F08F9FED297B8DED067BAE
:102620001A9B06931B9B03F10043079316E74FF099
:10263000000A0AF16303C62B27D84FF004081E9B3B
:1026400013F4006F5FD0DDE9081213460B4313D07B
:102650001DA3D3E90023DDE90601FFF7C7FC00282D
:1026600000F0B4801AA3D3E90023DDE90601FFF7E7
:1026700095FC002800F0AA801C9B53453ADDA3EB93
:102680000A0A0AF1FF331C9336E04FF00508D6E73B
:10269000FB799F501344D33FB3C8608B288AC63F51
:1026A00061436F63A787D23F71A379094F930A40B3
:1026B0001655B5BBB16B0240EF39FAFE422EE63F2C
:1026C00000000000000000002D431CEBE2361A3F22
:1026D0000000000080842E41FFFFEF7F0000F83FE4
:1026E0000000E03F00002C400000244000001840A3
:1026F0000000F03F00231C931E9B43F480631E9355
:102700004FF00008C2461D9B984569D2A3EB08090B
:102710001E9B13F0020B04D0B8F1000F01D04FF054
:102720000009BAF1000F07D0DDE90823DDE9060151
:10273000FFF78CFBCDE9060100220023DDE91A0139
:10274000FFF72CFC00284ED11E9B23F4006304935A
:10275000CDF80C901C9B02939DED067B8DED007BCC
:1027600033463A462946204600F056F8B8F1000FA5
:102770003FF44FAF1E9B13F0200F3CD04FF0450CA1
:1027800000F101093346024629466046A0478AEA1D
:10279000EA72A2EBEA720523059308F1FF33049372
:1027A000002303930A2302934FEADA700190009208
:1027B00033464A4629462046FFF771FDBBF1000F1C
:1027C0003FF427AF0246DDF874901EE01C9B002BFF
:1027D00099D00D9B002B96D01C9B013B1C9392E73C
:1027E0004FF0000994E7DDE90601024601F10043DC
:1027F000CDE90623A8E74FF0650CC1E702F1010817
:10280000334629462020A0474246D31B4B45F5D3EB
:102810001046FEE6000000002DE9F04F2DED028B82
:1028200095B007900A9192469B46DDE92089229D4A
:1028300042464B4640464946FFF79EFB002835D1AD
:102840004FF0FF326FF4801340464946FFF7A6FB76
:1028500000283AD14FF0FF329F4B40464946FFF7E0
:10286000D9FB002840D198A3D3E90023404649462C
:10287000FFF7D0FB00284FD195A3D3E900234046B2
:102880004946FFF78BFB002846D100220023404633
:102890004946FFF783FB00284CD100230B93249B70
:1028A00013F4806F00F0B780002456E0249B03935C
:1028B000239B029303230193884B00935B4652466C
:1028C0000A990798FFF710FC37E1249B0393239B99
:1028D000029304230193824B00935B4652460A996C
:1028E0000798FFF701FC28E1249B13F004030FD0A5
:1028F0007C4A7BB10423249903912399029101938B
:1029000000925B4652460A990798FFF7EDFB14E1E7
:10291000754AEEE70323EEE7249B0493239B03937E
:102920000295CDE900895B4652460A990798FFF760
:1029300063FD02E142464B4600200021FFF74CFABE
:102940008046894601230B93A9E704F150036B44A9
:10295000302203F8202C013D01341F2C01D8092D11
:10296000F3D840464946FFF7E3FA0646FFF7BCFABC
:1029700002460B4640464946FFF72EFA5B4B03EBF7
:10298000C50393ED008B53EC182BFFF739FA024681
:102990000B46CDE90823FFF7DDFA0746FFF7B6FA45
:1029A00002460B46DDE90801FFF716FA02460B4620
:1029B000CDE9082300224E4BFFF72CFB68B301370B
:1029C0003846FFF7A3FA02460B4651EC180BFFF707
:1029D000F9FA08B1013600276DBB3046FFF784FADB
:1029E00002460B4640464946FFF7F6F90746884639
:1029F00000223F4BFFF7D2FA00284CD100223C4B7B
:102A000038464146FFF706FB002844D116F0010F77
:102A100041D001363FE0062546E70022344BDDE990
:102A20000801FFF7BBFA0028D6D117B117F0010F44
:102A3000D2D00137D0E71F2C17D8013D2D4BA3FB77
:102A40000723DB08194603EB8303A7EB4303621C50
:102A5000303304F150000DEB000404F8203C092F42
:102A600002D90F461446E6E714461F2C0AD86B1EFF
:102A700045B104F150026A44302102F8201C1D4681
:102A80000134F2E71F2C06D804F150036B442E22C8
:102A900003F8202C01341F2C31D8174A82FB063250
:102AA000F317C3EBA2031A4603EB8303A6EB43031E
:102AB000611C303304F150000DEB000404F8203C9D
:102AC0001646DAB10C46E6E70000000065CDCD41C0
:102AD0000000000065CDCDC1FFFFEF7FF89700102B
:102AE000FC970010F0970010EC9700100898001069
:102AF0000000E03FCDCCCCCC676666660C46249BDC
:102B000003F00303012B1DD01F2C09D80B9B002BB6
:102B100035D004F150036B442D2203F8202C0134EE
:102B2000249B0393239B029301940CAB00935B467D
:102B300052460A990798FFF7D7FA15B0BDEC028BF9
:102B4000BDE8F08F239BB3B10B9B1BB9249B13F003
:102B50000C0F12D0239B013B2393194606E004F18E
:102B600050036B44302203F8202C01348C42CBD22A
:102B70001F2CF4D9C8E72399F8E72399F6E7249B9B
:102B800013F0040F07D004F150036B442B2203F819
:102B9000202C0134C4E7249B13F0080FC0D004F1AB
:102BA00050036B44202203F8202C0134B8E700BF07
:102BB0002DE9F04F8FB0074616460D938846002941
:102BC00000F0248300240D9B1878002800F0208357
:102BD000252809D0651C334622464146B8470D9B3F
:102BE00001330D932C46EEE701330D9300250D9B29
:102BF0001978A1F12002102A0AD8DFE802F038097A
:102C0000093D0909090909090933092E090929009A
:102C1000A1F13003DBB2092B33D92A2936D00023A6
:102C20000A930D9B1A782E2A40D04FF0000B0D9A74
:102C30001378683B122B77D8DFE803F06476D376FD
:102C40005676767676767676727676767676D8005C
:102C500045F0010501330D93C9E745F00205013345
:102C60000D93C4E745F0040501330D93BFE745F02C
:102C7000080501330D93BAE745F0100501330D93B4
:102C8000B5E70DA8FFF71EFA0A90CAE7189B1A1DB0
:102C900018921868002804DB0A900D9B01330D93ED
:102CA000BFE745F0020543420A93F6E745F4806525
:102CB0005A1C0D925A78A2F13003DBB2092B04D9C9
:102CC0002A2A07D04FF0000BB1E70DA8FFF7FAF959
:102CD0008346ACE7189B1A1D18921B6823EAE37B16
:102CE0000D9B01330D93A2E745F48071531C0D93A6
:102CF00052786C2A01D00D4616E045F44075013338
:102D00000D9311E045F08001531C0D935278682A11
:102D100001D00D4608E045F0C00501330D9303E0F6
:102D200045F4807501320D920D9B1878A0F12503B2
:102D3000532B00F26182DFE813F054025F025F025E
:102D40005F025F025F025F025F025F025F025F027B
:102D50005F025F025F025F025F025F025F025F026B
:102D60005F025F025F025F025F025F025F025F025B
:102D70005F025F025F025F025F027401540174012F
:102D80005F025F025F025F025F025F025F025F023B
:102D90005F025F025F025F025F025F025F025F022B
:102DA0005E005F025F025F025F025F025F025F021E
:102DB0005F025F025E009B015E00740154017401BA
:102DC0005F025E005F025F025F025F025F025E0001
:102DD00039025F025F02D4015F025E005F025F02A0
:102DE0005E0045F4007501320D929DE745F4807553
:102DF00001320D9298E7782809D058283AD06F28E8
:102E00003AD062283AD025F010050A2300E01023BA
:102E1000582835D0692803D0642801D025F00C0546
:102E200015F4806F01D025F0010569282BD06428A6
:102E300029D015F4007F40F0968015F4807F40F093
:102E4000AE8015F0400F00F0BF80189A111D189148
:102E5000127805950A990491CDF80CB002930023DD
:102E6000019300923346224641463846FFF717FA4F
:102E7000044629E01023CBE70823C9E70223C7E76C
:102E800045F02005C6E715F4007F21D115F4807FB9
:102E900042D115F0400F58D0189A111D1891127890
:102EA00082EAE271A1EBE27105950A980490CDF8EF
:102EB0000CB00293D20F0192009133462246414654
:102EC0003846FFF7ECF904460D9B01330D937AE683
:102ED000189A073222F0070202F10801189151688E
:102EE00012680846002913DB08950A9D0795CDF85E
:102EF00018B0049300230593C90F0291009201902A
:102F00003346224641463846FFF713FA0446DBE7CC
:102F1000524261EB4100E7E7189A111D18911268BF
:102F200082EAE271A1EBE27105950A980490CDF86E
:102F30000CB00293D20F01920091334622464146D3
:102F40003846FFF7ACF90446BEE715F0800F05D010
:102F5000189A111D1891B2F90020A1E7189A111DB5
:102F6000189112689CE7189A073222F0070202F1C2
:102F70000801189108950A990791CDF818B0002119
:102F8000049305910291D2E90023CDE90023334651
:102F9000224641463846FFF7CCF9044694E7189A92
:102FA000111D189105950A990491CDF80CB0029362
:102FB0000023019313680093334622464146384666
:102FC000FFF76DF904467FE715F0800F04D0189ADB
:102FD000111D189112883CE7189A111D189112685A
:102FE00037E746281AD0189B073323F0070303F16D
:102FF0000802189204950A9A0392CDF808B0D3E912
:103000000023CDE900233346224641463846FFF7E8
:1030100003FC04460D9B01330D93D4E545F02005D8
:10302000E1E7672801D0472801D145F4006545282C
:1030300001D0472801D145F02005189B073323F024
:10304000070303F10802189204950A9A0392CDF837
:1030500008B0D3E90023CDE9002333462246414698
:103060003846FFF7C9F904460D9B01330D93AAE5D5
:1030700015F002051FD04FF001091898031D189391
:1030800004F1010A3346224641460078B847BDB9EB
:103090000D9B01330D93544695E502F1010A334629
:1030A00041462020B8474B46524603F101099B4553
:1030B000F3D81446E1E70123DDF828B02246F4E70F
:1030C0005246DDF828A006E0551C33464146202034
:1030D000B847A1462A4609F10104CA45F4D89246E8
:1030E000D6E7189B1A1D1892D3F800A0BBF1000F69
:1030F0001ED14FF0FF33D14602E009F1010913461A
:1031000099F8002012B15A1E002BF6D1A9EB0A093A
:1031100015F480630B9302D0D94528BFD94615F02A
:1031200002030C9306D022465C46B3460B9E1DE07C
:103130005B46E0E722460A9C4B4607E002F10109A4
:10314000334641462020B8472B464A465D1C9C42E8
:10315000F4D8A9465C46B3460B9E07E01C460AF12C
:10316000010A551C5B464146B8472A469AF80000BA
:1031700020B1002EF3D0631E002CEFD114465E4622
:103180000C9B1BB90D9B01330D931CE5DDF828A0AA
:1031900006E0551C334641462020B847A1462A4642
:1031A00009F10104CA45F4D81446EBE745F02105BE
:1031B000189B1A1D18921B68059508220492CDF8D9
:1031C0000CB0102202920022019200933346224654
:1031D00041463846FFF763F804460D9B01330D93D3
:1031E000F1E4651C3346224641462520B8470D9B35
:1031F00001330D932C46E6E4651C334622464146D6
:10320000B8470D9B01330D932C46DCE4074FD9E4FE
:10321000B44201D3721E00E02246334641460020EC
:10322000B84720460FB0BDE8F08F00BFB5200010B2
:1032300000B585B002900391009313464FF0FF3222
:1032400002A90348FFF7B4FC05B05DF804FB00BF1A
:10325000B720001000BEFDE70346094A126842B1DC
:10326000074A10680344074A934206D8044A136089
:103270007047034A04491160F2E74FF0FF3070478E
:1032800058F2032000000820DCF6032008B5FFF701
:10329000E1FF000000B583B08C46194613465AB1D1
:1032A000074A5BB10193009263460246054800F06D
:1032B000B1F90120FFF7CEFF034AF2E7024BF1E735
:1032C00058980010689800106498001010B5EFF33B
:1032D0000583DBB203B100BEFEF744FC044C02E000
:1032E00054F8043B9847034B9C42F9D310BD00BFF0
:1032F000A4520010A852001008B5034608461B68E7
:103300001146984708BD0000F8B507460D46164619
:10331000437D13B1002420460CE003681146284683
:1033200098472EE03B7D10E03B6802211548984706
:10333000601C0134B44214DA002CF3DD2B1913F8AD
:10334000013C0D2B14BF002301232A5D0A2AF0D172
:10335000002BEED1A042E7DA3B68211A28449847B7
:10336000E2E7B04203DA3B68311A28449847002E5E
:1033700007DD354415F8013C0D2B14BF0023012354
:103380003B75F8BDEC98001038B50368BBB1054635
:103390000B4B1C6806E0294651F8042B2046FFF72A
:1033A000B3FF24694CB12368002BFAD0054B1B688E
:1033B000002BF0D0A342F4D1EDE700232B6038BD01
:1033C000B4210020BC21002038B505460C460B680E
:1033D000802B05D021684B1C23600C44257138BD1F
:1033E0000846FFF7D1FFF5E708B5FEF7EFF8074A03
:1033F000821841F10003002B03DB054801F01CFF9C
:1034000008BD4FF0FF326FF00043F6E740420F0077
:10341000681F002008B5024801F0FEFE08BD00BF8D
:10342000681F00202DE9F04383B006460D46904604
:103430001C46FFF7D9FF8146B5F1FF3F04D044B1E8
:10344000174F184B1C6807E0304601F049FD054650
:10345000F5E7154FF5E72469BCB12368002BFAD0D6
:10346000124B1B680BB1A342F5D12A4631462046C8
:10347000B847B8F1000FEED00A238DF807300122CB
:103480000DF107012046B847E5E7B9F1000F03D178
:10349000284603B0BDE8F083FFF7BCFFF8E700BFA4
:1034A00009330010B4210020F9320010BC210020A3
:1034B0002DE9F04106460D4690461F4623E0A368DD
:1034C00023B1294630469847002823DC246934B1CB
:1034D000114B1B68002BF2D0A342F7D1EFE70F4B43
:1034E0005B6A9F4209D80D4A926A42450ED29F42BA
:1034F00001D0012302E0002300E0002343B90120B2
:103500000021FEF76BF8064B1C68E0E70123F5E7A6
:103510006FF00100BDE8F081BC21002000000B40ED
:10352000B4210020084A01E003F1100213683BB106
:103530008342F9D131B903691360002303617047F5
:1035400001B11060704700BFB421002010B5054BD9
:103550001C6801E0984724691CB16368002BF9D10D
:10356000F9E710BDB421002010B582B00446FEF783
:103570002DF8221841F10003002B0ADB012101A8DC
:10358000FFF796FF002802DB40B19DF8040002B06F
:1035900010BD4FF0FF326FF00043EFE7034B044ADA
:1035A00040F203110348FFF775FE00BF9898001022
:1035B000D09800109C98001038B5054601F090FC9A
:1035C000044601231A4601462846FFF72BFFFFF762
:1035D000BDFF204638BD000070B5A2B004460E46BF
:1035E000FFF702FF0546002301933346224601A957
:1035F0000748FFF71DFE044601A8FFF7C5FEFFF7C9
:10360000A5FF15B9204622B070BDFFF703FFF9E70B
:10361000C93300100FB400B583B004A951F8040BEE
:103620000191FFF7D9FF03B05DF804EB04B07047D8
:1036300030B583B086460C464FF0000C13E00D23E6
:103640008DF8073000200DF10701E0B9936913F000
:10365000200FFBD10B4613F8011B116001301946F6
:10366000F3E70CF1010CA4451FDA114B1A681EF8A0
:103670000C50104B9A4214BF002301230E4931F91C
:103680001330AB42DBD08DF8075000200DF107015D
:103690000028E6D1936913F0200FFBD10B4613F8F5
:1036A000011B116001301946F2E703B030BD00BFC5
:1036B000A4F6032000800740A0F6032070B582B076
:1036C00005460E46002104E09DF807308EF80030D4
:1036D0006146B14218DA164B1A68906910F0100072
:1036E00012D101F1010C05EB010E0DF107010028CB
:1036F000EAD1936913F0100FFBD114680B4603F85D
:10370000014B01301946F2E70A4B1B684BB1084BDD
:103710001B6850229A635A6B02F0380203F58153FA
:103720005A6111B1084602B070BD6FF00201F9E7AD
:10373000A4F603206C21002008B5054B1B6833B1AB
:10374000044A126800219163034A1068984708BD33
:103750006C210020A4F6032070210020034B1A687E
:10376000936913F0080FFBD1704700BFA4F6032044
:1037700038B51C4B1B681C4A934206D0212410B15B
:103780001A4A12681AB1C8B138BD2224F7E7174B9C
:103790001860174B196017492046FDF7ABF9012156
:1037A0002046FDF795F90F4B1B6850229A635A6B20
:1037B00002F0380203F581535A61E5E70B4A1268BB
:1037C000002AE1D000259D6329462046FDF780F9B7
:1037D00008492046FDF7B8F9044B1D60044B1D60F5
:1037E000D2E700BFA4F60320008007406C21002030
:1037F000702100203937001038B50D461C46104B9B
:103800001860101E05DB10F0020F15D00B21FDF71C
:103810002FF8002C06DB14F0020F0FD00B212046EE
:10382000FDF726F82946064B1868FDF781FF0121B0
:103830000448FFF777FE38BD0221E8E70221EEE7F2
:10384000A4F603200017002008B5074B1B78074B90
:103850001B78074B1B78012300224FF4E131054808
:10386000FFF7CAFF08BD00BF789D00107C9D0010C7
:10387000809D001000000740800100F1A0407047CB
:1038800000F01F00704700BF002814BFC020402078
:1038900009B142F0100202F01F02104340F4005040
:1038A000704700BF01F01F0100F0070041EA40101F
:1038B00040F4C040704700BF01EB410100EBC10183
:1038C000C1F8D820704700BF01EB410100EBC101F6
:1038D000D1F8CC00C00F70470123426818318B40EB
:1038E000134214BF01200020704700BF4FF0004377
:1038F00001EB4101C900D031084400F5805003605C
:1039000003607047000C704780B27047401A00286F
:10391000D4BF00200120704703684B6101607047ED
:1039200039B10B461A465B69002BFBD10368536122
:103930000160704703681BB10022596901605A6138
:1039400018467047036823B15A6902601AB1002211
:103950005A611846704718460A607047054B82B294
:103960005B89013B93428EBF013000F58030801AA5
:10397000704700BFB0F60320036803B330B4146887
:103980001D68A4EB050CBCF1000F14DD0D68286860
:10399000201A002807DD6A610A6030BC7047196888
:1039A000611A002903DD18465B69002BF7D15361CA
:1039B00030BC42617047536130BC026070470A609E
:1039C000036853610260704710B5054B054C1B68D6
:1039D000A0619847044BDB8913FB00F0E08310BD26
:1039E0005C21002014F60320B0F60320012030B53E
:1039F0004FF00314097BB3F80AE0013901FA00FC27
:103A000084444FEA0C2C1FFA8CFC4CEA0E0EA3F8EF
:103A10000AE0B3F80CE049024CEA0E0EA3F80CE001
:103A2000B3F80EE089B241EA0E0EA3F80EE0B3F847
:103A300012E00F4D41EA0E0EA3F812E0B3F816E0C3
:103A400041EA0E0EA3F816E0B3F81AE04CEA0E0CA9
:103A5000A3F81AC0B3F81EC041EA0C0CA3F81EC0AC
:103A6000B3F806C041EA0C01D980C2E9015430BD67
:103A70001817002008B54FF41571024B024A03488D
:103A8000FFF708FC38990010B49A001060990010F4
:103A900008B540F21D51024B024A0348FFF7FAFBFA
:103AA000A4990010DC9A00106099001070B59C4633
:103AB0000124164682B000940CF10D04054624033F
:103AC00008460CF10B0144EAC114102300223146D0
:103AD00000F069FC24F47E046EB144F438144FF411
:103AE00080324FF08073284604492A60C5E90141BD
:103AF000EB6002B070BD44F40034F0E700000E400B
:103B00002DE9F0416A4D82B06A6BEFF3108072B616
:103B10001368002BFCD0BFF35F8F95F83D30002B6E
:103B20005AD1AB6B002B40F0BA8095F83C30002B9B
:103B300040F0BC806A6BBFF35F8F136080F3108826
:103B40001C460193EA68EFF3108772B61368002BE6
:103B5000FCD0BFF35F8F2B69002B6ED0EB68BFF3F7
:103B60005F8F00221A6087F31088E4B12A68EFF3B0
:103B7000108772B61368002BFCD0BFF35F8F4D4ED9
:103B8000013C31464C48FFF7DDFE013C014601A8EF
:103B9000FFF7C2FE631CF4D12B68BFF35F8F0022D6
:103BA0001A6087F31088019999B1EA6AEFF31084DB
:103BB00072B61368002BFCD0BFF35F8F3F48FFF74E
:103BC000AFFEEB6ABFF35F8F00221A6084F31088A8
:103BD00040BF02B0BDE8F0814FF0A043D3F80C1411
:103BE000AA6BCF0712D5012142EA010432F001028B
:103BF000C3F80C1414D0D3F80C24D20705D5C3F89D
:103C00000C14D3F80C24D607F9D4AC636B6BBFF358
:103C10005F8F00221A6080F3108802B0BDE8F08147
:103C2000002395F83C406A6BAB63AB87BFF35F8FB3
:103C3000136080F31088019384E76E6A002E8DD0A4
:103C4000DFF880800BE041461D48FFF77BFE3146E0
:103C500001A8FFF761FE6E6A002E3FF47FAFAB69EB
:103C600031681846FFF752FE0028ECD18B427FF4F2
:103C700075AF1449081FFFF765FE2B681A68002A04
:103C8000FCD0BFF35F8F0B493246081FFFF774FE6D
:103C90002B68BFF35F8F002119602E615EE740F251
:103CA0005221094B094A0A48FFF7F4FAFFF7E2FEEE
:103CB00014F603201CF6032018F6032044F6032014
:103CC00038F603203CF60320C8990010B49A00107F
:103CD00060990010000000002DE9F04F334F44229E
:103CE0009BB081460C463846002101F089F802203D
:103CF000FCF748FE03460420FB60FCF743FE7863B4
:103D00000320FCF73FFE0346DFF8C0800520FB627E
:103D10004546FCF737FE4E464FF0FF3338607B6177
:103D20000FCE0FC53368C8F800402B609BB213B9A3
:103D30000123A8F81030B9F808301D4A5B08033B8E
:103D40009380002101221B48FDF762F84FF4347183
:103D50000120FEF78DF9B426DFF874B0CBF804002B
:103D6000ABF80A600BF118050BF5C07A45F8045C56
:103D70004FF434710120FEF77BF9183525F80E6CED
:103D8000554545F8140CF1D10025C7F830B0CBF8F3
:103D90007C51BFF35F8F084B084E1B78084B1B7894
:103DA000084B1B78084B1B7819E000BF14F6032062
:103DB00018170020A8F60320849D0010DFFF0300E1
:103DC000889D00108C9D0010909D0010B0F603207F
:103DD00090F403200135122D4FEA56060AD0F00761
:103DE000F8D5284606210135FCF742FD122D4FEA91
:103DF0005606F4D10520FDF73DFD2268DFF8E8B254
:103E0000B0FBF2F3ABF800309BB202FB03F383424A
:103E100040F03D81D9F804502B681A79202A00F22D
:103E20003A81D3E9001A0AAE5200304600F072FF20
:103E300033469D4A49462846CDE9046AAD68A847FD
:103E40009A4804A900F097FAD9F80430984A1B68F8
:103E500010701B79002B00F01781B44600214FF041
:103E6000FF3542F2C4093CF8022B4A4508BF0D4613
:103E700001318B42F7D101228B4B3D640021C5B249
:103E80008C481A74FFF7C6FBD8F804300022DF68AC
:103E900086492B4606A8B847BBF800302A46D80109
:103EA0005B08C0B21B0443EA0023002106937F484D
:103EB00006AB00F0C7FA804A804B257E0592049637
:103EC00093E8070086E80700002D40F0C6804CF21A
:103ED00004034CF244074CF201054FF440460393AF
:103EE000DFF8C89104A9484600F045FA80464FF033
:103EF000010A734B03216F4883F80080FFF78AFBA8
:103F00009FED677BBBF800305FFA88F8DA0123FA8F
:103F10000AF3D2B21B0443EA0223069308F1050315
:103F200008EB0A021B0343EAC2134846032110228E
:103F3000CDF800A0079302238DED087B00F033FA43
:103F4000424606AB4846032100F07CFA00210F20D0
:103F5000FCF7CCFE40211020FCF7C8FE40210A20CF
:103F6000FCF7C4FE504600F01BF94FF01908002082
:103F70004FF0A0414CF2440E524BB4F80AC0C3F8C3
:103F800004A4DFF868A1A38922890860C1F804A00D
:103F90008860C1F81080C9F820E1A17D9A1A814299
:103FA000A17B13BF834681464FF0804B4FF0804981
:103FB000814214BF80464FF00108A188A2EB0C0299
:103FC000A2EB0102ACF10701B4F806A0208A4FEA87
:103FD0000141B4F812E041EA4871504446EA48769B
:103FE00045EA487541EA070837498644A48AA3EBA5
:103FF0000203C1E9020E46F4803645F48035A2F191
:104000000300A3EB0C03C1E900A4C1E90596C1E9D3
:104010000758C1F810B047EA0040A3F103032CD0C1
:10402000039A40F0005042EA03444FF020421B0440
:1040300043F000531F43254B4862C3E90180012030
:1040400022438A62C1F83090214ACF6221491D6023
:10405000DF6011601BB0BDE8F08F1F4B1F4A4DF2AF
:104060004407CDE90A231E4B4DF201050C934DF296
:1040700004034FF45046039332E7039A42EA0344A1
:104080004FF000421B04D5E74FF0FF35F3E6014641
:104090001448FCF713FCFFF7FBFC00BFAFF30080F4
:1040A00000000E00100020204421002000002050BD
:1040B000D7F60320709A001006FF0100249B001021
:1040C000D6F60320002000505CF60320A421002037
:1040D0005C210020AD0900202D600370A090F060ED
:1040E00042A044101C9A0010D2F603201000205069
:1040F0000168FFF7F1BD00BFF8B51B4E337883426E
:1041000000D1F8BD80224FF4407C184B184F194D58
:104110000146C7F800C004461A604FF4C230FCF7ED
:10412000BBFC0921284600F015F94FF410622B68FA
:1041300023F009032B60104B1A609CB10F4B104AFF
:104140005B6812781B7903F01F0313440D4AC5F80E
:10415000D830137803F01F03C5F820312B6843F0E3
:1041600009032B603470F8BDD8F603207C21205061
:10417000702120500000205000202050B0F6032075
:10418000D7F60320D6F6032008B50146024A0348B5
:10419000FCF7C2FB08BD00BF309B0010D0F6032027
:1041A00038B50446002501E00135640834B114F047
:1041B000010FF9D02846FFF7E7FFF5E738BDD0F843
:1041C000683113B111F0010F05D133B911F0040FAB
:1041D00005D0002070470020704701207047012063
:1041E000704708B5C979FFF7EAFF08BD70B5044606
:1041F0000D461646FFF7F5FFD0B195F90530002BB7
:1042000001DBB34217D104F12F4000F56000000D2F
:104210000A4B53F820102A7901239340013B03FAFB
:1042200006F20A4201D1002070BD6FF00800FBE7E2
:104230006FF00A00F8E76FF00A00F5E76021002050
:10424000F8B506460D461746FFF7D0FF20BB0346DC
:1042500006E003EB070C0CF1120C46F82C4001337E
:104260002979994207D92A6832F8134014F4604F2B
:10427000EFD13C44EDE7012303FA01F1013906F1E6
:104280002F4606F56006360DB940044A52F826302E
:10429000194342F826103846F8BD00BF60210020BF
:1042A00010B50A79202A19D800F12F4000F56000D6
:1042B000000D154B53F8204001239340013B91F929
:1042C0000510002910DB0846C2F12002914218DCDB
:1042D0008B40234201D04FF0FF3010BD0B4B0C4AF6
:1042E00043210C48FEF7D6FFC2F12000002805DB71
:1042F00003FA00F22242F0D00138F7E76FF008002D
:10430000EBE74FF0FF30E8E760210020549B0010FE
:10431000189C0010809B001008B500F12F4000F59C
:104320006000000D02280AD0012806D0054A01EBE2
:1043300080010548FCF7F0FA08BD044AF7E7044A93
:10434000F5E700BFB49B001078210020F49B00101B
:10435000D09B001070B506460C46002501E00135E3
:1043600064083CB114F0010FF9D029463046FFF73C
:10437000D3FFF4E770BDF8B505460E46FCF7B6FA74
:10438000074631462846FFF78BFF041E04DA3846FD
:10439000FCF7B8FA2046F8BD224631462846FFF71A
:1043A0004FFF0446F3E7F0B59DF81470D0F868416C
:1043B000121B1F2A43D801EB410400EBC404D4F8BC
:1043C000DC60D4F8CC5001EB4104E400C834044470
:1043D00004F540544FF4003CC4F804C017B14FF04A
:1043E0001F0E15E04FF0000E12E0540144F0A054EF
:1043F00001EB410C00EBCC0CCCF8DC404EF46044FB
:1044000044F08004CCF8D840053B053202F01F028E
:10441000052BEAD8520142EA836201EB410400EB2A
:10442000C404C4F8DC204EF4604343F08003C4F8B5
:10443000D830C4F8DC60C4F8CC500020F0BD6FF078
:104440000400FBE730B589B086468C461446026806
:10445000012101FA0CF122EA01020260002B38D09E
:104460001A4619680CEB4C0300EBC303C3F8C810E1
:104470009168C3F8D0105168C3F8CC10D268C3F863
:10448000DC200CEB4C03DB00D033734403F580538A
:104490004FF000421A601A604FF0013303FA0CF338
:1044A000CEF808300CF10402012303FA02F20EF5F3
:1044B00000510A600CF1080293400B6004F01F04E5
:1044C0000CEB4C0C0EEBCC0CCCF8D840002009B017
:1044D00030BD04AB002204920592069207924FF47D
:1044E000803204924FF4F83205924FF48022069203
:1044F0004FF4402206926D460FCB85E80F000CEB7F
:104500004C030EEBC303C3F8C8004FF44022C3F8BA
:10451000D020C3F8CC100022C3F8DC20B1E703BDE3
:1045200010B50446FDF726FBA04710BD4FF05043E1
:104530001B6D13F0020FF9D04FF05043586540BF88
:10454000704700E020BF4FF050431B6D13F0010F88
:10455000F8D04FF05043986D70472DE9F04186B088
:1045600004460F4690461920FCF786FA06460021BD
:104570001920FCF7ADFA002500950195012302935F
:10458000CDF80C800497059400E0002506AB03EB02
:10459000850353F8184C9CB12046FFF7C7FFFFF77F
:1045A000D0FF8442F1D10135052DEFD931461920D4
:1045B000FCF78EFA06B0BDE8F0814FF050439B6DDA
:1045C0004FF050431B6D13F0010FF6D140BFE3E7EE
:1045D00008B512F0030F11D122F003028B180A4A1A
:1045E000926843F80C0C43F8081C084943F8041C73
:1045F000A3F10C010648FFF7B0FF08BD054B064AC2
:104600008E210648FEF746FE00ED00E02145001031
:104610001F450010C49C0010E09C0010889C0010F6
:1046200008B5064A064B9A4205D819464FF400626F
:10463000FFF7CEFF08BD4FF0FF31F7E7000008207D
:10464000000808202DE9F84304460E46008804308F
:104650004000FDF7EFFCB4F9023023F0170343F0FC
:1046600011034380466023880380330EC6F3074E50
:10467000C6F30725FF2B03D15FFA86FC002121E05A
:104680001E4B1F4A16211F48FEF704FEFF2F2FD096
:10469000C7F580760EFB06F203FB072205FB06F347
:1046A00009FB0733DB0A0CFB06F608FB076602F47E
:1046B00078429B019BB2134343EAD6230A1D20F89C
:1046C0001230013123888B4215DD04EB81035E68D3
:1046D000370EC6F30743C6F307295FFA86F80029A9
:1046E000D4D1002FD2D1428842F008024280CDE7D7
:1046F0004FF48077CCE7BDE8F88300BF049D00103D
:10470000449D0010109D0010024B0A460146186897
:1047100000F002B82417002038B5A1FB02145CBBDE
:1047200000F03EF80546C0B150F8042C22F0030218
:10473000043A242A13D8132A0AD91B2AC0E90044B0
:1047400012D9242AC0E9024411D000F1100200E07D
:1047500002460023C2E900339360284638BD214653
:1047600000F04EFB284638BD00F10802F1E700F1E9
:104770001802C0E90444ECE700F004F80C2300251B
:104780000360EAE7014B1868704700BF2417002058
:10479000024B0146186800F003B800BF2417002040
:1047A00001F10B03162B2DE9F04F054683B024D8F9
:1047B000102900F2F58000F075FB10241822022069
:1047C000C04E32445368A2F108018B4200F0EF80E2
:1047D0005A68284622F00302D3E902411A44E160F4
:1047E0008C6003F10804536843F00103536000F048
:1047F0005FFB204603B0BDE8F08F002B23F00704D9
:10480000C0F2CE80A14200F2CB8000F04BFBB4F5A9
:10481000FC7FC0F0C281630A00F03381042B00F2F8
:104820009881A30903F1390003F13807C300A54EAD
:104830003344A3F1080C5B689C4507D1BCE0002918
:1048400080F25081DB689C4500F0B6805A6822F007
:104850000302111B0F29F2DD33693846DFF87CE2D1
:10486000734540F0AF8083100121726899409142F6
:1048700040F2D180B7687B6823F00309A9EB0403F9
:104880000F2B02DD4C4540F20C818F4B07EB090BDF
:104890001B6804EB03088D4B1A68013200F0CB81D2
:1048A00041F20F024244DFF8388202EA080841462A
:1048B000284600F003FBB0F1FF3F8246834B00F037
:1048C000A981B74202D0834500F2A481804AD34532
:1048D00011684144116000F0A0811868013000F0B7
:1048E000A781AAEB0B0B594411601AF0070300F0E3
:1048F000AC81C3F10801284601938A4441F20801C2
:10490000D044C91AA1EB0801C1F30B0B594600F0C2
:10491000D5FA421C019B6E4A00F0DE81A0EB0A0032
:1049200000EB0B08106848F00103B742C6F808A076
:104930000BEB0001CAF80430116000F0A981B9F155
:104940000F0F40F2A7817B68A9F10C004FF0050C16
:1049500020F0070003F0010303430F287B6007EBFF
:104960000003C3E901CC00F2AD81DAF80430574608
:10497000584A1068884238BF1160574A1068884208
:1049800038BF116023F003084445A8EB040302D8A4
:104990000F2B00F386802846002400F089FA28E7D0
:1049A00000240C2320462B6003B0BDE8F08FD368B1
:1049B0009A427FF40DAF02303369DFF820E173458E
:1049C0003FF451AF596821F003010A1B0F2A00F38D
:1049D000E880002AC6E904EE58DAB1F5007F80F0DD
:1049E00093804FEAD10C012249090CF1010C8A4055
:1049F000716856F83C700A4306EBCC0108397260C6
:104A0000C3E9027146F83C30FB60831001219940F4
:104A100091423FF62FAF114205D120F0030049002B
:104A200004301142FBD006EBC0098046CC46DCF8CE
:104A30000C70BC4507D198E0002B80F29F80FF6886
:104A4000BC4500F092807A6822F00302131B0F2B02
:104A5000F2DD391944F0010428467C6043F001047A
:104A6000D7E902C5CCF80C50C5F808C0C6E9041156
:104A70004C6007F10804C1E902EEBB5000F018FADF
:104A8000B7E64FF4007340203F27D0E6194403F106
:104A9000080428464B6843F001034B6000F008FA15
:104AA000A7E63A1944F0010443F0010328467C606C
:104AB00007F10804B260536000F0FAF9204603B031
:104AC000BDE8F08F501B002040210020581F00201F
:104AD00010210020382100203C210020581B0020FC
:104AE00000F0FFFF1A4403F108042846D3E90261ED
:104AF0005368F16043F001038E60536000F0D8F911
:104B0000204603B0BDE8F08FB1F5206F4FEA512287
:104B100059D3142A00F2AA8002F15C075B32FF002D
:104B200006EB070CF759ACF1080CBC4500F0868089
:104B30007A6822F003028A4202D9BF68BC45F7D1E5
:104B4000D7F80CC07268C3E9027CCCF80830FB606F
:104B50005BE7142B3DD9542B00F29080230B03F11B
:104B60006F0003F16E07C30061E608F101080CF164
:104B7000080C18F0030F7FF45AAF35E03A443C4676
:104B8000F9682846536843F00103536054F8083F1E
:104B9000D9608B6000F08CF92BE6E00804F1080284
:104BA0000EE628461D1944F001045C6042F0010441
:104BB000C6E904556C6003F10804C5E902EE5A50D9
:104BC00000F076F915E68A0902F139073832FF005C
:104BD000A6E703F15C0003F15B07C30027E659F881
:104BE00008394B4540F0928010F0030F00F1FF3080
:104BF000F5D1736823EA0103736049003FF43AAECC
:104C0000994203D936E6490008F104081942FAD05E
:104C1000404608E7B7687B68B4E6CBF30B00002892
:104C20007FF45BAEC844B76848F001037B609FE641
:104C3000C3F800A059E608F1100838E692100121E7
:104C4000914072680A4372607DE70AEB08012846CA
:104C500001934942C1F30B0B594600F02FF9431C55
:104C60002B4A019B7FF45AAE9B465BE6542A15D82B
:104C70000A0B02F16F076E32FF0051E7B3F5AA7F0E
:104C800015D8E30B03F1780003F17707C300CEE5F5
:104C900057466DE60123CAF804307CE6B2F5AA7FD8
:104CA00021D8CA0B02F178077732FF0038E740F2CB
:104CB0005452934221D8A30C03F17D0003F17C07E9
:104CC000C300B4E507F10801284600F087F9B7688A
:104CD0000F4A7B6811684BE6083B4FF0000B984485
:104CE000A8EB0A081EE640F25457BA420AD88A0CCA
:104CF00002F17D077C32FF0012E74FF47E737F20C4
:104D00007E2794E54FF47E777E2209E7736874E787
:104D100010210020844641EA000313F0030349D127
:104D2000403A23D30B6803604B6843608B68836011
:104D3000CB68C3600B6903614B6943618B69836115
:104D4000CB69C3610B6A03624B6A43628B6A8362FD
:104D5000CB6AC3620B6B03634B6B43638B6B8363E5
:104D6000CB6BC36340304031403ADBD230320BD39F
:104D70000B6803604B6843608B688360CB68C360DB
:104D800010301031103AF3D20C3205D351F8043BF5
:104D900040F8043B043AF9D2043208D0D2071CBFD1
:104DA00011F8013B00F8013B01D30B8803806046FA
:104DB000704700BF082A13D38B07B1D010F003034C
:104DC000AED0C3F10403D21ADB071CBF11F8013BBC
:104DD00000F8013BA4D331F8023B20F8023B9FE7E7
:104DE000043AD9D3013A11F8013B00F8013BF9D25A
:104DF0000B7803704B7843708B78837060467047F4
:104E000070B5860748D0541E002A3FD0CAB2034668
:104E100001E0013C3AD303F8012B9D07F9D1032CA3
:104E20002DD9CDB20F2C45EA052545EA054536D9E1
:104E3000A4F1100C03F1200E03F110022CF00F0668
:104E40004FEA1C1CB64442E9045542E902551032AF
:104E50007245F8D10CF1010214F00C0F04F00F0CA4
:104E600003EB021213D0ACF1040323F00303043369
:104E7000134442F8045B9342FBD10CF003042CB1C1
:104E8000CAB21C4403F8012B9C42FBD170BD64469E
:104E90001346002CF4D1F9E703461446BFE71A463F
:104EA000A446E0E7014800F09FB900BF0C210020B4
:104EB000014800F09BB900BF0C21002038B500224A
:104EC000064D044608462A60FEF7C6F9431C00D08A
:104ED00038BD2B68002BFBD0236038BDB8210020E3
:104EE00020F0030110F00300C0F1000051F8043B72
:104EF00000F1040C4FEACC0C6FF000021CBF22FA48
:104F00000CF213434FF0010C4CEA0C2C4CEA0C4C05
:104F1000A3EB0C0222EA030212EACC1204BF51F8FE
:104F2000043B0430F4D0C2F1000102EA0102B2FAFB
:104F300082F2C2F11F0200EBD2007047F8B5234F96
:104F40000C460646FFF7AEFFBA6840F6EF735568A9
:104F50001B1B1F4C25F003052B441C40A4F580545B
:104F6000B4F5805F07DB00213046FFF7A7FFBB6881
:104F70002B44984204D03046FFF79AFF0020F8BD3A
:104F800061423046FFF79AFF01300DD02D1B114BC7
:104F9000BA68304645F0010555601A68121B1A6060
:104FA000FFF786FF0120F8BD00213046FFF786FF9E
:104FB000BA68831A0F2BDEDD43F001030549536005
:104FC000054B1B68C01A0860D5E700BF501B0020C6
:104FD00000F0FFFF10210020581F0020002961D0A1
:104FE000F8B50C460646FFF75DFF7C4F54F8042CDD
:104FF000A4F10805B86822F0010105EB010CDCF80A
:105000000430604523F0030300F08B80D207CCF816
:10501000043032D454F8082C07F10800AD1A1144BA
:10502000AA6882426AD00CEB0304D4F804E0EC686E
:105030001EF0010FD460A26000F0978041F00103E0
:105040006B60CCF80010B1F5007F35D24A09CB086F
:105050000121013391407A68114307EBC302796063
:10506000083A57F83310C5E9021247F83350CD60BB
:105070003046BDE8F840FFF71BBF0CEB0302526857
:10508000D00710D4194407F10800DCF80830834237
:1050900073D0DCF80C20DA60936041F001036B60A0
:1050A0006950D0E7704741F00103B1F5007F44F843
:1050B000043CCCF80010C9D3B1F5206F4FEA51235E
:1050C00048D28B0903F1390003F13802C300F81804
:1050D000FB580838984259D05A6822F003028A4295
:1050E00002D99B689842F7D1D868C5E9023085603B
:1050F0003046DD60BDE8F840FFF7DABE0CEB030296
:105100005268D20763D40B443046DCE90212CA600D
:10511000916043F001026A60EB50BDE8F840FFF790
:10512000C7BE0B44D10707D454F8082CAD1A13445A
:10513000D5E90212CA60916043F001026A60284A10
:10514000BD6012689A4293D8264B30461968FFF723
:10515000F5FE8DE7142B0AD9542B1FD80B0B03F146
:105160006F0003F16E02C300B1E719448DE703F14C
:105170005C0003F15B02C300A9E741F00103C7E94A
:105180000455C5E902006B60695071E70121921076
:1051900001FA02F279680A437A60A6E7B3F5AA7FBA
:1051A00006D8CB0B03F1780003F17702C3008EE73A
:1051B00040F25452934206D88B0C03F17D0003F168
:1051C0007C02C30083E74FF47E737E227FE741F0C9
:1051D00001036B60CCF800104AE700BF501B0020B1
:1051E0005C1F002040210020704700BF704700BFB7
:1051F000F8B500BF0000000001B40248844601BCBD
:10520000604700BFDD07002001B40248844601BCAE
:10521000604700BFC911002001B40248844601BCA8
:10522000604700BF6109002001B40248844601BC08
:10523000604700BF9D07002001B40248844601BCBE
:10524000604700BF2D09002001B40248844601BC1C
:10525000604700BF0106002001B40248844601BC3B
:10526000604700BF230800200D1C0010851B0010A4
:10527000B11B0010A91C0010ED1B0010191B001021
:10528000311C0010E51A0010750E0010391C0010BA
:1052900021150010611B00101F1C0010D11B0010F5
:0852A000E50900100D020010E9
:1052A80053797374656D20636C6F636B206F662030
:1052B8002575206B487A2063616E6E6F7420626575
:1052C8002065786163746C792061636869657665C7
:1052D80064000000646573742D3E646174615F75D9
:1052E800736564203C20646573742D3E6461746149
:1052F8005F6D617800000000433A2F7069636F2F7B
:105308007069636F2D706C617967726F756E642F49
:105318007363616E766964656F2F64656D6F322F94
:1053280064656D6F322E6300636F72655F6E756DB5
:10533800203E3D203020262620636F72655F6E7503
:105348006D203C203200000052656E646572696E03
:1053580067206F6E207468616520636F7265202511
:10536800640A0000666C6173680000005468697321
:105378002069732041524D0072656E6465725F73D7
:1053880063616E6C696E655F7069000072656E645A
:1053980065725F6C6F6F7000D47C0010A8530010AA
:1053A800000000003D01000090010000AA25000057
:1053B800C05300106C7900100F573E0F8B3E0F55ED
:1053C8000F475E8F1D1B501B1D0F851D1C501B1D7D
:1053D8008F6E0F440F431E1C1B701B1C1E2F1D1BA2
:1053E800A01C1E0F7F1E1CB01D2F1E1D1B701B1C1A
:1053F8001E0F410F421CD02BE01B1D1F1E1D1C4BF6
:105408001C1D0F671D1C4B1C1D1E1F1D1BE01C1B9C
:10541800D01C0F400F3C1E3F1E1B002B1C0F631D92
:10542800002C1E3F1E0F3A0F371D1C1B00341B1D7E
:105438000F5F1E1B00351C1D0F350F351E1B003955
:105448001B2D1C4B1C1D0F4B1D2C3B2C1D1B0039F1
:105458001B1D0F330F341D00461C0F471C00461D33
:105468000F320F2B2E1D3C1D1E1D00491E0F431E03
:105478001B00481D1E1D3C1D2E0F290F271E1C1B1F
:1054880000541D0F411D00541B1C1E0F250F251E07
:105498001B00581C0F3F1D00581B1E0F230F241CF8
:1054A800002326E0161A1700251D0F3D1D0026179C
:1054B8001916D016171600221B0F220F231B0025C2
:1054C800192A181716A0172A1800241D0F3B1D00AB
:1054D80025182A17A01617182A1800251E0F200F9E
:1054E800221B0027184A19171680183A18901817FF
:1054F80000181D2E3C0F2F1D2C1D1E1D0019289055
:10550800183A18801618194A1800271E0F1F0F1B63
:105518002E1D1C2E1B001926E0186A1917705A1622
:1055280070161A1916001D1D0F2B1D001E16191AAC
:105538001670165A7017196A18E01600191B2E1CD7
:105548001D2E0F190F181D1C0022192A19181716BD
:1055580090188A1750185A1870192A17001D1B0F0F
:10556800291C001E172A1970185A1850188A1890E2
:10557800161718192A1800211B1D0F160F161D00C3
:1055880026186A19171660AA1730186A19165018BB
:105598003A19801900151E0F251E1B0015198019B0
:1055A8003A185016196A183017AA601617196A1887
:1055B80000251D0F140F151C0028189A18173019EC
:1055C800AA1916109A1640194A19702A1600141D9D
:1055D8000F231D0015162A6016194A1940179A102C
:1055E8001619AA193017189A1800271C0F130F1428
:1055F8001C001966B0CA1817DA19AA1720167A16E5
:1056080050192A1600141C0F211D0015162A1950AE
:10561800167A162017AA19DA1718CAB06600181CC5
:105628000F120F131E00161619AA19181660180A59
:105638002618109A1640193A1600141C0F1F1D0040
:1056480015163A1940168A1910180A2617601618DE
:1056580019AA191600151D0F110F131B001719EAA7
:1056680019181620180A321630194A1600141C0F79
:105678001D1D0015164A1930160A32182016181959
:10568800EA1900161B0F110F121E0019190A111919
:105698000A331920166A1600141D0F1B1D00151653
:1056A8006A16200A34190A111900181E0F100F1251
:1056B8001D001A190A451910197A00151D0F191D10
:1056C8000015167A1910190A451900191D0F100F1F
:1056D800121C001B190A4E197017D01E0F171EE056
:1056E8001770190A4E19001A1C0F100F121CA0F679
:1056F80017280A4F1950161A17D00F171BD0171A48
:1057080060190A4F2817F6901C0F100F121CA00AD8
:10571800621840172A17C01B0F151CD0172A1740EC
:10572800180A62901C0F100F121DA0160A6218307A
:10573800183A16C01C0F131DD0163A1830180A62F2
:1057480016901C0F100F121EB0180A6217205A1656
:10575800C01E0F111ED0165A20170A6218A01E0F5D
:10576800100F131BB00A63275A19C01B0F111BD047
:105778006A270A6219B00F110F131CB0160A6A19AA
:10578800C01CFF1DD0190A6A16A01C0F110F131E8A
:10579800C0180A6A18C01EEFD0180A6A18B01E0F7F
:1057A800110F141BB0160A6B16B01BDF1CC0160AAB
:1057B8006BC00F120F131DD0180A6BC01EBF1ED06E
:1057C8000A6B18C01C0F110F13E0160A6B19B01BD7
:1057D800BF1BC0190A6BE01E0F100F121CF0180A2D
:1057E8006B17B01D9F1EC0170A6B18E01C0F100F17
:1057F800120010170A6CB01B9F1BC00A6C16F01E13
:10580800FF0F111D00110A6C18B01D7F1EC0190A68
:105818006C00101DFF0F111C0011180A6C16A01B3C
:105828007F1BB0160A6C1800101CFF0F111C00110A
:10583800170A6C19B01E5F1EC00A6D1700101BFFF7
:105848000F111CA02A2938190A1B19180A5017A069
:105858001C5F1CB0170A5018190A1B1928392A90FE
:105868001BFF0F111CA0170A2427190A4EB01E4F40
:10587800C00A4E19270A2417901CFF0F111DB019D2
:105888000A251716170A4C17A01C3F1DB0180A4BFB
:10589800191710170A2519A01DFF0F12B0160A268E
:1058A80019161016180A4AA01B3F1BB00A4A1816E8
:1058B8001016190A2616A00F100F121CB0170A2767
:1058C80019162017190A4717A01D1F1EB0170A47D7
:1058D80019172016190A2717A01C0F100F13C01824
:1058E8000A2818162016180A4519A01C1F1CB00AE9
:1058F8004618162016180A2818B01E0F100F131D68
:10590800C0180A29184017190A4316A01F1BA01609
:105918000A43191740180A2918B01C0F110F141B35
:10592800C0180A2A174016180A4118A01CB0190AEC
:1059380041181640180A2A18B01B0F120F15D01755
:105948000A2B164016180A4000160A401816401767
:105958000A2B17C01E0F120F141EE0160A2B191659
:1059680050170A3E170014170A3E175016190A2B2B
:1059780016D01D0F120F141CF016190A2B186017D9
:10598800190A3B190014190A3B19165016180A2B44
:105998001916E01C0F120F141B0011190A2C18609D
:1059A80016190A3A00140A3A181660180A2C19002F
:1059B800101B0F120F141B0011160A2E1660161852
:1059C8000A38160012170A38181660170A2E160019
:1059D800110F120F141B90161A1817162017190AF0
:1059E8002F19166016180A36180012180A361816D3
:1059F8006016190A2F1917201617181A16900F1261
:105A08000F141BA0190A38187016180A3419001236
:105A1800190A34181670180A3818901B0F120F1428
:105A28001CB00A3A177016180A3300120A331816EF
:105A380070170A3AA01C0F120F141EB0170A3A1951
:105A4800167016180A3100120A3118167016190A3B
:105A58003A16A01D0F120F151BB0180A3B18801616
:105A6800190A2F160010160A2F191680180A3B1744
:105A7800A01B0F130F151EC0180A3B191680161904
:105A88000A2D160010160A2D191680160A3C18B091
:105A98001D0F130F161BC0180A3C1890170A2C1656
:105AA8000010160A2C1790180A3C18B01B0F140F78
:105AB800161ED0180A3D1790180A2A160010180A40
:105AC8002A1890170A3D18C01E0F140F171DD0185A
