:020000041000EA
:10000000002008205D0100101B0100101D010010E0
:100010001101001011010010110100101101001058
:100020001901001019010010190100101F01001022
:10003000110100101901001021010010230100100E
:100040001101001011010010110100101101001028
:100050001101001011010010110100101101001018
:1000600011010010110100103D1C002011010010B1
:100070001101001011010010110100105113002096
:10008000CD1A002011010010110100101101001003
:1000900011010010110100101101001011010010D8
:1000A00011010010110100101101001011010010C8
:1000B00011010010110100101101001011010010B8
:1000C00011010010110100101101001011010010A8
:1000D0001101001011010010110100101101001098
:1000E0001101001011010010110100101101001088
:1000F0001101001011010010110100101101001078
:100100001101001011010010110100101101001067
:10011000EFF30580103800BE00BE00BE00BE00BE7A
:1001200000BE00BEF2EB8871D89B0010189C001036
:10013000A001001090A31AE7D3DEFFFF42012110B7
:10014000FF01000000040300793512AB4FF00000FE
:100150001E49086006C881F3088810474FF05040D8
:10016000006810B14FF00000F2E70DA40ECC00299A
:1001700002D000F012F8F9E71549164A002000E015
:1001800001C19142FCD11449884714498847144958
:10019000884700BEFDE701C901C29A42FBD3704700
:1001A000189C001010010020B0640220B8FF02105B
:1001B00000000820C0020820780203100010082068
:1001C000C0120820000000007047000008ED00E0A9
:1001D000B064022040B802200D3B00106D0C0010EE
:1001E000CD3A0010F8B500BF10B5054C237833B9EF
:1001F000044B13B1044800E000BF0123237010BD7D
:1002000030660220000000006471001008B5034B46
:100210001BB10349034800E000BF08BD0000000017
:100220003466022064710010084BDB891944772979
:100230000ADC01F1350300EB43039B88343100EB0A
:1002400041018888181A704700207047586A0220B8
:10025000084B10B41C68821E00F5FF7132F9023F92
:1002600004FB03F391424FEA23231380F6D15DF898
:10027000044B70472C56022030B54FF0000E50F85A
:100280002E40640824F0842424F0301452F82E50B8
:100290002C4440F82E400EEB010550F825404FEA63
:1002A000540C2CF0842C2CF0301C0EF1500452F81D
:1002B0002440644440F825400EF1010E9E45DEDBEB
:1002C00030BD00BF08B5FA2807D8FA2905D8401A6A
:1002D00010F1FB0300D3184608BD034B034A40F25C
:1002E0002311034803F0F6FB947500103C770010CF
:1002F00090710010FA2806D8782904D80844FA2802
:1003000000D9FB38704708B5034B044A4FF48E718F
:10031000034803F0DFFB00BFD07500102C770010FE
:100320009071001008B5406905F0CEFE08BD00BF11
:100330000023012B0CDC074A52F823208A4201D00B
:100340000133F6E7044A1344002283F8342070474F
:1003500000BE00BFD4660220586A02202DE9F04793
:1003600098B00446704B01221A60704B704A1A60B4
:1003700005F056F9002821DA6E4B0C221A706D4BED
:10038000002283F8352083F834209A63DA859A8531
:100390001A86012183F8431083F84010664A1268D8
:1003A0006648026002EB82026048006800EB82024D
:1003B000D2685A62197018B0BDE8F087604D01220A
:1003C0001146284605F0F4FA5C22294601A806F0F9
:1003D000D1FB0198029A5B495B4B9A4208BF884265
:1003E00002D1049B5C2B03D0584803F0A7FCC6E75E
:1003F000574803F0A3FC159D169E06FB05F202F27A
:10040000FF12520A9046202AB8BF4FF02008139FCF
:100410003B4641464F4803F0BFFC424639464848F8
:1004200005F0C6FA0023404A1360984614E0012202
:10043000396A494805F0BCFA2368B3F1FF3F1AD086
:10044000A268464B9A421AD000220023C7E9022331
:10045000C7E9002308F10108454515D908FB06F254
:10046000374BD718D2587B681343E0D1BA68FB6882
:100470001343EFD0DBE76368B3F1FF3FE0D12A4AD3
:10048000136801331360E5E7274B186838B114216E
:1004900002F0FCF9254B186000273C4623E0304869
:1004A00001F0DAF80133132B06DC03F11C0211F81A
:1004B0001220C254002AF5D1002381F84C30DFF815
:1004C0006C90D9F800A006F03BFC4AF80800D9F877
:1004D000003003EB0802D26853F80810214803F0FB
:1004E0005BFC01370134A5427FF649AF04FB06F2FD
:1004F000134BD118D2584B68134303D18A68CB6889
:100500001343EFD00A6A07EB87004FEA8008074BD6
:100510001B6803EB8003DA6048F210429A8001F115
:1005200038000023BFE700BFD46C0220D86C022043
:1005300018560220586A02203C6A022084AF02202A
:10054000845B0020454649205041525454760010A7
:10055000007600100C760010B86A0220504C41540E
:10056000347600104476001010B50446003818BFE9
:10057000012003F043FD04B910BD012005F0B0FCDB
:10058000FAE700BF2DE9F04788B005460E46102176
:10059000012002F07BF9044606602F7947600023B2
:1005A0000CE003EBD372511003EB831202EBC12278
:1005B00008A901EB430121F8202C01330F2BF0D9BE
:1005C0002B7906FB03F32A689268518803FB01F13B
:1005D000042002F05BF9E06007FB06F6A6604FF02E
:1005E000000877E04A4B4B4AC8214B4803F072FAA7
:1005F0004FEA6E02BA5C12090DF1200909EB4202C2
:1006000032F820AC2AE04FF0000A13F0010F31D18C
:10061000C0F800A0013322684FEA4209B3EB420F51
:1006200031D291F906209A1AEDD491F904909145AE
:1006300017DDBCF1000F17DB91F90520624516DDCF
:100640001EF0010FD4D04FEA6E02BA5C02F00F0226
:100650000DF1200909EB420232F820AC0EF1010E37
:10066000D3E74FF0000AD0E74FF0000ACDE74FF094
:10067000000ACAE7024652F8049B49EA0A49C0F850
:1006800000901046C6E7BCF1000F03DB91F905307E
:1006900063450FDC01366368B34219D9A6EB030C3E
:1006A0006B799C4491F907309C4491F905309C4446
:1006B0000023B0E791F90630A9EB030903E00EF13E
:1006C000010E09F1010991F904304B45F7DCE1E72E
:1006D00008F101082B689A685288424514DDE268E7
:1006E000A16808FB01F102EB810282427FF47AAF3C
:1006F0005A6808F1010602EBC6011F6832F836306D
:100700001F440026B646C6E7204608B0BDE8F0877D
:100710007C7600105877001090710010044B93F80D
:1007200041301BB1024B032283F84220704700BFC7
:10073000586A022010B5C368846802FB04FC03EB0E
:100740008C0C4FF0000E0DE05CF8232041F82320C4
:10075000013302689A42F7D801F5A0710CEB820CC4
:100760000EF1010E4368734501D90023F1E710BD76
:10077000F0B5056808464FF0000E76460CE0A6403E
:100780000CEBCC0C12F80CC0073F0CFA07F73E43F9
:10079000A644BEF1170F1DDC15F8014B5CB3A4F1A4
:1007A000200C5FFA8CFCBCF17D0FF5D8194C14F8C5
:1007B0000C707C1C082CE2DCA6400CEBCC0C12F874
:1007C0000C70C4F1080C47FA0CF73E43E0E7002434
:1007D00020F8024B0EF1FF3EBEF1000F06DD26FAB7
:1007E0000EF414F0010FF2D01C46F1E70026D3E717
:1007F000002220F8022B0EF1FF3EBEF1000F06DDB5
:1008000026FA0EF212F0010FF2D01A46F1E7401A62
:100810004010F0BD7C7B00108368D3B98360026810
:100820007AB110B512F8013B63B1203BDBB27D2BEE
:10083000F8D8084CE35C03F1010C836863448360DF
:10084000F0E7704783688B4200DC10BD024800F07F
:1008500003FF70477C7B0010A076001008B5124B98
:1008600093F841301BB9104B012283F841200F4B04
:1008700000221A700C4B93F8413023B10C4BDB6C07
:10088000B3F1FF3F00D108BD0A4A126802EB8202B1
:100890009100094A12680A44D2681344074A136057
:1008A000FFF73CFFEFE700BF586A022038B802208C
:1008B000B86A022084AF0220D86C0220F4550220CE
:1008C00008B5124B93F841301BB9104B012283F845
:1008D00041200F4B00221A700C4B93F8413023B18A
:1008E0000C4BDB6DB3F1FF3F00D108BD0A4A126823
:1008F00002EB82029100094A12680A44D26813444A
:10090000074A1360FFF70AFFEFE700BF586A0220AB
:1009100038B80220B86A022084AF0220D86C0220C6
:10092000F455022008B5094B1B6843B1013B074A47
:10093000136003F01DFC000C054B186008BD054B4F
:100940001B68013B014A1360F3E700BF3C6A0220C9
:10095000406A0220D46C022008B5094A13680133AA
:100960001360084A1268934205D003F001FC000CA2
:10097000054B186008BD024B00221A60F5E700BF66
:100980003C6A0220D46C0220406A0220034A1368A9
:10099000082BB8BF0823083B136070472C56022071
:1009A000034A1368F82BA8BFF82308331360704775
:1009B0002C56022030B583B06C4B1C686C4B996987
:1009C00011F0100114D0694B1B68A3420ED003EB49
:1009D0008303684A126802EB83031A6966490A6056
:1009E000DB689A4200D20B60FFF798FE03B030BD7F
:1009F0000DF1070261B95E4B9B6913F0100FFAD13C
:100A00005B4B1868134603F8010B01311A46F1E7F6
:100A10009DF80730A3F13002D2B2092A2DD8302B2D
:100A20000FD0312B12D0322B17D0332B1DD0342BBB
:100A3000C9D1524B03221A70514B002283F8412036
:100A4000C1E74F4B012283F84120BCE700234B4A0A
:100A500013704B4A82F84130B5E7484B01221A70B7
:100A6000474B002283F84120ADE7444B02221A7025
:100A7000434B002283F84120A5E7782B22D0722B2C
:100A800037D03D2B3BD02B2B39D02D2B41D05F2B9A
:100A90003FD05B2B48D05D2B49D0202B4AD0702B08
:100AA00050D07B2B4ED06E2B4FD07D2B4DD0692B51
:100AB0004ED00D2B4CD02E2B55D02C2B83D1FFF7A5
:100AC000FFFE80E72F4A137883F00103137073B1A0
:100AD0000525EDB22946002001F0B8F92946062087
:100AE00001F0B4F929460B2001F0B0F96BE70625B7
:100AF000EFE7254A137883F00103137063E71F4B78
:100B000093F90030022B3FF75EAF01331B4A13709D
:100B100059E71A4B93F9003013F10F0FFFF653AF5B
:100B2000013B164A13704EE7FFF730FF4BE7FFF724
:100B300037FF48E7124A92F8413083F0010382F808
:100B4000413040E7FFF7EEFE3DE7FFF705FF3AE7EC
:100B50000E4A137883F00103137003F009FB000CB5
:100B60000B4A10602FE7FFF779FE2CE73C6A022062
:100B700000000740D86C0220F455022038B802204B
:100B8000586A022037B80220F85502203BB80220EC
:100B9000406A022008B50120FFF7E6FC024806F093
:100BA0008FFA06F0ADFA00BF20B6022008B505485E
:100BB00003F0F2FC012003F0F3FC034806F068FAAE
:100BC00008BD00BF1078001020B6022030B587B0F5
:100BD0001F4B04AA93E8030082E803000292042258
:100BE000ADF80C209B6801930022114602A805F085
:100BF0005EFB184B1860002406E002A805F042FBDB
:100C0000154B43F824000134012C0DDC134B53F831
:100C100024500C2001F01CFE01460028EDD0456058
:100C20004FF4C0530360E8E701A904A805F058F8A1
:100C300038B10B49074B186805F046F920B107B0E9
:100C400030BD084800F008FD074800F005FD00BF72
:100C500020770010D0660220D466022008780010A9
:100C6000FC550220B4760010D476001000B585B093
:100C700003AB02AA01A94CF2503001F063FA20B98B
:100C80004CF25031174800F0E7FC039A02990198A2
:100C900001F026FA01F0D6F804211348FFF772FCA0
:100CA000124B186005211248FFF76CFC114B1860BD
:100CB000114800F0D5F801220021104800F0BAF8E0
:100CC0000F4B00201870012283F84320FFF74CFCE3
:100CD000FFF77CFF0B4800F09BF8FFF767FF06F07B
:100CE0000FFA00BFEC760010307D0010B06A0220D1
:100CF000AC7F0010B46A0220B86C022020B602203B
:100D0000586A0220950B001003BD10B50446084632
:100D100001F038FC01F03AFBA04710BD4FF0504302
:100D20001B6D13F0020FF9D04FF05043586540BFD0
:100D3000704700E020BF4FF050431B6D13F0010FD0
:100D4000F8D04FF05043986D70472DE9F04186B0D0
:100D500004460F469046192000F068FD0646002123
:100D6000192000F08FFD00250095019501230293C5
:100D7000CDF80C800497059400E0002506AB03EB4A
:100D8000850353F8184C9CB12046FFF7C7FFFFF7C7
:100D9000D0FF8442F1D10135052DEFD9314619201C
:100DA00000F070FD06B0BDE8F0814FF050439B6D40
:100DB0004FF050431B6D13F0010FF6D140BFE3E736
:100DC00008B512F0030F11D122F003028B180A4A62
:100DD000926843F80C0C43F8081C084943F8041CBB
:100DE000A3F10C010648FFF7B0FF08BD054B064A0A
:100DF0008E21064802F06EFE00ED00E00B0D0010A3
:100E0000090D00101880001034800010DC7F0010E5
:100E100008B5064A064B9A4205D819464FF4806237
:100E2000FFF7CEFF08BD4FF0FF31F7E7C002082003
:100E3000000C082070B504460E46154600F05AFC1A
:100E40000146204600F006F8A680E580BFF35F8FDC
:100E500070BD0000014B0B4403607047A466022084
:100E600010B5044600F046FC01462046FFF7F2FFAD
:100E7000FF232371BFF35F8F10BD10B5044600F050
:100E800039FC01462046FFF7E5FFFF2323710023CD
:100E90006371BFF35F8F10BD10B50D4C09E00D4BB2
:100EA0000D4A1A210D4802F015FE2046FFF7D8FF23
:100EB00008340B4B9C4209D22368002BF5D0012B40
:100EC000EDD12046FFF7D9FF0834F2E710BD00BF8F
:100ED000A06402205880001020810010788000104B
:100EE000B064022041EA0040704700000D4B1A68D0
:100EF000EFF3108172B6D2E8CFCF0120BCF1000F22
:100F0000F9D1C2E84C0FBCF1000FF4D1BFF35F8FF1
:100F10001A680023C2E88F3F81F3108840BF002089
:100F200000217047B4B502202DE9F04F85B0EFF3F2
:100F30000587FFB2103FBB0815D0964D07F0030799
:100F4000944B9D4214BF0023012307EB8303924A75
:100F500052F823402378BB4207D10122BA4005F55D
:100F600041535A6031E18D4DE8E78D4B8D4A922116
:100F70008D4802F0AFFDD4F814A006EB46084FEA06
:100F8000C80B0AEBC808D8F808300193D8F80C90C1
:100F9000284600F025FB019BC01A61EB0903002BDA
:100FA000C0F21B81B9F1000F65DBD8F810301A468A
:100FB00002937E4B9A4232D0B8F8021089B2B4F94B
:100FC0000800FFF78FFFD8F81410029B9847029093
:100FD0000391029A039B52EA03014CD0002B2BDAB7
:100FE0000199881A69EB0309C8F80800C8F80C9041
:100FF0003AF90B30002BC0F2F080D4F8148003EBE8
:10100000430208EBC2029168D268411A69EB0202FE
:10101000002AC0F2E280A6462EF8083F16E0D8F873
:101020001420136902921046984720B3029A13685D
:10103000029353680393CCE7284600F0D1FA029B51
:101040001818039B43EB0109CEE79E46BEF900C08A
:10105000BCF1000F0ADB0CEB4C0308EBC3039968EF
:10106000DA68411A69EB0202002AEEDA2AF80BC0AC
:10107000AEF80060B1E03AF90B3023812369EFF359
:10108000108272B6D3E8CF0F01210028FAD1C3E84D
:10109000401F0028F6D1BFF35F8FB4F902302AF861
:1010A0000B30668021690023C1E88F3F82F31088EE
:1010B00093E02369EFF3108272B6D3E8CF0F0121DA
:1010C0000028FAD1C3E8401F0028F6D1BFF35F8F94
:1010D000B4F804900FFA89F94FF6FF73A3802169E1
:1010E0000023C1E88F3F82F3108816E01E46B6F950
:1010F0000020002A0BDB02EB42030EEBC3039868CF
:10110000D968BCEB000068EB01010029EEDAA6F813
:1011100000903EF90A902EF80A20B9F1000F61DB29
:10112000D4F814E009EB49034FEAC30A0EEBC303FA
:10113000D3F808C0D3F80C8004F10806D7E70023E1
:10114000A37104F1080EB4F9083011E04FF0FF3834
:101150004FF0FF39C0E90289B4F90800984206D07F
:10116000AEF80020B4F9080021F80C0023811346E2
:10117000B3F1FF3F39D0616903EB43024FEAC20C80
:1011800001EBC20031F93220468816F4004FDDD160
:101190008646ECE700800B4064AF022000000B4065
:1011A00034810010CC81001060810010290F0010E4
:1011B0003B1D45F82360284600F012FA361A68EB0A
:1011C0000101012E71F100032FDA0123BB40EB6313
:1011D000B4F90860002EBFF6CEAEA38813F4004F1A
:1011E0003FF467AFA379002BA9D1B4F90830002BE5
:1011F0001BDB626903EB430302EBC3039E68D3F876
:101200000C80B8F1FF3F08BFB6F1FF3FD3D0AA6A08
:10121000B11A3B1D55F823309B1A9942C8D32A6A4C
:101220000123BB401A42C6D1C2E740BF05B0BDE8AA
:10123000F08F00BF2DE9F0410446884617461E4650
:10124000C16000F057FA204B034423612770B3B20A
:1012500063814FF05042127862704FF6FF72228124
:10126000A280013B63804FF0000C08E00CF1FF35D9
:1012700060690CEB4C0E20F83E500CF1010CB445AB
:10128000F4D3124B98450CBF0123002307EB8303D3
:101290000F4A42F8234014D000243C44012505FAAB
:1012A00007F7C8F820700B49204600F0FDFA2946E0
:1012B000204600F0E7FA08F50158C8F80070BDE8CC
:1012C000F0810424E9E700BFA466022000800B40FF
:1012D00064AF0220290F001008B5054B1B690BB144
:1012E000034808BD034B044A6521044802F0F2FBA1
:1012F0005856022090810010B481001060810010C7
:10130000F8B504469E460169EFF3108C72B6D1E839
:10131000CF5F0120002DFAD1C1E8450F002DF6D195
:10132000BFF35F8FB4F90250666905EB4500C70053
:1013300006EBC000002D01DBF15F61800021236915
:10134000C3E88F1F8CF310888D4233DB069901614F
:10135000079941618260C0F80CE0418889B201318F
:10136000C1F30E0101B9012141802846FFF7BAFD02
:101370002369EFF3108272B6D3E8CFCF0121BCF11D
:10138000000FF9D1C3E84C1FBCF1000FF4D1BFF33B
:101390005F8FA388F353A58021690023C1E88F3FA5
:1013A00082F31088E368217801228A4003F5015313
:1013B0005A60F8BD4FF0FF30FBE770B582B00646CB
:1013C00015461C469DF8203033B900F033F98542AC
:1013D00064EB010100290ADB079B0193069B009344
:1013E0002A4623463046FFF78BFF02B070BD00202F
:1013F000FBE703464089B0EB214F31DD10B50A14FD
:10140000586902EB420200EBC2021869EFF3108C3C
:1014100072B6D0E8CF4F5FF0010E002CF9D1C0E8D2
:1014200044EF002CF5D1BFF35F8F508880B289B2B2
:1014300088420FD0002019690022C1E88F2F8CF359
:10144000108830B1DA681B780121994002F5015308
:10145000596010BD40F40040508001209871EAE7C7
:1014600000207047F0B585B005460C46EFF30583C4
:10147000DBB293B1404B5B6A8B4209D33E4A926A1E
:10148000824208D28B4201D0012002E0002000E01D
:10149000002005B0F0BD0120FBE7FFF71DFFC76886
:1014A0000678384600F09CF82A1A64EB01010436ED
:1014B00057F82630181A824271F1000312DB20BF60
:1014C0002D4B5B6A9C4209D82B4A926AAA4207D2EA
:1014D0009C4201D00120DCE70020DAE70020D8E7B9
:1014E0000120D6E7FFF7F8FE002302930193234B78
:1014F00000932A462346FFF760FF061E0BDD1E4BB6
:101500005B6A9C421BD81C4A926AAA422BD29C421C
:1015100013D0012314E0184B5B6A9C4209D8164A89
:10152000926AAA4207D29C4201D00120B1E7002072
:10153000AFE70020ADE70120ABE7002300E0002388
:1015400003B920BFFFF7C8FE3146FFF752FF0A4B31
:101550005B6A9C420BD8084A926AAA4209D29C4212
:1015600003D0012095E70123EAE7002091E700205E
:101570008FE701208DE700BF00000B40ED0E00104B
:101580000048704700000B4010B50A4B1B6923B19F
:101590000A210948FFF75EFC10BDFFF7F1FF044682
:1015A000032100F00BF81023032221460148FFF726
:1015B00041FEEDE758560220B4B5022010B5054AA9
:1015C000054C064BA04214BF1846581C00F078F892
:1015D00010BD00BFE481001000800B40F0660220C7
:1015E0000246436A906A1946536A9942FAD1704793
:1015F000416A00E0416A9942FCD300E0416A9942A5
:1016000002D1816A9142F9D3704770B506461446FB
:101610001D46FFF7E5FF021941EB0503824273EB1C
:10162000010102D24FF0FF3213463046FFF7E0FFD0
:1016300070BD000008B50248FFF7D2FF08BD00BF2B
:1016400000000B4008B502460B460248FFF7DDFFDD
:1016500008BD00BF00000B400FB400B583B0049C70
:10166000074802F06BFB3CB105A90191204602F04E
:1016700075FB044802F062FB012002F00BFA00BF88
:1016800008820010FC720010EFF3108072B6064B57
:10169000D3E8CF1F01220029FAD1C3E8412F002946
:1016A000F6D1BFF35F8F7047AF6602200023034A75
:1016B000C2E88F3F80F31088704700BFAF660220FA
:1016C00070B505460C461646FFF7DEFFE208A95C3A
:1016D00004F0070C012303FA0CF3194205D1DBB225
:1016E0000B43AB54FFF7E2FF70BD21463046FFF7D6
:1016F000B3FF0000054A1078431CDBB21370172BB0
:1017000002D9134610221A70704700BF705602208B
:101710004FF0E022936843F000539360704700005D
:10172000002305E0044A1A440021C2E88F1F013358
:101730001F2BF7D9704700BFA466022008B51F28E9
:1017400005D8064B18440023C0E88F3F08BD044B62
:10175000044A0F21044802F0BDF900BFA46602202C
:10176000188200108082001034820010064B9B68A3
:10177000103043F82010BFF35F8F00230349C1E806
:101780008F3F82F31088704700ED00E0AD660220C5
:101790000048704700E400E008B5FFF7F9FF0023B8
:1017A00004E04FF0803240F8042B01330C2BF8D9C1
:1017B00062B608BD08B5091A081F01F2FC7140F6AF
:1017C000FE73994207D810F0010F04D1C0F34A000C
:1017D00040F4604008BD034B034A4FF4877103484F
:1017E00002F078F990820010E0840010C0820010AE
:1017F00008B5091A04394B08090B0AD1C1F30A01CB
:1018000041F4704101806FEA43536FEA53534380C0
:1018100008BD034B034A4FF48B71034802F05AF999
:10182000F4820010BC840010C08200104209064BF4
:1018300053F8222000F01F00012303FA00F00242B7
:1018400014BF18460020704700E100E021B1044BAE
:10185000C3F8800118607047014BC3F880007047DF
:1018600000E100E03AB1064B00F1600243F82210BB
:1018700043F8201070472030014B43F82010704788
:1018800000E100E008B50A4600F01F03012199407D
:101890004009FFF7E7FF08BD024B9B68103053F883
:1018A0002000704700ED00E070B505460C46EFF3F0
:1018B000108672B60F4BD3E8CF1F01220029FAD150
:1018C000C3E8412F0029F6D1BFF35F8FFFF7E4FF94
:1018D000094B984201D0A04205D132462146284604
:1018E000FFF744FF70BD054B054AED21054802F0A6
:1018F000F1F800BFAD660220110100100483001052
:1019000014850010C08200102DE9F04F87B00091BF
:101910001546EFF3108A72B6864BD3E8CF1F01222B
:101920000029FAD1C3E8412F0029F6D1BFF35F8F18
:10193000814B93F90040002C44DB804604EB4407C4
:101940007E4B03EB870797F906107B4A11707C4AA0
:10195000926800F1100152F82190A9EB03022F2A9E
:101960003ED9784B994534D14FF42143ADF80C3032
:101970004FEA440904EB4400704E06EB80007249C4
:101980000230FFF717FFADF80E004BF60153ADF82C
:101990001030FF238DF812308DF81350009B059303
:1019A0004C4406EB840406AB13E9070084E8070007
:1019B00047F00109524649464046FFF7D7FE07B0B7
:1019C000BDE8F08F614B624A4FF4BE71614802F08E
:1019D00081F8614B5E4A40F283115E4802F07AF86A
:1019E00029F0010BABEB03035C4AA2FB0312D20804
:1019F00002EB4202B3EB820F0FD15B460026DA798D
:101A0000AA4212D993F90620002A0DDB02EB42020A
:101A10001E464A4B03EB8203F1E7514B4C4A4FF40D
:101A2000CA714C4802F056F81E46002E48D044F6C3
:101A30000103ADF80C304FF48F43ADF80E3096F93A
:101A400006B0BBF1000F1ADA4BF60150ADF81000EA
:101A50008DF812B08DF81350009B05933946301D58
:101A6000FFF7A8FEB080B47104EB4404334B03EBE2
:101A7000840406AB13E9070084E807009AE704EB47
:101A800044002E4B03EB80000430311DB388DA0A8A
:101A90001C2A08D15B050DD45B15023301EB430111
:101AA000FFF788FED2E72F4B2F4A4FF48E7129485B
:101AB00002F010F803F5FF1303F5FF531F33EBE7B4
:101AC0004FF42143ADF80C306300019304EB44065E
:101AD000DFF8689009EB86061B49B01CFFF76AFE29
:101AE000ADF80E005946301DFFF764FEADF810004A
:101AF0004AF6AA235A464946521A524153431B0DED
:101B00008DF812308DF81350009A0592019B1C44F9
:101B100009EB840906AB13E9070089E8070044F6DE
:101B20000103ABF800304FF48F43ABF8023047F0BD
:101B300001093FE7AD66022036B802207456022044
:101B400000ED00E011010010A45602203C830010BB
:101B5000FC840010C082001064830010ABAAAAAA03
:101B60008C83001010840010EC8400102DE9F047E5
:101B700006460D46EFF3108872B65B4BD3E8CF1FD5
:101B800001220029FAD1C3E8412F0029F6D1BFF381
:101B90005F8F564B9B6800F1100A53F82A70544B24
:101BA0009F4207D0AF4200F09D803C46514BFB1A4C
:101BB0002F2B06D9424639463046FFF7D7FDBDE800
:101BC000F087FFF733FE814600213046FFF75AFECB
:101BD000BFF35F8FEFF30580C0B208B1824510D12B
:101BE00024F001040021A268954212D094F9063035
:101BF000002B0DDB03EB430321463E4C04EB830437
:101C0000F1E73D4B3D4A40F202213D4801F062FFC1
:101C1000214695425FD194F90650002D41DB05EB3A
:101C20004503344A02EB83039A68A260DA79E271D1
:101C300093F90620A27193F90630002B10DA4BF6C7
:101C40000150A08005EB45022A4B03EB82032D4A8D
:101C500011789971157049463046FFF713FEA9E7D0
:101C6000201D05EB4503234A02EB8303191D9B88C6
:101C7000DA0A1C2A08D15B050DD45B15023301EB8F
:101C80004301FFF797FDDCE71F4B204A4FF48E71AD
:101C90001B4801F01FFF03F5FF1303F5FF531F332C
:101CA000EBE798B981B1FF238B714BF601538B8021
:101CB000144A1378A3714AF6AA230E49641A6441A0
:101CC00063431B0D1370C6E7094FF1E71049201D50
:101CD000FFF78EFDBFE70F4B084A4FF4117108481C
:101CE00001F0F8FE024F65E7AD66022000ED00E06E
:101CF000110100107456022028840010CC840010BA
:101D0000C082001036B8022010840010EC8400104D
:101D1000AE5602205C84001038B504460D46FFF72D
:101D200037FDA10850F8213004F00304E400FF223D
:101D3000A24023EA020305FA04F41C4340F82140C0
:101D400038BD000038B540F0010E344BAEEB030354
:101D50002F2B31D8EFF30581C9B2002933D0EFF32F
:101D6000108472B62E4BD3E8CF5F0122002DFAD13A
:101D7000C3E8452F002DF6D1BFF35F8F4AF6AA23A3
:101D80000246264D521B524153431B0D4FFA83FC12
:101D9000244B9B6853F8213073451BD00023032B41
:101DA00034D803EB43021D4901EB820292F906206D
:101DB000624520D00133F2E71B4B1C4A40F27F21E1
:101DC0001B4801F087FE1B4B184A40F2822118483D
:101DD00001F080FE134B9B68174A43F82120174BF4
:101DE0001A78827183F800C000230D4AC2E88F3F41
:101DF00084F3108838BD0A4603EB430102EB8101EE
:101E0000FF258D714BF601528A80E8E70C4B074A9B
:101E100040F29321064801F05DFE00BF7456022097
:101E2000AD66022000ED00E064840010A084001084
:101E3000C08200108C8400101101001036B80220FE
:101E40009884001008B502F0C1F808BD0C4B03EBF4
:101E5000800253F8203083F0400303F0C00302F502
:101E6000805CCCF80030C00000F1804000F52030EC
:101E7000416002F540524FF480731360704700BF19
:101E80000480034010B40C4C04EB800C79B108239F
:101E90007AB10422134354F82020534003F00C037A
:101EA0000CF5805CCCF800305DF8044B70470023E3
:101EB000EEE70022EEE700BF0480034038B5046B74
:101EC00014F0010F01D1204638BD00F5405340F217
:101ED00001321A63436A856A05EB8315AD02062059
:101EE00000F0F8F8044BA3FB0030C00AB5FBF0F09B
:101EF0000021FFF7A7FBE6E7757B2B8F70B5054642
:101F00000C461646FFF7DAFFE96A4C40344005F507
:101F10008153DC60286370BD70B505460C46062011
:101F200000F0D8F8C300B3FBF4F10131CC0907D0BD
:101F30004FF6FE739C4214D82646C1F3450400E0D8
:101F400001266E62AC62002211462846FFF7D6FFDA
:101F5000062000F0BFF8800004EB8614B0FBF4F01C
:101F600070BD00244FF6FF76EBE7000049B10A226E
:101F7000054B984214BF00200120044B23F8102089
:101F800070474FF48072F3E700800740FCB50220F1
:101F900038B504460D46062000F09CF848B3174BB0
:101FA0009C4227D01A2201239340154A1360134BF9
:101FB0009C4221D01A2301229A40124B1A60124BE4
:101FC0009B6832EA0303FAD100212046FFF7CEFFD7
:101FD00029462046FFF7A0FFE36A83F0700303F071
:101FE0007E0304F58152D36040F20133236303235F
:101FF000A36438BD1B22D6E71B23DCE70080074023
:1020000000200240003002400000024070B5049DF4
:1020100000EB400C4FEA8C0C0CF1804C0CF5803C32
:10202000DCF80440AC4201D2CCF80450A0F1040E1C
:102030005FFA8EFEBEF1010F27D90CF540544FF424
:10204000006626601D4C54F820603EB16469B4FB04
:10205000F6F4013404EB4404033CFDD2DCF8004008
:1020600084EA421202F0E0020CF580542260BEF1D4
:10207000010F16D90CF500524FF400611160CCF835
:1020800004500E4A42F8203070BD0129D5D10CF51C
:10209000405403262660DCF8084014F0010FFAD003
:1020A000DCE7DCF800204A4002F003022260DCF8A2
:1020B000084001228A401442F9D0DBE70067022081
:1020C00010B582B04FF480340094FFF79FFF02B048
:1020D00010BD0000014B53F820007047006702203C
:1020E000F0B583B004460D461646134F3B46012219
:1020F00011460520FFF7E4FF00962B4622460121FA
:102100000E4800F059F806FB05F5B4FBF5F40C4B4E
:10211000002202210420FFF7D3FF234600220121E1
:102120000520FFF7CDFF3B46022200210620FFF7E6
:10213000C7FF03B0F0BD00BF006CDC02000005402B
:10214000001BB7002DE9F04104460E46174698469D
:102150004FF4A0751AE0013B9BB103FB00FCB2FBFE
:10216000FCFEA645F7D10CFB1E210029F3D1104A35
:1021700002FB05F535603860C8F800300120BDE885
:10218000F081013808B10346E6E7013D0F2D0CD977
:1021900042F6E06205FB02F2A2F53723A3F5D873FD
:1021A00004498B42F1D80720ECE70020E7E700BFA5
:1021B000001BB70050F80C0070B5049C344DB5FB03
:1021C000F1FC344D1544344EB54237D8B2FBFCF522
:1021D000A5F1100EBEF5987F36D803F1FF3EBEF193
:1021E000060F37D804F1FF3EBEF1060F32D8BCEB24
:1021F000121F35D8240344EA03440368002B35DB5F
:10220000264B984242D00E2301229A40244B1A605A
:1022100003F580531A60234B9B6832EA0303FAD11B
:102220000160856000F54052043221231360036889
:10223000002BFCDAC4600823136070BD1A4B1B4AE4
:1022400011211B4801F046FC1A4B184A1921184865
:1022500001F040FC184B154A1C21154801F03AFCCE
:10226000164B124A2321124801F034FC036803F094
:102270003F038B42C4D18368C3F30B03AB42BFD18E
:10228000C36803F4EE23A342BAD1D6E70F23BBE71A
:10229000001BB70080E84BD380F8A93200800540CE
:1022A00000200240000002403085001038860010F7
:1022B00080850010B4850010D08500101C860010A9
:1022C000054A00EB400302EB8303596000EB40003A
:1022D00080000123135070470080104008B5002390
:1022E000DB8A002242E800F212F4800F02D11021B2
:1022F000984708BD04219847FBE70000034BD3F83B
:102300002838002BFAD0BFF35F8F704700000E40D3
:10231000002207E0054B13449B00BFF35F8F0021B1
:1023200019600132072AF5D9704700BF03820310F4
:1023300008B5FFF7EDFF08BD074B4FF42A621A609E
:102340004FF48D72DA6003F50053044A1A60024BB1
:102350005B68002BFBDA70470080044000B0FA0095
:1023600010B5044602E054F8043B9847014B9C42E8
:10237000F9D310BD607100107047000008B5024825
:10238000FFF7EEFF08BD00BF2071001008B502483E
:10239000FFF7E6FF08BD00BF4C710010064B074A6F
:1023A0001A6003F58053064A1A60064B9A68044B7C
:1023B0009343FAD1704700BF002002407F3BEFEF0C
:1023C000F6FFF30300000240054BDB6CB3F5004F52
:1023D00000D07047034B4FF48022DA64F9E700BF66
:1023E00000001150002011504FF0E022D2F8881D5B
:1023F000034B0B43C2F8883D10EE3004704700BF1A
:1024000003033000054B6FF060421A60044B9B6879
:10241000DB4333F06043F9D1704700BF0030024026
:102420000000024008B545F25320FFF757FF03466E
:102430000420984708BD08B545F25320FFF74EFF2A
:1024400003460120984708BD08B5FFF769F908BDA4
:1024500010B50C490C4A521A92101446442A28BF4F
:1024600044229200094804F085FB04E0084A074B27
:1024700043F824200134432CF8D9044A054B9A60D0
:1024800010BD00BF0000001010010010000000206F
:102490001101001000ED00E038B50420FFF71AFE2E
:1024A000064DA5FB0035AD0C002404E02946E0B242
:1024B000FFF706FF0134052CF8DD38BD83DE1B4332
:1024C00030B583B0264B0022C3F88420FFF734FFD9
:1024D000244B0122DA63224B5B6C012BFBD1214B95
:1024E00003221A631E4B9B6B012BFBD10224009429
:1024F00005231D4A01211D48FFF75EFE05250095B5
:102500002B461B4A01211B48FFF756FE1A4B00229F
:1025100021460420FFF7D4FD184C23460022012158
:102520002846FFF7CDFD164D2B4600221146082008
:10253000FFF7C6FD2B46002211460920FFF7C0FD1C
:102540002346002211460620FFF7BAFD234600224B
:1025500011460720FFF7B4FDFFF79EFF03B030BD23
:102560000000014000300140002F68590000054084
:10257000008C864700800540001BB70080D1F00822
:10258000006CDC0280F30A88704786B003B451FC0B
:102590000804CDE9020151FC0904CDE9040151EC24
:1025A0000A04CDE9060103BCF047BDE800504EEC3B
:1025B00000C4BDE800504EEC01C4BDE800504EEC34
:1025C00002C400BD00B5FFF7E0FF02E010FE30F4EA
:1025D000F8D441EC100443EC112400EE010410EE99
:1025E000010480EE200451EC1004704700B5FFF7A1
:1025F000CCFF02E010FE30F4F8D441EC100443ECC0
:10260000112400EE010410EE210480EE200451ECB0
:102610003004704700B5FFF7B8FF02E010FE30F459
:10262000F8D410B541EC100443EC112451EC04042F
:1026300053EC0524A0FB024C5FF0000EE0FB03CE40
:10264000E1FB02CE4CEC20440024E1FB03E444EC2B
:1026500030E480EE200451EC5004BDE81040704797
:1026600000B5FFF792FF02E010FE30F4F8D441EC21
:10267000100443EC112451EC2104A0FB01126FEA79
:10268000820252FB100052FB12F252FB1000A0EB30
:10269000D07C53EC04245CFB13F153EC1524A1FB18
:1026A000022001FB030053EC4424A2EB000050FB8A
:1026B0001CF24FEA111312EB017043EBE27140EA96
:1026C000515020EA915020F0070053EC7524A0FBF4
:1026D000023C53EC752400FB03CC01FB02CC53EC11
:1026E0000424ACEB824C40EA5C70A0F1010041ECA8
:1026F000400480EE200451EC7004704700B5FFF7F1
:1027000044FF02E010FE30F4F8D440EC700400EE18
:10271000010410EE210480EE200451EC30047047D7
:1027200000B5FFF732FF02E010FE30F4F8D440ECC1
:10273000600400EE010410EE210480EE200451EC50
:102740003004704700B5FFF720FF02E010FE30F4C0
:10275000F8D441EC800400EE010410EE010480EE98
:10276000400410EE1304704700B5FFF70EFF02E0BF
:1027700010FE30F4F8D441EC800400EE010410EEB9
:10278000010480EE400410EE3304704700B5FFF7FB
:10279000FCFE02E010FE30F4F8D441EC100443ECEF
:1027A000112400EE010410EE3004C0F300707047F5
:1027B00000B5FFF7EAFE02E010FE30F4F8D443EC77
:1027C000102441EC110400EE010410EE30F48CBF33
:1027D00001200020704700BF00B5FFF7D6FE02E0E1
:1027E00010FE30F4F8D443EC102441EC110400EE58
:1027F000010410EE30F42CBF01200020704700BF10
:1028000000B5FFF7C2FE02E010FE30F4F8D441EC50
:10281000100443EC112400EE010410EE30F42CBF40
:1028200001200020704700BF00B5FFF7AEFE02E0B8
:1028300010FE30F4F8D441EC100443EC112400EE07
:10284000010410EE30F48CBF01200020704700BF5F
:1028500070B504460A4E304604F05AFC204603F098
:10286000BFFE0546304604F023FC2DB12C44054B39
:102870009C4201D8284670BD0348FEF7EDFE00BF1C
:10288000A06402200000082044860010F8B5044629
:102890000E460C4F384604F03BFC3146204603F010
:1028A0005BFE0546384604F003FC06FB04F42DB13C
:1028B0002C44054B9C4201D82846F8BD0348FEF73E
:1028C000CBFE00BFA0640220000008204486001058
:1028D00038B50446054D284604F01AFC204603F09E
:1028E00087FE284604F0E4FB38BD00BFA064022048
:1028F000704720B108B50A684968904708BD70471D
:102900000146002007E000EB8000531C0B601378A9
:1029100003EB400030380A681378303BDBB2092BF8
:10292000F1D970472DE9F04F83B005460E46934626
:102930001F46DDF830A00D9CDDF838900F9B13F09A
:10294000030F19D1A0460192C84509D202F1010B2B
:102950003B4631462020A84708F101085A46F3E7D4
:10296000DDF804B008E0013C02F101083B463146C5
:102970001AF80400A8474246002CF4D10F9B13F02C
:10298000020F03D1104603B0BDE8F08FA2EB0B039A
:102990004B45F7D2541C3B4631462020A8472246DF
:1029A000F4E72DE9F04385B00C9D0D9C9DF838901F
:1029B000DDF83C80DDF840E0119F129E16F0020F1A
:1029C00021D17FB116F0010F0CD0B9F1000F02D167
:1029D00016F00C0F06D0013F04E04FF0300C05F864
:1029E00004C00134744501D21F2CF6D916F0010F32
:1029F00009D0BC4207D21F2C05D84FF0300C05F887
:102A000004C00134F2E716F0100F17D016F4806FEF
:102A100004D11CB1744524D0BC4222D0B8F1100FAF
:102A20002BD0B8F1100F33D0B8F1020F3BD01F2CD0
:102A300004D84FF0300C05F804C001341F2C07D81F
:102A4000B9F1000F37D04FF02D0C05F804C0013458
:102A50000396029701940095FFF764FF05B0BDE867
:102A6000F083B4F1010C06D0B8F1100F01D0644628
:102A7000D4E7023CD2E76446D0E716F0200FD0D16D
:102A80001F2CCED84FF0780C05F804C00134CEE7E7
:102A900016F0200FC8D01F2CC6D84FF0580C05F8E0
:102AA00004C00134C3E71F2CC1D84FF0620C05F8F5
:102AB00004C00134BBE716F0040F05D04FF02B0C17
:102AC00005F804C00134C3E716F0080FC0D04FF07A
:102AD000200C05F804C00134BAE7F0B591B0169C9B
:102AE000189D1B9E0CB926F0100616F4806E16D0A9
:102AF00064B34FF0000E12E00CF1300C5FFA8CFC66
:102B00000EF101070EF1400EEE440EF820CCB4FB9E
:102B1000F5FCAC421BD31F2F19D8BE466446B4FB4C
:102B2000F5FC05FB1C4C5FFA8CFCBCF1090FE3D9EA
:102B300016F0200F08D04127BC445FFA8CFCACF1A2
:102B40000A0C5FFA8CFCDBE76127F5E7274606965F
:102B50001A9C0594199C049403959DF85C4002947A
:102B6000019708AC0094FFF71CFF11B0F0BD2DE9F0
:102B7000F04F95B009900A910B929B461E9D1F9EA7
:102B8000229FDDF88C80DDF898A055EA060301D17C
:102B90002AF0100A1AF480641FD055EA060330D0D8
:102BA00000241AE003F13002D2B204F1010904F169
:102BB00050030DEB030404F8202C3A464346284604
:102BC000314604F06DFABD4276EB08031BD3B9F130
:102BD0001F0F18D84C4605460E463A46434628462F
:102BE000314604F05DFAD3B2092BDBD91AF0200F7D
:102BF00005D041221A44D2B20A3AD2B2D5E76122B4
:102C0000F8E74FF00009CDF818A0259B0593249B09
:102C1000049303979DF880300293CDF804900CAB99
:102C200000935B460B9A0A990998FFF7BAFE15B014
:102C3000BDE8F08F000000002DE9F04F91B0044690
:102C40000D4617461E46DDE91A2310461946FFF7C2
:102C5000A1FD002840F0ED804FF0FF32AE4BDDE9E2
:102C60001A01FFF7E5FD002840F0E3804FF0FF3246
:102C70006FF48013DDE91A01FFF79EFD002840F094
:102C8000D88000220023DDE91A01FFF795FD002816
:102C900040F0E2809DED1A7B8DED067B1E9B13F4C8
:102CA00080630D9301D106231C93DDE906231046B2
:102CB0001946CDE9080152EA030100F0D880C3F3B8
:102CC0000A50C3F31303904643F07F5949F4401967
:102CD000A0F2FF30FFF716FD7DA3D3E90023FFF735
:102CE0009DFC7DA3D3E90023FFF770FC82468B4651
:102CF00000228A4B40464946FFF77CFC78A3D3E983
:102D00000023FFF78BFC02460B4650465946FFF75F
:102D10005DFCFFF71BFD8246FFF7F4FC8046894609
:102D200071A3D3E90023FFF779FC00227C4BFFF766
:102D30004DFCFFF70BFD83466DA3D3E9002340460E
:102D40004946FFF76BFC804689465846FFF7DAFC98
:102D500069A3D3E90023FFF761FC02460B46404616
:102D60004946FFF747FC8046894602460B46FFF777
:102D700055FCCDE90A010BF2FF3B00210022CDE911
:102D800008124FEA0B5309930023089342464B461F
:102D900040464946FFF71AFCCDE90E0142464B4634
:102DA00000204FF08041FFF725FC80468946002235
:102DB0005C4BDDE90A01FFF757FC00225A4BFFF795
:102DC00005FC02460B46DDE90A01FFF74DFC002237
:102DD000564BFFF7FBFB02460B46DDE90A01FFF706
:102DE00043FC02460B4640464946FFF7EFFB0246CE
:102DF0000B46DDE90E01FFF737FC00224C4BFFF7D5
:102E0000E5FBDDE90823FFF709FC80468946CDE9AB
:102E10000889DDE90623FFF70BFD50B30AF1FF3AFD
:102E20000022414B40464946FFF71EFCCDE9080110
:102E30001FE01E9B04931D9B03931C9B02939DED1F
:102E40001A7B8DED007B33463A462946204600F03A
:102E500003F911B0BDE8F08F9FED297B8DED067B66
:102E60001A9B06931B9B03F10043079316E74FF051
:102E7000000A0AF16303C62B27D84FF004081E9BF3
:102E800013F4006F5FD0DDE9081213460B4313D033
:102E90001DA3D3E90023DDE90601FFF7B5FC0028F7
:102EA00000F0B4801AA3D3E90023DDE90601FFF79F
:102EB00083FC002800F0AA801C9B53453ADDA3EB5D
:102EC0000A0A0AF1FF331C9336E04FF00508D6E7F3
:102ED000FB799F501344D33FB3C8608B288AC63F09
:102EE00061436F63A787D23F71A379094F930A406B
:102EF0001655B5BBB16B0240EF39FAFE422EE63FE4
:102F000000000000000000002D431CEBE2361A3FD9
:102F10000000000080842E41FFFFEF7F0000F83F9B
:102F20000000E03F00002C4000002440000018405A
:102F30000000F03F00231C931E9B43F480631E930C
:102F40004FF00008C2461D9B984569D2A3EB0809C3
:102F50001E9B13F0020B04D0B8F1000F01D04FF00C
:102F60000009BAF1000F07D0DDE90823DDE9060109
:102F7000FFF77AFBCDE9060100220023DDE91A0103
:102F8000FFF71AFC00284ED11E9B23F40063049324
:102F9000CDF80C901C9B02939DED067B8DED007B84
:102FA00033463A462946204600F056F8B8F1000F5D
:102FB0003FF44FAF1E9B13F0200F3CD04FF0450C59
:102FC00000F101093346024629466046A0478AEAD5
:102FD000EA72A2EBEA720523059308F1FF3304932A
:102FE000002303930A2302934FEADA7001900092C0
:102FF00033464A4629462046FFF76FFDBBF1000FD6
:103000003FF427AF0246DDF874901EE01C9B002BB6
:1030100099D00D9B002B96D01C9B013B1C9392E7F3
:103020004FF0000994E7DDE90601024601F1004393
:10303000CDE90623A8E74FF0650CC1E702F10108CE
:10304000334629462020A0474246D31B4B45F5D3A3
:103050001046FEE6000000002DE9F04F2DED028B3A
:1030600095B007900A9192469B46DDE92089229D02
:1030700042464B4640464946FFF78CFB002835D177
:103080004FF0FF326FF4801340464946FFF794FB40
:1030900000283AD14FF0FF329F4B40464946FFF798
:1030A000C7FB002840D198A3D3E9002340464946F6
:1030B000FFF7BEFB00284FD195A3D3E9002340467C
:1030C0004946FFF779FB002846D1002200234046FD
:1030D0004946FFF771FB00284CD100230B93249B3A
:1030E00013F4806F00F0B780002456E0249B039314
:1030F000239B029303230193884B00935B46524624
:103100000A990798FFF70EFC37E1249B0393239B52
:10311000029304230193824B00935B4652460A9923
:103120000798FFF7FFFB28E1249B13F004030FD05F
:103130007C4A7BB104232499039123990291019342
:1031400000925B4652460A990798FFF7EBFB14E1A1
:10315000754AEEE70323EEE7249B0493239B039336
:103160000295CDE900895B4652460A990798FFF718
:1031700063FD02E142464B4600200021FFF73AFA88
:103180008046894601230B93A9E704F150036B4461
:10319000302203F8202C013D01341F2C01D8092DC9
:1031A000F3D840464946FFF7D1FA0646FFF7AAFA98
:1031B00002460B4640464946FFF71CFA5B4B03EBC1
:1031C000C50393ED008B53EC182BFFF727FA02464B
:1031D0000B46CDE90823FFF7CBFA0746FFF7A4FA21
:1031E00002460B46DDE90801FFF704FA02460B46EA
:1031F000CDE9082300224E4BFFF71AFB68B30137D5
:103200003846FFF791FA02460B4651EC180BFFF7D0
:10321000E7FA08B1013600276DBB3046FFF772FAB6
:1032200002460B4640464946FFF7E4F90746884602
:1032300000223F4BFFF7C0FA00284CD100223C4B44
:1032400038464146FFF7F4FA002844D116F0010F42
:1032500041D001363FE0062546E70022344BDDE948
:103260000801FFF7A9FA0028D6D117B117F0010F0E
:10327000D2D00137D0E71F2C17D8013D2D4BA3FB2F
:103280000723DB08194603EB8303A7EB4303621C08
:10329000303304F150000DEB000404F8203C092FFA
:1032A00002D90F461446E6E714461F2C0AD86B1EB7
:1032B00045B104F150026A44302102F8201C1D4639
:1032C0000134F2E71F2C06D804F150036B442E2280
:1032D00003F8202C01341F2C31D8174A82FB063208
:1032E000F317C3EBA2031A4603EB8303A6EB4303D6
:1032F000611C303304F150000DEB000404F8203C55
:103300001646DAB10C46E6E70000000065CDCD4177
:103310000000000065CDCDC1FFFFEF7FF0860010FB
:10332000F4860010E8860010E48600100087001084
:103330000000E03FCDCCCCCC676666660C46249B93
:1033400003F00303012B1DD01F2C09D80B9B002B6E
:1033500035D004F150036B442D2203F8202C0134A6
:10336000249B0393239B029301940CAB00935B4635
:1033700052460A990798FFF7D5FA15B0BDEC028BB3
:10338000BDE8F08F239BB3B10B9B1BB9249B13F0BB
:103390000C0F12D0239B013B2393194606E004F146
:1033A00050036B44302203F8202C01348C42CBD2E2
:1033B0001F2CF4D9C8E72399F8E72399F6E7249B53
:1033C00013F0040F07D004F150036B442B2203F8D1
:1033D000202C0134C4E7249B13F0080FC0D004F163
:1033E00050036B44202203F8202C0134B8E700BFBF
:1033F0002DE9F04F8FB0074616460D9388460029F9
:1034000000F0248300240D9B1878002800F020830E
:10341000252809D0651C334622464146B8470D9BF6
:1034200001330D932C46EEE701330D9300250D9BE0
:103430001978A1F12002102A0AD8DFE802F0380931
:10344000093D0909090909090933092E0909290052
:10345000A1F13003DBB2092B33D92A2936D000235E
:103460000A930D9B1A782E2A40D04FF0000B0D9A2C
:103470001378683B122B77D8DFE803F06476D376B5
:103480005676767676767676727676767676D80014
:1034900045F0010501330D93C9E745F002050133FD
:1034A0000D93C4E745F0040501330D93BFE745F0E4
:1034B000080501330D93BAE745F0100501330D936C
:1034C000B5E70DA8FFF71CFA0A90CAE7189B1A1D6A
:1034D00018921868002804DB0A900D9B01330D93A5
:1034E000BFE745F0020543420A93F6E745F48065DD
:1034F0005A1C0D925A78A2F13003DBB2092B04D981
:103500002A2A07D04FF0000BB1E70DA8FFF7F8F912
:103510008346ACE7189B1A1D18921B6823EAE37BCD
:103520000D9B01330D93A2E745F48071531C0D935D
:1035300052786C2A01D00D4616E045F440750133EF
:103540000D9311E045F08001531C0D935278682AC9
:1035500001D00D4608E045F0C00501330D9303E0AE
:1035600045F4807501320D920D9B1878A0F125036A
:10357000532B00F26182DFE813F054025F025F0216
:103580005F025F025F025F025F025F025F025F0233
:103590005F025F025F025F025F025F025F025F0223
:1035A0005F025F025F025F025F025F025F025F0213
:1035B0005F025F025F025F025F02740154017401E7
:1035C0005F025F025F025F025F025F025F025F02F3
:1035D0005F025F025F025F025F025F025F025F02E3
:1035E0005E005F025F025F025F025F025F025F02D6
:1035F0005F025F025E009B015E0074015401740172
:103600005F025E005F025F025F025F025F025E00B8
:1036100039025F025F02D4015F025E005F025F0257
:103620005E0045F4007501320D929DE745F480750A
:1036300001320D9298E7782809D058283AD06F289F
:103640003AD062283AD025F010050A2300E0102372
:10365000582835D0692803D0642801D025F00C05FE
:1036600015F4806F01D025F0010569282BD064285E
:1036700029D015F4007F40F0968015F4807F40F04B
:10368000AE8015F0400F00F0BF80189A111D189100
:10369000127805950A990491CDF80CB00293002395
:1036A000019300923346224641463846FFF715FA09
:1036B000044629E01023CBE70823C9E70223C7E724
:1036C00045F02005C6E715F4007F21D115F4807F71
:1036D00042D115F0400F58D0189A111D1891127848
:1036E00082EAE271A1EBE27105950A980490CDF8A7
:1036F0000CB00293D20F019200913346224641460C
:103700003846FFF7EAF904460D9B01330D937AE63C
:10371000189A073222F0070202F108011891516845
:1037200012680846002913DB08950A9D0795CDF815
:1037300018B0049300230593C90F029100920190E1
:103740003346224641463846FFF711FA0446DBE786
:10375000524261EB4100E7E7189A111D1891126877
:1037600082EAE271A1EBE27105950A980490CDF826
:103770000CB00293D20F019200913346224641468B
:103780003846FFF7AAF90446BEE715F0800F05D0CA
:10379000189A111D1891B2F90020A1E7189A111D6D
:1037A000189112689CE7189A073222F0070202F17A
:1037B0000801189108950A990791CDF818B00021D1
:1037C000049305910291D2E90023CDE90023334609
:1037D000224641463846FFF7CAF9044694E7189A4C
:1037E000111D189105950A990491CDF80CB002931A
:1037F000002301931368009333462246414638461E
:10380000FFF76BF904467FE715F0800F04D0189A94
:10381000111D189112883CE7189A111D1891126811
:1038200037E746281AD0189B073323F0070303F124
:103830000802189204950A9A0392CDF808B0D3E9C9
:103840000023CDE900233346224641463846FFF7A0
:1038500003FC04460D9B01330D93D4E545F0200590
:10386000E1E7672801D0472801D145F400654528E4
:1038700001D0472801D145F02005189B073323F0DC
:10388000070303F10802189204950A9A0392CDF8EF
:1038900008B0D3E90023CDE9002333462246414650
:1038A0003846FFF7C9F904460D9B01330D93AAE58D
:1038B00015F002051FD04FF001091898031D189349
:1038C00004F1010A3346224641460078B847BDB9A3
:1038D0000D9B01330D93544695E502F1010A3346E1
:1038E00041462020B8474B46524603F101099B450B
:1038F000F3D81446E1E70123DDF828B02246F4E7C7
:103900005246DDF828A006E0551C334641462020EB
:10391000B847A1462A4609F10104CA45F4D892469F
:10392000D6E7189B1A1D1892D3F800A0BBF1000F20
:103930001ED14FF0FF33D14602E009F101091346D1
:1039400099F8002012B15A1E002BF6D1A9EB0A09F2
:1039500015F480630B9302D0D94528BFD94615F0E2
:1039600002030C9306D022465C46B3460B9E1DE034
:103970005B46E0E722460A9C4B4607E002F101095C
:10398000334641462020B8472B464A465D1C9C42A0
:10399000F4D8A9465C46B3460B9E07E01C460AF1E4
:1039A000010A551C5B464146B8472A469AF8000072
:1039B00020B1002EF3D0631E002CEFD114465E46DA
:1039C0000C9B1BB90D9B01330D931CE5DDF828A062
:1039D00006E0551C334641462020B847A1462A46FA
:1039E00009F10104CA45F4D81446EBE745F0210576
:1039F000189B1A1D18921B68059508220492CDF891
:103A00000CB010220292002201920093334622460B
:103A100041463846FFF761F804460D9B01330D938C
:103A2000F1E4651C3346224641462520B8470D9BEC
:103A300001330D932C46E6E4651C3346224641468D
:103A4000B8470D9B01330D932C46DCE4074FD9E4B6
:103A5000B44201D3721E00E02246334641460020A4
:103A6000B84720460FB0BDE8F08F00BFF128001026
:103A700000B585B002900391009313464FF0FF32DA
:103A800002A90348FFF7B4FC05B05DF804FB00BFD2
:103A9000F328001000BEFDE70346094A126842B150
:103AA000074A10680344074A934206D8044A136041
:103AB0007047034A04491160F2E74FF0FF30704746
:103AC000C06C02200000082040B8022008B5FFF7B3
:103AD000E1FF000000B583B08C46194613465AB189
:103AE000074A5BB10193009263460246054800F025
:103AF00053F90120FFF7CEFF034AF2E7024BF1E74B
:103B000050870010608700101C74001010B5EFF390
:103B10000583DBB203B100BE0648FEF733FDFEF7B6
:103B20002DFC054C02E054F8043B9847034B9C42A3
:103B3000F9D310BD001C08206071001064710010E2
:103B400008B5034608461B681146984708BD0000A3
:103B5000F8B507460D461646437D13B100242046AE
:103B60000CE003681146284698472EE03B7D10E0A4
:103B70003B68022115489847601C0134B44214DAAE
:103B8000002CF3DD2B1913F8013C0D2B14BF00237F
:103B900001232A5D0A2AF0D1002BEED1A042E7DAF8
:103BA0003B68211A28449847E2E7B04203DA3B68B1
:103BB000311A28449847002E07DD354415F8013C9A
:103BC0000D2B14BF002301233B75F8BD9087001017
:103BD00038B50368BBB105460B4B1C6806E02946A7
:103BE00051F8042B2046FFF7B3FF24694CB123683A
:103BF000002BFAD0054B1B68002BF0D0A342F4D168
:103C0000EDE700232B6038BD546A0220AC6A022025
:103C100038B505460C460B68802B05D021684B1C37
:103C200023600C44257138BD0846FFF7D1FFF5E746
:103C300008B5FDF7FFFC074A821841F10003002B8D
:103C400003DB054803F044FA08BD4FF0FF326FF084
:103C50000043F6E740420F00A864022008B502487E
:103C600003F026FA08BD00BFA86402202DE9F04346
:103C700083B006460D4690461C46FFF7D9FF8146A5
:103C8000B5F1FF3F04D044B1174F184B1C6807E053
:103C9000304603F071F80546F5E7154FF5E724695E
:103CA000BCB12368002BFAD0124B1B680BB1A342A6
:103CB000F5D12A4631462046B847B8F1000FEED07C
:103CC0000A238DF8073001220DF107012046B8477D
:103CD000E5E7B9F1000F03D1284603B0BDE8F08352
:103CE000FFF7BCFFF8E700BF513B0010546A022009
:103CF000413B0010AC6A0220084A01E003F11002C7
:103D000013683BB18342F9D131B9036913600023D1
:103D10000361704701B11060704700BF546A022010
:103D200010B5054B1C6801E0984724691CB1636815
:103D3000002BF9D1F9E710BD546A022038B50546C9
:103D400003F01AF8044601231A4601462846FFF7F5
:103D50008DFFFFF7E5FF204638BD000070B5A2B02B
:103D600004460E46FFF764FF0546002301933346E1
:103D7000224601A90748FFF77BFE044601A8FFF78A
:103D800027FFFFF7CDFF15B9204622B070BDFFF722
:103D900065FFF9E7113C00100FB400B583B004A92A
:103DA00051F8040B0191FFF7D9FF03B05DF804EB64
:103DB00004B0704730B583B086460C464FF0000C17
:103DC00013E00D238DF8073000200DF10701E0B955
:103DD000936913F0200FFBD10B4613F8011B116000
:103DE00001301946F3E70CF1010CA4451FDA114B21
:103DF0001A681EF80C50104B9A4214BF002301237E
:103E00000E4931F91330AB42DBD08DF8075000205A
:103E10000DF107010028E6D1936913F0200FFBD1C3
:103E20000B4613F8011B116001301946F2E703B08D
:103E300030BD00BF00B6022000800740FCB5022064
:103E400070B582B005460E46002104E09DF80730AB
:103E50008EF800306146B14218DA164B1A68906944
:103E600010F0100012D101F1010C05EB010E0DF163
:103E700007010028EAD1936913F0100FFBD11468F1
:103E80000B4603F8014B01301946F2E70A4B1B6859
:103E90004BB1084B1B6850229A635A6B02F03802F0
:103EA00003F581535A6111B1084602B070BD6FF03D
:103EB0000201F9E700B60220E466022008B5054BCE
:103EC0001B6833B1044A126800219163034A1068E9
:103ED000984708BDE466022000B60220E86602208A
:103EE000034B1A68936913F0080FFBD1704700BFAA
:103EF00000B6022038B51C4B1B681C4A934206D002
:103F0000212410B11A4A12681AB1C8B138BD22244E
:103F1000F7E7174B1860174B196017492046FDF754
:103F2000C3FC01212046FDF7ADFC0F4B1B6850225E
:103F30009A635A6B02F0380203F581535A61E5E740
:103F40000B4A1268002AE1D000259D6329462046CD
:103F5000FDF798FC08492046FDF708FE044B1D605C
:103F6000044B1D60D2E700BF00B60220008007406E
:103F7000E4660220E8660220BD3E001038B50D461A
:103F80001C46104B1860101E05DB10F0020F15D0F8
:103F90000B21FDF75BFF002C06DB14F0020F0FD0A6
:103FA0000B212046FDF752FF2946064B1868FDF706
:103FB000EFFF01210448FFF79FFE38BD0221E8E72B
:103FC0000221EEE700B60220BC56022008B5074BDE
:103FD0001B78074B1B78074B1B78012300224FF4FB
:103FE000E1310548FFF7CAFF08BD00BFF49B001090
:103FF000F89B0010FC9B0010000007400D4A4FF09A
:104000005043C3F88820C3F88C20C3F8C8200A4A5C
:10401000C3F8CC2041F66D42C3F8AC2041F66842AB
:10402000C3F8EC2042F26902C3F8F020034AC3F857
:10403000B0207047D4560220D4590220721C0100CF
:104040004FF0A0420123C2F86434D2F86434DB0795
:10405000FBD40123C2F80C34704700BF012030B5F7
:104060004FF00314097BB3F80AE0013901FA00FCB0
:1040700084444FEA0C2C1FFA8CFC4CEA0E0EA3F879
:104080000AE0B3F80CE049024CEA0E0EA3F80CE08B
:10409000B3F80EE089B241EA0E0EA3F80EE0B3F8D1
:1040A00012E00F4D41EA0E0EA3F812E0B3F816E04D
:1040B00041EA0E0EA3F816E0B3F81AE04CEA0E0C33
:1040C000A3F81AC0B3F81EC041EA0C0CA3F81EC036
:1040D000B3F806C041EA0C01D980C2E9015430BDF1
:1040E000D45B022008B54FF41571024B024A034815
:1040F000FFF7F0FCDC8700105889001004880010DE
:1041000008B540F21D51024B024A0348FFF7E2FC9A
:1041100048880010808900100488001070B59C4603
:104120000124164682B000940CF10D0405462403C8
:1041300008460CF10B0144EAC11410230022314659
:1041400000F0F9FB24F47E046EB144F438144FF40B
:1041500080324FF08073284604492A60C5E9014146
:10416000EB6002B070BD44F40034F0E700000E4094
:10417000014B9869704700BF64B502200000000041
:104180002DE9F04F334F44229BB081460C46384610
:10419000002102F065FD0220FDF7D0FA034604205D
:1041A000FB60FDF7CBFA78630320FDF7C7FA0346FF
:1041B000DFF8C0800520FB624546FDF7BFFA4E469A
:1041C0004FF0FF3338607B610FCE0FC53368C8F8FE
:1041D00000402B609BB213B90123A8F81030B9F846
:1041E00008301D4A5B08033B9380002101221B48D5
:1041F000FCF720FE4FF424710120FEF747FBA426B4
:10420000DFF874B0CBF80400ABF80A600BF11C05C2
:104210000BF5E07A45F8045C4FF424710120FEF7B9
:1042200035FB1C3525F8126C554545F8180CF1D1B5
:104230000025C7F830B0CBF8BC51BFF35F8F084BF7
:10424000084E1B78084B1B78084B1B78084B1B78D3
:1042500019E000BF64B50220D45B022004B602203E
:10426000009C0010DFFF0300049C0010089C00105D
:104270000C9C00100CB6022080B102200135122DDA
:104280004FEA56060AD0F007F8D528460621013530
:10429000FDF7DCFD122D4FEA5606F4D10520FDF79F
:1042A00019FF2268DFF8E8B2B0FBF2F3ABF8003098
:1042B0009BB202FB03F3834240F03D81D9F80450E6
:1042C0002B681A79202A00F23A81D3E9001A0AAE43
:1042D0005200304602F04EFC33469D4A494628467D
:1042E000CDE9046AAD68A8479A4804A900F097FA96
:1042F000D9F80430984A1B6810701B79002B00F025
:104300001781B44600214FF0FF3542F2C4093CF852
:10431000022B4A4508BF0D4601318B42F7D10122DD
:104320008B4B3D640021C5B28C485A75FFF734FDB4
:10433000D8F804300022DF6886492B4606A8B84723
:10434000BBF800302A46D8015B08C0B21B0443EA20
:104350000023002106937F4806AB00F03BFB804A18
:10436000804B257E0592049693E8070086E80700B7
:10437000002D40F0C6804CF204034CF244074CF28E
:1043800001054FF440460393DFF8C89104A948465D
:1043900000F045FA80464FF0010A734B03216F4845
:1043A00083F80080FFF7F8FC9FED677BBBF80030D7
:1043B0005FFA88F8DA0123FA0AF3D2B21B0443EA5F
:1043C0000223069308F1050308EB0A021B0343EAE4
:1043D000C213484603211022CDF800A00793022300
:1043E0008DED087B00F0A7FA424606AB4846032154
:1043F00000F0F0FA00210F20FDF78EFC4021102084
:10440000FDF78AFC40210A20FDF786FC504600F0AB
:104410001BF94FF0190800204FF0A0414CF2440E58
:10442000524BB4F80AC0C3F804A4DFF868A1A3890A
:1044300022890860C1F804A08860C1F81080C9F81A
:1044400020E1A17D9A1A8142A17B13BF8346814658
:104450004FF0804B4FF08049814214BF80464FF0AF
:104460000108A188A2EB0C02A2EB0102ACF107014A
:10447000B4F806A0208A4FEA0141B4F812E041EAFC
:104480004871504446EA487645EA487541EA0708CB
:1044900037498644A48AA3EB0203C1E9020E46F41D
:1044A000803645F48035A2F10300A3EB0C03C1E98B
:1044B00000A4C1E90596C1E90758C1F810B047EA60
:1044C0000040A3F103032CD0039A40F0005042EACD
:1044D00003444FF020421B0443F000531F43254B7D
:1044E0004862C3E90180012022438A62C1F830900A
:1044F000214ACF6221491D60DF6011601BB0BDE819
:10450000F08F1F4B1F4A4DF24407CDE90A231E4B83
:104510004DF201050C934DF204034FF45046039302
:1045200032E7039A42EA03444FF000421B04D5E706
:104530004FF0FF35F3E601461448FDF78DF8FFF71D
:10454000DFFD00BFAFF3008000000E001000202050
:1045500084660220000020503DB80220148900101B
:1045600006FF0100C88900103CB80220002000505E
:10457000BCB50220446A0220A06602204D13002030
:104580002D600370A090F06042A04410C08800101D
:104590002EB80220100020500168FFF7F1BD00BFC7
:1045A000F8B51B4E3378834200D1F8BD80224FF41A
:1045B000407C184B184F194D0146C7F800C00446FF
:1045C0001A604FF4C230FDF741F90921284600F086
:1045D00015F94FF410622B6823F009032B60104B80
:1045E0001A609CB10F4B104A5B6812781B7903F07C
:1045F0001F0313440D4AC5F8D830137803F01F0386
:10460000C5F820312B6843F009032B603470F8BDE6
:104610003EB802207C212050702120500000205004
:10462000002020500CB602203DB802203CB80220E9
:1046300008B50146024A0348FDF742F808BD00BF2D
:10464000D48900102CB8022038B50446002501E0BA
:104650000135640834B114F0010FF9D02846FFF792
:10466000E7FFF5E738BDD0F8683113B111F0010F5D
:1046700005D133B911F0040F05D000207047002098
:104680007047012070470120704708B5C979FFF7CE
:10469000EAFF08BD70B504460D461646FFF7F5FF64
:1046A000D0B195F90530002B01DBB34217D104F1ED
:1046B0002F4000F56000000D0A4B53F820102A79B6
:1046C00001239340013B03FA06F20A4201D1002084
:1046D00070BD6FF00800FBE76FF00A00F8E76FF0BD
:1046E0000A00F5E7C4660220F8B506460D461746EF
:1046F000FFF7D0FF20BB034606E003EB070C0CF1ED
:10470000120C46F82C4001332979994207D92A68BE
:1047100032F8134014F4604FEFD13C44EDE701232D
:1047200003FA01F1013906F12F4606F56006360D50
:10473000B940044A52F82630194342F82610384648
:10474000F8BD00BFC466022010B50A79202A19D826
:1047500000F12F4000F56000000D154B53F820408C
:1047600001239340013B91F90510002910DB084615
:10477000C2F12002914218DC8B40234201D04FF05D
:10478000FF3010BD0B4B0C4A43210C48FFF7A2F938
:10479000C2F12000002805DB03FA00F22242F0D02B
:1047A0000138F7E76FF00800EBE74FF0FF30E8E77C
:1047B000C4660220F8890010BC8A0010248A001008
:1047C00008B500F12F4000F56000000D02280AD066
:1047D000012806D0054A01EB80010548FCF770FF6F
:1047E00008BD044AF7E7044AF5E700BF588A0010FD
:1047F000F4660220988A0010748A001070B506468C
:104800000C46002501E0013564083CB114F0010FAD
:10481000F9D029463046FFF7D3FFF4E770BDF8B56D
:1048200005460E46FCF730FF074631462846FFF79F
:104830008BFF041E04DA3846FCF738FF2046F8BD2B
:10484000224631462846FFF74FFF0446F3E7F0B50E
:1048500001EB410300EBC303D3F8DC70D3F8CC6069
:1048600001EB4103DB00C833034403F540534FF42D
:1048700000345C604FF0000E202418E0A446052CA4
:1048800028BF4FF0050C4FEA4E1545EA8C6501EB49
:10489000410300EBC303C3F8DC5002F01F0545F4ED
:1048A0006045C3F8D850A4EB0C04E6445209002C30
:1048B000E4D101EB410300EBC303C3F8DC70C3F8A0
:1048C000CC60F0BDF0B401EB410400EBC404D4F8BB
:1048D000DC70D4F8CC6001EB4104E400C83404443B
:1048E00004F540544FF40035656018E093FAA3F4E2
:1048F000B4FA84F4650145F0806501EB410C00EBEE
:10490000CC0CCCF8DC5022FA04F404F0010444F49A
:10491000604444F08004CCF8D8405C1E2340002B57
:10492000E4D101EB410300EBC303C3F8DC70C3F82F
:10493000CC60F0BC7047F0B59DF81470D0F86841B9
:10494000121B1F2A43D801EB410400EBC404D4F826
:10495000DC60D4F8CC5001EB4104E400C8340444DA
:1049600004F540544FF4003CC4F804C017B14FF0B4
:104970001F0E15E04FF0000E12E0540144F0A05459
:1049800001EB410C00EBCC0CCCF8DC404EF4604465
:1049900044F08004CCF8D840053B053202F01F02F9
:1049A000052BEAD8520142EA836201EB410400EB95
:1049B000C404C4F8DC204EF4604343F08003C4F820
:1049C000D830C4F8DC60C4F8CC500020F0BD6FF0E3
:1049D0000400FBE730B589B086468C461446026871
:1049E000012101FA0CF122EA01020260002B38D009
:1049F0001A4619680CEB4C0300EBC303C3F8C8104C
:104A00009168C3F8D0105168C3F8CC10D268C3F8CD
:104A1000DC200CEB4C03DB00D033734403F58053F4
:104A20004FF000421A601A604FF0013303FA0CF3A2
:104A3000CEF808300CF10402012303FA02F20EF55D
:104A400000510A600CF1080293400B6004F01F044F
:104A50000CEB4C0C0EEBCC0CCCF8D840002009B081
:104A600030BD04AB002204920592069207924FF4E7
:104A7000803204924FF4F83205924FF4802206926D
:104A80004FF4402206926D460FCB85E80F000CEBE9
:104A90004C030EEBC303C3F8C8004FF44022C3F825
:104AA000D020C3F8CC100022C3F8DC20B1E700000E
:104AB00010B5D200022830D0404C2478022C01D10D
:104AC00001283DD102F1FF3C01F1040EBCF5803F0D
:104AD0005DD24CF410240C609BB1394B196800EB8B
:104AE000400301EBC303D3F8CC3023F4FF3323F4AA
:104AF000C07343F4744300EB400401EBC401C1F8FC
:104B0000CC3012F01F0F48D1022855D00023704638
:104B100043F4E02340F8043B10BD12F01F0F06D110
:104B2000264C2478022C09D010242244C4E7254BBB
:104B3000254A4FF437712548FEF7CCFF4024F4E7AF
:104B40009408013C01F1040EB4F5803F19D244F4FD
:104B500010240C60002BD4D0194B196800EB4003D3
:104B600001EBC303D3F8CC3023F4FF3323F4C07339
:104B700043F4584300EB400401EBC401C1F8CC30CE
:104B8000BFE7134B134A29211048FEF7A3FF104B30
:104B9000104A29210D48FEF79DFF524202F01F02E4
:104BA00042F4804242F060020EF1040342F4E0223B
:104BB000CEF800209E46A7E70223A8E733B80220DC
:104BC000E05B0220F08A0010B88F0010048B001008
:104BD000408B0010808F0010094B23F0320343F00C
:104BE000500323F4FC0343F4481323F00C034FF069
:104BF000A042C2F8D030034BC2F8D030704700BF9B
:104C000019607E00319808002DE9F04387B0054611
:104C10000F4690461E46764B196801311960754B58
:104C20001B689C6834F07F4422D1724BD3F800900B
:104C30004FF0000CD9F8044014F0007F2AD10CF199
:104C4000010C6D4CA445F5DD694B19680131196003
:104C5000684B1B689C6834F07F4412D1D9F8EC2073
:104C600001216648FFF798F800BE4FF0FF3913E0C6
:104C70002346634A6348FFF78FF85E4B1B689C60CE
:104C8000D3E72346604A5F48FFF786F8594B1B6815
:104C90009C60E3E74FF00009B9F1000F17D0B9F1BC
:104CA000000F10D1534A11680B6823F002030B6008
:104CB0001368564A5A615D615F61002E3AD11A68E5
:104CC00042F002021A60484607B0BDE8F083484B44
:104CD000196801311960474B1B689C6834F07F44A8
:104CE0001CD1454C013C05D0424B1B68D3F8EC303D
:104CF000022BF7D1DCB13E4B1968013119603D4BF5
:104D00001B689C6834F07F44C9D02346404A3D4824
:104D1000FFF742F8374B1B689C60C0E723463D4ACB
:104D20003848FFF739F8334B1B689C60D9E74FF0E0
:104D3000FF39B4E701210591049103910023029307
:104D400001930093334642460B2002F0C9F9044612
:104D50000028B8D1C5F30565D8F800704FEA5709A7
:104D6000D8F80430FE0746EA5306022D3DD0292D1F
:104D70000DD1294B09EA0303B3F17C5F14BF002373
:104D80000123360CFF2E2AD14BB381469BE74FEA15
:104D90005768B5EB576F1AD1204A12F80810C7F3BD
:104DA00047434B40D15CC7F347234B40D15C5FFA8C
:104DB00089F34B40D35C83EA1663D15C41F0010177
:104DC000320CC6F30746B14205D1A1467BE7144831
:104DD000FEF7B4FFE0E7D2B21248FCF73DFC124800
:104DE000FEF7ACFF6FF001096DE781466BE700BF8E
:104DF00028670220E05B022040420F00F48B001085
:104E0000688D00105C8B0010EC8B00102F000300ED
:104E1000708D00106C8D001000001EFF709000104F
:104E2000748D0010788D0010908D001038B5764B81
:104E3000196801311960754B1B689C6834F07F4418
:104E40001ED1724B1C680023626812F0806F29D15A
:104E500001336F4A9342F7DD6B4B196801311960DA
:104E60006A4B1B689D6835F07F4512D1D4F8042148
:104E700002216848FEF790FF00BE4FF0FF3412E0B9
:104E80002346654A6548FEF787FF604B1B689C60B8
:104E9000D7E72B46624A6148FEF77EFF5B4B1B68F3
:104EA0009D60E3E700241CB1002C34D0204638BDBF
:104EB000554B196801311960544B1B689D6835F0DA
:104EC0007F451CD1524B013B05D0504A1268D2F8A5
:104ED0000421022AF7D1DBB14B4B1968013119606B
:104EE0004A4B1B689D6835F07F45DDD02B464D4A07
:104EF0004A48FEF751FF454B1B689D60D4E72B469F
:104F0000494A4648FEF748FF404B1B689D60D9E779
:104F10004FF0FF34C8E73D4B1B68444A9A61444A4E
:104F20009A614FF4E0229A61374A116801311160A9
:104F30009D6835F07F4548D1344B1D6823466A682B
:104F400012F0806F16D10133314A9342F7DD2E4BB8
:104F50001968013119602D4B1B689C6834F07F443F
:104F60003CD1D5F8042102212A48FEF715FF00BEE6
:104F70004FF0FF34002C99D1234B1968013119608F
:104F8000224B1B689D6835F07F4530D1204B013B9B
:104F900005D01E4A1268D2F80421022AF7D1002B4C
:104FA0002ED0194B196801311960184B1B689D6888
:104FB00035F07F453FF47AAF2B461A4A1748FEF783
:104FC000EBFE124B1B689D6070E72B46124A13489C
:104FD000FEF7E2FE0D4B1B689D60ADE72346104ACD
:104FE0000E48FEF7D9FE094B1B689C60B9E72B46BB
:104FF0000D4A0A48FEF7D0FE044B1B689D60C5E7CA
:105000004FF0FF3452E700BF28670220E05B022028
:1050100040420F00F48B0010688D00105C8B001074
:10502000EC8B0010708D00106C8D001080E007007C
:10503000A020070010B586B0044668B104213148AD
:10504000FEF7AAFE304B1B7853B13CB101229342CC
:1050500006D0002006B010BD0121F0E70222F6E7DD
:105060001CB12A4B1B78002B3DD0294B1B78294AB9
:10507000107883F0E001284A515C4140515C515C5A
:10508000515C090641F0807141F0770143F4EE4331
:1050900040EA0320062301AA0002090AFFF7B4FD33
:1050A000D8B934B3022383F086021B49885C00061A
:1050B00040F0807040F046001B0243EA1063020299
:1050C0001B0243EA12634FEA004C1902062301AAAD
:1050D000000641EA1C61FFF797FD70B95CB102223E
:1050E000094B1A70B6E70D48FEF728FE6FF0030073
:1050F000B0E70023D7E70122F2E7034B00221A7042
:10510000A8E700BFA88D001033B8022031B80220F4
:1051100039B802203AB8022070900010BC8D0010FF
:10512000074B1B680004C3F8C800C3F8E000C3F8CD
:10513000F80003F500534FF4E0621A600020704756
:10514000E05B0220000000002DE9F04F9BB0064616
:10515000CA4B1B780025CA4B1D70CA4C1323236011
:1051600007211720FCF772FE07211820FCF76EFEBE
:1051700007212068FCF76AFE012229461720FCF768
:1051800081FE2A4601211820FCF77CFE2A460121D7
:105190002068FCF777FEBC4B1E70206807210130A9
:1051A000FCF754FE206807210230FCF74FFE206810
:1051B00007210330FCF74AFE20682A4601210844F3
:1051C000FCF760FE20682A4601210230FCF75AFEF7
:1051D00020682A4601210330FCF754FEAB4B1B78B4
:1051E0009BB9AB49AB4B1868FFF719FBAA4B18608A
:1051F000002840F0DA81A949A64B1868FFF70FFB99
:10520000A74B1860A14B01221A70A54BD3F800C020
:1052100005AD002705976F60AF60EF604FF4803AEF
:10522000CDF814A04FF4F839CDF818904FF4802839
:10523000CDF81C804FF44023079301AC95E80F0094
:1052400084E80F000CF1010221F4FF3323F4C07352
:1052500043EACC1343EA0233029327F0604242F060
:105260000052049223F0C04302930EAE94E80F0064
:1052700086E80F0023F4F84343F4B8431193334610
:105280006246394683480068FFF7A4FBDFF808B29E
:10529000DBF800C005976F60AF60EF60CDF814A039
:1052A000CDF81890CDF81C804FF44023079395E873
:1052B0000F0084E80F000CF108010CF10F0229F433
:1052C000FF3323F4C07343EAC11343EA023302936A
:1052D0000DF1580E94E80F008EE80F0086E80F00DD
:1052E00023F01F0242F01802119223F07C7323F086
:1052F0001F0343F4801343F01803119323F47872CF
:1053000042F44072119223F0E05323F4787343F097
:10531000806343F44073119323F4782343F44023D0
:1053200011934FF4402323F0FA7323F480330343A3
:10533000109323F07F5323F4781343F40033109336
:1053400033466246012153480068FFF743FBDBF810
:1053500000C005976F60AF60EF60CDF814A0CDF886
:105360001890CDF81C804FF44023079395E80F0068
:1053700084E80F000CF108010CF10F0229F4FF334F
:1053800023F4C07343EAC11343EA0233029312AD1C
:1053900094E80F0085E80F0086E80F003A4B1B7871
:1053A000002B00F009810420364B1A68119B23F072
:1053B0001F0302F01F010B43119323F07C7343EA98
:1053C0000053119323F47873510101F478710B4366
:1053D000119323F0E05343EA8063119323F478237D
:1053E000D20302F4782213431193109B23F0FA7333
:1053F00023F4803343F48033109323F07F5323F45A
:10540000781343F400331093224C0EAB6246022112
:105410002068FFF7DFFA3220FFF782FE20680023C2
:10542000C0F8F0300223C0F80831174B1B78002B6E
:1054300000F0C4800F24134B1A6804FA02F242F001
:10544000C07213460021FFF73DFA124B1B6844F46B
:105450006044C3F80841134A5A614FF0FF325A6161
:105460005A61114A5A6103F5005340F207721A60FB
:10547000002309AA4FF0804018E000BF109C0010E4
:1054800033B8022060B5022031B8022030B80220C3
:105490007C910010E05B0220FC66022070910010FD
:1054A000F86602204F0003000000FFFF4FF41501D3
:1054B000FFF7AAFB062309AA55A1D1E90001FFF7CE
:1054C000A3FB099AD3070A9943EA51031BBA0A932B
:1054D000520812BA0992DBB2A52B71D1062309AA90
:1054E0004FF0EE404FF4CA01FFF78EFB062309AAE6
:1054F00049A1D1E90001FFF787FB099BDA070A9967
:1055000042EA510212BA0A925B081BBA0993DAB254
:105510003F2A5CD113F4004FE0D03348FEF70EFC75
:10552000112309AA4FF084404FF49A01FFF76CFB56
:10553000062309AA4FF086404FF40411FFF764FBDD
:10554000099BDA070A9942EA510212BA0A925B08E9
:105550001BBA0993C3F307210846244A1170C3F309
:1055600007410B46224A117080F0B601214A515C76
:105570005940515C515C515C090641F0807141F029
:10558000470140F48E4043EA0020062309AA0002A6
:10559000090AFFF739FBFFF749FC174B1878FFF7AB
:1055A00049FDD8B11BB0BDE8F08F144B144A40F24E
:1055B0002E211448FEF78EFA0120F5E601243AE781
:1055C00000BE1148FEF7BAFB4FF0FF30EAE70F4B81
:1055D0000B4A40F277210B48FEF77CFA0120FFF7D7
:1055E0009FFDDFE7AFF30080388E001039B802204E
:1055F0003AB802207090001031B80220E88D0010F7
:10560000788F0010048B0010FC8D0010248E001089
:1056100001000048000069A5001040690000CD00AD
:1056200008B5034B1B780120FFF78EFD08BD00BFB6
:10563000149C00102DE9F04186B0844B1B685B6818
:1056400013F4806F0BD080460E46154603460027A4
:105650001A68BAB15C684CB127440833F8E77C4B50
:105660007C4A40F2F5217C48FEF734FA7B4B794ABC
:1056700040F2FA217848FEF72DFAD3F80411784861
:10568000FEF78AFB714B1B68D3F80421022AF4D180
:10569000D3F80421022A1AD15B6813F4806F1DD05D
:1056A000202D22D86F4B1B78022B25D0812305FBA0
:1056B00003F3BB4222D16C4B1A78002382F0010223
:1056C0004146022001F014FD0024684927E0684BA0
:1056D000604A40F203316048FEF7FCF95C4B5D4ADA
:1056E0004FF441715C48FEF7F5F9624B594A40F2BC
:1056F00005315948FEF7EEF98223D8E75E4B554A4B
:1057000040F207315448FEF7E5F9B4FA84F35B0937
:105710004FF400720220FFF7CBF901460134AC428E
:10572000F3D34A4B18681830504C0B1B9B10534A4C
:10573000146050609360524BD3606DB3012D32D032
:10574000290EC5F30744C5F30720EBB281F08405A9
:105750004C4A555D6540555D4540555D5D40525D27
:10576000120642F0807242F057021B0243EA1263B3
:1057700041EA02221B0243EA126344EA02241902AC
:10578000062301AA40EA042041EA1461FFF73CFA2B
:1057900090B306B0BDE8F0813B4B2E4A4FF4477101
:1057A0002D48FEF797F9310EC6F30744C6F30720DC
:1057B000F3B281F0E805334A555D6540555D4540DB
:1057C000555D5D40525D120642F0807242F051021A
:1057D0001B0243EA126341EA02221B0243EA1263FC
:1057E00044EA02241902062301AA40EA042041EAFD
:1057F0001461FFF709FACCE7310EC6F30744C6F38C
:105800000720F3B281F0DE051E4A555D6540555D07
:105810004540555D5D40525D120642F0807242F097
:1058200052021B0243EA126341EA02221B0243EACC
:10583000126344EA02241902062301AA40EA042062
:1058400041EA1461FFF7E0F9A3E700BFE05B022043
:10585000448E00102C900010048B0010708E0010ED
:10586000788E001033B8022034B80220DCAD02205C
:10587000848E0010D48E0010FC8E001000020050A8
:1058800019001500709000103C8F001038B5202AC8
:1058900008D8154B1B78022B0BD001254FF0000CBC
:1058A000124B17E0124B134A4FF429711248FEF7BE
:1058B00011F90225F2E700EB4C241C6080245C60A7
:1058C00005FB0CFE0D4C04EB8E049C60DD600CF1BE
:1058D000010C10339445EED3002018605860034843
:1058E000FFF7A8FE38BD00BF33B802202C680220A5
:1058F000D48E00105C900010048B00102C670220E6
:1059000038B504464FF0A043D3F8503213F0806FFF
:105910003AD14FF0A043D3F8903213F0806F39D1D1
:105920004FF0A043D3F8103213F0806F35D11C4BE9
:105930001B68D3F80421022A13D000231D462BB381
:105940000021184B1B688B4219DD4B00164A52F898
:105950002300013352F82330B3EB104F09D101314A
:10596000EFE75B6813F0806F01D00123E6E70023C7
:10597000E4E70E48FEF710FA6FF0020300E00023A0
:10598000084A0021116001E000252B4604B1236084
:10599000284638BD00252B46F8E700252B46F5E7BD
:1059A000E05B0220EC6602202C670220488F00108A
:1059B00030B583B0202A08D8194B1B78022B0BD0A6
:1059C00001254FF0000C174B17E0174B174A40F218
:1059D000B7211748FEF77EF80225F2E700EB4C24CA
:1059E0001C6080245C6005FB0CFE124C04EB8E04F2
:1059F0009C60DD600CF1010C10339445EED3002067
:105A0000186058600748FFF715FE019020B901A8FB
:105A1000FFF776FF0028FAD0019803B030BD00BF31
:105A200033B802202C680220D48E00104890001059
:105A3000048B00102C67022008B52D4B1B6833BB6C
:105A400000212C4B186800F079FC294B186028B312
:105A50008368002B30D0426813689988012932D1BD
:105A6000DB88022B36D19388042B3AD1204B5B7A0A
:105A70009B0103F1A043DA6822F0300242F01002E9
:105A80001A610268516882681960DA6108BD1A4BB0
:105A90001A4A4FF49D711A48FEF71CF85B7A9B0175
:105AA00003F1A043DA6822F030021A61154A1A6045
:105AB0004FF48072DA61E9E7134B104A40F24B1160
:105AC0000F48FEF707F8114B0C4A40F24D110C48F5
:105AD000FEF700F80E4B094A4FF4A9710848FDF78C
