:020000041000EA
:10000000002008205D0100101B0100101D010010E0
:100010001101001011010010110100101101001058
:100020001901001019010010190100101F01001022
:10003000110100101901001021010010230100100E
:100040001101001011010010110100101101001028
:100050001101001011010010110100101101001018
:100060001101001011010010110100101101001008
:1000700011010010110100101101001011010010F8
:1000800011010010110100101101001011010010E8
:1000900011010010110100101101001011010010D8
:1000A00011010010110100101101001011010010C8
:1000B00011010010110100101101001011010010B8
:1000C00011010010110100101101001011010010A8
:1000D0001101001011010010110100101101001098
:1000E0001101001011010010110100101101001088
:1000F0001101001011010010110100101101001078
:100100001101001011010010110100101101001067
:10011000EFF30580103800BE00BE00BE00BE00BE7A
:1001200000BE00BEF2EB887118450010404500107B
:10013000A001001090A31AE7D3DEFFFF42012110B7
:10014000FF01000034490000793512AB4FF0000088
:100150001E49086006C881F3088810474FF05040D8
:10016000006810B14FF00000F2E70DA40ECC00299A
:1001700002D000F012F8F9E71549164A002000E015
:1001800001C19142FCD11449884714498847144958
:10019000884700BEFDE701C901C29A42FBD3704700
:1001A00040450010100100203C0600206C4A001061
:1001B00000000820000008206C4A001000100820F1
:1001C00000100820000000007047000008ED00E06B
:1001D0003C060020AC0800205130001061020010E5
:1001E00011300010F8B500BF10B5054C237833B9B5
:1001F000044B13B1044800E000BF0123237010BD7D
:10020000C007002000000000943A001008B5034B1E
:100210001BB10349034800E000BF08BD0000000017
:10022000C4070020943A001010B50446094803F0B2
:1002300028F8094B9B6913F0080FFAD1074B0122EC
:100240001A700021204601F0C9F8204600F0F6FFA0
:1002500010BD00BF983A001000000740A908002018
:1002600008B503F009F8194803F00BF801E003F0B2
:1002700025FA174803F005F842F2107000F0A6FEC8
:10028000144802F0FEFF144B9B6913F0080FFAD1DB
:10029000012003F065F9114B00221A70104802F09A
:1002A000F0FF0D4B9B6913F0080FFAD10D4942F294
:1002B000107003F0B9F90028D9D0084B1B78002B37
:1002C000D5D1094802F0DDFFF7E700BFAC3A0010D6
:1002D000C03A0010D83A001000000740A9080020DA
:1002E000EC3A001029020010043B001008B503F09E
:1002F0000FF908BD0C4B03EB800253F8203083F05C
:10030000400303F0C00302F5805CCCF80030C0006D
:1003100000F1804000F52030416002F540524FF47A
:1003200080731360704700BF048003400FB400B5B2
:1003300083B0049C074802F0A4FF3CB105A90191D9
:10034000204602F0ADFF044802F09BFF012002F0BE
:100350005DFE00BF183B0010283B0010EFF310803B
:1003600072B6064BD3E8CF1F01220029FAD1C3E8A9
:10037000412F0029F6D1BFF35F8F7047E7070020B8
:100380000023034AC2E88F3F80F31088704700BF04
:10039000E707002070B505460C461646FFF7DEFF5E
:1003A000E208A95C04F0070C012303FA0CF31942DC
:1003B00005D1DBB20B43AB54FFF7E2FF70BD214622
:1003C0003046FFF7B3FFF8B506460D4614461F4604
:1003D000FFF7C4FF00E00134BC420ED8E20806EB90
:1003E000D40CB35C04F0070101228A401342F2D11D
:1003F000D2B21A438CF8002001E04FF0FF34FFF72F
:10040000BFFF002C01DB2046F8BD002DFBD0069875
:10041000FFF78CFF38B505460C46FFF79FFFE20853
:10042000AB5C04F00704012101FA04F4234205D077
:1004300023EA0404AC54FFF7A3FF38BD024B034A80
:100440003321034802F0E8FD2C3B0010803B0010F4
:100450004C3B0010054A1078431CDBB21370172B7D
:1004600002D9134610221A70704700BFB805002049
:100470004FF0E022936843F0005393607047000010
:10048000002305E0044A1A440021C2E88F1F01330B
:100490001F2BF7D9704700BFDC070020064B9B6875
:1004A000103043F82010BFF35F8F00230349C1E8E9
:1004B0008F3F82F31088704700ED00E0E5070020D1
:1004C0000048704700E400E008B5FFF7F9FF00239B
:1004D00004E04FF0803240F8042B01330C2BF8D9A4
:1004E00062B608BD08B5091A081F01F2FC7140F692
:1004F000FE73994207D810F0010F04D1C0F34A00EF
:1005000040F4604008BD034B034A4FF48771034831
:1005100002F082FD903B0010E03D0010C03B001057
:1005200008B5091A04394B08090B0AD1C1F30A01AD
:1005300041F4704101806FEA43536FEA53534380A3
:1005400008BD034B034A4FF48B71034802F064FD6E
:10055000F43B0010BC3D0010C03B00104209064BAC
:1005600053F8222000F01F00012303FA00F002429A
:1005700014BF18460020704700E100E03AB1064B76
:1005800000F1600243F8221043F820107047203039
:10059000014B43F82010704700E100E008B50A461F
:1005A00000F01F03012199404009FFF7E7FF08BD54
:1005B000024B9B68103053F82000704700ED00E0BC
:1005C00070B505460C46EFF3108672B60F4BD3E8B4
:1005D000CF1F01220029FAD1C3E8412F0029F6D10B
:1005E000BFF35F8FFFF7E4FF094B984201D0A042B1
:1005F00005D1324621462846FFF750FF70BD054B16
:10060000054AED21054802F007FD00BFE50700207F
:1006100011010010043C0010FC3D0010C03B001014
:100620002DE9F04706460D46EFF3108872B65B4B96
:10063000D3E8CF1F01220029FAD1C3E8412F0029B6
:10064000F6D1BFF35F8F564B9B6800F1100A53F849
:100650002A70544B9F4207D0AF4200F09D803C4629
:10066000514BFB1A2F2B06D9424639463046FFF72D
:1006700015FFBDE8F087FFF771FF81460021304686
:10068000FFF78CFFBFF35F8FEFF30580C0B208B1B7
:10069000824510D124F001040021A268954212D0B5
:1006A00094F90630002B0DDB03EB430321463E4C4F
:1006B00004EB8304F1E73D4B3D4A40F202213D4803
:1006C00002F0AAFC214695425FD194F90650002D14
:1006D00041DB05EB4503344A02EB83039A68A260D1
:1006E000DA79E27193F90620A27193F90630002BB2
:1006F00010DA4BF60150A08005EB45022A4B03EBC4
:1007000082032D4A11789971157049463046FFF7DA
:1007100045FFA9E7201D05EB4503234A02EB8303B0
:10072000191D9B88DA0A1C2A08D15B050DD45B15BC
:10073000023301EB4301FFF7D5FEDCE71F4B204AF4
:100740004FF48E711B4802F067FC03F5FF1303F5AD
:10075000FF531F33EBE798B981B1FF238B714BF641
:1007600001538B80144A1378A3714AF6AA230E49C9
:10077000641A644163431B0D1370C6E7094FF1E728
:100780001049201DFFF7CCFEBFE70F4B084A4FF47E
:100790001171084802F040FC024F65E7E5070020B0
:1007A00000ED00E011010010BC050020283D001004
:1007B000CC3D0010C03B0010AA080020103D0010E6
:1007C000EC3D0010F60500205C3D001038B540F00F
:1007D000010E344BAEEB03032F2B31D8EFF3058121
:1007E000C9B2002933D0EFF3108472B62E4BD3E890
:1007F000CF5F0122002DFAD1C3E8452F002DF6D19D
:10080000BFF35F8F4AF6AA230246264D521B524180
:1008100053431B0D4FFA83FC244B9B6853F8213044
:1008200073451BD00023032B34D803EB43021D492F
:1008300001EB820292F90620624520D00133F2E7F3
:100840001B4B1C4A40F27F211B4802F0E5FB1B4B6F
:10085000184A40F28221184802F0DEFB134B9B68D5
:10086000174A43F82120174B1A78827183F800C089
:1008700000230D4AC2E88F3F84F3108838BD0A4632
:1008800003EB430102EB8101FF258D714BF6015211
:100890008A80E8E70C4B074A40F29321064802F0B1
:1008A000BBFB00BFBC050020E507002000ED00E019
:1008B000643D0010A03D0010C03B00108C3D0010B6
:1008C00011010010AA080020983D0010014B0B44B4
:1008D00003607047DC07002010B50446FFF7BAFD3F
:1008E00001462046FFF7F2FFFF232371BFF35F8F1E
:1008F00010BD10B50446FFF7ADFD01462046FFF7D9
:10090000E5FFFF23237100236371BFF35F8F10BDE9
:1009100010B50D4C09E00D4B0D4A1A210D4802F09F
:100920007BFB2046FFF7D8FF08340B4B9C4209D2D3
:100930002368002BF5D0012BEDD12046FFF7D9FF1E
:100940000834F2E710BD00BF34060020183E001046
:10095000E03E0010383E00103C06002041EA004016
:10096000704700000D4B1A68EFF3108172B6D2E8A1
:10097000CFCF0120BCF1000FF9D1C2E84C0FBCF180
:10098000000FF4D1BFF35F8F1A680023C2E88F3FD6
:1009900081F3108840BF00200021704778080020B4
:1009A0002DE9F04F85B0EFF30587FFB2103FBB088C
:1009B00015D0964D07F00307944B9D4214BF0023BA
:1009C000012307EB8303924A52F823402378BB426A
:1009D00007D10122BA4005F541535A6031E18D4DEE
:1009E000E8E78D4B8D4A92218D4802F015FBD4F833
:1009F00014A006EB46084FEAC80B0AEBC808D8F863
:100A000008300193D8F80C90284600F03DFC019B7B
:100A1000C01A61EB0903002BC0F21B81B9F1000F72
:100A200065DBD8F810301A4602937E4B9A4232D0DA
:100A3000B8F8021089B2B4F90800FFF78FFFD8F8B0
:100A40001410029B984702900391029A039B52EA6A
:100A500003014CD0002B2BDA0199881A69EB0309AA
:100A6000C8F80800C8F80C903AF90B30002BC0F217
:100A7000F080D4F8148003EB430208EBC2029168C3
:100A8000D268411A69EB0202002AC0F2E280A6464F
:100A90002EF8083F16E0D8F8142013690292104689
:100AA000984720B3029A1368029353680393CCE7E4
:100AB000284600F0E9FB029B1818039B43EB010951
:100AC000CEE79E46BEF900C0BCF1000F0ADB0CEB7E
:100AD0004C0308EBC3039968DA68411A69EB020218
:100AE000002AEEDA2AF80BC0AEF80060B1E03AF95D
:100AF0000B3023812369EFF3108272B6D3E8CF0F56
:100B000001210028FAD1C3E8401F0028F6D1BFF325
:100B10005F8FB4F902302AF80B3066802169002318
:100B2000C1E88F3F82F3108893E02369EFF31082CE
:100B300072B6D3E8CF0F01210028FAD1C3E8401FD5
:100B40000028F6D1BFF35F8FB4F804900FFA89F94B
:100B50004FF6FF73A38021690023C1E88F3F82F322
:100B6000108816E01E46B6F90020002A0BDB02EBC7
:100B700042030EEBC3039868D968BCEB000068EB36
:100B800001010029EEDAA6F800903EF90A902EF84D
:100B90000A20B9F1000F61DBD4F814E009EB490336
:100BA0004FEAC30A0EEBC303D3F808C0D3F80C8096
:100BB00004F10806D7E70023A37104F1080EB4F985
:100BC000083011E04FF0FF384FF0FF39C0E90289DB
:100BD000B4F90800984206D0AEF80020B4F9080035
:100BE00021F80C0023811346B3F1FF3F39D061692E
:100BF00003EB43024FEAC20C01EBC20031F9322091
:100C0000468816F4004FDDD18646ECE700800B40A5
:100C10005808002000000B40F43E0010DC3F00109C
:100C2000203F0010A10900103B1D45F82360284615
:100C300000F02AFB361A68EB0101012E71F1000366
:100C40002FDA0123BB40EB63B4F90860002EBFF636
:100C5000CEAEA38813F4004F3FF467AFA379002B07
:100C6000A9D1B4F90830002B1BDB626903EB430305
:100C700002EBC3039E68D3F80C80B8F1FF3F08BFB6
:100C8000B6F1FF3FD3D0AA6AB11A3B1D55F8233005
:100C90009B1A9942C8D32A6A0123BB401A42C6D183
:100CA000C2E740BF05B0BDE8F08F00BF2DE9F041BD
:100CB0000446884617461E46C160FFF7CBFB204B13
:100CC000034423612770B3B263814FF0504212781E
:100CD00062704FF6FF722281A280013B63804FF069
:100CE000000C08E00CF1FF3560690CEB4C0E20F8AD
:100CF0003E500CF1010CB445F4D3124B98450CBF97
:100D00000123002307EB83030F4A42F8234014D04A
:100D100000243C44012505FA07F7C8F820700B4968
:100D20002046FFF74DFC29462046FFF737FC08F523
:100D30000158C8F80070BDE8F0810424E9E700BF5D
:100D4000DC07002000800B4058080020A10900109B
:100D500008B5054B1B690BB1034808BD034B044A9A
:100D60006521044802F058F904060020503F0010A5
:100D7000C43F0010203F0010F8B504469E460169AC
:100D8000EFF3108C72B6D1E8CF5F0120002DFAD1BD
:100D9000C1E8450F002DF6D1BFF35F8FB4F90250C3
:100DA000666905EB4500C70006EBC000002D01DBBE
:100DB000F15F618000212369C3E88F1F8CF31088E5
:100DC0008D4233DB06990161079941618260C0F869
:100DD0000CE0418889B20131C1F30E0101B9012152
:100DE00041802846FFF7BAFD2369EFF3108272B6FF
:100DF000D3E8CFCF0121BCF1000FF9D1C3E84C1FDC
:100E0000BCF1000FF4D1BFF35F8FA388F353A5802B
:100E100021690023C1E88F3F82F31088E3682178BD
:100E200001228A4003F501535A60F8BD4FF0FF30AC
:100E3000FBE770B582B0064615461C469DF820308B
:100E400033B900F04BFA854264EB010100290ADB5B
:100E5000079B0193069B00932A4623463046FFF7E3
:100E60008BFF02B070BD0020FBE703464089B0EB6A
:100E7000214F31DD10B50A14586902EB420200EB34
:100E8000C2021869EFF3108C72B6D0E8CF4F5FF052
:100E9000010E002CF9D1C0E844EF002CF5D1BFF3CE
:100EA0005F8F508880B289B288420FD000201969C4
:100EB0000022C1E88F2F8CF3108830B1DA681B78DC
:100EC0000121994002F50153596010BD40F40040E2
:100ED000508001209871EAE700207047F0B585B096
:100EE000EFF30583DBB2CBB905460F46861F41F110
:100EF000FF34B04271EB040301D20026344600F007
:100F0000EDF9301A64EB0101012871F1000308DAF0
:100F10002846394600F0F4F905B0F0BD1E48FFF749
:100F200005FAFFF715FF0023029301931B4B009373
:100F300032462346FFF77DFF00281EDAE8E700234C
:100F400000E00023002BE3D1154B1A68EFF310816A
:100F500072B6D2E8CFCF0120BCF1000FF9D1C2E8C0
:100F60004C0FBCF1000FF4D1BFF35F8F1A68002360
:100F7000C2E88F3F81F3108820BF0A4B5B6A9C4216
:100F8000DFD80849896AB14203D29C42D7D00123F5
:100F9000D8E70123D6E700BF743F001065090010B1
:100FA0007808002000000B4038B504460D4600F0DC
:100FB00095F9201845EB0101002902DBFFF78EFFB0
:100FC00038BD4FF0FF306FF00041F7E708B5C30EB2
:100FD0004101091A63F100039B0043EA9173890000
:100FE000091843F10003DB00C80043EA5171FFF721
:100FF000DBFF08BDF0B585B005460C46EFF3058371
:10100000DBB293B1404B5B6A8B4209D33E4A926A92
:10101000824208D28B4201D0012002E0002000E091
:10102000002005B0F0BD0120FBE7FFF791FEC76887
:101030000678384600F028F92A1A64EB01010436D4
:1010400057F82630181A824271F1000312DB20BFD4
:101050002D4B5B6A9C4209D82B4A926AAA4207D25E
:101060009C4201D00120DCE70020DAE70020D8E72D
:101070000120D6E7FFF76CFE002302930193234B78
:1010800000932A462346FFF7D4FE061E0BDD1E4BB7
:101090005B6A9C421BD81C4A926AAA422BD29C4291
:1010A00013D0012314E0184B5B6A9C4209D8164AFE
:1010B000926AAA4207D29C4201D00120B1E70020E7
:1010C000AFE70020ADE70120ABE7002300E00023FD
:1010D00003B920BFFFF73CFE3146FFF7C6FE0A4BBF
:1010E0005B6A9C420BD8084A926AAA4209D29C4287
:1010F00003D0012095E70123EAE7002091E70020D3
:101100008FE701208DE700BF00000B40650900104C
:101110000048704700000B4010B50A4B1B6923B113
:101120000A210948FFF7D2FB10BDFFF7F1FF044683
:10113000032100F063F81023032221460148FFF742
:10114000B5FDEDE70406002078080020F8B5EFF3C0
:101150000580C0B2A0F1100300F003009B082ED060
:10116000204DEFF3108C72B61F4AD2E8CF4F012109
:10117000002CFAD1C2E8441F002CF6D1BFF35F8FD8
:1011800001228240EA6305F541514A601749C95C72
:1011900021FA00F414F0010F1AD06E6A00EB8304F8
:1011A000134F57F82440A6420BD300EB8305114C94
:1011B00054F8254021EA02020C49CA5409E00E4DB8
:1011C000CFE7031D55F8232045F82320002400E035
:1011D00000240023044AC2E88F3F8CF3108804B136
:1011E000A047F8BD00800B40E60700209C080020C7
:1011F0007C080020FC07002000000B4010B5054AC9
:10120000054C064BA04214BF1846581CFFF7C2F805
:1012100010BD00BFF43F001000800B4024080020E8
:1012200008B5044A044B904214BF1846581CFFF7F7
:10123000F1F808BD00800B402408002008B50146E5
:101240000148FFF7EDFF08BD00000B4030B583B04B
:10125000064B009303230022054D064CA84214BF01
:101260002046601CFFF7AFF803B030BD18400010F7
:1012700000800B402408002008B501460148FFF714
:10128000E5FF08BD00000B400246436A906A19461C
:10129000536A9942FAD17047416A00E0416A994223
:1012A000FCD300E0416A994202D1816A9142F9D3AC
:1012B000704770B5064614461D46FFF7E5FF021954
:1012C00041EB0503824273EB010102D24FF0FF3282
:1012D00013463046FFF7E0FF70BD000008B5024836
:1012E000FFF7D2FF08BD00BF00000B4008B5024663
:1012F0000B460248FFF7DDFF08BD00BF00000B40B2
:1013000008B502460B460248FFF7C6FF08BD00BFFE
:1013100000000B402DE9F84305460C4617462A4BC2
:1013200098420CBF4FF001084FF0000831D0002662
:101330002644EFF3108972B6244BD3E8CF1F012265
:101340000029FAD1C3E8412F0029F6D1BFF35F8FFE
:101350000FB33046FFF72CF91D4B83420CD01946D2
:101360003046FFF72DF901213046FFF717F9012329
:10137000A34005F501552B6004EB8804154B43F899
:1013800024700023114AC2E88F3F89F31088BDE81A
:10139000F8830426CCE704EB880200250D4B43F8C4
:1013A00022500121A1400C4B13F8084024EA01040B
:1013B00003F8084006493046FFF732F9294630461F
:1013C000FFF7ECF8DDE700BF00800B40E6070020E8
:1013D0004D110010FC0700209C08002008B50A46AB
:1013E00001460248FFF796FF08BD00BF00000B4012
:1013F0002DE9F84F04460D4692469946FFF744FF03
:10140000504571EB090364D2334EB44214BF002639
:101410000126EFF3108872B6304BD3E8CF1F0122BC
:101420000029FAD1C3E8412F0029F6D1BFF35F8F1D
:101430002B4A975D4FF0010B0BFA05FB5FFA8BF31C
:101440003B439355C4F83CB02B1D44F823A005EB57
:101450008602244B43F82290236A1BEA030F11D122
:10146000A36C1BEA030F07D0002000231B4AC2E82D
:101470008F3F88F310882DE01B4B1C4AEF211C483E
:1014800001F0CAFD2046FFF7FFFE504571EB09034E
:101490001BD3134B9B5DBB4219D0C4F820B0C4F8DA
:1014A0003CB00D4B9C420ED000231D4405F01F03A1
:1014B0006D09012000FA03F360350E4A42F8253029
:1014C000074B9F55D1E70423EFE70020CDE701202C
:1014D000CBE70120BDE8F88F00800B40E607002035
:1014E0009C0800207C0800202C4000108440001044
:1014F0004C40001000E100E008B501460148FFF74C
:1015000077FF08BD00000B4038B5046B14F0010FE5
:1015100001D1204638BD00F5405340F201321A6334
:10152000436A856A05EB8315AD02062000F03EF99B
:10153000044BA3FB0030C00AB5FBF0F00021FFF71D
:10154000D5FEE6E7757B2B8F70B505460C46164633
:10155000FFF7DAFFE96A4C40344005F58153DC605F
:10156000286370BD70B505460C46062000F01EF9D4
:10157000C300B3FBF4F10131CC0907D04FF6FE7381
:101580009C4214D82646C1F3450400E001266E6251
:10159000AC62002211462846FFF7D6FF062000F075
:1015A00005F9800004EB8614B0FBF4F070BD002454
:1015B0004FF6FF76EBE7000049B10A22054B98424F
:1015C00014BF00200120044B23F8102070474FF473
:1015D0008072F3E700800740A008002038B5044679
:1015E0000D46062000F0E2F848B3174B9C4227D086
:1015F0001A2201239340154A1360134B9C4221D0B9
:101600001A2301229A40124B1A60124B9B6832EA4D
:101610000303FAD100212046FFF7CEFF29462046DA
:10162000FFF7A0FFE36A83F0700303F07E0304F585
:101630008152D36040F2013323630323A36438BD96
:101640001B22D6E71B23DCE7008007400020024076
:10165000003002400000024070B5049D00EB400CD9
:101660004FEA8C0C0CF1804C0CF5803CDCF804400B
:10167000AC4201D2CCF80450A0F1040E5FFA8EFE09
:10168000BEF1010F27D90CF540544FF400662660D7
:101690001D4C54F820603EB16469B4FBF6F401348B
:1016A00004EB4404033CFDD2DCF8004084EA42121F
:1016B00002F0E0020CF580542260BEF1010F16D951
:1016C0000CF500524FF400611160CCF804500E4A42
:1016D00042F8203070BD0129D5D10CF540540326C5
:1016E0002660DCF8084014F0010FFAD0DCE7DCF8E3
:1016F00000204A4002F003022260DCF80840012288
:101700008A401442F9D0DBE72808002000EB4003B0
:101710009B0003F1804303F598334FF400621A6095
:10172000024B002243F82020704700BF2808002009
:101730002DE9F04383B017460A9A934217D3054622
:101740000E464FEA13484FEA0349002348464146F4
:1017500002F066F989B14346002400943A463146C6
:101760002846FFF779FF012003B0BDE8F083074B5F
:10177000074A6321074801F04FFC04460246002354
:101780004846414602F04CF90346E6E7A440001003
:10179000F4400010B840001010B582B04FF480340F
:1017A0000094FFF759FF02B010BD0000014B53F841
:1017B000200070472808002070B5049C344DB5FB0C
:1017C000F1FC344D1544344EB54237D8B2FBFCF52C
:1017D000A5F1100EBEF5987F36D803F1FF3EBEF19D
:1017E000060F37D804F1FF3EBEF1060F32D8BCEB2E
:1017F000121F35D8240344EA03440368002B35DB69
:10180000264B984242D00E2301229A40244B1A6064
:1018100003F580531A60234B9B6832EA0303FAD125
:101820000160856000F54052043221231360036893
:10183000002BFCDAC4600823136070BD1A4B1B4AEE
:1018400011211B4801F0E8FB1A4B184A19211848CE
:1018500001F0E2FB184B154A1C21154801F0DCFB96
:10186000164B124A2321124801F0D6FB036803F0FD
:101870003F038B42C4D18368C3F30B03AB42BFD198
:10188000C36803F4EE23A342BAD1D6E70F23BBE724
:10189000001BB70080E84BD380F8A93200800540D8
:1018A0000020024000000240044100100C420010E1
:1018B0005441001088410010A4410010F041001074
:1018C0002D23436070470000054A00EB400302EB04
:1018D0008303596000EB40008000012313507047E0
:1018E0000080104008B50023DB8A002242E800F2A5
:1018F00012F4800F02D11021984708BD04219847A7
:10190000FBE70000034BD3F82838002BFAD0BFF3D5
:101910005F8F704700000E40002207E0054B134424
:101920009B00BFF35F8F002119600132072AF5D9B0
:10193000704700BF0382031008B5FFF7EDFF08BD35
:10194000074B4FF42A621A604FF48D72DA6003F588
:101950000053044A1A60024B5B68002BFBDA7047A5
:101960000080044000B0FA00074A136823F47F03A4
:1019700023F4704343F4510343F460431360024B78
:101980005B68002BFBDB70470080044010B5044609
:1019900002E054F8043B9847014B9C42F9D310BD38
:1019A000903A00107047000008B50248FFF7EEFFBC
:1019B00008BD00BF503A0010064B074A1A6003F5F5
:1019C0008053064A1A60064B9A68044B9343FAD137
:1019D000704700BF002002407F3BEFEFF6FFF303AC
:1019E00000000240054BDB6CB3F5004F00D07047A0
:1019F000034B4FF48022DA64F9E700BF0000115076
:101A0000002011504FF0E022D2F8881D034B0B4309
:101A1000C2F8883D10EE3004704700BF0303300069
:101A2000054B6FF060421A60044B9B68DB4333F058
:101A30006043F9D1704700BF00300240000002400F
:101A400008B545F25320FFF74DFF034604209847A1
:101A500008BD08B545F25320FFF744FF03460120B7
:101A6000984708BD08B5FEF70BFD08BD10B50C4939
:101A70000C4A521A92101446442A28BF442292005B
:101A8000094801F027FF04E0084A074B43F82420E7
:101A90000134432CF8D9044A054B9A6010BD00BFAD
:101AA00000000010100100100000002011010010C3
:101AB00000ED00E038B50420FFF778FE064DA5FBE9
:101AC0000035AD0C002404E02946E0B2FFF7FCFE2F
:101AD0000134052CF8DD38BD83DE1B4330B583B0FF
:101AE000264B0022C3F88420FFF72AFF244B012253
:101AF000DA63224B5B6C012BFBD1214B03221A636F
:101B00001E4B9B6B012BFBD10224009405231D4A25
:101B100001211D48FFF750FE052500952B461B4A65
:101B200001211B48FFF748FE1A4B002221460420E2
:101B3000FFF732FE184C2346002201212846FFF70A
:101B40002BFE164D2B46002211460820FFF724FEDF
:101B50002B46002211460920FFF71EFE23460022D5
:101B600011460620FFF718FE2346002211460720E3
:101B7000FFF712FEFFF79EFF03B030BD00000140EB
:101B800000300140002F685900000540008C864756
:101B900000800540001BB70080D1F008006CDC021B
:101BA00086B003B451FC0804CDE9020151FC0904DC
:101BB000CDE9040151EC0A04CDE9060103BCF0476C
:101BC000BDE800504EEC00C4BDE800504EEC01C42E
:101BD000BDE800504EEC02C400BD000000B5FFF7A8
:101BE000DFFF02E010FE30F4F8D441EC100443ECC7
:101BF000112400EE010410EE010480EE200451ECEB
:101C00001004704700B5FFF7CBFF02E010FE30F480
:101C1000F8D441EC100443EC112400EE010410EE62
:101C2000210480EE200451EC3004704700B5FFF72A
:101C3000B7FF02E010FE30F4F8D410B541EC100408
:101C400043EC112451EC040453EC0524A0FB024C9A
:101C50005FF0000EE0FB03CEE1FB02CE4CEC204433
:101C60000024E1FB03E444EC30E480EE200451EC7A
:101C70005004BDE81040704700B5FFF791FF02E047
:101C800010FE30F4F8D441EC100443EC112451EC74
:101C90002104A0FB01126FEA820252FB100052FBEA
:101CA00012F252FB1000A0EBD07C53EC04245CFB3E
:101CB00013F153EC1524A1FB022001FB030053ECAC
:101CC0004424A2EB000050FB1CF24FEA111312EB6C
:101CD000017043EBE27140EA515020EA915020F04C
:101CE000070053EC7524A0FB023C53EC752400FB69
:101CF00003CC01FB02CC53EC0424ACEB824C40EA55
:101D00005C70A0F1010041EC400480EE200451EC35
:101D10007004704700B5FFF743FF02E010FE30F497
:101D2000F8D440EC700400EE010410EE210480EEC3
:101D3000200451EC3004704700B5FFF731FF02E09A
:101D400010FE30F4F8D440EC600400EE010410EE14
:101D5000210480EE200451EC3004704700B5FFF7F9
:101D60001FFF02E010FE30F4F8D441EC800400EED6
:101D7000010410EE010480EE400410EE13047047DD
:101D800000B5FFF70DFF02E010FE30F4F8D441EC8F
:101D9000800400EE010410EE010480EE400410EE19
:101DA0003304704700B5FFF7FBFE02E010FE30F48D
:101DB000F8D441EC100443EC112400EE010410EEC1
:101DC0003004C0F30070704700B5FFF7E9FE02E091
:101DD00010FE30F4F8D443EC102441EC110400EE72
:101DE000010410EE30F48CBF01200020704700BFCA
:101DF00000B5FFF7D5FE02E010FE30F4F8D443EC56
:101E0000102441EC110400EE010410EE30F42CBF5C
:101E100001200020704700BF00B5FFF7C1FE02E0BF
:101E200010FE30F4F8D441EC100443EC112400EE21
:101E3000010410EE30F42CBF01200020704700BFD9
:101E400000B5FFF7ADFE02E010FE30F4F8D441EC2F
:101E5000100443EC112400EE010410EE30F48CBFAA
:101E600001200020704700BF704720B108B50A6804
:101E70004968904708BD70470146002007E000EB25
:101E80008000531C0B60137803EB400030380A6865
:101E90001378303BDBB2092BF1D970472DE9F04FB5
:101EA00083B005460E4693461F46DDF830A00D9CD4
:101EB000DDF838900F9B13F0030F19D1A046019263
:101EC000C84509D202F1010B3B4631462020A84704
:101ED00008F101085A46F3E7DDF804B008E0013CD8
:101EE00002F101083B4631461AF80400A847424671
:101EF000002CF4D10F9B13F0020F03D1104603B056
:101F0000BDE8F08FA2EB0B034B45F7D2541C3B46C8
:101F100031462020A8472246F4E72DE9F04385B05A
:101F20000C9D0D9C9DF83890DDF83C80DDF840E07C
:101F3000119F129E16F0020F21D17FB116F0010FF2
:101F40000CD0B9F1000F02D116F00C0F06D0013FF2
:101F500004E04FF0300C05F804C00134744501D2A0
:101F60001F2CF6D916F0010F09D0BC4207D21F2C46
:101F700005D84FF0300C05F804C00134F2E716F034
:101F8000100F17D016F4806F04D11CB1744524D003
:101F9000BC4222D0B8F1100F2BD0B8F1100F33D0C3
:101FA000B8F1020F3BD01F2C04D84FF0300C05F8CD
:101FB00004C001341F2C07D8B9F1000F37D04FF0FF
:101FC0002D0C05F804C00134039602970194009586
:101FD000FFF764FF05B0BDE8F083B4F1010C06D053
:101FE000B8F1100F01D06446D4E7023CD2E7644652
:101FF000D0E716F0200FD0D11F2CCED84FF0780CA0
:1020000005F804C00134CEE716F0200FC8D01F2C0D
:10201000C6D84FF0580C05F804C00134C3E71F2C94
:10202000C1D84FF0620C05F804C00134BBE716F0CC
:10203000040F05D04FF02B0C05F804C00134C3E7A2
:1020400016F0080FC0D04FF0200C05F804C0013482
:10205000BAE7F0B591B0169C189D1B9E0CB926F0FE
:10206000100616F4806E16D064B34FF0000E12E026
:102070000CF1300C5FFA8CFC0EF101070EF1400EF2
:10208000EE440EF820CCB4FBF5FCAC421BD31F2F62
:1020900019D8BE466446B4FBF5FC05FB1C4C5FFA40
:1020A0008CFCBCF1090FE3D916F0200F08D04127B2
:1020B000BC445FFA8CFCACF10A0C5FFA8CFCDBE7E9
:1020C0006127F5E7274606961A9C0594199C049407
:1020D00003959DF85C400294019708AC0094FFF7CB
:1020E0001CFF11B0F0BD2DE9F04F95B009900A9199
:1020F0000B929B461E9D1F9E229FDDF88C80DDF873
:1021000098A055EA060301D12AF0100A1AF4806457
:102110001FD055EA060330D000241AE003F1300244
:10212000D2B204F1010904F150030DEB030404F8E9
:10213000202C3A4643462846314601F071FCBD4208
:1021400076EB08031BD3B9F11F0F18D84C46054690
:102150000E463A4643462846314601F061FCD3B26A
:10216000092BDBD91AF0200F05D041221A44D2B234
:102170000A3AD2B2D5E76122F8E74FF00009CDF86C
:1021800018A0259B0593249B049303979DF880300A
:102190000293CDF804900CAB00935B460B9A0A991E
:1021A0000998FFF7BAFE15B0BDE8F08F00000000F7
:1021B0002DE9F04F91B004460D4617461E46DDE965
:1021C0001A2310461946FFF7F1FD002840F0ED8074
:1021D0004FF0FF32AE4BDDE91A01FFF735FE002864
:1021E00040F0E3804FF0FF326FF48013DDE91A0115
:1021F000FFF7EEFD002840F0D88000220023DDE943
:102200001A01FFF7E5FD002840F0E2809DED1A7B02
:102210008DED067B1E9B13F480630D9301D1062385
:102220001C93DDE9062310461946CDE9080152EA60
:10223000030100F0D880C3F30A50C3F313039046A0
:1022400043F07F5949F44019A0F2FF30FFF766FDD3
:102250007DA3D3E90023FFF7EDFC7DA3D3E90023A1
:10226000FFF7C0FC82468B4600228A4B4046494617
:10227000FFF7CCFC78A3D3E90023FFF7DBFC024691
:102280000B4650465946FFF7ADFCFFF76BFD824603
:10229000FFF744FD8046894671A3D3E90023FFF789
:1022A000C9FC00227C4BFFF79DFCFFF75BFD8346DA
:1022B0006DA3D3E9002340464946FFF7BBFC8046A7
:1022C00089465846FFF72AFD69A3D3E90023FFF7A3
:1022D000B1FC02460B4640464946FFF797FC804654
:1022E000894602460B46FFF7A5FCCDE90A010BF231
:1022F000FF3B00210022CDE908124FEA0B5309935E
:102300000023089342464B4640464946FFF76AFC85
:10231000CDE90E0142464B4600204FF08041FFF7C9
:1023200075FC8046894600225C4BDDE90A01FFF717
:10233000A7FC00225A4BFFF755FC02460B46DDE98D
:102340000A01FFF79DFC0022564BFFF74BFC0246AB
:102350000B46DDE90A01FFF793FC02460B464046B7
:102360004946FFF73FFC02460B46DDE90E01FFF749
:1023700087FC00224C4BFFF735FCDDE90823FFF713
:1023800059FC80468946CDE90889DDE90623FFF737
:102390005BFD50B30AF1FF3A0022414B40464946EB
:1023A000FFF76EFCCDE908011FE01E9B04931D9B07
:1023B00003931C9B02939DED1A7B8DED007B3346AE
:1023C0003A462946204600F003F911B0BDE8F08FE7
:1023D0009FED297B8DED067B1A9B06931B9B03F1DA
:1023E0000043079316E74FF0000A0AF16303C62B78
:1023F00027D84FF004081E9B13F4006F5FD0DDE96F
:10240000081213460B4313D01DA3D3E90023DDE9C3
:102410000601FFF705FD002800F0B4801AA3D3E9F8
:102420000023DDE90601FFF7D3FC002800F0AA80B5
:102430001C9B53453ADDA3EB0A0A0AF1FF331C93B8
:1024400036E04FF00508D6E7FB799F501344D33FA1
:10245000B3C8608B288AC63F61436F63A787D23FAA
:1024600071A379094F930A401655B5BBB16B024071
:10247000EF39FAFE422EE63F0000000000000000A7
:102480002D431CEBE2361A3F0000000080842E41F1
:10249000FFFFEF7F0000F83F0000E03F00002C400E
:1024A00000002440000018400000F03F00231C936F
:1024B0001E9B43F480631E934FF00008C2461D9B91
:1024C000984569D2A3EB08091E9B13F0020B04D0B8
:1024D000B8F1000F01D04FF00009BAF1000F07D09A
:1024E000DDE90823DDE90601FFF7CAFBCDE90601B6
:1024F00000220023DDE91A01FFF76AFC00284ED113
:102500001E9B23F400630493CDF80C901C9B029354
:102510009DED067B8DED007B33463A4629462046ED
:1025200000F056F8B8F1000F3FF44FAF1E9B13F0C8
:10253000200F3CD04FF0450C00F101093346024614
:1025400029466046A0478AEAEA72A2EBEA720523AE
:10255000059308F1FF330493002303930A230293A6
:102560004FEADA700190009233464A4629462046E7
:10257000FFF76FFDBBF1000F3FF427AF0246DDF818
:1025800074901EE01C9B002B99D00D9B002B96D0C5
:102590001C9B013B1C9392E74FF0000994E7DDE997
:1025A0000601024601F10043CDE90623A8E74FF0FA
:1025B000650CC1E702F10108334629462020A047F7
:1025C0004246D31B4B45F5D31046FEE60000000003
:1025D0002DE9F04F2DED028B95B007900A919246B0
:1025E0009B46DDE92089229D42464B4640464946AE
:1025F000FFF7DCFB002835D14FF0FF326FF480137A
:1026000040464946FFF7E4FB00283AD14FF0FF323D
:102610009F4B40464946FFF717FC002840D198A33E
:10262000D3E9002340464946FFF70EFC00284FD16E
:1026300095A3D3E9002340464946FFF7C9FB00288C
:1026400046D10022002340464946FFF7C1FB00283F
:102650004CD100230B93249B13F4806F00F0B780C0
:10266000002456E0249B0393239B029303230193AE
:10267000884B00935B4652460A990798FFF70EFC79
:1026800037E1249B0393239B029304230193824B02
:1026900000935B4652460A990798FFF7FFFB28E133
:1026A000249B13F004030FD07C4A7BB104232499AC
:1026B000039123990291019300925B4652460A9935
:1026C0000798FFF7EBFB14E1754AEEE70323EEE70B
:1026D000249B0493239B03930295CDE900895B46D9
:1026E00052460A990798FFF763FD02E142464B46BE
:1026F00000200021FFF78AFA8046894601230B93C8
:10270000A9E704F150036B44302203F8202C013D6B
:1027100001341F2C01D8092DF3D840464946FFF754
:1027200021FB0646FFF7FAFA02460B4640464946A9
:10273000FFF76CFA5B4B03EBC50393ED008B53EC97
:10274000182BFFF777FA02460B46CDE90823FFF76F
:102750001BFB0746FFF7F4FA02460B46DDE90801CA
:10276000FFF754FA02460B46CDE9082300224E4BF0
:10277000FFF76AFB68B301373846FFF7E1FA024614
:102780000B4651EC180BFFF737FB08B10136002759
:102790006DBB3046FFF7C2FA02460B46404649463B
:1027A000FFF734FA0746884600223F4BFFF710FB3D
:1027B00000284CD100223C4B38464146FFF744FBF1
:1027C000002844D116F0010F41D001363FE0062524
:1027D00046E70022344BDDE90801FFF7F9FA00284B
:1027E000D6D117B117F0010FD2D00137D0E71F2C87
:1027F00017D8013D2D4BA3FB0723DB08194603EB3C
:102800008303A7EB4303621C303304F150000DEB4C
:10281000000404F8203C092F02D90F461446E6E7CD
:1028200014461F2C0AD86B1E45B104F150026A44AD
:10283000302102F8201C1D460134F2E71F2C06D877
:1028400004F150036B442E2203F8202C01341F2C7A
:1028500031D8174A82FB0632F317C3EBA2031A469C
:1028600003EB8303A6EB4303611C303304F15000F8
:102870000DEB000404F8203C1646DAB10C46E6E7FE
:102880000000000065CDCD410000000065CDCDC148
:10289000FFFFEF7FC0420010C4420010B84200109A
:1028A000B4420010D04200100000E03FCDCCCCCCB0
:1028B000676666660C46249B03F00303012B1DD05C
:1028C0001F2C09D80B9B002B35D004F150036B440F
:1028D0002D2203F8202C0134249B0393239B029385
:1028E00001940CAB00935B4652460A990798FFF798
:1028F000D5FA15B0BDEC028BBDE8F08F239BB3B1C8
:102900000B9B1BB9249B13F00C0F12D0239B013B94
:102910002393194606E004F150036B44302203F878
:10292000202C01348C42CBD21F2CF4D9C8E7239938
:10293000F8E72399F6E7249B13F0040F07D004F17E
:1029400050036B442B2203F8202C0134C4E7249B52
:1029500013F0080FC0D004F150036B44202203F899
:10296000202C0134B8E700BF2DE9F04F8FB00746A7
:1029700016460D938846002900F0248300240D9B01
:102980001878002800F02083252809D0651C3346DC
:1029900022464146B8470D9B01330D932C46EEE786
:1029A00001330D9300250D9B1978A1F12002102A07
:1029B0000AD8DFE802F03809093D090909090909BF
:1029C0000933092E09092900A1F13003DBB2092BD3
:1029D00033D92A2936D000230A930D9B1A782E2A40
:1029E00040D04FF0000B0D9A1378683B122B77D82C
:1029F000DFE803F06476D37656767676767676766A
:102A0000727676767676D80045F0010501330D931F
:102A1000C9E745F0020501330D93C4E745F004050D
:102A200001330D93BFE745F0080501330D93BAE775
:102A300045F0100501330D93B5E70DA8FFF71CFA1B
:102A40000A90CAE7189B1A1D18921868002804DB20
:102A50000A900D9B01330D93BFE745F002054342F9
:102A60000A93F6E745F480655A1C0D925A78A2F154
:102A70003003DBB2092B04D92A2A07D04FF0000B10
:102A8000B1E70DA8FFF7F8F98346ACE7189B1A1DCC
:102A900018921B6823EAE37B0D9B01330D93A2E799
:102AA00045F48071531C0D9352786C2A01D00D4669
:102AB00016E045F4407501330D9311E045F08001B7
:102AC000531C0D935278682A01D00D4608E045F05A
:102AD000C00501330D9303E045F4807501320D927A
:102AE0000D9B1878A0F12503532B00F26182DFE8DB
:102AF00013F054025F025F025F025F025F025F0237
:102B00005F025F025F025F025F025F025F025F02BD
:102B10005F025F025F025F025F025F025F025F02AD
:102B20005F025F025F025F025F025F025F025F029D
:102B30005F027401540174015F025F025F025F0271
:102B40005F025F025F025F025F025F025F025F027D
:102B50005F025F025F025F025E005F025F025F0270
:102B60005F025F025F025F025F025F025E009B0125
:102B70005E007401540174015F025E005F025F0237
:102B80005F025F025F025E0039025F025F02D401F2
:102B90005F025E005F025F025E0045F40075013275
:102BA0000D929DE745F4807501320D9298E77828E3
:102BB00009D058283AD06F283AD062283AD025F068
:102BC00010050A2300E01023582835D0692803D0C7
:102BD000642801D025F00C0515F4806F01D025F094
:102BE000010569282BD0642829D015F4007F40F016
:102BF000968015F4807F40F0AE8015F0400F00F015
:102C0000BF80189A111D1891127805950A990491A0
:102C1000CDF80CB002930023019300923346224674
:102C200041463846FFF715FA044629E01023CBE762
:102C30000823C9E70223C7E745F02005C6E715F4D6
:102C4000007F21D115F4807F42D115F0400F58D07C
:102C5000189A111D1891127882EAE271A1EBE271C3
:102C600005950A980490CDF80CB00293D20F01920A
:102C700000913346224641463846FFF7EAF90446BA
:102C80000D9B01330D937AE6189A073222F0070262
:102C900002F108011891516812680846002913DBF7
:102CA00008950A9D0795CDF818B004930023059365
:102CB000C90F0291009201903346224641463846A0
:102CC000FFF711FA0446DBE7524261EB4100E7E708
:102CD000189A111D1891126882EAE271A1EBE27153
:102CE00005950A980490CDF80CB00293D20F01928A
:102CF00000913346224641463846FFF7AAF904467A
:102D0000BEE715F0800F05D0189A111D1891B2F981
:102D10000020A1E7189A111D189112689CE7189AD3
:102D2000073222F0070202F10801189108950A996A
:102D30000791CDF818B00021049305910291D2E9D2
:102D40000023CDE900233346224641463846FFF7AB
:102D5000CAF9044694E7189A111D189105950A9925
:102D60000491CDF80CB002930023019313680093F3
:102D70003346224641463846FFF76BF904467FE763
:102D800015F0800F04D0189A111D189112883CE795
:102D9000189A111D1891126837E746281AD0189B07
:102DA000073323F0070303F10802189204950A9AE7
:102DB0000392CDF808B0D3E90023CDE900233346D0
:102DC000224641463846FFF703FC04460D9B01337B
:102DD0000D93D4E545F02005E1E7672801D04728A9
:102DE00001D145F40065452801D0472801D145F0BF
:102DF0002005189B073323F0070303F108021892FC
:102E000004950A9A0392CDF808B0D3E90023CDE9DE
:102E100000233346224641463846FFF7C9F90446A7
:102E20000D9B01330D93AAE515F002051FD04FF05D
:102E300001091898031D189304F1010A334622462C
:102E400041460078B847BDB90D9B01330D935446F8
:102E500095E502F1010A334641462020B8474B462A
:102E6000524603F101099B45F3D81446E1E70123DB
:102E7000DDF828B02246F4E75246DDF828A006E047
:102E8000551C334641462020B847A1462A4609F141
:102E90000104CA45F4D89246D6E7189B1A1D189229
:102EA000D3F800A0BBF1000F1ED14FF0FF33D14685
:102EB00002E009F10109134699F8002012B15A1EE7
:102EC000002BF6D1A9EB0A0915F480630B9302D00D
:102ED000D94528BFD94615F002030C9306D02246E7
:102EE0005C46B3460B9E1DE05B46E0E722460A9C2B
:102EF0004B4607E002F10109334641462020B8471E
:102F00002B464A465D1C9C42F4D8A9465C46B34613
:102F10000B9E07E01C460AF1010A551C5B46414620
:102F2000B8472A469AF8000020B1002EF3D0631E5D
:102F3000002CEFD114465E460C9B1BB90D9B013350
:102F40000D931CE5DDF828A006E0551C33464146EC
:102F50002020B847A1462A4609F10104CA45F4D801
:102F60001446EBE745F02105189B1A1D18921B68C3
:102F7000059508220492CDF80CB01022029200228E
:102F8000019200933346224641463846FFF761F8E6
:102F900004460D9B01330D93F1E4651C3346224634
:102FA00041462520B8470D9B01330D932C46E6E49E
:102FB000651C334622464146B8470D9B01330D93AD
:102FC0002C46DCE4074FD9E4B44201D3721E00E082
:102FD0002246334641460020B84720460FB0BDE8A0
:102FE000F08F00BF691E001000B585B002900391FC
:102FF000009313464FF0FF3202A90348FFF7B4FCD9
:1030000005B05DF804FB00BF6B1E001000BEFDE7BD
:1030100008B5FFF7FBFF000000B583B08C461946EA
:1030200013465AB1074A5BB10193009263460246C8
:10303000054800F053F90120FFF7E8FF034AF2E7E3
:10304000024BF1E720430010304300102C430010E6
:1030500010B5EFF30583DBB203B100BEFEF7A4FCAD
:10306000044C02E054F8043B9847034B9C42F9D3CC
:1030700010BD00BF903A0010943A001008B5034606
:1030800008461B681146984708BD0000F8B507467A
:103090000D461646437D13B1002420460CE003681C
:1030A0001146284698472EE03B7D10E03B68022100
:1030B00015489847601C0134B44214DA002CF3DD43
:1030C0002B1913F8013C0D2B14BF002301232A5D9B
:1030D0000A2AF0D1002BEED1A042E7DA3B68211A90
:1030E00028449847E2E7B04203DA3B68311A2844A3
:1030F0009847002E07DD354415F8013C0D2B14BF11
:10310000002301233B75F8BD6043001038B5036808
:10311000BBB105460B4B1C6806E0294651F8042B51
:103120002046FFF7B3FF24694CB12368002BFAD087
:10313000054B1B68002BF0D0A342F4D1EDE7002330
:103140002B6038BD500800205408002038B50546D3
:103150000C460B68802B05D021684B1C23600C4467
:10316000257138BD0846FFF7D1FFF5E708B5FEF732
:10317000B5F8074A821841F10003002B03DB05482C
:1031800000F05EFC08BD4FF0FF326FF00043F6E741
:1031900040420F003406002008B5024800F048FC09
:1031A00008BD00BF340600202DE9F04383B0064679
:1031B0000D4690461C46FFF7D9FF8146B5F1FF3F0B
:1031C00004D044B1174F184B1C6807E0304600F09C
:1031D000F7FB0546F5E7154FF5E72469BCB1236811
:1031E000002BFAD0124B1B680BB1A342F5D12A4633
:1031F00031462046B847B8F1000FEED00A238DF8CB
:10320000073001220DF107012046B847E5E7B9F183
:10321000000F03D1284603B0BDE8F083FFF7BCFFE1
:10322000F8E700BF8D300010500800207D300010FE
:1032300054080020084A01E003F1100213683BB172
:103240008342F9D131B903691360002303617047E8
:1032500001B11060704700BF5008002010B5054B49
:103260001C6801E0984724691CB16368002BF9D100
:10327000F9E710BD5008002008B500F049F9012019
:1032800008BD38B5054600F09BFB044601231A46ED
:1032900001462846FFF788FFFFF7E0FF204638BDCC
:1032A00070B5A2B004460E46FFF760FF0546002346
:1032B00001933346224601A90748FFF795FE0446CD
:1032C00001A8FFF723FFFFF7C9FF15B9204622B079
:1032D00070BDFFF761FFF9E74D3100100FB400B585
:1032E00083B004A951F8040B0191FFF7D9FF03B093
:1032F0005DF804EB04B0704730B583B086460C46E9
:103300004FF0000C13E00D238DF8073000200DF175
:103310000701E0B9936913F0200FFBD10B4613F8B6
:10332000011B116001301946F3E70CF1010CA445B3
:103330001FDA114B1A681EF80C50104B9A4214BF3A
:10334000002301230E4931F91330AB42DBD08DF855
:10335000075000200DF107010028E6D1936913F012
:10336000200FFBD10B4613F8011B116001301946E9
:10337000F2E703B030BD00BFA40800200080074082
:10338000A008002070B582B005460E46002104E07A
:103390009DF807308EF800306146B14218DA164BBE
:1033A0001A68906910F0100012D101F1010C05EBC0
:1033B000010E0DF107010028EAD1936913F0100FF7
:1033C000FBD114680B4603F8014B01301946F2E7B4
:1033D0000A4B1B684BB1084B1B6850229A635A6B0F
:1033E00002F0380203F581535A6111B1084602B068
:1033F00070BD6FF00201F9E7A40800201C0800204E
:1034000008B5054B1B6833B1044A1268002191636B
:10341000034A1068984708BD1C080020A408002033
:1034200020080020034B1A68936913F0080FFBD1A2
:10343000704700BFA408002038B51C4B1B681C4A0D
:10344000934206D0212410B11A4A12681AB1C8B1A9
:1034500038BD2224F7E7174B1860174B196017493E
:103460002046FDF7ADF801212046FDF797F80F4BF8
:103470001B6850229A635A6B02F0380203F581539D
:103480005A61E5E70B4A1268002AE1D000259D63E6
:1034900029462046FDF782F808492046FDF7C0F886
:1034A000044B1D60044B1D60D2E700BFA408002040
:1034B000008007401C080020200800200134001074
:1034C00038B50D461C46104B1860101E05DB10F079
:1034D000020F15D00B21FCF70DFF002C06DB14F0BA
:1034E000020F0FD00B212046FCF704FF2946064BA4
:1034F0001868FEF773F801210448FFF79BFE38BDFA
:103500000221E8E70221EEE7A40800201C060020C3
:1035100008B5074B1B78074B1B78074B1B7801231B
:1035200000224FF4E1310548FFF7CAFF08BD00BF94
:1035300034450010384500103C450010000007409D
:10354000024A136943F004031361704700ED00E081
:103550000138C0B2022801D801207047002070470E
:1035600030B583B00446FFF7F3FF68B1254B1C70FC
:10357000022C0FD0032C10D0012C3CD0224B234A1C
:1035800056212348FFF748FD224B204A412120487D
:10359000FFF742FD0021204D02E003214FF4FA45E0
:1035A00000952B4600220420FEF7C2F800952B461A
:1035B000002211460520FEF7BBF80920FEF7A6F809
:1035C0000820FEF7A3F80720FEF7A0F800952B4689
:1035D000002211460620FEF7ABF81048FEF770F9FE
:1035E0000F48FEF76DF9012C08D0FEF7BDF9FCF786
:1035F0007DFE03B030BD02210A4DD1E700F07EF818
:10360000F5E700BFA80800205C3D0010344400101E
:10361000D44300100C440010A02E630000000540AD
:1036200000800540001BB70070B505460E46224BD2
:103630000022C3F8B4204FF42022C3F8B8200120A0
:10364000FDF71AFE04463146FDF7C8FEFDF746FEBB
:10365000EB0E4FEA451CBCEB050C63F100039B002D
:1036600043EA9C734FEA8C0C1CEB050C43F10003FE
:10367000DB0043EA5C734FEACC0C10EB0C0243EB2B
:103680000103002B0ADB2046FDF736FF58B9FFF790
:10369000E5FDFFF755FF30BF012070BD4FF0FF3251
:1036A0006FF00043EFE700212046FDF797FE20462C
:1036B000FDF7C4FD0020F0E70000014038B500F040
:1036C00051F80D4BD3F8B4204FF0FF32C3F8B420BB
:1036D000D3F8B810C3F8B820FEF700FA00F0A6F847
:1036E00005460C4600F0EEF82846214600F06AF840
:1036F000FCF7FCFD38BD00BF0000014008B5144ACE
:10370000136814494FF08070C861D26912F0807F4D
:1037100012D123F47F0323F4704343F4510343F4A1
:1037200060430B4A1360D36913F0807F0AD1084BC2
:10373000DB69002BFBDB08BD074B084A5121084819
:10374000FFF76AFC044B054A53210548FFF764FC68
:1037500000800E4000B00E40A4440010044500104C
:10376000B844001008B5114B4FF08072DA61A3F530
:103770004053DB6913F0807F0BD10D4B0D4A1A606B
:10378000DB6913F0807F0AD1094BDB69002BFBDA80
:1037900008BD094B094A51210948FFF73DFC064B7A
:1037A000064A53210648FFF737FC00BF00B00E4021
:1037B00000800E4000F0FF00A444001004450010FB
:1037C000B844001010B4164BD3F8882012F002024F
:1037D00004D003F54053134CC3F8884083B243F040
:1037E000B54343F4FC030E4CE366000C40F0B540D7
:1037F00040F4FC00A0668BB243F0B54343F4FC03F5
:103800006366090C41F0B54141F4FC0121661AB12F
:10381000054B044AC3F888205DF8044B704700BF8D
:10382000000010400200FE5A00201040044B1B6FA5
:10383000034A506F1946136F9942F9D1704700BF80
:103840000000104010B41A4BD3F8884014F0020462
:1038500004D003F54053174AC3F888201649A1FB4A
:10386000003292094FF47A7303FB12031B04A1FB8D
:1038700003139B0942F0B54242F4FC020C498A65ED
:1038800043F0B54343F4FC03CB650C4B0C4AC3F83F
:1038900088204CB1A2F5FF72C3F88820044BD3F8FE
:1038A000883013F4803FF9D05DF8044B704700BFB7
:1038B000000010400200FE5AD34D6210002010405C
:1038C0000002FE5A08B50248FFF7BCFF08BD00BF62
:1038D000001BB700844641EA000313F0030349D1FB
:1038E000403A23D30B6803604B6843608B68836066
:1038F000CB68C3600B6903614B6943618B6983616A
:10390000CB69C3610B6A03624B6A43628B6A836251
:10391000CB6AC3620B6B03634B6B43638B6B836339
:10392000CB6BC36340304031403ADBD230320BD3F3
:103930000B6803604B6843608B688360CB68C3602F
:1039400010301031103AF3D20C3205D351F8043B49
:1039500040F8043B043AF9D2043208D0D2071CBF25
:1039600011F8013B00F8013B01D30B88038060464E
:10397000704700BF082A13D38B07B1D010F00303A0
:10398000AED0C3F10403D21ADB071CBF11F8013B10
:1039900000F8013BA4D331F8023B20F8023B9FE73B
:1039A000043AD9D3013A11F8013B00F8013BF9D2AE
:1039B0000B7803704B7843708B7883706046704748
:1039C00020F0030110F00300C0F1000051F8043BA7
:1039D00000F1040C4FEACC0C6FF000021CBF22FA7D
:1039E0000CF213434FF0010C4CEA0C2C4CEA0C4C3B
:1039F000A3EB0C0222EA030212EACC1204BF51F834
:103A0000043B0430F4D0C2F1000102EA0102B2FA30
:103A100082F2C2F11F0200EBD2007047F8B500BF7E
:103A200001B40248844601BC604700BF790200200F
:103A300001B40248844601BC604700BF2102002057
:103A400001B40248844601BC604700BFED0100207C
:103A5000411A0010B9190010E5190010DD1A001004
:103A6000211A001039190010651A001005190010EC
:103A7000110900106D1A001019110010A51900107D
:103A8000531A0010051A001071040010C904001028
:043A90000D02001013
:103A9800616C61726D20776F6B652075732075702E
:103AA8000000000048656C6C6F20416C61726D20ED
:103AB800536C6565702100004177616B6520666F06
:103AC80072203130207365636F6E647300000000EC
:103AD800537769746368696E6720746F20584F5311
:103AE80043000000536C656570696E6720666F72ED
:103AF800203130207365636F6E64730053686F758F
:103B08006C6420626520736C656570696E6700007F
:103B18000A2A2A2A2050414E4943202A2A2A0A00E2
:103B28000A00000068775F69735F636C61696D659F
:103B38006428626974732C206269745F696E6465B5
:103B480078290000433A2F7069636F2F7069636F9B
:103B58002D73646B2F7372632F636F6D6D6F6E2F90
:103B680068617264776172655F636C61696D2F6308
:103B78006C61696D2E63000068775F636C61696DC5
:103B88005F636C656172000064656C7461203E3D22
:103B9800202D323034382026262064656C7461204C
:103BA8003C3D203230343620262620212864656C9E
:103BB8007461202620312900433A2F7069636F2FE2
:103BC8007069636F2D73646B2F7372632F72703219
:103BD8005F636F6D6D6F6E2F686172647761726578
:103BE8005F6972712F6972712E6300002128646504
:103BF8006C7461203E3E2031317529006375727204
:103C0800656E74203D3D205F5F756E68616E646C03
:103C180065645F757365725F697271207C7C20636F
:103C2800757272656E74203D3D2068616E646C65C6
:103C3800720000006972715F68616E646C65725F22
:103C4800636861696E5F667265655F736C6F745FE8
:103C580068656164203E3D20300000007674616232
:103C68006C655F68616E646C6572203D3D205F5FC6
:103C7800756E68616E646C65645F757365725F69A3
:103C880072710000212828282875696E7470747272
:103C98005F742972656D6F76655F7468756D625FB4
:103CA80062697428767461626C655F68616E646CC1
:103CB80065722929202D20282875696E7470747200
:103CC8005F74296972715F68616E646C65725F63A5
:103CD8006861696E5F736C6F74732929202520737E
:103CE800697A656F66287374727563742069727176
:103CF8005F68616E646C65725F636861696E5F734B
:103D08006C6F74292900000030783163203D3D2014
:103D1800282A696E7374293E3E313175000000000F
:103D280021657863657074696F6E207C7C20657886
:103D380063657074696F6E203D3D206E756D202B34
:103D480020565441424C455F46495253545F4952AC
:103D58005100000066616C736500000069735F7351
:103D680068617265645F6972715F7261775F6861CB
:103D78006E646C657228736C6F745F68616E646CD6
:103D880065722900657863657074696F6E0000005C
:103D9800666F756E640000006972715F6164645FCC
:103DA8007461696C5F746F5F667265655F6C697377
:103DB80074000000696E736572745F626C5F333201
:103DC800000000006972715F72656D6F76655F68EB
:103DD800616E646C657200006D616B655F6A5F316E
:103DE800360000007265736F6C76655F6A5F313606
:103DF800000000006972715F7365745F6578636CB9
:103E080075736976655F68616E646C657200000041
:103E180031203D3D202875696E747074725F742975
:103E28006C2D3E7370696E5F6C6F636B00000000F1
:103E3800433A2F7069636F2F7069636F2D73646BDA
:103E48002F7372632F636F6D6D6F6E2F7069636F61
:103E58005F73796E632F6D757465782E630000004B
:103E6800746F74616C0000006D74782D3E636F721E
:103E7800652E7370696E5F6C6F636B006C6F636B3C
:103E88005F69735F6F776E65725F69645F76616C97
:103E98006964286D74782D3E6F776E65722900000D
:103EA8006D74782D3E656E7465725F636F756E74A0
:103EB800000000006D757465785F657869740000AE
:103EC8006D757465785F656E7465725F626C6F633B
:103ED8006B5F756E74696C0072756E74696D655F81
:103EE800696E69745F6D757465780000706F6F6CCA
:103EF8002D3E74696D65725F616C61726D5F6E7580
:103F08006D203D3D2074696D65725F616C61726DF5
:103F18005F6E756D00000000433A2F7069636F2F64
:103F28007069636F2D73646B2F7372632F636F6D8A
:103F38006D6F6E2F7069636F5F74696D652F74693B
:103F48006D652E630000000064656661756C745FC2
:103F5800616C61726D5F706F6F6C5F696E697469B7
:103F6800616C697A656428290000000041747465F1
:103F78006D7074656420746F20736C65657020695A
:103F88006E73696465206F6620616E20657863656D
:103F98007074696F6E2068616E646C65723B207521
:103FA800736520627573795F77616974206966202B
:103FB800796F75206D75737400000000616C617213
:103FC8006D5F706F6F6C5F6765745F646566617560
:103FD8006C740000616C61726D5F706F6F6C5F690B
:103FE80072715F68616E646C65720000486172642A
:103FF8007761726520616C61726D20256420616C47
:10400800726561647920636C61696D6564000000A4
:104018004E6F20616C61726D7320617661696C61AD
:10402800626C650074696D65722D3E696E747320EB
:1040380026203175203C3C20616C61726D5F6E7585
:104048006D000000433A2F7069636F2F7069636FCA
:104058002D73646B2F7372632F7270325F636F6D91
:104068006D6F6E2F68617264776172655F74696DD8
:1040780065722F74696D65722E63000074696D65D1
:10408800725F68617264776172655F616C61726D9D
:104098005F7365745F746172676574007372635FE0
:1040A80066726571203E3D206672657100000000F1
:1040B800433A2F7069636F2F7069636F2D73646B58
:1040C8002F7372632F7270325F636F6D6D6F6E2F17
:1040D80068617264776172655F636C6F636B732F7D
:1040E800636C6F636B732E6300000000636C6F6317
:1040F8006B5F636F6E6669677572650076636F5F85
:1041080066726571203E3D205049434F5F504C4CCC
:104118005F56434F5F4D494E5F465245515F485A7F
:104128002026262076636F5F66726571203C3D20ED
:104138005049434F5F504C4C5F56434F5F4D415879
:104148005F465245515F485A00000000433A2F70BD
:1041580069636F2F7069636F2D73646B2F7372635C
:104168002F7270325F636F6D6D6F6E2F686172644E
:10417800776172655F706C6C2F706C6C2E630000D9
:104188006662646976203E3D203136202626206608
:1041980062646976203C3D203332300028706F73AA
:1041A800745F64697631203E3D20312026262070D8
:1041B8006F73745F64697631203C3D20372920266F
:1041C800262028706F73745F64697632203E3D2024
:1041D8003120262620706F73745F64697632203C24
:1041E8003D203729000000007265665F66726571C0
:1041F800203C3D202876636F5F66726571202F2012
:1042080031362900706C6C5F696E697400000000BB
:104218004465627567000000626F6F74325F7732C1
:104228003571303830000000322E322E3000000058
:104238007069636F3200000068656C6C6F5F736C47
:104248006565705F616C61726D0000004175672083
:10425800313920323032350005005250DE65F468BD
:10426800804A0010060052505422A29D5442001069
:1042780006005250861C03024042001006005250AD
:10428800BBFF3CB63842001006005250ABB3605337
:104298003042001006005250E182887F2042001010
:1042A80006005250D3F0754218420010666E69003D
:1042B800666E692B000000006E616E00666E692DE7
:1042C8000000000000000000000000000000F03FB7
:1042D80000000000000024400000000000005940D9
:1042E8000000000000408F40000000000088C3402C
:1042F80000000000006AF8400000000080842E41A1
:1043080000000000D01263410000000084D79741EC
:104318000000000065CDCD412C2066756E63746980
:104328006F6E3A2000000000617373657274696FE4
:104338006E2022257322206661696C65643A2066C6
:10434800696C6520222573222C206C696E652025F6
:1043580064257325730A00000D0A00005541525464
:1043680020737464696E000055415254207374645C
:104378006F7574005541525420737464696E202F10
:10438800207374646F7574000600525053B4F4A11E
:104398007C430010080052501200000008005250E0
:1043A80092100000646F726D616E745F736F757246
:1043B80063655F76616C6964285F646F726D616EB6
:1043C800745F736F7572636529000000433A2F703C
:1043D80069636F2F7069636F2D6578747261732FCD
:1043E8007372632F7270325F636F6D6D6F6E2F70B3
:1043F80069636F5F736C6565702F736C6565702E8C
:1044080063000000646F726D616E745F736F757224
:1044180063655F76616C696428646F726D616E7440
:104428005F736F757263652900000000736C6565C2
:10443800705F72756E5F66726F6D5F646F726D61CB
:104448006E745F736F75726365000000646976202F
:104458003C3D20333120262620646976203E3D20CD
:1044680031000000433A2F7069636F2F7069636FE2
:104478002D6578747261732F7372632F7270325F57
:10448800636F6D6D6F6E2F68617264776172655FBF
:10449800726F73632F726F73632E6300726F73632F
:1044A8005F77726974655F6F6B6179282900000016
:1044B800433A2F7069636F2F7069636F2D65787445
:1044C8007261732F7372632F7270325F636F6D6DD9
:1044D8006F6E2F68617264776172655F726F736364
:1044E8002F696E636C7564652F6861726477617299
:1044F800652F726F73632E6800000000726F73631C
:084508005F7772697465000021
:0845100098BDFF0F010000003F
:10451800604200106C420010784200108442001083
:10452800904200109C420010A842001090430010D6
:084538009C430010A443001095
:1045400000B503460268EFF3108C72B6D2E8CFEFE5
:104550000120BEF1000FF9D1C2E84E0FBEF1000FED
:10456000F4D1BFF35F8F93F90420002A0ADB81B1F5
:104570000A6000201A680023C2E88F3F8CF310887D
:104580005DF804FB4FF0504292F900201A710120AF
:10459000F0E70020EEE70000F8B51E460368002BA8
:1045A00027D0044615464FF0504393F90070216818
:1045B000EFF3108C72B6D1E8CF2F0123002AFAD185
:1045C000C1E8423F002AF6D1BFF35F8F94F904E0BF
:1045D000BEF1000F13DB22680023C2E88F3F8CF38B
:1045E00010882846314600F0F7F90028DFD0002077
:1045F0000DE0074B074AA621074800F0E5F92771AF
:1046000022680023C2E88F3F8CF310880120F8BD98
:10461000703E0010C83E0010383E001070B582B0E9
:10462000064615461C4601A9FFF78AFF38B99DF9D1
:1046300004204FF0504393F900309A4201D102B068
:1046400070BD2A4623463046FFF7A6FFF7E7000075
:1046500008B50368EFF3108272B6D3E8CFCF01211B
:10466000BCF1000FF9D1C3E84C1FBCF1000FF4D12D
:10467000BFF35F8F90F90430002B09DBFF23037138
:1046800001680023C1E88F3F82F3108840BF08BD56
:10469000024B034AD521034800F096F9843E0010EE
:1046A000BC3E0010383E001053B94AB9002908BF7B
:1046B00000281CBF4FF0FF314FF0FF3000F082B9EF
:1046C000ADF1080C6DE904CE00F006F8DDF804E069
:1046D000DDE9022304B070472DE9F04F099D04463F
:1046E0000F46002B48D18A42944661D9B2FA82F330
:1046F00043B1C3F120019F4002FA03FC9C4020FA21
:1047000001F10F434FEA1C411FFA8CFE220CB7FB4C
:10471000F1F601FB167706FB0EF042EA07429042E3
:1047200008D91CEB020206F1FF3702D2904200F2D8
:1047300037813E46121AA4B2B2FBF1F001FB1022FF
:1047400000FB0EFE44EA0244A64508D91CEB040413
:1047500000F1FF3202D2A64500F21C81104640EA69
:104760000640A4EB0E0400261DB1DC400023C5E981
:1047700000433146BDE8F08F8B4209D9002D00F08F
:10478000FD800026C5E9000130463146BDE8F08FC6
:10479000B3FA83F6002E4BD18B42C0F0F2808242F6
:1047A00040F2EF803046002DE3D0C5E90047E0E756
:1047B00002B9FFDEB2FA82F3002B40F09D80891A25
:1047C0004FEA124E97B20126200CB1FBFEF20EFB0F
:1047D000121140EA014107FB02F088420FD91CEB9D
:1047E000010102F1FF382CBF4FF001094FF0000921
:1047F000884203D9B9F1000F00F0CF804246091A70
:10480000A4B2B1FBFEF00EFB101100FB07F744EA67
:104810000144A74208D91CEB040400F1FF3102D285
:10482000A74200F2B4800846E41B40EA02409BE73E
:10483000C6F12007B34001FA06F422FA07FCF9405A
:10484000B2404CEA030C20FA07F34FEA1C491C4320
:104850001FFA8CFE00FA06F3200CB1FBF9F809FBF5
:10486000181140EA014108FB0EF088420FD91CEBF9
:10487000010108F1FF3A2CBF4FF0010B4FF0000B84
:10488000884203D9BBF1000F00F08D80D046091A91
:10489000A4B2B1FBF9F009FB101100FB0EFE44EAD3
:1048A00001418E4507D91CEB010100F1FF3401D213
:1048B0008E457FD8204640EA0840A1EB0E01A0FBC0
:1048C000029841454C46C64602D306D14B4504D218
:1048D0000138B9EB020468EB0C0E002D70D01A1BE6
:1048E00061EB0E0122FA06F301FA07F7F140002608
:1048F0001F43C5E900713CE702FA03FCC3F1200045
:1049000001FA03F221FA00F64FEA1C4E24FA00F1F4
:104910001FFA8CF79C401143B6FBFEF00A0C0EFB0D
:10492000106642EA064200FB07F696420ED91CEBDF
:10493000020200F1FF382CBF4FF001094FF00009CF
:10494000964202D9B9F1000F31D04046921B89B28C
:10495000B2FBFEF60EFB162241EA024106FB07F20D
:104960008A4207D91CEB010106F1FF3801D28A42C5
:1049700023D84646891A46EA004625E72E462846A9
:10498000F7E6841A61EB030301201F460BE764443A
:10499000023849E764440238E1E6023A61442EE70E
:1049A000023E6244C6E6A8F1020861446FE702389D
:1049B0006244CBE7023861447DE7023E6144D9E7B7
:1049C0002E46D6E6704700BF01B40248844601BCBB
:1049D000604700BF1930001001B40248844601BC92
:1049E000604700BFF50F001010000000000000003D
:1049F00000000100000000000000000000000200B4
:104A000000000000000000000000030000000000A3
:104A1000000000000000FF000000000001B5486831
:104A200001318E460047704609380149884701BD6B
:104A3000CD07001000000000000000000000000092
:104A4000000000000000000040060020F9320010C5
:104A500025340010853300103934001000000000A8
:0C4A600000010000000000000000000049
:104A6C00D3DEFFFFFE010000FF010000CCB6FFFF0C
:044A7C00793512ABCB
:040000051000014D99
:00000001FF
