:020000041000EA
:10000000002008205D0100101B0100101D010010E0
:100010001101001011010010110100101101001058
:100020001901001019010010190100101F01001022
:10003000110100101901001021010010230100100E
:100040001101001011010010110100101101001028
:100050001101001011010010110100101101001018
:10006000110100101101001029620120110100107E
:10007000110100101101001011010010E5590120BB
:10008000B9600120110100101101001011010010D0
:1000900011010010110100101101001011010010D8
:1000A00011010010110100101101001011010010C8
:1000B00011010010110100101101001011010010B8
:1000C00011010010110100101101001011010010A8
:1000D0001101001011010010110100101101001098
:1000E0001101001011010010110100101101001088
:1000F0001101001011010010110100101101001078
:100100001101001011010010110100101101001067
:10011000EFF30580103800BE00BE00BE00BE00BE7A
:1001200000BE00BEF2EB8871C863001000640010CE
:10013000A001001090A31AE7D3DEFFFF42012110B7
:10014000FF010000E0D30100793512AB4FF0000051
:100150001E49086006C881F3088810474FF05040D8
:10016000006810B14FF00000F2E70DA40ECC00299A
:1001700002D000F012F8F9E71549164A002000E015
:1001800001C19142FCD11449884714498847144958
:10019000884700BEFDE701C901C29A42FBD3704700
:1001A00000640010100100202872012018D50110F1
:1001B000000008200000082018D5011000100820B9
:1001C00000100820000000007047000008ED00E06B
:1001D000287201205876012085320010290900106C
:1001E00045320010F8B500BF10B5054C237833B97F
:1001F000044B13B1044800E000BF0123237010BD7D
:10020000A873012000000000644E001008B5034BE5
:100210001BB10349034800E000BF08BD0000000017
:10022000AC730120644E001008B5044B1A68044BEF
:100230001968044803F068F908BD00BF406901204F
:1002400038690120684E0010C0F30923084931F9CC
:100250001320013331F913309B1AC0B203FB00F0B5
:10026000002802DB02EB20207047FF30FAE700BFD6
:100270005450001008B5A0F58030FFF7E5FF08BD29
:1002800010B5C468002103E0134324F80C30013199
:100290008368B1EB530F13D24FEA410C34F81120AD
:1002A000C2F3842EC2F344139B0143EACE2302F02F
:1002B0001F0E43EA0E039BB2D20BE5D02022E3E7E8
:1002C00010BD00002DE9F04782B04FF050431D688B
:1002D000012D05D98A4B8B4AAE218B4802F0B6FF1F
:1002E00029468A4803F010F9012D40F08D80142032
:1002F00000F040FB4FF4801340EE143084E0012600
:1003000092E0073743F10008A0E043F6FF73C018FE
:1003100047F10002AFE043F6FF729B1840F1000284
:10032000BFE00DF1070261B9794B9B6913F0100F23
:10033000FAD1774B1868134603F8010B01311A46BE
:10034000F1E79DF807303D2B10D82A2B30D92B3BF5
:10035000122B2FD8DFE803F00E2E142E2E232E2E74
:100360002E2E2E2E2E2E1A2E2E2E0E005F2B07D066
:100370000126A6E0674A1368013313600126A0E056
:10038000644A1368013B136001269AE0624B1B68C4
:10039000002B11DD013B604A1360012691E05E4BAA
:1003A0001B68102B0ADC01335B4A1360012688E0CE
:1003B000012686E0012684E0012682E0012680E015
:1003C0000B46002119605242524B1A604FF05043C5
:1003D0005B6803F48001C3F38053504A127822B162
:1003E00019B94F490A6801320A604C4A13704D48E6
:1003F00004F0EEFC4C4B1B682946204698472046EB
:1004000004F0EEFC002E78D1012004F0F1FC04464B
:10041000444804F0FDFC6088444B1B6883426AD06A
:1004200001283FF46CAF0026404B186000EB001A27
:10043000C0EB0010C000FFF71DFF00F5004747F3B9
:1004400080737F009846002BFFF65BAFFF0847EAFA
:1004500048774FEAE808B9465046FFF7F5FEC2175D
:1004600000FB08F307FB0237A0FB09031F443A46D1
:10047000002FFFF64AAF800B40EA824007462C4A25
:100480001060CAF10000FFF7F5FEC31700FB08F883
:1004900009FB0388A0FB0930404402460028FFF610
:1004A0003AAF9B0B43EA8243224A13605B42224AE3
:1004B0001360224B1F60164B996911F010013FF435
:1004C00030AF144B1A6816490B6813440B60002BAD
:1004D000FFF676AF1A4908681A490989C1EBC001CD
:1004E000C800B3EBC10FFFF671AF0D4B186052425D
:1004F000084B1A606AE7002679E7FFF795FE83E765
:10050000884E001048500010A84E0010E44E001015
:100510000000074038690120406901205176012020
:10052000BC740120A07401203C690120C07401202A
:10053000A8740120B0740120AC740120B4740120AF
:10054000705800109063001008B5FFF7BBFE000064
:1005500008B5054803F09AFC012003F09BFC034812
:1005600004F026FC08BD00BF906300104076012017
:1005700070B58E46049D05994FF05044C4F88850DC
:100580001C4EC4F8AC60C4F88C101B4EC4F8B060AC
:100590001A4EC4F89060C4F88020C4F88430C4F8BF
:1005A000C850174DC4F8EC50C4F8CC101549C4F825
:1005B000F0101549C968C4F8D010C4F8C020C4F8B8
:1005C000C4304FF0000C0FE04FF05043D3F89C4084
:1005D000D3F8DC102388DB01CB5A20F8023B013230
:1005E000072AF1DD0CF1010CF44501DA0022F7E7EE
:1005F00070BD00BF2F20040027350400E0EF00206D
:100600002C0C040089180400E47401202DE9F04F3B
:1006100083B00546466804886D4B1A6814446D4AD9
:10062000D2F800C03046072220F8042B002777803C
:100630001B68E31A684A126803FB02F26749D1F8A3
:1006400000E06749B1F80880664909680191664988
:10065000096800910EFB03F302EB8C224FEAD801EC
:10066000FFF786FFB388738028F00703033BB3804E
:1006700003460B2223F8042B478013F0020F4FD0C0
:10068000831D0122828013F0030F51D16A8906EB8A
:1006900082029A4253D39B1BC3F38F032B81D5F85D
:1006A0000C8008F5C8796F88BF08504BA3FB07235F
:1006B000FA1A03EB52039B08C3EBC303FF1ABFB242
:1006C0004B4642464FF0000C49490968614544DDFC
:1006D0000721198000205880464949884E1E9E8077
:1006E00003F1080ED88013F0030F2FD10220106001
:1006F0005360404E30690CEB070AB6F804B0344B37
:100700001B68E31A0BFB0A3330F81300F368034449
:1007100049089160D3600CF1010C73461032D3E7A5
:100720000023838000F108034FF6FF72C280AAE71E
:10073000314B324A4FF4EE71314802F087FD314BB4
:100740002E4A40F2DD112E4802F080FD2A4B2B4A42
:1007500040F27D212A4802F079FD0B211980002109
:100760005980998003F108004FF6FF71D98013F08A
:10077000030F18D10221116053600021916002F132
:100780001003D160994515D96A8A08EB820282422A
:1007900017D3A3EB0803C3F38F032B820120287622
:1007A00003B0BDE8F08F144B144A40F28A2114487C
:1007B00002F04CFD144B114A4FF42471104802F022
:1007C00045FD124B0D4A40F291210D4802F03EFDCD
:1007D00048760120BC740120AC740120B47401205F
:1007E00090630010B0740120A87401202549922460
:1007F0004069012058580010FC4E0010285000108D
:10080000A84E00101C4F0010484F0010604F001001
:1008100008B503F02DF808BDF8B5324B1B7B012B52
:1008200014D9314800F08AFB304B5D889E8806FB66
:1008300005F01F8807FB00F040002D4CA06001F080
:10084000D5FBE06048B16D0000241BE0294B2A4A2B
:1008500040F22311294802F0F9FC294B264A40F2C4
:100860002B11264802F0F2FC204BD9681B6933F8A3
:1008700014301F4AD0682A46194405FB040004F0CE
:1008800025F8013407FB06F3A342EDDC1D4B1A6883
:10089000144B5B89C3EBC2031B4A1360002B1ADBAA
:1008A0001348FFF7EDFC1948FFF7EAFC012200218D
:1008B000174800F02DFBFFF74BFE164802F0F6FD3F
:1008C000154802F0F3FD154802F0F0FD1448FFF75B
:1008D0009FFFFFF7F7FC134B074A4FF49A71074845
:1008E00002F0B4FC90630010A07401207458001052
:1008F000E4740120904F00103C500010A84E0010EE
:10090000A84F00106C58001048760120585800106D
:1009100040760120D44F0010DC4F00100050001032
:1009200049050010C84F001008B500F002F8FFF7A5
:1009300073FF08B502F002FF08BD00000C4B03EB8B
:10094000800253F8203083F0400303F0C00302F527
:10095000805CCCF80030C00000F1804000F5203011
:10096000416002F540524FF480731360704700BF3E
:100970000480034008B5002242EC440042EC4000F1
:100980000521FFF7DBFF08BD0FB400B583B0049C61
:10099000074802F08BFD3CB105A90191204602F009
:1009A00095FD044802F082FD012002F02FFC00BFFB
:1009B00088580010E0610010EFF3108072B6064B0B
:1009C000D3E8CF1F01220029FAD1C3E8412F002923
:1009D000F6D1BFF35F8F70472B7401200023034AC9
:1009E000C2E88F3F80F31088704700BF2B7401204E
:1009F00070B505460C461646FFF7DEFFE208A95C17
:100A000004F0070C012303FA0CF3194205D1DBB201
:100A10000B43AB54FFF7E2FF70BD21463046FFF7B2
:100A2000B3FF0000054A1078431CDBB21370172B8C
:100A300002D9134610221A70704700BF4469012082
:100A40004FF0E022936843F000539360704700003A
:100A5000002305E0044A1A440021C2E88F1F013335
:100A60001F2BF7D9704700BF2074012008B51F283D
:100A700005D8064B18440023C0E88F3F08BD044B3F
:100A8000044A0F21044802F0E1FB00BF207401205A
:100A90009858001000590010B4580010064B9B687D
:100AA000103043F82010BFF35F8F00230349C1E8E3
:100AB0008F3F82F31088704700ED00E02974012019
:100AC0000048704700E400E008B5FFF7F9FF002395
:100AD00004E04FF0803240F8042B01330C2BF8D99E
:100AE00062B608BD08B5091A081F01F2FC7140F68C
:100AF000FE73994207D810F0010F04D1C0F34A00E9
:100B000040F4604008BD034B034A4FF4877103482B
:100B100002F09CFB10590010605B0010405900105F
:100B200008B5091A04394B08090B0AD1C1F30A01A7
:100B300041F4704101806FEA43536FEA535343809D
:100B400008BD034B034A4FF48B71034802F07EFB50
:100B5000745900103C5B0010405900104209064BCC
:100B600053F8222000F01F00012303FA00F0024294
:100B700014BF18460020704700E100E021B1044B8B
:100B8000C3F8800118607047014BC3F880007047BC
:100B900000E100E03AB1064B00F1600243F8221098
:100BA00043F8201070472030014B43F82010704765
:100BB00000E100E008B50A4600F01F03012199405A
:100BC0004009FFF7E7FF08BD024B9B68103053F860
:100BD0002000704700ED00E070B505460C46EFF3CD
:100BE000108672B60F4BD3E8CF1F01220029FAD12D
:100BF000C3E8412F0029F6D1BFF35F8FFFF7E4FF71
:100C0000094B984201D0A04205D1324621462846E0
:100C1000FFF744FF70BD054B054AED21054802F082
:100C200015FB00BF29740120110100108459001028
:100C30007C5B0010405900102DE9F04706460D4638
:100C4000EFF3108872B65B4BD3E8CF1F0122002967
:100C5000FAD1C3E8412F0029F6D1BFF35F8F564B7D
:100C60009B6800F1100A53F82A70544B9F4207D03A
:100C7000AF4200F09D803C46514BFB1A2F2B06D90A
:100C8000424639463046FFF709FFBDE8F087FFF7D7
:100C900065FF814600213046FFF78CFFBFF35F8F71
:100CA000EFF30580C0B208B1824510D124F00104F1
:100CB0000021A268954212D094F90630002B0DDB7A
:100CC00003EB430321463E4C04EB8304F1E73D4B29
:100CD0003D4A40F202213D4802F0B8FA21469542D1
:100CE0005FD194F90650002D41DB05EB4503344AF2
:100CF00002EB83039A68A260DA79E27193F9062025
:100D0000A27193F90630002B10DA4BF60150A08047
:100D100005EB45022A4B03EB82032D4A11789971AA
:100D2000157049463046FFF745FFA9E7201D05EB42
:100D30004503234A02EB8303191D9B88DA0A1C2A08
:100D400008D15B050DD45B15023301EB4301FFF7BE
:100D5000C9FEDCE71F4B204A4FF48E711B4802F09E
:100D600075FA03F5FF1303F5FF531F33EBE798B94B
:100D700081B1FF238B714BF601538B80144A13789A
:100D8000A3714AF6AA230E49641A644163431B0DFA
:100D90001370C6E7094FF1E71049201DFFF7C0FEA9
:100DA000BFE70F4B084A4FF41171084802F04EFAA2
:100DB000024F65E72974012000ED00E011010010E9
:100DC00048690120A85A00104C5B001040590010DF
:100DD00050760120905A00106C5B0010826901204F
:100DE000DC5A001038B504460D46FFF769FEA1082D
:100DF00050F8213004F00304E400FF22A24023EA6B
:100E0000020305FA04F41C4340F8214038BD0000F9
:100E100038B540F0010E344BAEEB03032F2B31D825
:100E2000EFF30581C9B2002933D0EFF3108472B615
:100E30002E4BD3E8CF5F0122002DFAD1C3E8452F16
:100E4000002DF6D1BFF35F8F4AF6AA230246264D46
:100E5000521B524153431B0D4FFA83FC244B9B689A
:100E600053F8213073451BD00023032B34D803EBF8
:100E700043021D4901EB820292F90620624520D00F
:100E80000133F2E71B4B1C4A40F27F211B4802F062
:100E9000DDF91B4B184A40F28221184802F0D6F9BE
:100EA000134B9B68174A43F82120174B1A7882711D
:100EB00083F800C000230D4AC2E88F3F84F31088F6
:100EC00038BD0A4603EB430102EB8101FF258D711A
:100ED0004BF601528A80E8E70C4B074A40F2932117
:100EE000064802F0B3F900BF4869012029740120C7
:100EF00000ED00E0E45A0010205B001040590010A3
:100F00000C5B00101101001050760120185B0010DE
:100F100070B504460E461546FFF784FD014620468F
:100F200000F006F8A680E580BFF35F8F70BD00007B
:100F3000014B0B44036070472074012010B5044638
:100F4000FFF770FD01462046FFF7F2FFFF232371F4
:100F5000BFF35F8F10BD10B50446FFF763FD014678
:100F60002046FFF7E5FFFF23237100236371BFF3E2
:100F70005F8F10BD10B50D4C09E00D4B0D4A1A21C5
:100F80000D4802F063F92046FFF7D8FF08340B4BF9
:100F90009C4209D22368002BF5D0012BEDD12046CD
:100FA000FFF7D9FF0834F2E710BD00BF1872012027
:100FB000985B0010605C0010B85B00102872012084
:100FC00041EA0040704700000D4B1A68EFF31081B2
:100FD00072B6D2E8CFCF0120BCF1000FF9D1C2E840
:100FE0004C0FBCF1000FF4D1BFF35F8F1A680023E0
:100FF000C2E88F3F81F3108840BF00200021704776
:10100000DC7501202DE9F04F85B0EFF30587FFB2C5
:10101000103FBB0815D0964D07F00307944B9D4237
:1010200014BF0023012307EB8303924A52F82340A5
:101030002378BB4207D10122BA4005F541535A60DB
:1010400031E18D4DE8E78D4B8D4A92218D4802F0BC
:10105000FDF8D4F814A006EB46084FEAC80B0AEBDB
:10106000C808D8F808300193D8F80C90284600F04A
:1010700025FB019BC01A61EB0903002BC0F21B8109
:10108000B9F1000F65DBD8F810301A4602937E4B99
:101090009A4232D0B8F8021089B2B4F90800FFF7CA
:1010A0008FFFD8F81410029B984702900391029A80
:1010B000039B52EA03014CD0002B2BDA0199881ACA
:1010C00069EB0309C8F80800C8F80C903AF90B302E
:1010D000002BC0F2F080D4F8148003EB430208EB3D
:1010E000C2029168D268411A69EB0202002AC0F27A
:1010F000E280A6462EF8083F16E0D8F814201369BF
:1011000002921046984720B3029A136802935368DC
:101110000393CCE7284600F0D1FA029B1818039BF2
:1011200043EB0109CEE79E46BEF900C0BCF1000FBB
:101130000ADB0CEB4C0308EBC3039968DA68411A2D
:1011400069EB0202002AEEDA2AF80BC0AEF8006062
:10115000B1E03AF90B3023812369EFF3108272B6C4
:10116000D3E8CF0F01210028FAD1C3E8401F00289F
:10117000F6D1BFF35F8FB4F902302AF80B306680E6
:1011800021690023C1E88F3F82F3108893E023692F
:10119000EFF3108272B6D3E8CF0F01210028FAD105
:1011A000C3E8401F0028F6D1BFF35F8FB4F8049066
:1011B0000FFA89F94FF6FF73A38021690023C1E874
:1011C0008F3F82F3108816E01E46B6F90020002AF1
:1011D0000BDB02EB42030EEBC3039868D968BCEB50
:1011E000000068EB01010029EEDAA6F800903EF954
:1011F0000A902EF80A20B9F1000F61DBD4F814E050
:1012000009EB49034FEAC30A0EEBC303D3F808C046
:10121000D3F80C8004F10806D7E70023A37104F18A
:10122000080EB4F9083011E04FF0FF384FF0FF39E5
:10123000C0E90289B4F90800984206D0AEF800204F
:10124000B4F9080021F80C0023811346B3F1FF3FE5
:1012500039D0616903EB43024FEAC20C01EBC200D3
:1012600031F93220468816F4004FDDD18646ECE78E
:1012700000800B40C474012000000B40745C00101F
:101280000C5D0010A05C0010051000103B1D45F81F
:101290002360284600F012FA361A68EB0101012E8D
:1012A00071F100032FDA0123BB40EB63B4F908604E
:1012B000002EBFF6CEAEA38813F4004F3FF467AF05
:1012C000A379002BA9D1B4F90830002B1BDB62698C
:1012D00003EB430302EBC3039E68D3F80C80B8F121
:1012E000FF3F08BFB6F1FF3FD3D0AA6AB11A3B1D3A
:1012F00055F823309B1A9942C8D32A6A0123BB4070
:101300001A42C6D1C2E740BF05B0BDE8F08F00BFAA
:101310002DE9F0410446884617461E46C160FFF796
:1013200081FB204B034423612770B3B263814FF0EC
:101330005042127862704FF6FF722281A280013B08
:1013400063804FF0000C08E00CF1FF3560690CEB96
:101350004C0E20F83E500CF1010CB445F4D3124B66
:1013600098450CBF0123002307EB83030F4A42F883
:10137000234014D000243C44012505FA07F7C8F89F
:1013800020700B492046FFF727FC29462046FFF72F
:1013900011FC08F50158C8F80070BDE8F08104247C
:1013A000E9E700BF2074012000800B40C4740120D5
:1013B0000510001008B5054B1B690BB1034808BDAB
:1013C000034B044A6521044801F040FF9069012065
:1013D000D05C0010F45C0010A05C0010F8B504466E
:1013E0009E460169EFF3108C72B6D1E8CF5F012001
:1013F000002DFAD1C1E8450F002DF6D1BFF35F8F64
:10140000B4F90250666905EB4500C70006EBC00061
:10141000002D01DBF15F618000212369C3E88F1F8C
:101420008CF310888D4233DB069901610799416185
:101430008260C0F80CE0418889B20131C1F30E012D
:1014400001B9012141802846FFF7BAFD2369EFF376
:10145000108272B6D3E8CFCF0121BCF1000FF9D1D1
:10146000C3E84C1FBCF1000FF4D1BFF35F8FA3881A
:10147000F353A58021690023C1E88F3F82F31088D0
:10148000E368217801228A4003F501535A60F8BDD0
:101490004FF0FF30FBE770B582B0064615461C469C
:1014A0009DF8203033B900F033F9854264EB010137
:1014B00000290ADB079B0193069B00932A462346DB
:1014C0003046FFF78BFF02B070BD0020FBE70346FC
:1014D0004089B0EB214F31DD10B50A14586902EB99
:1014E000420200EBC2021869EFF3108C72B6D0E82A
:1014F000CF4F5FF0010E002CF9D1C0E844EF002C73
:10150000F5D1BFF35F8F508880B289B288420FD087
:10151000002019690022C1E88F2F8CF3108830B1A8
:10152000DA681B780121994002F50153596010BD1A
:1015300040F40040508001209871EAE70020704795
:10154000F0B585B005460C46EFF30583DBB293B1E9
:10155000404B5B6A8B4209D33E4A926A824208D270
:101560008B4201D0012002E0002000E0002005B005
:10157000F0BD0120FBE7FFF71DFFC768067838467E
:1015800000F09CF82A1A64EB0101043657F8263063
:10159000181A824271F1000312DB20BF2D4B5B6AE7
:1015A0009C4209D82B4A926AAA4207D29C4201D097
:1015B0000120DCE70020DAE70020D8E70120D6E7A9
:1015C000FFF7F8FE002302930193234B00932A4672
:1015D0002346FFF760FF061E0BDD1E4B5B6A9C4235
:1015E0001BD81C4A926AAA422BD29C4213D00123D8
:1015F00014E0184B5B6A9C4209D8164A926AAA42C8
:1016000007D29C4201D00120B1E70020AFE70020C3
:10161000ADE70120ABE7002300E0002303B920BFC2
:10162000FFF7C8FE3146FFF752FF0A4B5B6A9C4248
:101630000BD8084A926AAA4209D29C4203D00120E0
:1016400095E70123EAE7002091E700208FE70120DA
:101650008DE700BF00000B40C90F00100048704725
:1016600000000B4010B50A4B1B6923B10A21094841
:10167000FFF75EFC10BDFFF7F1FF0446032100F009
:101680000BF81023032221460148FFF741FEEDE746
:1016900090690120DC75012010B5054A054C064B08
:1016A000A04214BF1846581CFFF7A2F910BD00BF96
:1016B000245D001000800B40547401200246436AF0
:1016C000906A1946536A9942FAD17047416A00E01C
:1016D000416A9942FCD300E0416A994202D1816A91
:1016E0009142F9D3704770B5064614461D46FFF780
:1016F000E5FF021941EB0503824273EB010102D2BF
:101700004FF0FF3213463046FFF7E0FF70BD000098
:1017100008B50248FFF7D2FF08BD00BF00000B402C
:1017200008B502460B460248FFF7DDFF08BD00BFC3
:1017300000000B4038B5046B14F0010F01D12046B6
:1017400038BD00F5405340F201321A63436A856A9E
:1017500005EB8315AD02062000F0F8F8044BA3FB5F
:101760000030C00AB5FBF0F00021FFF7D9FFE6E733
:10177000757B2B8F70B505460C461646FFF7DAFFD2
:10178000E96A4C40344005F58153DC60286370BD44
:1017900070B505460C46062000F0D8F8C300B3FB30
:1017A000F4F10131CC0907D04FF6FE739C4214D8F6
:1017B0002646C1F3450400E001266E62AC620022B9
:1017C00011462846FFF7D6FF062000F0BFF880003C
:1017D00004EB8614B0FBF4F070BD00244FF6FF76E6
:1017E000EBE7000049B10A22054B984214BF0020E4
:1017F0000120044B23F8102070474FF48072F3E768
:10180000008007401C76012038B504460D460620AE
:1018100000F09CF848B3174B9C4227D01A220123B2
:101820009340154A1360134B9C4221D01A23012286
:101830009A40124B1A60124B9B6832EA0303FAD1AA
:1018400000212046FFF7CEFF29462046FFF7A0FFE4
:10185000E36A83F0700303F07E0304F58152D360E2
:1018600040F2013323630323A36438BD1B22D6E770
:101870001B23DCE7008007400020024000300240CC
:101880000000024070B5049D00EB400C4FEA8C0C48
:101890000CF1804C0CF5803CDCF80440AC4201D2E9
:1018A000CCF80450A0F1040E5FFA8EFEBEF1010FD9
:1018B00027D90CF540544FF4006626601D4C54F8AF
:1018C00020603EB16469B4FBF6F4013404EB4404D7
:1018D000033CFDD2DCF8004084EA421202F0E00250
:1018E0000CF580542260BEF1010F16D90CF50052A0
:1018F0004FF400611160CCF804500E4A42F82030D9
:1019000070BD0129D5D10CF5405403262660DCF8C2
:10191000084014F0010FFAD0DCE7DCF800204A4060
:1019200002F003022260DCF8084001228A401442DF
:10193000F9D0DBE75C74012010B582B04FF480343D
:101940000094FFF79FFF02B010BD0000014B53F859
:10195000200070475C74012070B5049C344DB5FBC9
:10196000F1FC344D1544344EB54237D8B2FBFCF58A
:10197000A5F1100EBEF5987F36D803F1FF3EBEF1FB
:10198000060F37D804F1FF3EBEF1060F32D8BCEB8C
:10199000121F35D8240344EA03440368002B35DBC7
:1019A000264B984242D00E2301229A40244B1A60C3
:1019B00003F580531A60234B9B6832EA0303FAD184
:1019C0000160856000F540520432212313600368F2
:1019D000002BFCDAC4600823136070BD1A4B1B4A4D
:1019E00011211B4801F032FC1A4B184A19211848E2
:1019F00001F02CFC184B154A1C21154801F026FC5F
:101A0000164B124A2321124801F020FC036803F010
:101A10003F038B42C4D18368C3F30B03AB42BFD1F6
:101A2000C36803F4EE23A342BAD1D6E70F23BBE782
:101A3000001BB70080E84BD380F8A9320080054036
:101A40000020024000000240485D0010505E00107F
:101A5000985D0010CC5D0010E85D0010345E001051
:101A6000054A00EB400302EB8303596000EB4000A2
:101A700080000123135070470080104008B50023F8
:101A8000DB8A002242E800F212F4800F02D110211A
:101A9000984708BD04219847FBE70000034BD3F8A3
:101AA0002838002BFAD0BFF35F8F704700000E403C
:101AB000002207E0054B13449B00BFF35F8F00211A
:101AC00019600132072AF5D9704700BF038203105D
:101AD00008B5FFF7EDFF08BD074B4FF42A621A6007
:101AE0004FF48D72DA6003F50053044A1A60024B1A
:101AF0005B68002BFBDA70470080044000B0FA00FE
:101B000010B5044602E054F8043B9847014B9C4250
:101B1000F9D310BD604E00107047000008B50248B0
:101B2000FFF7EEFF08BD00BF204E001008B50248C9
:101B3000FFF7E6FF08BD00BF4C4E0010064B074AFA
:101B40001A6003F58053064A1A60064B9A68044BE4
:101B50009343FAD1704700BF002002407F3BEFEF74
:101B6000F6FFF30300000240054BDB6CB3F5004FBA
:101B700000D07047034B4FF48022DA64F9E700BFCE
:101B800000001150002011504FF0E022D2F8881DC3
:101B9000034B0B43C2F8883D10EE3004704700BF82
:101BA00003033000054B6FF060421A60044B9B68E2
:101BB000DB4333F06043F9D1704700BF003002408F
:101BC0000000024008B545F25320FFF757FF0346D7
:101BD0000420984708BD08B545F25320FFF74EFF93
:101BE00003460120984708BD08B5FEF731FF08BD40
:101BF00010B50C490C4A521A92101446442A28BFB8
:101C000044229200094802F061FE04E0084A074BB2
:101C100043F824200134432CF8D9044A054B9A6038
:101C200010BD00BF000000101001001000000020D7
:101C30001101001000ED00E038B50420FFF786FE2A
:101C4000064DA5FB0035AD0C002404E02946E0B2AA
:101C5000FFF706FF0134052CF8DD38BD83DE1B439A
:101C600030B583B0264B0022C3F88420FFF734FF41
:101C7000244B0122DA63224B5B6C012BFBD1214BFD
:101C800003221A631E4B9B6B012BFBD10224009491
:101C900005231D4A01211D48FFF75EFE052500951D
:101CA0002B461B4A01211B48FFF756FE1A4B002208
:101CB00021460420FFF740FE184C23460022012154
:101CC0002846FFF739FE164D2B4600221146082004
:101CD000FFF732FE2B46002211460920FFF72CFEAB
:101CE0002346002211460620FFF726FE2346002247
:101CF00011460720FFF720FEFFF79EFF03B030BD1F
:101D00000000014000300140002F685900000540EC
:101D1000008C864700800540001BB70080D1F0088A
:101D2000006CDC0286B003B451FC0804CDE902016A
:101D300051FC0904CDE9040151EC0A04CDE9060186
:101D400003BCF047BDE800504EEC00C4BDE80050B5
:101D50004EEC01C4BDE800504EEC02C400BD0000D2
:101D600000B5FFF7DFFF02E010FE30F4F8D441ECDD
:101D7000100443EC112400EE010410EE010480EE87
:101D8000200451EC1004704700B5FFF7CBFF02E0D0
:101D900010FE30F4F8D441EC100443EC112400EEB2
:101DA000010410EE210480EE200451EC3004704751
:101DB00000B5FFF7B7FF02E010FE30F4F8D410B51D
:101DC00041EC100443EC112451EC040453EC0524C1
:101DD000A0FB024C5FF0000EE0FB03CEE1FB02CE65
:101DE0004CEC20440024E1FB03E444EC30E480EEBE
:101DF000200451EC5004BDE81040704700B5FFF7D7
:101E000091FF02E010FE30F4F8D441EC100443ECF2
:101E1000112451EC2104A0FB01126FEA820252FB53
:101E2000100052FB12F252FB1000A0EBD07C53ECDE
:101E300004245CFB13F153EC1524A1FB022001FBED
:101E4000030053EC4424A2EB000050FB1CF24FEAC9
:101E5000111312EB017043EBE27140EA515020EA9A
:101E6000915020F0070053EC7524A0FB023C53EC8A
:101E7000752400FB03CC01FB02CC53EC0424ACEB37
:101E8000824C40EA5C70A0F1010041EC400480EE1D
:101E9000200451EC7004704700B5FFF743FF02E0E7
:101EA00010FE30F4F8D440EC700400EE010410EEA3
:101EB000210480EE200451EC3004704700B5FFF798
:101EC00031FF02E010FE30F4F8D440EC600400EE84
:101ED000010410EE210480EE200451EC3004704720
:101EE00000B5FFF71FFF02E010FE30F4F8D441EC1C
:101EF000800400EE010410EE010480EE400410EEB8
:101F00001304704700B5FFF70DFF02E010FE30F438
:101F1000F8D441EC800400EE010410EE010480EEE0
:101F2000400410EE3304704700B5FFF7FBFE02E0FB
:101F300010FE30F4F8D441EC100443EC112400EE10
:101F4000010410EE3004C0F30070704700B5FFF7D5
:101F5000E9FE02E010FE30F4F8D443EC102441EC2A
:101F6000110400EE010410EE30F48CBF01200020BB
:101F7000704700BF00B5FFF7D5FE02E010FE30F459
:101F8000F8D443EC102441EC110400EE010410EEEF
:101F900030F42CBF01200020704700BF00B5FFF7D0
:101FA000C1FE02E010FE30F4F8D441EC100443EC22
:101FB000112400EE010410EE30F42CBF01200020AB
:101FC000704700BF00B5FFF7ADFE02E010FE30F431
:101FD000F8D441EC100443EC112400EE010410EE9F
:101FE00030F48CBF01200020704700BF70B504465C
:101FF0000A4E304602F00CFF204602F0A5F90546D5
:10200000304602F0E5FE2DB12C44054B9C4201D830
:10201000284670BD0348FEF7B7FC00BF18720120C8
:10202000000008205C5E0010F8B504460E460C4F18
:10203000384602F0EDFE3146204602F041F90546F1
:10204000384602F0C5FE06FB04F42DB12C44054BC6
:102050009C4201D82846F8BD0348FEF795FC00BF16
:1020600018720120000008205C5E0010704720B14B
:1020700008B50A684968904708BD704701460020C6
:1020800007E000EB8000531C0B60137803EB40006B
:1020900030380A681378303BDBB2092BF1D970472E
:1020A0002DE9F04F83B005460E4693461F46DDF8F6
:1020B00030A00D9CDDF838900F9B13F0030F19D161
:1020C000A0460192C84509D202F1010B3B463146B8
:1020D0002020A84708F101085A46F3E7DDF804B0CC
:1020E00008E0013C02F101083B4631461AF80400C1
:1020F000A8474246002CF4D10F9B13F0020F03D1E6
:10210000104603B0BDE8F08FA2EB0B034B45F7D2AE
:10211000541C3B4631462020A8472246F4E72DE9CF
:10212000F04385B00C9D0D9C9DF83890DDF83C8007
:10213000DDF840E0119F129E16F0020F21D17FB111
:1021400016F0010F0CD0B9F1000F02D116F00C0FF0
:1021500006D0013F04E04FF0300C05F804C0013414
:10216000744501D21F2CF6D916F0010F09D0BC42DC
:1021700007D21F2C05D84FF0300C05F804C00134ED
:10218000F2E716F0100F17D016F4806F04D11CB1CF
:10219000744524D0BC4222D0B8F1100F2BD0B8F136
:1021A000100F33D0B8F1020F3BD01F2C04D84FF0E2
:1021B000300C05F804C001341F2C07D8B9F1000F0A
:1021C00037D04FF02D0C05F804C001340396029768
:1021D00001940095FFF764FF05B0BDE8F083B4F10A
:1021E000010C06D0B8F1100F01D06446D4E7023CD0
:1021F000D2E76446D0E716F0200FD0D11F2CCED8FE
:102200004FF0780C05F804C00134CEE716F0200F2B
:10221000C8D01F2CC6D84FF0580C05F804C00134A4
:10222000C3E71F2CC1D84FF0620C05F804C001347D
:10223000BBE716F0040F05D04FF02B0C05F804C0D7
:102240000134C3E716F0080FC0D04FF0200C05F89A
:1022500004C00134BAE7F0B591B0169C189D1B9EDE
:102260000CB926F0100616F4806E16D064B34FF049
:10227000000E12E00CF1300C5FFA8CFC0EF101073D
:102280000EF1400EEE440EF820CCB4FBF5FCAC424F
:102290001BD31F2F19D8BE466446B4FBF5FC05FBC3
:1022A0001C4C5FFA8CFCBCF1090FE3D916F0200F2F
:1022B00008D04127BC445FFA8CFCACF10A0C5FFAF1
:1022C0008CFCDBE76127F5E7274606961A9C059408
:1022D000199C049403959DF85C400294019708AC06
:1022E0000094FFF71CFF11B0F0BD2DE9F04F95B041
:1022F00009900A910B929B461E9D1F9E229FDDF81E
:102300008C80DDF898A055EA060301D12AF0100A66
:102310001AF480641FD055EA060330D000241AE076
:1023200003F13002D2B204F1010904F150030DEBC4
:10233000030404F8202C3A4643462846314602F06E
:102340003FFDBD4276EB08031BD3B9F11F0F18D830
:102350004C4605460E463A4643462846314602F06C
:102360002FFDD3B2092BDBD91AF0200F05D0412263
:102370001A44D2B20A3AD2B2D5E76122F8E74FF056
:102380000009CDF818A0259B0593249B049303977F
:102390009DF880300293CDF804900CAB00935B461F
:1023A0000B9A0A990998FFF7BAFE15B0BDE8F08FAD
:1023B0002DE9F04F91B004460D4617461E46DDE963
:1023C0001A2310461946FFF7B3FD002840F0ED80B0
:1023D0004FF0FF32AE4BDDE91A01FFF7F7FD0028A1
:1023E00040F0E3804FF0FF326FF48013DDE91A0113
:1023F000FFF7B0FD002840F0D88000220023DDE97F
:102400001A01FFF7A7FD002840F0E2809DED1A7B3E
:102410008DED067B1E9B13F480630D9301D1062383
:102420001C93DDE9062310461946CDE9080152EA5E
:10243000030100F0D880C3F30A50C3F3130390469E
:1024400043F07F5949F44019A0F2FF30FFF728FD0F
:102450007DA3D3E90023FFF7AFFC7DA3D3E90023DD
:10246000FFF782FC82468B4600228A4B4046494653
:10247000FFF78EFC78A3D3E90023FFF79DFC02460B
:102480000B4650465946FFF76FFCFFF72DFD82467D
:10249000FFF706FD8046894671A3D3E90023FFF7C5
:1024A0008BFC00227C4BFFF75FFCFFF71DFD834692
:1024B0006DA3D3E9002340464946FFF77DFC8046E3
:1024C00089465846FFF7ECFC69A3D3E90023FFF7E0
:1024D00073FC02460B4640464946FFF759FC8046CE
:1024E000894602460B46FFF767FCCDE90A010BF26D
:1024F000FF3B00210022CDE908124FEA0B5309935C
:102500000023089342464B4640464946FFF72CFCC1
:10251000CDE90E0142464B4600204FF08041FFF7C7
:1025200037FC8046894600225C4BDDE90A01FFF753
:1025300069FC00225A4BFFF717FC02460B46DDE907
:102540000A01FFF75FFC0022564BFFF70DFC024625
:102550000B46DDE90A01FFF755FC02460B464046F3
:102560004946FFF701FC02460B46DDE90E01FFF785
:1025700049FC00224C4BFFF7F7FBDDE90823FFF78E
:102580001BFC80468946CDE90889DDE90623FFF773
:102590001DFD50B30AF1FF3A0022414B4046494627
:1025A000FFF730FCCDE908011FE01E9B04931D9B43
:1025B00003931C9B02939DED1A7B8DED007B3346AC
:1025C0003A462946204600F003F911B0BDE8F08FE5
:1025D0009FED297B8DED067B1A9B06931B9B03F1D8
:1025E0000043079316E74FF0000A0AF16303C62B76
:1025F00027D84FF004081E9B13F4006F5FD0DDE96D
:10260000081213460B4313D01DA3D3E90023DDE9C1
:102610000601FFF7C7FC002800F0B4801AA3D3E935
:102620000023DDE90601FFF795FC002800F0AA80F1
:102630001C9B53453ADDA3EB0A0A0AF1FF331C93B6
:1026400036E04FF00508D6E7FB799F501344D33F9F
:10265000B3C8608B288AC63F61436F63A787D23FA8
:1026600071A379094F930A401655B5BBB16B02406F
:10267000EF39FAFE422EE63F0000000000000000A5
:102680002D431CEBE2361A3F0000000080842E41EF
:10269000FFFFEF7F0000F83F0000E03F00002C400C
:1026A00000002440000018400000F03F00231C936D
:1026B0001E9B43F480631E934FF00008C2461D9B8F
:1026C000984569D2A3EB08091E9B13F0020B04D0B6
:1026D000B8F1000F01D04FF00009BAF1000F07D098
:1026E000DDE90823DDE90601FFF78CFBCDE90601F2
:1026F00000220023DDE91A01FFF72CFC00284ED14F
:102700001E9B23F400630493CDF80C901C9B029352
:102710009DED067B8DED007B33463A4629462046EB
:1027200000F056F8B8F1000F3FF44FAF1E9B13F0C6
:10273000200F3CD04FF0450C00F101093346024612
:1027400029466046A0478AEAEA72A2EBEA720523AC
:10275000059308F1FF330493002303930A230293A4
:102760004FEADA700190009233464A4629462046E5
:10277000FFF771FDBBF1000F3FF427AF0246DDF814
:1027800074901EE01C9B002B99D00D9B002B96D0C3
:102790001C9B013B1C9392E74FF0000994E7DDE995
:1027A0000601024601F10043CDE90623A8E74FF0F8
:1027B000650CC1E702F10108334629462020A047F5
:1027C0004246D31B4B45F5D31046FEE60000000001
:1027D0002DE9F04F2DED028B95B007900A919246AE
:1027E0009B46DDE92089229D42464B4640464946AC
:1027F000FFF79EFB002835D14FF0FF326FF48013B6
:1028000040464946FFF7A6FB00283AD14FF0FF3279
:102810009F4B40464946FFF7D9FB002840D198A37B
:10282000D3E9002340464946FFF7D0FB00284FD1AB
:1028300095A3D3E9002340464946FFF78BFB0028C8
:1028400046D10022002340464946FFF783FB00287B
:102850004CD100230B93249B13F4806F00F0B780BE
:10286000002456E0249B0393239B029303230193AC
:10287000884B00935B4652460A990798FFF710FC75
:1028800037E1249B0393239B029304230193824B00
:1028900000935B4652460A990798FFF701FC28E12E
:1028A000249B13F004030FD07C4A7BB104232499AA
:1028B000039123990291019300925B4652460A9933
:1028C0000798FFF7EDFB14E1754AEEE70323EEE707
:1028D000249B0493239B03930295CDE900895B46D7
:1028E00052460A990798FFF763FD02E142464B46BC
:1028F00000200021FFF74CFA8046894601230B9304
:10290000A9E704F150036B44302203F8202C013D69
:1029100001341F2C01D8092DF3D840464946FFF752
:10292000E3FA0646FFF7BCFA02460B464046494624
:10293000FFF72EFA5B4B03EBC50393ED008B53ECD3
:10294000182BFFF739FA02460B46CDE90823FFF7AB
:10295000DDFA0746FFF7B6FA02460B46DDE9080145
:10296000FFF716FA02460B46CDE9082300224E4B2C
:10297000FFF72CFB68B301373846FFF7A3FA02468E
:102980000B4651EC180BFFF7F9FA08B10136002796
:102990006DBB3046FFF784FA02460B464046494677
:1029A000FFF7F6F90746884600223F4BFFF7D2FAB9
:1029B00000284CD100223C4B38464146FFF706FB2D
:1029C000002844D116F0010F41D001363FE0062522
:1029D00046E70022344BDDE90801FFF7BBFA002887
:1029E000D6D117B117F0010FD2D00137D0E71F2C85
:1029F00017D8013D2D4BA3FB0723DB08194603EB3A
:102A00008303A7EB4303621C303304F150000DEB4A
:102A1000000404F8203C092F02D90F461446E6E7CB
:102A200014461F2C0AD86B1E45B104F150026A44AB
:102A3000302102F8201C1D460134F2E71F2C06D875
:102A400004F150036B442E2203F8202C01341F2C78
:102A500031D8174A82FB0632F317C3EBA2031A469A
:102A600003EB8303A6EB4303611C303304F15000F6
:102A70000DEB000404F8203C1646DAB10C46E6E7FC
:102A80000000000065CDCD410000000065CDCDC146
:102A9000FFFFEF7F0C5F0010105F0010045F00105D
:102AA000005F0010185F00100000E03FCDCCCCCCE0
:102AB000676666660C46249B03F00303012B1DD05A
:102AC0001F2C09D80B9B002B35D004F150036B440D
:102AD0002D2203F8202C0134249B0393239B029383
:102AE00001940CAB00935B4652460A990798FFF796
:102AF000D7FA15B0BDEC028BBDE8F08F239BB3B1C4
:102B00000B9B1BB9249B13F00C0F12D0239B013B92
:102B10002393194606E004F150036B44302203F876
:102B2000202C01348C42CBD21F2CF4D9C8E7239936
:102B3000F8E72399F6E7249B13F0040F07D004F17C
:102B400050036B442B2203F8202C0134C4E7249B50
:102B500013F0080FC0D004F150036B44202203F897
:102B6000202C0134B8E700BF2DE9F04F8FB00746A5
:102B700016460D938846002900F0248300240D9BFF
:102B80001878002800F02083252809D0651C3346DA
:102B900022464146B8470D9B01330D932C46EEE784
:102BA00001330D9300250D9B1978A1F12002102A05
:102BB0000AD8DFE802F03809093D090909090909BD
:102BC0000933092E09092900A1F13003DBB2092BD1
:102BD00033D92A2936D000230A930D9B1A782E2A3E
:102BE00040D04FF0000B0D9A1378683B122B77D82A
:102BF000DFE803F06476D376567676767676767668
:102C0000727676767676D80045F0010501330D931D
:102C1000C9E745F0020501330D93C4E745F004050B
:102C200001330D93BFE745F0080501330D93BAE773
:102C300045F0100501330D93B5E70DA8FFF71EFA17
:102C40000A90CAE7189B1A1D18921868002804DB1E
:102C50000A900D9B01330D93BFE745F002054342F7
:102C60000A93F6E745F480655A1C0D925A78A2F152
:102C70003003DBB2092B04D92A2A07D04FF0000B0E
:102C8000B1E70DA8FFF7FAF98346ACE7189B1A1DC8
:102C900018921B6823EAE37B0D9B01330D93A2E797
:102CA00045F48071531C0D9352786C2A01D00D4667
:102CB00016E045F4407501330D9311E045F08001B5
:102CC000531C0D935278682A01D00D4608E045F058
:102CD000C00501330D9303E045F4807501320D9278
:102CE0000D9B1878A0F12503532B00F26182DFE8D9
:102CF00013F054025F025F025F025F025F025F0235
:102D00005F025F025F025F025F025F025F025F02BB
:102D10005F025F025F025F025F025F025F025F02AB
:102D20005F025F025F025F025F025F025F025F029B
:102D30005F027401540174015F025F025F025F026F
:102D40005F025F025F025F025F025F025F025F027B
:102D50005F025F025F025F025E005F025F025F026E
:102D60005F025F025F025F025F025F025E009B0123
:102D70005E007401540174015F025E005F025F0235
:102D80005F025F025F025E0039025F025F02D401F0
:102D90005F025E005F025F025E0045F40075013273
:102DA0000D929DE745F4807501320D9298E77828E1
:102DB00009D058283AD06F283AD062283AD025F066
:102DC00010050A2300E01023582835D0692803D0C5
:102DD000642801D025F00C0515F4806F01D025F092
:102DE000010569282BD0642829D015F4007F40F014
:102DF000968015F4807F40F0AE8015F0400F00F013
:102E0000BF80189A111D1891127805950A9904919E
:102E1000CDF80CB002930023019300923346224672
:102E200041463846FFF717FA044629E01023CBE75E
:102E30000823C9E70223C7E745F02005C6E715F4D4
:102E4000007F21D115F4807F42D115F0400F58D07A
:102E5000189A111D1891127882EAE271A1EBE271C1
:102E600005950A980490CDF80CB00293D20F019208
:102E700000913346224641463846FFF7ECF90446B6
:102E80000D9B01330D937AE6189A073222F0070260
:102E900002F108011891516812680846002913DBF5
:102EA00008950A9D0795CDF818B004930023059363
:102EB000C90F02910092019033462246414638469E
:102EC000FFF713FA0446DBE7524261EB4100E7E704
:102ED000189A111D1891126882EAE271A1EBE27151
:102EE00005950A980490CDF80CB00293D20F019288
:102EF00000913346224641463846FFF7ACF9044676
:102F0000BEE715F0800F05D0189A111D1891B2F97F
:102F10000020A1E7189A111D189112689CE7189AD1
:102F2000073222F0070202F10801189108950A9968
:102F30000791CDF818B00021049305910291D2E9D0
:102F40000023CDE900233346224641463846FFF7A9
:102F5000CCF9044694E7189A111D189105950A9921
:102F60000491CDF80CB002930023019313680093F1
:102F70003346224641463846FFF76DF904467FE75F
:102F800015F0800F04D0189A111D189112883CE793
:102F9000189A111D1891126837E746281AD0189B05
:102FA000073323F0070303F10802189204950A9AE5
:102FB0000392CDF808B0D3E90023CDE900233346CE
:102FC000224641463846FFF703FC04460D9B013379
:102FD0000D93D4E545F02005E1E7672801D04728A7
:102FE00001D145F40065452801D0472801D145F0BD
:102FF0002005189B073323F0070303F108021892FA
:1030000004950A9A0392CDF808B0D3E90023CDE9DC
:1030100000233346224641463846FFF7C9F90446A5
:103020000D9B01330D93AAE515F002051FD04FF05B
:1030300001091898031D189304F1010A334622462A
:1030400041460078B847BDB90D9B01330D935446F6
:1030500095E502F1010A334641462020B8474B4628
:10306000524603F101099B45F3D81446E1E70123D9
:10307000DDF828B02246F4E75246DDF828A006E045
:10308000551C334641462020B847A1462A4609F13F
:103090000104CA45F4D89246D6E7189B1A1D189227
:1030A000D3F800A0BBF1000F1ED14FF0FF33D14683
:1030B00002E009F10109134699F8002012B15A1EE5
:1030C000002BF6D1A9EB0A0915F480630B9302D00B
:1030D000D94528BFD94615F002030C9306D02246E5
:1030E0005C46B3460B9E1DE05B46E0E722460A9C29
:1030F0004B4607E002F10109334641462020B8471C
:103100002B464A465D1C9C42F4D8A9465C46B34611
:103110000B9E07E01C460AF1010A551C5B4641461E
:10312000B8472A469AF8000020B1002EF3D0631E5B
:10313000002CEFD114465E460C9B1BB90D9B01334E
:103140000D931CE5DDF828A006E0551C33464146EA
:103150002020B847A1462A4609F10104CA45F4D8FF
:103160001446EBE745F02105189B1A1D18921B68C1
:10317000059508220492CDF80CB01022029200228C
:10318000019200933346224641463846FFF763F8E2
:1031900004460D9B01330D93F1E4651C3346224632
:1031A00041462520B8470D9B01330D932C46E6E49C
:1031B000651C334622464146B8470D9B01330D93AB
:1031C0002C46DCE4074FD9E4B44201D3721E00E080
:1031D0002246334641460020B84720460FB0BDE89E
:1031E000F08F00BF6D20001000B585B002900391F4
:1031F000009313464FF0FF3202A90348FFF7B4FCD7
:1032000005B05DF804FB00BF6F20001000BEFDE7B5
:103210000346094A126842B1074A10680344074A44
:10322000934206D8044A13607047034A0449116068
:10323000F2E74FF0FF307047B8740120000008201B
:103240005876012008B5FFF7E1FF000000B583B014
:103250008C46194613465AB1074A5BB10193009256
:1032600063460246054800F04FF90120FFF7CEFF04
:10327000034AF2E7024BF1E7685F0010785F001045
:10328000745F001010B5EFF30583DBB203B100BE2D
:10329000FEF744FC044C02E054F8043B9847034B0F
:1032A0009C42F9D310BD00BF604E0010644E001068
:1032B00008B5034608461B681146984708BD00003C
:1032C000F8B507460D461646437D13B10024204647
:1032D0000CE003681146284698472EE03B7D10E03D
:1032E0003B68022115489847601C0134B44214DA47
:1032F000002CF3DD2B1913F8013C0D2B14BF002318
:1033000001232A5D0A2AF0D1002BEED1A042E7DA90
:103310003B68211A28449847E2E7B04203DA3B6849
:10332000311A28449847002E07DD354415F8013C32
:103330000D2B14BF002301233B75F8BDA85F0010BF
:1033400038B50368BBB105460B4B1C6806E029463F
:1033500051F8042B2046FFF7B3FF24694CB12368D2
:10336000002BFAD0054B1B68002BF0D0A342F4D100
:10337000EDE700232B6038BD947401209C7401207C
:1033800038B505460C460B68802B05D021684B1CD0
:1033900023600C44257138BD0846FFF7D1FFF5E7DF
:1033A00008B5FEF7B5F9074A821841F10003002B72
:1033B00003DB054801F024FD08BD4FF0FF326FF03C
:1033C0000043F6E740420F002072012008B5024892
:1033D00001F0FEFC08BD00BF207201202DE9F04382
:1033E00083B006460D4690461C46FFF7D9FF81463E
:1033F000B5F1FF3F04D044B1174F184B1C6807E0EC
:10340000304601F049FB0546F5E7154FF5E724691D
:10341000BCB12368002BFAD0124B1B680BB1A3423E
:10342000F5D12A4631462046B847B8F1000FEED014
:103430000A238DF8073001220DF107012046B84715
:10344000E5E7B9F1000F03D1284603B0BDE8F083EA
:10345000FFF7BCFFF8E700BFC132001094740120F1
:10346000B13200109C740120084A01E003F11002FF
:1034700013683BB18342F9D131B90369136000236A
:103480000361704701B11060704700BF9474012060
:1034900010B5054B1C6801E0984724691CB16368AE
:1034A000002BF9D1F9E710BD9474012038B5054619
:1034B00001F0F2FA044601231A4601462846FFF7B6
:1034C0008DFFFFF7E5FF204638BD000070B5A2B0C4
:1034D00004460E46FFF764FF05460023019333467A
:1034E000224601A90748FFF77FFE044601A8FFF71F
:1034F00027FFFFF7CDFF15B9204622B070BDFFF7BB
:1035000065FFF9E7813300100FB400B583B004A95B
:1035100051F8040B0191FFF7D9FF03B05DF804EBFC
:1035200004B0704730B583B086460C464FF0000CAF
:1035300013E00D238DF8073000200DF10701E0B9ED
:10354000936913F0200FFBD10B4613F8011B116098
:1035500001301946F3E70CF1010CA4451FDA114BB9
:103560001A681EF80C50104B9A4214BF0023012316
:103570000E4931F91330AB42DBD08DF807500020F3
:103580000DF107010028E6D1936913F0200FFBD15C
:103590000B4613F8011B116001301946F2E703B026
:1035A00030BD00BF20760120008007401C7601203E
:1035B00070B582B005460E46002104E09DF8073044
:1035C0008EF800306146B14218DA164B1A689069DD
:1035D00010F0100012D101F1010C05EB010E0DF1FC
:1035E00007010028EAD1936913F0100FFBD114688A
:1035F0000B4603F8014B01301946F2E70A4B1B68F2
:103600004BB1084B1B6850229A635A6B02F0380288
:1036100003F581535A6111B1084602B070BD6FF0D5
:103620000201F9E7207601204C74012008B5054B12
:103630001B6833B1044A126800219163034A106881
:10364000984708BD4C740120207601205074012059
:10365000034B1A68936913F0080FFBD1704700BF42
:103660002076012038B51C4B1B681C4A934206D0BB
:10367000212410B11A4A12681AB1C8B138BD2224E7
:10368000F7E7174B1860174B196017492046FDF7ED
:10369000A3FA01212046FDF78DFA0F4B1B6850223B
:1036A0009A635A6B02F0380203F581535A61E5E7D9
:1036B0000B4A1268002AE1D000259D632946204666
:1036C000FDF778FA08492046FDF7B6FA044B1D606D
:1036D000044B1D60D2E700BF207601200080074028
:1036E0004C740120507401202D36001038B50D4661
:1036F0001C46104B1860101E05DB10F0020F15D091
:103700000B21FDF71BF9002C06DB14F0020F0FD084
:103710000B212046FDF712F92946064B1868FEF7E3
:1037200073F801210448FFF79FFE38BD0221E8E746
:103730000221EEE720760120A869012008B5074B99
:103740001B78074B1B78074B1B78012300224FF493
:10375000E1310548FFF7CAFF08BD00BFE463001070
:10376000E8630010EC6300100000074003BD10B5D3
:103770000446FEF7DBF9A04710BD4FF050431B6D28
:1037800013F0020FF9D04FF05043586540BF704717
:1037900000E020BF4FF050431B6D13F0010FF8D035
:1037A0004FF05043986D70472DE9F04186B00446C4
:1037B0000F4690461920FDF7D1F906460021192041
:1037C000FDF7F8F900250095019501230293CDF846
:1037D0000C800497059400E0002506AB03EB8503FD
:1037E00053F8184C9CB12046FFF7C7FFFFF7D0FFF6
:1037F0008442F1D10135052DEFD931461920FDF76D
:10380000D9F906B0BDE8F0814FF050439B6D4FF001
:1038100050431B6D13F0010FF6D140BFE3E70000EA
:1038200008B512F0030F11D122F003028B180A4AD7
:10383000926843F80C0C43F8081C084943F8041C30
:10384000A3F10C010648FFF7AFFF08BD054B064A80
:103850008E210648FFF7FAFC00ED00E06F370010FC
:103860006D37001058600010746000101C6000106C
:1038700008B5064A064B9A4205D819464FF400622D
:10388000FFF7CEFF08BD4FF0FF31F7E7000008203B
:10389000000808204FF0A0420323C2F86434D2F895
:1038A00064349B07FBD10323C2F80C34704700BF7C
:1038B0000120F0B54FF003164FF00414097BB3F864
:1038C0000AE0013901FA00FC84444FEA0C2C1FFA8B
:1038D0008CFC4CEA0E0EA3F80AE0B3F80CE04902A7
:1038E0004CEA0E0EA3F80CE0B3F80EE089B241EA00
:1038F0000E0EA3F80EE0B3F812E0114D41EA0E0EE1
:10390000A3F812E0B3F816E00E4F41EA0E0EA3F84A
:1039100016E0B3F81AE04CEA0E0CA3F81AC0B3F89C
:103920001EC041EA0C0CA3F81EC0B3F806C041EA61
:103930000C01D980C2E90176C2E90354F0BD00BF91
:10394000CC690120C069012008B54FF41571024B04
:10395000024A0348FFF77AFC9860001014620010D6
:10396000C060001008B540F21D51024B024A0348E6
:10397000FFF76CFC046100103C620010C060001096
:1039800070B59C460124164682B000940CF10D04DB
:103990000546240308460CF10B0144EAC114102328
:1039A0000022314600F0CFFB24F47E046EB144F4D3
:1039B00038144FF480324FF08073284604492A604F
:1039C000C5E90141EB6002B070BD44F40034F0E79A
:1039D00000000E40000000002DE9F04F3B4F442254
:1039E0009BB082460C463846002100F0E5FF0220DD
:1039F000FDF73CF803460420FB60FDF737F87863D9
:103A00000320FDF733F80346DFF8E4900520FB625E
:103A10004D46FDF72BF856464FF0FF3338607B617B
:103A20000FCE0FC53368C9F800402B609BB213B9A5
:103A30000123A9F81030BAF80830254A5B08033B87
:103A40009380244B00215A6023480122FDF760FA3D
:103A50004FF448710120FEF7E7FAC826DFF894809A
:103A60000421C8F80400A8F80A603046FEF7DCFA22
:103A700008F12005A8F81260C8F80C0008F1A00BA6
:103A800045F8045C4FF448710120FEF7CDFA034677
:103A90006E810421C8206B60FEF7C6FA2035AB4565
:103AA00025F80E6C45F8140CEAD10025C7F83080D3
:103AB000C8F89C50BFF35F8F084B094E1B78094B29
:103AC0001B78094B1B78094B1B781AE0987501206D
:103AD000C0690120CC69012024760120F063001028
:103AE000DFFF0300F4630010F8630010FC630010B4
:103AF0002C760120F87401200135122D4FEA56066C
:103B00000AD0F107F8D5284606210135FCF716FF43
:103B1000122D4FEA5606F4D10520FDF717FF226853
:103B2000DFF85483B0FBF2F3A8F800309BB202FB3D
:103B300003F3834240F07581DAF804502B681A7958
:103B4000202A00F27281D3E9001B0AAE52003046EF
:103B500000F0BCFE334651462846B74ACDE9046B17
:103B6000AD68A847B54804A900F0D5FADAF80430E2
:103B7000DFF808A31B688AF800001B79002B00F00F
:103B80004D81B44600214FF0FF3542F2C40B3CF8A2
:103B9000022B5A4508BF0D4601318B42F7D13D64D7
:103BA0000125A54BC7B20021A5481D76FFF7ACFC47
:103BB000D9F804300022D3F80CB0A0493B4606A83F
:103BC000D847B8F800103A46C801E940C0B2090425
:103BD00041EA002106AB06919848002100F002FB63
:103BE000294697489AF80070FFF78EFCD9F8043000
:103BF0002A46D3F80C9091493B4606A8C847294667
:103C0000B8F800003A46C501C840EDB2000440EAE9
:103C1000052006AB0690894800F0E4FA894A8A4BF1
:103C2000257E0592049693E8070086E80700002D9C
:103C300040F0DF804CF2040B4CF244064CF20105DC
:103C40004FF44047DFF8F4A104A9504600F063FAAE
:103C500081467E4B03217A4883F80090FFF754FC9D
:103C600001229FED737BB8F800300092DA015B0807
:103C7000D2B21B045FFA89F943EA0223069309F1E1
:103C8000050309F101021B0343EAC2135046032155
:103C90001022079302238DED087B00F054FA4A4668
:103CA00006AB5046032100F09DFA00210F20FDF7DE
:103CB00099F840211020FDF795F84FF003084021B6
:103CC0000A20FDF78FF8032000F03AF900224FF0A8
:103CD000A0434FF0190C0220DFF8A4E15C49CEF8B4
:103CE00004840EF5FF1E0EF1100E1A60C3F804E0F6
:103CF0009A60C3F810C0DFF88CC11A64C3F844C0DE
:103D0000DFF884C19A64C3F850C078330A604B600E
:103D1000504B88600B61042000F006F94CF244031C
:103D2000CAF82031A37D2189002BA37B0BBF4FF064
:103D3000804A4FF0000A4FF000084FF08048002BF7
:103D40000CBF01220022A389B4F80AE0A088A3EBEB
:103D50000101A1EB0E01A1EB0001AEF10700B4F8E7
:103D60000690B4F810C04FEA004047EA427745EAAF
:103D7000427540EA4270628ACC446244A48A03924B
:103D8000354AA3EB0103C2E90094039C47F4803752
:103D9000C2E9034A45F4803540EA0600A1F1030474
:103DA000A3EB0E03C2E90587C2E90750C2F808C0B9
:103DB00046EA0444A3F103032AD04FF020414BEA22
:103DC00003471B0444F0005443F000531E43234BAD
:103DD0003943C3E9010401209162C2F830802049CF
:103DE0005462D6621F4A1D60DE6011601BB0BDE8E0
:103DF000F08F1D4B1D4A4DF2040BCDE90A231C4BDD
:103E00004DF244064DF201054FF450470C9319E76B
:103E10004BEA03474FF000411B04D7E74FF0FF3553
:103E2000BDE601461348FCF7AFFDFFF79BFD00BF61
:103E300000000E0010002020FC7301200000205024
:103E4000D061001006FF010084620010527601204C
:103E50000001005059937E00E07501208474012018
:103E6000E15901201C7401202D600370A090F060C6
:103E700042A044107C6100104E7601205376012050
:103E80000020005014002050198082000168FFF7C4
:103E9000A3BD00BFF8B51C4E3378834200D1F8BDF6
:103EA00080224FF4407C194B194F1A4D0146C7F838
:103EB00000C004461A604FF4C230FCF75FFE0B21CD
:103EC000284600F017F94FF430622B6823F00B03FB
:103ED0002B60114B1A60ACB1104B114A5B68127821
:103EE0001B7903F01F0313440E4AC5F8D830C5F8F8
:103EF000F030137803F01F03C5F820312B6843F02E
:103F00000B032B603470F8BD547601207C212050C7
:103F10007021205000002050002020502C760120DD
:103F2000537601205276012008B50146024A034823
:103F3000FCF75EFD08BD00BF906200104C760120CA
:103F400038B50446002501E00135640834B114F0A9
:103F5000010FF9D02846FFF7E7FFF5E738BDD0F8A5
:103F6000683113B111F0010F05D133B911F0040F0D
:103F700005D00020704700207047012070470120C5
:103F8000704708B5C979FFF7EAFF08BD70B5044668
:103F90000D461646FFF7F5FFD0B195F90530002B19
:103FA00001DBB34217D104F12F4000F56000000D92
:103FB0000A4B53F820102A7901239340013B03FA5E
:103FC00006F20A4201D1002070BD6FF00800FBE745
:103FD0006FF00A00F8E76FF00A00F5E7407401207F
:103FE000F8B506460D461746FFF7D0FF20BB03463F
:103FF00006E003EB070C0CF1120C46F82C400133E1
:104000002979994207D92A6832F8134014F4604F8D
:10401000EFD13C44EDE7012303FA01F1013906F148
:104020002F4606F56006360DB940044A52F8263090
:10403000194342F826103846F8BD00BF40740120ED
:1040400010B50A79202A19D800F12F4000F5600038
:10405000000D154B53F8204001239340013B91F98B
:104060000510002910DB0846C2F12002914218DC3D
:104070008B40234201D04FF0FF3010BD0B4B0C4A58
:1040800043210C48FFF7E2F8C2F12000002805DBCD
:1040900003FA00F22242F0D00138F7E76FF008008F
:1040A000EBE74FF0FF30E8E740740120B462001006
:1040B00078630010E062001008B500F12F4000F5B1
:1040C0006000000D02280AD0012806D0054A01EB45
:1040D00080010548FCF78CFC08BD044AF7E7044A58
:1040E000F5E700BF146300105874012054630010FA
:1040F0003063001070B506460C46002501E001351E
:1041000064083CB114F0010FF9D029463046FFF79E
:10411000D3FFF4E770BDF8B505460E46FCF74CFC3E
:10412000074631462846FFF78BFF041E04DA38465F
:10413000FCF754FC2046F8BD224631462846FFF7DE
:104140004FFF0446F3E7F0B59DF81470D0F86841CE
:10415000121B1F2A43D801EB410400EBC404D4F81E
:10416000DC60D4F8CC5001EB4104E400C8340444D2
:1041700004F540544FF4003CC4F804C017B14FF0AC
:104180001F0E15E04FF0000E12E0540144F0A05451
:1041900001EB410C00EBCC0CCCF8DC404EF460445D
:1041A00044F08004CCF8D840053B053202F01F02F1
:1041B000052BEAD8520142EA836201EB410400EB8D
:1041C000C404C4F8DC204EF4604343F08003C4F818
:1041D000D830C4F8DC60C4F8CC500020F0BD6FF0DB
:1041E0000400FBE730B589B086468C461446026869
:1041F000012101FA0CF122EA01020260002B38D001
:104200001A4619680CEB4C0300EBC303C3F8C81043
:104210009168C3F8D0105168C3F8CC10D268C3F8C5
:10422000DC200CEB4C03DB00D033734403F58053EC
:104230004FF000421A601A604FF0013303FA0CF39A
:10424000CEF808300CF10402012303FA02F20EF555
:1042500000510A600CF1080293400B6004F01F0447
:104260000CEB4C0C0EEBCC0CCCF8D840002009B079
:1042700030BD04AB002204920592069207924FF4DF
:10428000803204924FF4F83205924FF48022069265
:104290004FF4402206926D460FCB85E80F000CEBE1
:1042A0004C030EEBC303C3F8C8004FF44022C3F81D
:1042B000D020C3F8CC100022C3F8DC20B1E7000006
:1042C000024B0A460146186800F002B8DC6901207A
:1042D00038B5A1FB02145CBB00F03EF80546C0B146
:1042E00050F8042C22F00302043A242A13D8132A8B
:1042F0000AD91B2AC0E9004412D9242AC0E9024481
:1043000011D000F1100200E002460023C2E90033A0
:104310009360284638BD214600F04EFB284638BD44
:1043200000F10802F1E700F11802C0E90444ECE7EB
:1043300000F004F80C2300250360EAE7014B18683D
:10434000704700BFDC690120024B0146186800F08D
:1043500003B800BFDC69012001F10B03162B2DE926
:10436000F04F054683B024D8102900F2F58000F004
:1043700075FB102418220220C04E32445368A2F16B
:1043800008018B4200F0EF805A68284622F00302B1
:10439000D3E902411A44E1608C6003F108045368D8
:1043A00043F00103536000F05FFB204603B0BDE81B
:1043B000F08F002B23F00704C0F2CE80A14200F260
:1043C000CB8000F04BFBB4F5FC7FC0F0C281630AE8
:1043D00000F03381042B00F29881A30903F1390026
:1043E00003F13807C300A54E3344A3F1080C5B6802
:1043F0009C4507D1BCE0002980F25081DB689C45D8
:1044000000F0B6805A6822F00302111B0F29F2DD7A
:1044100033693846DFF87CE2734540F0AF808310A3
:10442000012172689940914240F2D180B7687B685F
:1044300023F00309A9EB04030F2B02DD4C4540F2E6
:104440000C818F4B07EB090B1B6804EB03088D4BAA
:104450001A68013200F0CB8141F20F024244DFF8CA
:10446000388202EA08084146284600F003FBB0F112
:10447000FF3F8246834B00F0A981B74202D08345BB
:1044800000F2A481804AD34511684144116000F0D4
:10449000A0811868013000F0A781AAEB0B0B5944EA
:1044A00011601AF0070300F0AC81C3F1080128463F
:1044B00001938A4441F20801D044C91AA1EB0801D2
:1044C000C1F30B0B594600F0D5FA421C019B6E4A12
:1044D00000F0DE81A0EB0A0000EB0B08106848F04A
:1044E0000103B742C6F808A00BEB0001CAF804307C
:1044F000116000F0A981B9F10F0F40F2A7817B682C
:10450000A9F10C004FF0050C20F0070003F00103A7
:1045100003430F287B6007EB0003C3E901CC00F2E3
:10452000AD81DAF804305746584A1068884238BFDF
:104530001160574A1068884238BF116023F00308A1
:104540004445A8EB040302D80F2B00F386802846CD
:10455000002400F089FA28E700240C2320462B6071
:1045600003B0BDE8F08FD3689A427FF40DAF0230FC
:104570003369DFF820E173453FF451AF596821F00A
:1045800003010A1B0F2A00F3E880002AC6E904EEA3
:1045900058DAB1F5007F80F093804FEAD10C012208
:1045A00049090CF1010C8A40716856F83C700A43C5
:1045B00006EBCC0108397260C3E9027146F83C3061
:1045C000FB6083100121994091423FF62FAF1142C9
:1045D00005D120F00300490004301142FBD006EB66
:1045E000C0098046CC46DCF80C70BC4507D198E089
:1045F000002B80F29F80FF68BC4500F092807A68B3
:1046000022F00302131B0F2BF2DD391944F00104D1
:1046100028467C6043F00104D7E902C5CCF80C5071
:10462000C5F808C0C6E904114C6007F10804C1E9E7
:1046300002EEBB5000F018FAB7E64FF400734020CA
:104640003F27D0E6194403F1080428464B6843F09D
:1046500001034B6000F008FAA7E63A1944F00104A0
:1046600043F0010328467C6007F10804B260536000
:1046700000F0FAF9204603B0BDE8F08F086E012083
:10468000F873012010720120C8730120F07301201B
:10469000F4730120106E012000F0FFFF1A4403F1B3
:1046A00008042846D3E902615368F16043F001032E
:1046B0008E60536000F0D8F9204603B0BDE8F08F5B
:1046C000B1F5206F4FEA512259D3142A00F2AA8083
:1046D00002F15C075B32FF0006EB070CF759ACF107
:1046E000080CBC4500F086807A6822F003028A42FA
:1046F00002D9BF68BC45F7D1D7F80CC07268C3E9CE
:10470000027CCCF80830FB605BE7142B3DD9542BBE
:1047100000F29080230B03F16F0003F16E07C300DA
:1047200061E608F101080CF1080C18F0030F7FF4A2
:104730005AAF35E03A443C46F9682846536843F09E
:104740000103536054F8083FD9608B6000F08CF986
:104750002BE6E00804F108020EE628461D1944F095
:1047600001045C6042F00104C6E904556C6003F189
:104770000804C5E902EE5A5000F076F915E68A09F8
:1047800002F139073832FF00A6E703F15C0003F1BC
:104790005B07C30027E659F808394B4540F0928083
:1047A00010F0030F00F1FF30F5D1736823EA010325
:1047B000736049003FF43AAE994203D936E64900A6
:1047C00008F104081942FAD0404608E7B7687B6848
:1047D000B4E6CBF30B0000287FF45BAEC844B768A7
:1047E00048F001037B609FE6C3F800A059E608F19A
:1047F000100838E692100121914072680A437260F5
:104800007DE70AEB0801284601934942C1F30B0BEF
:10481000594600F02FF9431C2B4A019B7FF45AAEF6
:104820009B465BE6542A15D80A0B02F16F076E32DD
:10483000FF0051E7B3F5AA7F15D8E30B03F1780029
:1048400003F17707C300CEE557466DE60123CAF8AA
:1048500004307CE6B2F5AA7F21D8CA0B02F17807B2
:104860007732FF0038E740F25452934221D8A30C2C
:1048700003F17D0003F17C07C300B4E507F10801F3
:10488000284600F087F9B7680F4A7B6811684BE645
:10489000083B4FF0000B9844A8EB0A081EE640F2D4
:1048A0005457BA420AD88A0C02F17D077C32FF00C5
:1048B00012E74FF47E737F207E2794E54FF47E77D6
:1048C0007E2209E7736874E7C8730120844641EAD1
:1048D000000313F0030349D1403A23D30B6803606C
:1048E0004B6843608B688360CB68C3600B6903616E
:1048F0004B6943618B698361CB69C3610B6A036256
:104900004B6A43628B6A8362CB6AC3620B6B03633D
:104910004B6B43638B6B8363CB6BC3634030403122
:10492000403ADBD230320BD30B6803604B684360F4
:104930008B688360CB68C36010301031103AF3D2BB
:104940000C3205D351F8043B40F8043B043AF9D249
:10495000043208D0D2071CBF11F8013B00F8013B1C
:1049600001D30B8803806046704700BF082A13D329
:104970008B07B1D010F00303AED0C3F10403D21AF9
:10498000DB071CBF11F8013B00F8013BA4D331F851
:10499000023B20F8023B9FE7043AD9D3013A11F8D1
:1049A000013B00F8013BF9D20B7803704B78437060
:1049B0008B7883706046704770B5860748D0541E68
:1049C000002A3FD0CAB2034601E0013C3AD303F8C3
:1049D000012B9D07F9D1032C2DD9CDB20F2C45EA1F
:1049E000052545EA054536D9A4F1100C03F1200E42
:1049F00003F110022CF00F064FEA1C1CB64442E9EA
:104A0000045542E9025510327245F8D10CF1010209
:104A100014F00C0F04F00F0C03EB021213D0ACF1E6
:104A2000040323F003030433134442F8045B93426A
:104A3000FBD10CF003042CB1CAB21C4403F8012BC7
:104A40009C42FBD170BD64461346002CF4D1F9E7BB
:104A500003461446BFE71A46A446E0E7014800F0C3
:104A60009FB900BFC4730120014800F09BB900BF8B
:104A7000C473012038B50022064D044608462A605A
:104A8000FEF7C6FB431C00D038BD2B68002BFBD0C3
:104A9000236038BD9874012020F0030110F003005A
:104AA000C0F1000051F8043B00F1040C4FEACC0CBB
:104AB0006FF000021CBF22FA0CF213434FF0010CFE
:104AC0004CEA0C2C4CEA0C4CA3EB0C0222EA03023D
:104AD00012EACC1204BF51F8043B0430F4D0C2F106
:104AE000000102EA0102B2FA82F2C2F11F0200EBF7
:104AF000D2007047F8B5234F0C460646FFF7AEFFCD
:104B0000BA6840F6EF7355681B1B1F4C25F0030570
:104B10002B441C40A4F58054B4F5805F07DB0021D2
:104B20003046FFF7A7FFBB682B44984204D03046BD
:104B3000FFF79AFF0020F8BD61423046FFF79AFF69
:104B400001300DD02D1B114BBA68304645F00105E0
:104B500055601A68121B1A60FFF786FF0120F8BD26
:104B600000213046FFF786FFBA68831A0F2BDEDD7F
:104B700043F0010305495360054B1B68C01A0860E8
:104B8000D5E700BF086E012000F0FFFFC8730120C9
:104B900010720120002961D0F8B50C460646FFF7D7
:104BA0005DFF7C4F54F8042CA4F10805B86822F08E
:104BB000010105EB010CDCF80430604523F0030330
:104BC00000F08B80D207CCF8043032D454F8082C93
:104BD00007F10800AD1A1144AA6882426AD00CEBB2
:104BE0000304D4F804E0EC681EF0010FD460A26066
:104BF00000F0978041F001036B60CCF80010B1F534
:104C0000007F35D24A09CB080121013391407A68EF
:104C1000114307EBC3027960083A57F83310C5E92E
:104C2000021247F83350CD603046BDE8F840FFF738
:104C30001BBF0CEB03025268D00710D4194407F1D4
:104C40000800DCF80830834273D0DCF80C20DA600E
:104C5000936041F001036B606950D0E7704741F009
:104C60000103B1F5007F44F8043CCCF80010C9D32F
:104C7000B1F5206F4FEA512348D28B0903F1390077
:104C800003F13802C300F818FB580838984259D08D
:104C90005A6822F003028A4202D99B689842F7D1EF
:104CA000D868C5E9023085603046DD60BDE8F8406F
:104CB000FFF7DABE0CEB03025268D20763D40B4451
:104CC0003046DCE90212CA60916043F001026A607A
:104CD000EB50BDE8F840FFF7C7BE0B44D10707D43F
:104CE00054F8082CAD1A1344D5E90212CA60916039
:104CF00043F001026A60284ABD6012689A4293D864
:104D0000264B30461968FFF7F5FE8DE7142B0AD9BC
:104D1000542B1FD80B0B03F16F0003F16E02C3007D
:104D2000B1E719448DE703F15C0003F15B02C300B6
:104D3000A9E741F00103C7E90455C5E902006B602A
:104D4000695071E70121921001FA02F279680A4371
:104D50007A60A6E7B3F5AA7F06D8CB0B03F17800FB
:104D600003F17702C3008EE740F25452934206D813
:104D70008B0C03F17D0003F17C02C30083E74FF449
:104D80007E737E227FE741F001036B60CCF8001058
:104D90004AE700BF086E012014720120F873012059
:104DA000704700BF704700BFF8B500BF00000000AB
:104DB00001B40248844601BC604700BFD1570120BE
:104DC00001B40248844601BC604700BFD965012098
:104DD00001B40248844601BC604700BF89590120E4
:104DE00001B40248844601BC604700BF69650120E8
:104DF00001B40248844601BC604700BF71640120D1
:104E000001B40248844601BC604700BF55590120E7
:104E100001B40248844601BC604700BF235801200A
:104E2000C51B00103D1B0010691B0010611C001009
:104E3000A51B0010D11A0010E91B00109D1A0010CC
:104E4000750F0010F11B001065160010191B0010E3
:104E5000D71B0010891B0010410A0010C90A00105E
:044E60000D0200102F
:104E68006873706565642025642F38202873707214
:104E780069746573202564292020202020200D00D6
:104E8800636F72655F6E756D203E3D30202626206B
:104E9800636F72655F6E756D203C20320000000004
:104EA800433A2F7069636F2F7069636F2D706C615F
:104EB8007967726F756E642F7363616E7669646566
:104EC8006F2F6D6172696F5F74696C65732F6D61A7
:104ED80072696F5F74696C65732E630052656E64E6
:104EE8006572696E67206F6E20636F726520256436
:104EF8000D0A000030203D3D20283375202620284B
:104F0800696E747074725F74296F75747075742922
:104F1800000000002875696E7433325F742A296FA7
:104F28007574707574203C3D2028627566202B20AE
:104F3800646573742D3E646174615F6D61782900E6
:104F48006F75747075743332203C20696E6C696EAD
:104F5800655F6461746100002875696E7433325F3F
:104F6800742A296F7574707574203C3D2028627509
:104F780066202B20646573742D3E64617461325F12
:104F88006D617829000000007667615F6D6F646568
:104F98002E787363616C65203E3D2032000000006E
:104FA80072756E74696D655F74696C655F64617450
:104FB800612E626C6F622E62797465730000000066
:104FC80076706F73203E3D20300000004B455953EA
:104FD8003A00000020202B2F2D20202061646A75C4
:104FE800737420686F72697A6F6E6174616C207374
:104FF80070656564000000002020392F30202020D3
:1050080075702F646F776E20686F72697A6F6E742F
:10501800616C2073707269746520636F756E7400BB
:1050280072656E6465725F7363616E6C696E655FED
:1050380062670000766964656F5F6D61696E000084
:1050480072656E6465725F6C6F6F70000040FF3F41
:10505800FE3FFD3FFB3FF83FF43FF03FEC3FE73FAB
:10506800E13FDA3FD33FCB3FC33FBA3FB13FA63F13
:105078009C3F903F843F783F6A3F5D3F4E3F3F3FB4
:105088002F3F1F3F0E3FFD3EEB3ED83EC53EB13E93
:105098009C3E873E713E5B3E443E2D3E143EFC3DA9
:1050A800E23DC93DAE3D933D773D5B3D3E3D213DF3
:1050B800023DE43CC53CA53C843C633C423C203C6E
:1050C800FD3BDA3BB63B913B6C3B473B203BFA3A16
:1050D800D23AAA3A823A593A2F3A053ADA39AF39E6
:1050E800833957392A39FD38CF38A03871384138D3
:1050F8001138E037AF377D374B371837E536B136DB
:105108007C3647361236DC35A5356E353635FE34F5
:10511800C6348C3453341934DE33A33367332B331A
:10512800EE32B13274323632F731B8317931383142
:10513800F830B73076303430F12FAF2F6B2F282F5F
:10514800E32E9F2E5A2E142ECE2D882D412DF92C6C
:10515800B22C6A2C212CD82B8E2B452BFA2AB02A5C
:10516800652A192ACD2981293429E72899284B2825
:10517800FD27AF275F271027C02670261F26CF25BB
:105188007D252C25DA2487243424E1238E233A2311
:10519800E62292223D22E82192213D21E72090201B
:1051A8003920E21F8B1F341FDC1E831E2B1ED21DCD
:1051B800791D201DC61C6C1C121CB71B5D1B021B15
:1051C800A61A4B1AEF1993193719DA187D182018EF
:1051D800C31766170817AA164C16EE158F15301543
:1051E800D11472141314B3135413F4129412331207
:1051F800D31172111111B0104F10EE0F8C0F2B0F2D
:10520800C90E670E050EA30D410DDE0C7C0C190CA2
:10521800B60B540BF10A8D0A2A0AC709640900095A
:105228009C083908D50771070D07A9064506E10549
:105238007D051905B5045104EC0388032303BF0257
:105248005B02F60192012D01C900640000009CFF79
:1052580037FFD3FE6EFE0AFEA5FD41FDDDFC78FC9E
:1052680014FCAFFB4BFBE7FA83FA1FFABBF957F9BB
:10527800F3F88FF82BF8C7F764F700F79CF639F6C0
:10528800D6F573F50FF5ACF44AF4E7F384F322F39B
:10529800BFF25DF2FBF199F137F1D5F074F012F03D
:1052A800B1EF50EFEFEE8EEE2DEECDED6CED0CED97
:1052B800ACEC4DECEDEB8EEB2FEBD0EA71EA12EA99
:1052C800B4E956E9F8E89AE83DE8E0E783E726E735
:1052D800C9E66DE611E6B5E55AE5FEE4A3E449E45E
:1052E800EEE394E33AE3E0E287E22EE2D5E17DE102
:1052F80024E1CCE075E01EE0C7DF70DF19DFC3DE14
:105308006EDE18DEC3DD6EDD1ADDC6DC72DC1FDC86
:10531800CCDB79DB26DBD4DA83DA31DAE1D990D950
:1053280040D9F0D8A1D851D803D8B5D767D719D75D
:10533800CCD67FD633D6E7D59BD550D506D5BBD4AA
:1053480072D428D4DFD396D34ED307D3BFD278D222
:1053580032D2ECD1A6D161D11DD1D8D095D051D0BF
:105368000FD0CCCF8ACF49CF08CFC8CE87CE48CE72
:1053780009CECACD8CCD4FCD12CDD5CC99CC5DCC34
:1053880022CCE7CBADCB74CB3ACB02CBCACA92CAFC
:105398005BCA24CAEEC9B9C984C94FC91BC9E8C8C0
:1053A800B5C883C851C820C8EFC7BFC78FC760C773
:1053B80031C703C7D6C6A9C67DC651C626C6FBC512
:1053C800D1C5A7C57EC556C52EC506C5E0C4B9C496
:1053D80094C46FC44AC426C403C4E0C3BEC39DC3F7
:1053E8007CC35BC33BC31CC3FEC2DFC2C2C2A5C22F
:1053F80089C26DC252C237C21EC204C2ECC1D3C137
:10540800BCC1A5C18FC179C164C14FC13BC128C10D
:1054180015C103C1F2C0E1C0D1C0C1C0B2C0A3C0B0
:1054280096C088C07CC070C064C05AC04FC046C017
:105438003DC035C02DC026C01FC019C014C010C043
:105448000CC008C005C003C002C001C000C001C034
:1054580002C003C005C008C00CC010C014C019C0E9
:105468001FC026C02DC035C03DC046C04FC05AC061
:1054780064C070C07CC088C096C0A3C0B2C0C1C0A0
:10548800D1C0E1C0F2C003C115C128C13BC14FC1A1
:1054980064C179C18FC1A5C1BCC1D3C1ECC104C26B
:1054A8001EC237C252C26DC289C2A5C2C2C2DFC201
:1054B800FEC21CC33BC35BC37CC39DC3BEC3E0C366
:1054C80003C426C44AC46FC494C4B9C4E0C406C59E
:1054D8002EC556C57EC5A7C5D1C5FBC526C651C6AE
:1054E8007DC6A9C6D6C603C731C760C78FC7BFC7A1
:1054F800EFC720C851C883C8B5C8E8C81BC94FC979
:1055080084C9B9C9EEC924CA5BCA92CACACA02CB3D
:105518003ACB74CBADCBE7CB22CC5DCC99CCD5CCF8
:1055280012CD4FCD8CCDCACD09CE48CE87CEC8CEB0
:1055380008CF49CF8ACFCCCF0FD051D095D0D8D073
:105548001DD161D1A6D1ECD132D278D2BFD207D346
:105558004ED396D3DFD328D472D4BBD406D550D536
:105568009BD5E7D533D67FD6CCD619D767D7B5D74D
:1055780003D851D8A1D8F0D840D990D9E1D931DA97
:1055880083DAD4DA26DB79DBCCDB1FDC72DCC6DC21
:105598001ADD6EDDC3DD18DE6EDEC3DE19DF70DFF7
:1055A800C7DF1EE075E0CCE024E17DE1D5E12EE225
:1055B80087E2E0E23AE394E3EEE349E4A3E4FEE4BD
:1055C8005AE5B5E511E66DE6C9E626E783E7E0E7C3
:1055D8003DE89AE8F8E856E9B4E912EA71EAD0EA4F
:1055E8002FEB8EEBEDEB4DECACEC0CED6CEDCDED6B
:1055F8002DEE8EEEEFEE50EFB1EF12F074F0D5F025
:1056080037F199F1FBF15DF2BFF222F384F3E7F38E
:105618004AF4ACF40FF573F5D6F539F69CF600F7B5
:1056280064F7C7F72BF88FF8F3F857F9BBF91FFAA7
:1056380083FAE7FA4BFBAFFB14FC78FCDDFC41FD79
:10564800A5FD0AFE6EFED3FE37FF9CFF0000640036
:10565800C9002D019201F6015B02BF0223038803F2
:10566800EC035104B50419057D05E1054506A906B5
:105678000D077107D50739089C0800096409C7098F
:105688002A0A8D0AF10A540BB60B190C7C0CDE0C95
:10569800410DA30D050E670EC90E2B0F8C0FEE0FD3
:1056A8004F10B01011117211D31133129412F41259
:1056B8005413B31313147214D11430158F15EE1537
:1056C8004C16AA1608176617C31720187D18DA187B
:1056D80037199319EF194B1AA61A021B5D1BB71B32
:1056E800121C6C1CC61C201D791DD21D2B1E831E6E
:1056F800DC1E341F8B1FE21F39209020E7203D213C
:105708009221E8213D229222E6223A238E23E123A8
:1057180034248724DA242C257D25CF251F267026BE
:10572800C02610275F27AF27FD274B289928E72891
:1057380034298129CD29192A652AB02AFA2A452B24
:105748008E2BD82B212C6A2CB22CF92C412D882D8C
:10575800CE2D142E5A2E9F2EE32E282F6B2FAF2FCF
:10576800F12F34307630B730F83038317931B831FC
:10577800F73136327432B132EE322B336733A3331A
:10578800DE33193453348C34C634FE3436356E3532
:10579800A535DC35123647367C36B136E53618374E
:1057A8004B377D37AF37E037113841387138A0387B
:1057B800CF38FD382A3957398339AF39DA39053ABC
:1057C8002F3A593A823AAA3AD23AFA3A203B473B18
:1057D8006C3B913BB63BDA3BFD3B203C423C633C97
:1057E800843CA53CC53CE43C023D213D3E3D5B3D3F
:1057F800773D933DAE3DC93DE23DFC3D143E2D3E17
:10580800443E5B3E713E873E9C3EB13EC53ED83E1F
:10581800EB3EFD3E0E3F1F3F2F3F3F3F4E3F5D3F5C
:105828006A3F783F843F903F9C3FA63FB13FBA3FD5
:10583800C33FCB3FD33FDA3FE13FE73FEC3FF03F89
:10584800F43FF83FFB3FFD3FFE3FFF3F00400000B5
:105858005400100010000000206600001001002015
:10586800E02F01202000000000010000D7010800FF
:1058780008000000B088000030670020603A01206E
:105888000A2A2A2A2050414E4943202A2A2A0A0055
:105898006C6F636B5F6E756D203C204E554D5F538A
:1058A80050494E5F4C4F434B53000000433A2F7012
:1058B80069636F2F7069636F2D73646B2F737263E5
:1058C8002F7270325F636F6D6D6F6E2F68617264D7
:1058D800776172655F73796E635F7370696E5F6C11
:1058E8006F636B2F73796E635F7370696E5F6C6F34
:1058F800636B2E63000000007370696E5F6C6F63EA
:105908006B5F696E6974000064656C7461203E3D6C
:10591800202D323034382026262064656C746120AE
:105928003C3D203230343620262620212864656C00
:105938007461202620312900433A2F7069636F2F44
:105948007069636F2D73646B2F7372632F7270327B
:105958005F636F6D6D6F6E2F6861726477617265DA
:105968005F6972712F6972712E6300002128646566
:105978006C7461203E3E2031317529006375727266
:10598800656E74203D3D205F5F756E68616E646C66
:1059980065645F757365725F697271207C7C2063D2
:1059A800757272656E74203D3D2068616E646C6529
:1059B800720000006972715F68616E646C65725F85
:1059C800636861696E5F667265655F736C6F745F4B
:1059D80068656164203E3D20300000007674616295
:1059E8006C655F68616E646C6572203D3D205F5F29
:1059F800756E68616E646C65645F757365725F6906
:105A080072710000212828282875696E74707472D4
:105A18005F742972656D6F76655F7468756D625F16
:105A280062697428767461626C655F68616E646C23
:105A380065722929202D20282875696E7470747262
:105A48005F74296972715F68616E646C65725F6307
:105A58006861696E5F736C6F7473292920252073E0
:105A6800697A656F662873747275637420697271D8
:105A78005F68616E646C65725F636861696E5F73AD
:105A88006C6F74292900000030783163203D3D2077
:105A9800282A696E7374293E3E3131750000000072
:105AA80021657863657074696F6E207C7C206578E9
:105AB80063657074696F6E203D3D206E756D202B97
:105AC80020565441424C455F46495253545F49520F
