:020000041000EA
:10000000002008205D0100101B0100101D010010E0
:100010001101001011010010110100101101001058
:100020001901001019010010190100101F01001022
:10003000110100101901001021010010230100100E
:100040001101001011010010110100101101001028
:100050001101001011010010110100101101001018
:100060001101001011010010110100101101001008
:100070001101001011010010AD4F0010110100100E
:1000800011010010110100101101001011010010E8
:1000900011010010110100101101001011010010D8
:1000A00011010010110100101101001011010010C8
:1000B00011010010110100101101001011010010B8
:1000C00011010010110100101101001011010010A8
:1000D0001101001011010010110100101101001098
:1000E0001101001011010010110100101101001088
:1000F0001101001011010010110100101101001078
:100100001101001011010010110100101101001067
:10011000EFF30580103800BE00BE00BE00BE00BE7A
:1001200000BE00BEF2EB88717C950010A095001017
:10013000A001001090A31AE7D3DEFFFF42012110B7
:10014000FF010000D8A30000793512AB4FF000008A
:100150001E49086006C881F3088810474FF05040D8
:10016000006810B14FF00000F2E70DA40ECC00299A
:1001700002D000F012F8F9E71549164A002000E015
:1001800001C19142FCD11449884714498847144958
:10019000884700BEFDE701C901C29A42FBD3704700
:1001A000A0950010100100208010002010A5001064
:1001B000000008200000082010A5001000100820F2
:1001C00000100820000000007047000008ED00E06B
:1001D00080100020E015002095340010F107001079
:1001E00055340010F8B500BF10B5054C237833B96D
:1001F000044B13B1044800E000BF0123237010BD7D
:1002000000120020000000006C6E001008B5034BC7
:100210001BB10349034800E000BF08BD0000000017
:10022000041200206C6E0010032804D80138034B20
:1002300053F8200070470248704700BFF471001067
:10024000048200100A4B1B684AF64442934207D0CE
:100250004BF68032934203D0054B4AF644421A6073
:10026000044B1B685B68024A12681A60704700BF43
:10027000700600205C1500200B4B988000F5B640FE
:1002800000B200280DDB83B2B3F5B64F01D345F6BB
:10029000FF20C0F30720054B33F91020024BDA8012
:1002A00070470020EFE700BF700600207C060020AA
:1002B00038B50446104803F03DFA104803F00DFA33
:1002C000E288531E9BB23E2B01D9002038BD0C4B57
:1002D00001251D70217801F01F0159705A71A28803
:1002E000120A1A716288110A9970DA70054804F0CE
:1002F00079FB2846EAE700BF706E00107C6E0010A4
:10030000801300202C71001010B50B4B83420CD1D0
:100310000C460A4803F00EFA2146094803F00AFA8F
:10032000012C8CBF0020012010BD064B064A4FF463
:10033000F271064803F092F840130020706E00102E
:10034000F06E0010906E0010CC700010B06E0010B7
:1003500010B52C4B1B78012B12D104F089FE0446FA
:10036000284B00221A7002795B799A4205D3254BFB
:100370005B78012B0BD0022B25D004F02DFC10BD97
:10038000214B224A4FF4DE71214803F067F81D4BE0
:100390009B78012B07D0022BEFD10368B3F9000043
:1003A000FFF76AFFE9E703681B78003B18BF0123EA
:1003B000184A1372184803F0BDF9236819781748D2
:1003C00003F0B8F9D9E70F4B9B78012BD5D103681F
:1003D0001C6824F07F44104803F0ACF96FF07F43B1
:1003E0009C420CD021460E4803F0A4F9094B1B682F
:1003F000A342C2D0074B1C60FFF724FFBDE74FF0BC
:10040000FF31F0E780130020046F00101871001016
:10041000B06E001070060020706E0010346F001077
:10042000446F001008B5037803F01F03012B03D0BD
:10043000022B18D0002008BD43881B0A012B03D0D3
:10044000022B08D00020F6E701210D4B187A04F0AA
:100450002BFB0120EFE70221094BB3F9040004F064
:1004600023FB0120E7E743881B0A012B01D0002072
:10047000E1E70321024B186804F016FB0120DAE7DC
:100480007006002008B5037803F01F03012B01D08C
:10049000002008BD43881B0A022B01D00020F8E78A
:1004A00002214FF4254004F0FFFA0120F1E708B5DE
:1004B000037803F01F03012B01D0002008BD4388FF
:1004C0001B0A022B01D00020F8E70221002004F0D3
:1004D000EBFA0120F2E708B5037803F01F03012BC4
:1004E00001D0002008BD43881B0A022B01D0002048
:1004F000F8E702214FF4807004F0D6FA0120F1E70A
:1005000008B50B7803F06003202B01D0002008BD54
:100510004B78012B0CD05AB2F2B1842B1ED8812B10
:100520001ED3813B032B1DD8DFE803F0060A0E1211
:100530000846FFF7BDFEEAE70846FFF773FFE6E768
:100540000846FFF79FFFE2E70846FFF7B0FFDEE748
:100550000846FFF7C0FFDAE70020D8E70020D6E71B
:100560000020D4E70020D2E708B50B7803F0600341
:10057000202B01D0002008BD4B78012B0CD05AB2A3
:10058000F2B1842B1ED8812B1ED3813B032B1DD8A7
:10059000DFE803F0060A0E120846FFF789FEEAE7D5
:1005A0000846FFF73FFFE6E70846FFF76BFFE2E785
:1005B0000846FFF77CFFDEE70846FFF78CFFDAE727
:1005C0000020D8E70020D6E70020D4E70020D2E7BB
:1005D00010B58368F3B1044604F012FA4379022B94
:1005E0001FD903230371124B1B689B03114AA2FB03
:1005F0000323990902681170990B026851709B0DD1
:10060000026893700121A06804F080F8204604F08D
:1006100031F910BD084B094A4FF49171084802F0B6
:100620001DFF084B054A4FF49371054802F016FF71
:1006300070060020D34D6210546F0010F47000104B
:10064000B06E00106C6F001070B58368EBB104469B
:1006500004F00EFD06460121264B186805F0A2FCA9
:100660000146337913F0030F16D19B088360D3B191
:10067000C26893421ED8204BB3F906C01FFA8CFC07
:1006800003685D683068002224E01C4B1C4A4FF46C
:1006900085711C4802F0E2FE1B4B194A4FF4887129
:1006A000184802F0DBFE194B154A4FF489711548C2
:1006B00002F0D4FE164B124A40F21311114802F018
:1006C000CDFE30F9123003FB0CF343F3CF3325F8A2
:1006D000123001328B68B2EB430FF2D3054B18682E
:1006E00005F046FC0121A06804F010F8204604F053
:1006F000C1F870BD5C15002070060020546F00101A
:10070000E0700010B06E0010846F0010A46F001035
:10071000C06F001008B5012005F02CFA08BD0000DC
:1007200070B582B01F4C204D0126009600231A465A
:1007300004F10901284603F099FE1C4BEB601C4DA7
:10074000009602231B4A04F14301284603F08EFE63
:10075000194B2B6119481A4B43611A491A4B0B600C
:1007600003F070FC19491A4B0B601A4803F06AFC3D
:10077000194B00930223194A2146194803F012FF2E
:1007800040B10020FFF778FDFFF75CFD04F006F9AB
:1007900002B070BD134B144A40F24721134802F0D7
:1007A0005DFE00BF5C710010281300206905001079
:1007B000401300200072001009030010C81400202C
:1007C000010500106C1300204C710010581300201C
:1007D0003C710010F814002029020010EC71001088
:1007E000D87100100070001004710010B06E00107D
:1007F00030B589B001F08EF903F0B6F8022000F0B0
:1008000097F80223012242EC4430002444EC4030AB
:100810002E4802F062FF234600E00133012B18D876
:1008200003EB43022A49114491F85B2091F85C00E4
:1008300042EA002291F85D1042EA01424BF6803113
:100840008A42EAD9234B244A40F26321234802F02A
:1008500005FE234D06AC95E8030084E803000494EC
:100860000423ADF814303022082104A805F054FB0D
:100870001C4B1860AB68039303A9204605F086F86B
:1008800078B100210091602302221648006805F02B
:100890000DF948B9144B104A40F282210F4802F07A
:1008A000DDFD124800F04EF8FFF73AFF104805F062
:1008B00009FD4FF48073009300231A464FF425413D
:1008C0000C4802F037FF30BFFDE700BF0870001092
:1008D0005C71001018700010C4700010B06E001031
:1008E000B87000105C1500205C70001030700010B3
:1008F00015070010607000100C4B03EB800253F8DA
:10090000203083F0400303F0C00302F5805CCCF894
:100910000030C00000F1804000F52030416002F559
:1009200040524FF480731360704700BF048003404F
:1009300008B5002242EC440042EC40000521FFF7DC
:10094000DBFF08BD0FB400B583B0049C074802F07C
:10095000C4FE3CB105A90191204602F0CDFE044839
:1009600002F0BBFE012002F059FD00BF087200102A
:10097000006F0010EFF3108072B6064BD3E8CF1F64
:1009800001220029FAD1C3E8412F0029F6D1BFF393
:100990005F8F7047071300200023034AC2E88F3F90
:1009A00080F31088704700BF0713002070B505461C
:1009B0000C461646FFF7DEFFE208A95C04F0070CC0
:1009C000012303FA0CF3194205D1DBB20B43AB54FC
:1009D000FFF7E2FF70BD21463046FFF7B3FF00008E
:1009E000054A1078431CDBB21370172B02D913464B
:1009F00010221A70704700BF320700204FF0E0222B
:100A0000936843F00053936070470000002305E0B3
:100A1000044A1A440021C2E88F1F01331F2BF7D963
:100A2000704700BFFC12002008B51F2805D8064BF0
:100A300018440023C0E88F3F08BD044B044A0F212F
:100A4000044802F00BFD00BFFC12002018720010D9
:100A50008072001034720010064B9B68103043F80F
:100A60002010BFF35F8F00230349C1E88F3F82F35B
:100A70001088704700ED00E0051300200048704723
:100A800000E400E008B5FFF7F9FF002304E04FF0B1
:100A9000803240F8042B01330C2BF8D962B608BD24
:100AA00008B5091A081F01F2FC7140F6FE7399425D
:100AB00007D810F0010F04D1C0F34A0040F46040A1
:100AC00008BD034B034A4FF48771034802F0C6FC8C
:100AD00090720010E0740010C072001008B5091A7E
:100AE00004394B08090B0AD1C1F30A0141F47041E2
:100AF00001806FEA43536FEA5353438008BD034BB1
:100B0000034A4FF48B71034802F0A8FCF472001002
:100B1000BC740010C07200104209064B53F822202A
:100B200000F01F00012303FA00F0024214BF184630
:100B30000020704700E100E03AB1064B00F160028E
:100B400043F8221043F8201070472030014B43F83F
:100B50002010704700E100E008B50A4600F01F03CE
:100B6000012199404009FFF7E7FF08BD024B9B6850
:100B7000103053F82000704700ED00E070B50546D6
:100B80000C46EFF3108672B60F4BD3E8CF1F01224D
:100B90000029FAD1C3E8412F0029F6D1BFF35F8FB6
:100BA000FFF7E4FF094B984201D0A04205D132463D
:100BB00021462846FFF750FF70BD054B054AED2141
:100BC000054802F04BFC00BF051300201101001086
:100BD0000473001014750010C07200102DE9F04F5E
:100BE00087B000911546EFF3108A72B6864BD3E8B2
:100BF000CF1F01220029FAD1C3E8412F0029F6D1E5
:100C0000BFF35F8F814B93F90040002C44DB80469B
:100C100004EB44077E4B03EB870797F906107B4AEA
:100C200011707C4A926800F1100152F82190A9EBF2
:100C300003022F2A3ED9784B994534D14FF42143F2
:100C4000ADF80C304FEA440904EB4400704E06EB5B
:100C5000800072490230FFF723FFADF80E004BF61B
:100C60000153ADF81030FF238DF812308DF813507A
:100C7000009B05934C4406EB840406AB13E9070084
:100C800084E8070047F00109524649464046FFF70D
:100C9000E3FE07B0BDE8F08F614B624A4FF4BE71CE
:100CA000614802F0DBFB614B5E4A40F283115E4813
:100CB00002F0D4FB29F0010BABEB03035C4AA2FB6F
:100CC0000312D20802EB4202B3EB820F0FD15B4654
:100CD0000026DA79AA4212D993F90620002A0DDB00
:100CE00002EB42021E464A4B03EB8203F1E7514BF3
:100CF0004C4A4FF4CA714C4802F0B0FB1E46002E1D
:100D000048D044F60103ADF80C304FF48F43ADF8F2
:100D10000E3096F906B0BBF1000F1ADA4BF601500F
:100D2000ADF810008DF812B08DF81350009B0593AC
:100D30003946301DFFF7B4FEB080B47104EB4404B3
:100D4000334B03EB840406AB13E9070084E8070088
:100D50009AE704EB44002E4B03EB80000430311D76
:100D6000B388DA0A1C2A08D15B050DD45B1502335F
:100D700001EB4301FFF794FED2E72F4B2F4A4FF4CC
:100D80008E71294802F06AFB03F5FF1303F5FF5348
:100D90001F33EBE74FF42143ADF80C3063000193B0
:100DA00004EB4406DFF8689009EB86061B49B01C8B
:100DB000FFF776FEADF80E005946301DFFF770FEC6
:100DC000ADF810004AF6AA235A464946521A524133
:100DD00053431B0D8DF812308DF81350009A059275
:100DE000019B1C4409EB840906AB13E9070089E861
:100DF000070044F60103ABF800304FF48F43ABF823
:100E0000023047F001093FE705130020DF150020FD
:100E10003407002000ED00E01101001064070020FD
:100E20003C730010FC740010C0720010647300105A
:100E3000ABAAAAAA8C73001010740010EC740010F6
:100E40002DE9F04706460D46EFF3108872B65B4B6E
:100E5000D3E8CF1F01220029FAD1C3E8412F00298E
:100E6000F6D1BFF35F8F564B9B6800F1100A53F821
:100E70002A70544B9F4207D0AF4200F09D803C4601
:100E8000514BFB1A2F2B06D9424639463046FFF705
:100E9000E3FDBDE8F087FFF73FFE814600213046C5
:100EA000FFF75AFEBFF35F8FEFF30580C0B208B1C2
:100EB000824510D124F001040021A268954212D08D
:100EC00094F90630002B0DDB03EB430321463E4C27
:100ED00004EB8304F1E73D4B3D4A40F202213D48DB
:100EE00002F0BCFA214695425FD194F90650002DDC
:100EF00041DB05EB4503344A02EB83039A68A260A9
:100F0000DA79E27193F90620A27193F90630002B89
:100F100010DA4BF60150A08005EB45022A4B03EB9B
:100F200082032D4A11789971157049463046FFF7B2
:100F300013FEA9E7201D05EB4503234A02EB8303BB
:100F4000191D9B88DA0A1C2A08D15B050DD45B1594
:100F5000023301EB4301FFF7A3FDDCE71F4B204AFF
:100F60004FF48E711B4802F079FA03F5FF1303F575
:100F7000FF531F33EBE798B981B1FF238B714BF619
:100F800001538B80144A1378A3714AF6AA230E49A1
:100F9000641A644163431B0D1370C6E7094FF1E700
:100FA0001049201DFFF79AFDBFE70F4B084A4FF489
:100FB0001171084802F052FA024F65E7051300204C
:100FC00000ED00E01101001034070020287400102B
:100FD000CC740010C0720010DF15002010740010D7
:100FE000EC7400106E0700205C74001038B540F0FF
:100FF000010E344BAEEB03032F2B31D8EFF30581F9
:10100000C9B2002933D0EFF3108472B62E4BD3E867
:10101000CF5F0122002DFAD1C3E8452F002DF6D174
:10102000BFF35F8F4AF6AA230246264D521B524158
:1010300053431B0D4FFA83FC244B9B6853F821301C
:1010400073451BD00023032B34D803EB43021D4907
:1010500001EB820292F90620624520D00133F2E7CB
:101060001B4B1C4A40F27F211B4802F0F7F91B4B37
:10107000184A40F28221184802F0F0F9134B9B689D
:10108000174A43F82120174B1A78827183F800C061
:1010900000230D4AC2E88F3F84F3108838BD0A460A
:1010A00003EB430102EB8101FF258D714BF60152E9
:1010B0008A80E8E70C4B074A40F29321064802F089
:1010C000CDF900BF340700200513002000ED00E03B
:1010D00064740010A0740010C07200108C740010B2
:1010E00011010010DF15002098740010014B0B4413
:1010F00003607047FC12002010B50446FFF770FC37
:1011000001462046FFF7F2FFFF232371BFF35F8FF5
:1011100010BD10B50446FFF763FC01462046FFF7FB
:10112000E5FFFF23237100236371BFF35F8F10BDC1
:1011300010B50D4C09E00D4B0D4A1A210D4802F077
:101140008DF92046FFF7D8FF08340B4B9C4209D29B
:101150002368002BF5D0012BEDD12046FFF7D9FFF6
:101160000834F2E710BD00BF701000203075001089
:10117000F8750010507500108010002041EA004002
:10118000704700000D4B1A68EFF3108172B6D2E879
:10119000CFCF0120BCF1000FF9D1C2E84C0FBCF158
:1011A000000FF4D1BFF35F8F1A680023C2E88F3FAE
:1011B00081F3108840BF0020002170476C1500208B
:1011C0002DE9F04F85B0EFF30587FFB2103FBB0864
:1011D00015D0964D07F00307944B9D4214BF002392
:1011E000012307EB8303924A52F823402378BB4242
:1011F00007D10122BA4005F541535A6031E18D4DC6
:10120000E8E78D4B8D4A92218D4802F027F9D4F8FA
:1012100014A006EB46084FEAC80B0AEBC808D8F83A
:1012200008300193D8F80C90284600F025FB019B6C
:10123000C01A61EB0903002BC0F21B81B9F1000F4A
:1012400065DBD8F810301A4602937E4B9A4232D0B2
:10125000B8F8021089B2B4F90800FFF78FFFD8F888
:101260001410029B984702900391029A039B52EA42
:1012700003014CD0002B2BDA0199881A69EB030982
:10128000C8F80800C8F80C903AF90B30002BC0F2EF
:10129000F080D4F8148003EB430208EBC20291689B
:1012A000D268411A69EB0202002AC0F2E280A64627
:1012B0002EF8083F16E0D8F8142013690292104661
:1012C000984720B3029A1368029353680393CCE7BC
:1012D000284600F0D1FA029B1818039B43EB010942
:1012E000CEE79E46BEF900C0BCF1000F0ADB0CEB56
:1012F0004C0308EBC3039968DA68411A69EB0202F0
:10130000002AEEDA2AF80BC0AEF80060B1E03AF934
:101310000B3023812369EFF3108272B6D3E8CF0F2D
:1013200001210028FAD1C3E8401F0028F6D1BFF3FD
:101330005F8FB4F902302AF80B30668021690023F0
:10134000C1E88F3F82F3108893E02369EFF31082A6
:1013500072B6D3E8CF0F01210028FAD1C3E8401FAD
:101360000028F6D1BFF35F8FB4F804900FFA89F923
:101370004FF6FF73A38021690023C1E88F3F82F3FA
:10138000108816E01E46B6F90020002A0BDB02EB9F
:1013900042030EEBC3039868D968BCEB000068EB0E
:1013A00001010029EEDAA6F800903EF90A902EF825
:1013B0000A20B9F1000F61DBD4F814E009EB49030E
:1013C0004FEAC30A0EEBC303D3F808C0D3F80C806E
:1013D00004F10806D7E70023A37104F1080EB4F95D
:1013E000083011E04FF0FF384FF0FF39C0E90289B3
:1013F000B4F90800984206D0AEF80020B4F908000D
:1014000021F80C0023811346B3F1FF3F39D0616905
:1014100003EB43024FEAC20C01EBC20031F9322068
:10142000468816F4004FDDD18646ECE700800B407D
:101430003C15002000000B400C760010A476001034
:1014400038760010C11100103B1D45F82360284676
:1014500000F012FA361A68EB0101012E71F1000357
:101460002FDA0123BB40EB63B4F90860002EBFF60E
:10147000CEAEA38813F4004F3FF467AFA379002BDF
:10148000A9D1B4F90830002B1BDB626903EB4303DD
:1014900002EBC3039E68D3F80C80B8F1FF3F08BF8E
:1014A000B6F1FF3FD3D0AA6AB11A3B1D55F82330DD
:1014B0009B1A9942C8D32A6A0123BB401A42C6D15B
:1014C000C2E740BF05B0BDE8F08F00BF2DE9F04195
:1014D0000446884617461E46C160FFF781FA204B36
:1014E000034423612770B3B263814FF050421278F6
:1014F00062704FF6FF722281A280013B63804FF041
:10150000000C08E00CF1FF3560690CEB4C0E20F884
:101510003E500CF1010CB445F4D3124B98450CBF6E
:101520000123002307EB83030F4A42F8234014D022
:1015300000243C44012505FA07F7C8F820700B4940
:101540002046FFF71BFB29462046FFF705FB08F561
:101550000158C8F80070BDE8F0810424E9E700BF35
:10156000FC12002000800B403C150020C11100102F
:1015700008B5054B1B690BB1034808BD034B044A72
:101580006521044801F06AFF7C070020687600109E
:101590008C76001038760010F8B504469E46016936
:1015A000EFF3108C72B6D1E8CF5F0120002DFAD195
:1015B000C1E8450F002DF6D1BFF35F8FB4F902509B
:1015C000666905EB4500C70006EBC000002D01DB96
:1015D000F15F618000212369C3E88F1F8CF31088BD
:1015E0008D4233DB06990161079941618260C0F841
:1015F0000CE0418889B20131C1F30E0101B901212A
:1016000041802846FFF7BAFD2369EFF3108272B6D6
:10161000D3E8CFCF0121BCF1000FF9D1C3E84C1FB3
:10162000BCF1000FF4D1BFF35F8FA388F353A58003
:1016300021690023C1E88F3F82F31088E368217895
:1016400001228A4003F501535A60F8BD4FF0FF3084
:10165000FBE770B582B0064615461C469DF8203063
:1016600033B900F033F9854264EB010100290ADB4C
:10167000079B0193069B00932A4623463046FFF7BB
:101680008BFF02B070BD0020FBE703464089B0EB42
:10169000214F31DD10B50A14586902EB420200EB0C
:1016A000C2021869EFF3108C72B6D0E8CF4F5FF02A
:1016B000010E002CF9D1C0E844EF002CF5D1BFF3A6
:1016C0005F8F508880B289B288420FD0002019699C
:1016D0000022C1E88F2F8CF3108830B1DA681B78B4
:1016E0000121994002F50153596010BD40F40040BA
:1016F000508001209871EAE700207047F0B585B06E
:1017000005460C46EFF30583DBB293B1404B5B6AB1
:101710008B4209D33E4A926A824208D28B4201D060
:10172000012002E0002000E0002005B0F0BD012013
:10173000FBE7FFF71DFFC7680678384600F09CF806
:101740002A1A64EB0101043657F82630181A82422F
:1017500071F1000312DB20BF2D4B5B6A9C4209D85C
:101760002B4A926AAA4207D29C4201D00120DCE7B0
:101770000020DAE70020D8E70120D6E7FFF7F8FEDF
:10178000002302930193234B00932A462346FFF73D
:1017900060FF061E0BDD1E4B5B6A9C421BD81C4A79
:1017A000926AAA422BD29C4213D0012314E0184B18
:1017B0005B6A9C4209D8164A926AAA4207D29C42A6
:1017C00001D00120B1E70020AFE70020ADE7012004
:1017D000ABE7002300E0002303B920BFFFF7C8FEFA
:1017E0003146FFF752FF0A4B5B6A9C420BD8084A0E
:1017F000926AAA4209D29C4203D0012095E70123B4
:10180000EAE7002091E700208FE701208DE700BF85
:1018100000000B40851100100048704700000B408D
:1018200010B50A4B1B6923B10A210948FFF75EFC7A
:1018300010BDFFF7F1FF0446032100F00BF8102361
:10184000032221460148FFF741FEEDE77C07002017
:101850006C15002010B5054A054C064BA04214BF7C
:101860001846581CFFF7A2F810BD00BFBC76001048
:1018700000800B40941300200246436A906A194688
:10188000536A9942FAD17047416A00E0416A99422D
:10189000FCD300E0416A994202D1816A9142F9D3B6
:1018A000704770B5064614461D46FFF7E5FF02195E
:1018B00041EB0503824273EB010102D24FF0FF328C
:1018C00013463046FFF7E0FF70BD000008B5024840
:1018D000FFF7D2FF08BD00BF00000B4008B502466D
:1018E0000B460248FFF7DDFF08BD00BF00000B40BC
:1018F00038B5046B14F0010F01D1204638BD00F556
:10190000405340F201321A63436A856A05EB83153E
:10191000AD02062000F0F8F8044BA3FB0030C00A2B
:10192000B5FBF0F00021FFF7D9FFE6E7757B2B8FC1
:1019300070B505460C461646FFF7DAFFE96A4C40DB
:10194000344005F58153DC60286370BD70B50546F1
:101950000C46062000F0D8F8C300B3FBF4F10131C7
:10196000CC0907D04FF6FE739C4214D82646C1F32B
:10197000450400E001266E62AC6200221146284652
:10198000FFF7D6FF062000F0BFF8800004EB8614B6
:10199000B0FBF4F070BD00244FF6FF76EBE70000DB
:1019A00049B10A22054B984214BF00200120044B84
:1019B00023F8102070474FF48072F3E7008007404F
:1019C0007015002038B504460D46062000F09CF83E
:1019D00048B3174B9C4227D01A2201239340154A43
:1019E0001360134B9C4221D01A2301229A40124BC0
:1019F0001A60124B9B6832EA0303FAD10021204699
:101A0000FFF7CEFF29462046FFF7A0FFE36A83F0E9
:101A1000700303F07E0304F58152D36040F201337A
:101A200023630323A36438BD1B22D6E71B23DCE713
:101A300000800740002002400030024000000240C9
:101A400070B5049D00EB400C4FEA8C0C0CF1804CFF
:101A50000CF5803CDCF80440AC4201D2CCF80450D8
:101A6000A0F1040E5FFA8EFEBEF1010F27D90CF52E
:101A700040544FF4006626601D4C54F820603EB17F
:101A80006469B4FBF6F4013404EB4404033CFDD276
:101A9000DCF8004084EA421202F0E0020CF58054C7
:101AA0002260BEF1010F16D90CF500524FF400610F
:101AB0001160CCF804500E4A42F8203070BD012964
:101AC000D5D10CF5405403262660DCF8084014F00C
:101AD000010FFAD0DCE7DCF800204A4002F00302F4
:101AE0002260DCF8084001228A401442F9D0DBE78A
:101AF0009C13002010B582B04FF480340094FFF79F
:101B00009FFF02B010BD0000014B53F8200070474A
:101B10009C13002010B5084C2346012211460520D5
:101B2000FFF7E8FF054800F08FF823460022114632
:101B30000620FFF7DFFF10BD006CDC02000005404F
:101B400070B5049C344DB5FBF1FC344D1544344E56
:101B5000B54237D8B2FBFCF5A5F1100EBEF5987F63
:101B600036D803F1FF3EBEF1060F37D804F1FF3E31
:101B7000BEF1060F32D8BCEB121F35D8240344EA5D
:101B800003440368002B35DB264B984242D00E23DA
:101B900001229A40244B1A6003F580531A60234BAC
:101BA0009B6832EA0303FAD10160856000F5405278
:101BB0000432212313600368002BFCDAC46008237D
:101BC000136070BD1A4B1B4A11211B4801F046FCE3
:101BD0001A4B184A1921184801F040FC184B154AB5
:101BE0001C21154801F03AFC164B124A23211248D9
:101BF00001F034FC036803F03F038B42C4D18368D7
:101C0000C3F30B03AB42BFD1C36803F4EE23A3427B
:101C1000BAD1D6E70F23BBE7001BB70080E84BD350
:101C200080F8A932008005400020024000000240F8
:101C3000E0760010E877001030770010647700102D
:101C400080770010CC7700102D2343607047000090
:101C5000054A00EB400302EB8303596000EB4000B0
:101C600080000123135070470080104008B5002306
:101C7000DB8A002242E800F212F4800F02D1102128
:101C8000984708BD04219847FBE70000034BD3F8B1
:101C90002838002BFAD0BFF35F8F704700000E404A
:101CA000002207E0054B13449B00BFF35F8F002128
:101CB00019600132072AF5D9704700BF038203106B
:101CC00008B5FFF7EDFF08BD074B4FF42A621A6015
:101CD0004FF48D72DA6003F50053044A1A60024B28
:101CE0005B68002BFBDA70470080044000B0FA000C
:101CF00010B5044602E054F8043B9847014B9C425F
:101D0000F9D310BD686E00107047000008B5024896
:101D1000FFF7EEFF08BD00BF286E001008B50248AF
:101D2000FFF7E6FF08BD00BF546E0010064B074AE0
:101D30001A6003F58053064A1A60064B9A68044BF2
:101D40009343FAD1704700BF002002407F3BEFEF82
:101D5000F6FFF30300000240054BDB6CB3F5004FC8
:101D600000D07047034B4FF48022DA64F9E700BFDC
:101D700000001150002011504FF0E022D2F8881DD1
:101D8000034B0B43C2F8883D10EE3004704700BF90
:101D900003033000054B6FF060421A60044B9B68F0
:101DA000DB4333F06043F9D1704700BF003002409D
:101DB0000000024008B545F25320FFF757FF0346E5
:101DC0000420984708BD08B545F25320FFF74EFFA1
:101DD00003460120984708BD08B5FEF717FE08BD69
:101DE00010B50C490C4A521A92101446442A28BFC6
:101DF00044229200094804F085FD04E0084A074B9C
:101E000043F824200134432CF8D9044A054B9A6046
:101E100010BD00BF000000101001001000000020E5
:101E20001101001000ED00E038B50420FFF76CFE52
:101E3000064DA5FB0035AD0C002404E02946E0B2B8
:101E4000FFF706FF0134052CF8DD38BD83DE1B43A8
:101E500030B583B0264B0022C3F88420FFF734FF4F
:101E6000244B0122DA63224B5B6C012BFBD1214B0B
:101E700003221A631E4B9B6B012BFBD1022400949F
:101E800005231D4A01211D48FFF75AFE052500952F
:101E90002B461B4A01211B48FFF752FE1A4B00221A
:101EA00021460420FFF726FE184C2346002201217C
:101EB0002846FFF71FFE164D2B460022114608202C
:101EC000FFF718FE2B46002211460920FFF712FEED
:101ED0002346002211460620FFF70CFE234600226F
:101EE00011460720FFF706FEFFF79EFF03B030BD47
:101EF0000000014000300140002F685900000540FB
:101F0000008C864700800540001BB70080D1F00898
:101F1000006CDC0286B003B451FC0804CDE9020178
:101F200051FC0904CDE9040151EC0A04CDE9060194
:101F300003BCF047BDE800504EEC00C4BDE80050C3
:101F40004EEC01C4BDE800504EEC02C400BD0000E0
:101F500000B5FFF7DFFF02E010FE30F4F8D441ECEB
:101F6000100443EC112400EE010410EE010480EE95
:101F7000200451EC1004704700B5FFF7CBFF02E0DE
:101F800010FE30F4F8D441EC100443EC112400EEC0
:101F9000010410EE210480EE200451EC300470475F
:101FA00000B5FFF7B7FF02E010FE30F4F8D410B52B
:101FB00041EC100443EC112451EC040453EC0524CF
:101FC000A0FB024C5FF0000EE0FB03CEE1FB02CE73
:101FD0004CEC20440024E1FB03E444EC30E480EECC
:101FE000200451EC5004BDE81040704700B5FFF7E5
:101FF00091FF02E010FE30F4F8D441EC100443EC01
:10200000112451EC2104A0FB01126FEA820252FB61
:10201000100052FB12F252FB1000A0EBD07C53ECEC
:1020200004245CFB13F153EC1524A1FB022001FBFB
:10203000030053EC4424A2EB000050FB1CF24FEAD7
:10204000111312EB017043EBE27140EA515020EAA8
:10205000915020F0070053EC7524A0FB023C53EC98
:10206000752400FB03CC01FB02CC53EC0424ACEB45
:10207000824C40EA5C70A0F1010041EC400480EE2B
:10208000200451EC7004704700B5FFF743FF02E0F5
:1020900010FE30F4F8D440EC700400EE010410EEB1
:1020A000210480EE200451EC3004704700B5FFF7A6
:1020B00031FF02E010FE30F4F8D440EC600400EE92
:1020C000010410EE210480EE200451EC300470472E
:1020D00000B5FFF71FFF02E010FE30F4F8D441EC2A
:1020E000800400EE010410EE010480EE400410EEC6
:1020F0001304704700B5FFF70DFF02E010FE30F447
:10210000F8D441EC800400EE010410EE010480EEEE
:10211000400410EE3304704700B5FFF7FBFE02E009
:1021200010FE30F4F8D441EC100443EC112400EE1E
:10213000010410EE3004C0F30070704700B5FFF7E3
:10214000E9FE02E010FE30F4F8D443EC102441EC38
:10215000110400EE010410EE30F48CBF01200020C9
:10216000704700BF00B5FFF7D5FE02E010FE30F467
:10217000F8D443EC102441EC110400EE010410EEFD
:1021800030F42CBF01200020704700BF00B5FFF7DE
:10219000C1FE02E010FE30F4F8D441EC100443EC30
:1021A000112400EE010410EE30F42CBF01200020B9
:1021B000704700BF00B5FFF7ADFE02E010FE30F43F
:1021C000F8D441EC100443EC112400EE010410EEAD
:1021D00030F48CBF01200020704700BF70B504466A
:1021E0000A4E304604F018FE204604F0C1F80546B9
:1021F000304604F001FE2DB12C44054B9C4201D821
:10220000284670BD0348FEF79DFB00BF70100020FC
:1022100000000820F4770010F8B504460E460C4F75
:10222000384604F0F9FD3146204604F05DF80546D5
:10223000384604F0E1FD06FB04F42DB12C44054BB7
:102240009C4201D82846F8BD0348FEF77BFB00BF3F
:102250007010002000000820F477001038B5044604
:10226000054D284604F0D8FD204604F089F828469C
:1022700004F0C2FD38BD00BF70100020704720B1CF
:1022800008B50A684968904708BD704701460020B4
:1022900007E000EB8000531C0B60137803EB400059
:1022A00030380A681378303BDBB2092BF1D970471C
:1022B0002DE9F04F83B005460E4693461F46DDF8E4
:1022C00030A00D9CDDF838900F9B13F0030F19D14F
:1022D000A0460192C84509D202F1010B3B463146A6
:1022E0002020A84708F101085A46F3E7DDF804B0BA
:1022F00008E0013C02F101083B4631461AF80400AF
:10230000A8474246002CF4D10F9B13F0020F03D1D3
:10231000104603B0BDE8F08FA2EB0B034B45F7D29C
:10232000541C3B4631462020A8472246F4E72DE9BD
:10233000F04385B00C9D0D9C9DF83890DDF83C80F5
:10234000DDF840E0119F129E16F0020F21D17FB1FF
:1023500016F0010F0CD0B9F1000F02D116F00C0FDE
:1023600006D0013F04E04FF0300C05F804C0013402
:10237000744501D21F2CF6D916F0010F09D0BC42CA
:1023800007D21F2C05D84FF0300C05F804C00134DB
:10239000F2E716F0100F17D016F4806F04D11CB1BD
:1023A000744524D0BC4222D0B8F1100F2BD0B8F124
:1023B000100F33D0B8F1020F3BD01F2C04D84FF0D0
:1023C000300C05F804C001341F2C07D8B9F1000FF8
:1023D00037D04FF02D0C05F804C001340396029756
:1023E00001940095FFF764FF05B0BDE8F083B4F1F8
:1023F000010C06D0B8F1100F01D06446D4E7023CBE
:10240000D2E76446D0E716F0200FD0D11F2CCED8EB
:102410004FF0780C05F804C00134CEE716F0200F19
:10242000C8D01F2CC6D84FF0580C05F804C0013492
:10243000C3E71F2CC1D84FF0620C05F804C001346B
:10244000BBE716F0040F05D04FF02B0C05F804C0C5
:102450000134C3E716F0080FC0D04FF0200C05F888
:1024600004C00134BAE7F0B591B0169C189D1B9ECC
:102470000CB926F0100616F4806E16D064B34FF037
:10248000000E12E00CF1300C5FFA8CFC0EF101072B
:102490000EF1400EEE440EF820CCB4FBF5FCAC423D
:1024A0001BD31F2F19D8BE466446B4FBF5FC05FBB1
:1024B0001C4C5FFA8CFCBCF1090FE3D916F0200F1D
:1024C00008D04127BC445FFA8CFCACF10A0C5FFADF
:1024D0008CFCDBE76127F5E7274606961A9C0594F6
:1024E000199C049403959DF85C400294019708ACF4
:1024F0000094FFF71CFF11B0F0BD2DE9F04F95B02F
:1025000009900A910B929B461E9D1F9E229FDDF80B
:102510008C80DDF898A055EA060301D12AF0100A54
:102520001AF480641FD055EA060330D000241AE064
:1025300003F13002D2B204F1010904F150030DEBB2
:10254000030404F8202C3A4643462846314604F05A
:102550004BFCBD4276EB08031BD3B9F11F0F18D813
:102560004C4605460E463A4643462846314604F058
:102570003BFCD3B2092BDBD91AF0200F05D0412246
:102580001A44D2B20A3AD2B2D5E76122F8E74FF044
:102590000009CDF818A0259B0593249B049303976D
:1025A0009DF880300293CDF804900CAB00935B460D
:1025B0000B9A0A990998FFF7BAFE15B0BDE8F08F9B
:1025C0002DE9F04F91B004460D4617461E46DDE951
:1025D0001A2310461946FFF7A3FD002840F0ED80AE
:1025E0004FF0FF32AE4BDDE91A01FFF7E7FD00289F
:1025F00040F0E3804FF0FF326FF48013DDE91A0101
:10260000FFF7A0FD002840F0D88000220023DDE97C
:102610001A01FFF797FD002840F0E2809DED1A7B3C
:102620008DED067B1E9B13F480630D9301D1062371
:102630001C93DDE9062310461946CDE9080152EA4C
:10264000030100F0D880C3F30A50C3F3130390468C
:1026500043F07F5949F44019A0F2FF30FFF718FD0D
:102660007DA3D3E90023FFF79FFC7DA3D3E90023DB
:10267000FFF772FC82468B4600228A4B4046494651
:10268000FFF77EFC78A3D3E90023FFF78DFC024619
:102690000B4650465946FFF75FFCFFF71DFD82468B
:1026A000FFF7F6FC8046894671A3D3E90023FFF7C4
:1026B0007BFC00227C4BFFF74FFCFFF70DFD8346B0
:1026C0006DA3D3E9002340464946FFF76DFC8046E1
:1026D00089465846FFF7DCFC69A3D3E90023FFF7DE
:1026E00063FC02460B4640464946FFF749FC8046DC
:1026F000894602460B46FFF757FCCDE90A010BF26B
:10270000FF3B00210022CDE908124FEA0B53099349
:102710000023089342464B4640464946FFF71CFCBF
:10272000CDE90E0142464B4600204FF08041FFF7B5
:1027300027FC8046894600225C4BDDE90A01FFF751
:1027400059FC00225A4BFFF707FC02460B46DDE915
:102750000A01FFF74FFC0022564BFFF7FDFB024634
:102760000B46DDE90A01FFF745FC02460B464046F1
:102770004946FFF7F1FB02460B46DDE90E01FFF784
:1027800039FC00224C4BFFF7E7FBDDE90823FFF79C
:102790000BFC80468946CDE90889DDE90623FFF771
:1027A0000DFD50B30AF1FF3A0022414B4046494625
:1027B000FFF720FCCDE908011FE01E9B04931D9B41
:1027C00003931C9B02939DED1A7B8DED007B33469A
:1027D0003A462946204600F003F911B0BDE8F08FD3
:1027E0009FED297B8DED067B1A9B06931B9B03F1C6
:1027F0000043079316E74FF0000A0AF16303C62B64
:1028000027D84FF004081E9B13F4006F5FD0DDE95A
:10281000081213460B4313D01DA3D3E90023DDE9AF
:102820000601FFF7B7FC002800F0B4801AA3D3E933
:102830000023DDE90601FFF785FC002800F0AA80EF
:102840001C9B53453ADDA3EB0A0A0AF1FF331C93A4
:1028500036E04FF00508D6E7FB799F501344D33F8D
:10286000B3C8608B288AC63F61436F63A787D23F96
:1028700071A379094F930A401655B5BBB16B02405D
:10288000EF39FAFE422EE63F000000000000000093
:102890002D431CEBE2361A3F0000000080842E41DD
:1028A000FFFFEF7F0000F83F0000E03F00002C40FA
:1028B00000002440000018400000F03F00231C935B
:1028C0001E9B43F480631E934FF00008C2461D9B7D
:1028D000984569D2A3EB08091E9B13F0020B04D0A4
:1028E000B8F1000F01D04FF00009BAF1000F07D086
:1028F000DDE90823DDE90601FFF77CFBCDE90601F0
:1029000000220023DDE91A01FFF71CFC00284ED14C
:102910001E9B23F400630493CDF80C901C9B029340
:102920009DED067B8DED007B33463A4629462046D9
:1029300000F056F8B8F1000F3FF44FAF1E9B13F0B4
:10294000200F3CD04FF0450C00F101093346024600
:1029500029466046A0478AEAEA72A2EBEA7205239A
:10296000059308F1FF330493002303930A23029392
:102970004FEADA700190009233464A4629462046D3
:10298000FFF771FDBBF1000F3FF427AF0246DDF802
:1029900074901EE01C9B002B99D00D9B002B96D0B1
:1029A0001C9B013B1C9392E74FF0000994E7DDE983
:1029B0000601024601F10043CDE90623A8E74FF0E6
:1029C000650CC1E702F10108334629462020A047E3
:1029D0004246D31B4B45F5D31046FEE600000000EF
:1029E0002DE9F04F2DED028B95B007900A9192469C
:1029F0009B46DDE92089229D42464B46404649469A
:102A0000FFF78EFB002835D14FF0FF326FF48013B3
:102A100040464946FFF796FB00283AD14FF0FF3277
:102A20009F4B40464946FFF7C9FB002840D198A379
:102A3000D3E9002340464946FFF7C0FB00284FD1A9
:102A400095A3D3E9002340464946FFF77BFB0028C6
:102A500046D10022002340464946FFF773FB002879
:102A60004CD100230B93249B13F4806F00F0B780AC
:102A7000002456E0249B0393239B0293032301939A
:102A8000884B00935B4652460A990798FFF710FC63
:102A900037E1249B0393239B029304230193824BEE
:102AA00000935B4652460A990798FFF701FC28E11C
:102AB000249B13F004030FD07C4A7BB10423249998
:102AC000039123990291019300925B4652460A9921
:102AD0000798FFF7EDFB14E1754AEEE70323EEE7F5
:102AE000249B0493239B03930295CDE900895B46C5
:102AF00052460A990798FFF763FD02E142464B46AA
:102B000000200021FFF73CFA8046894601230B9301
:102B1000A9E704F150036B44302203F8202C013D57
:102B200001341F2C01D8092DF3D840464946FFF740
:102B3000D3FA0646FFF7ACFA02460B464046494632
:102B4000FFF71EFA5B4B03EBC50393ED008B53ECD1
:102B5000182BFFF729FA02460B46CDE90823FFF7A9
:102B6000CDFA0746FFF7A6FA02460B46DDE9080153
:102B7000FFF706FA02460B46CDE9082300224E4B2A
:102B8000FFF71CFB68B301373846FFF793FA02469C
:102B90000B4651EC180BFFF7E9FA08B10136002794
:102BA0006DBB3046FFF774FA02460B464046494675
:102BB000FFF7E6F90746884600223F4BFFF7C2FAC7
:102BC00000284CD100223C4B38464146FFF7F6FA2C
:102BD000002844D116F0010F41D001363FE0062510
:102BE00046E70022344BDDE90801FFF7ABFA002885
:102BF000D6D117B117F0010FD2D00137D0E71F2C73
:102C000017D8013D2D4BA3FB0723DB08194603EB27
:102C10008303A7EB4303621C303304F150000DEB38
:102C2000000404F8203C092F02D90F461446E6E7B9
:102C300014461F2C0AD86B1E45B104F150026A4499
:102C4000302102F8201C1D460134F2E71F2C06D863
:102C500004F150036B442E2203F8202C01341F2C66
:102C600031D8174A82FB0632F317C3EBA2031A4688
:102C700003EB8303A6EB4303611C303304F15000E4
:102C80000DEB000404F8203C1646DAB10C46E6E7EA
:102C90000000000065CDCD410000000065CDCDC134
:102CA000FFFFEF7FA8780010AC780010A07800102C
:102CB0009C780010B87800100000E03FCDCCCCCC60
:102CC000676666660C46249B03F00303012B1DD048
:102CD0001F2C09D80B9B002B35D004F150036B44FB
:102CE0002D2203F8202C0134249B0393239B029371
:102CF00001940CAB00935B4652460A990798FFF784
:102D0000D7FA15B0BDEC028BBDE8F08F239BB3B1B1
:102D10000B9B1BB9249B13F00C0F12D0239B013B80
:102D20002393194606E004F150036B44302203F864
:102D3000202C01348C42CBD21F2CF4D9C8E7239924
:102D4000F8E72399F6E7249B13F0040F07D004F16A
:102D500050036B442B2203F8202C0134C4E7249B3E
:102D600013F0080FC0D004F150036B44202203F885
:102D7000202C0134B8E700BF2DE9F04F8FB0074693
:102D800016460D938846002900F0248300240D9BED
:102D90001878002800F02083252809D0651C3346C8
:102DA00022464146B8470D9B01330D932C46EEE772
:102DB00001330D9300250D9B1978A1F12002102AF3
:102DC0000AD8DFE802F03809093D090909090909AB
:102DD0000933092E09092900A1F13003DBB2092BBF
:102DE00033D92A2936D000230A930D9B1A782E2A2C
:102DF00040D04FF0000B0D9A1378683B122B77D818
:102E0000DFE803F06476D376567676767676767655
:102E1000727676767676D80045F0010501330D930B
:102E2000C9E745F0020501330D93C4E745F00405F9
:102E300001330D93BFE745F0080501330D93BAE761
:102E400045F0100501330D93B5E70DA8FFF71EFA05
:102E50000A90CAE7189B1A1D18921868002804DB0C
:102E60000A900D9B01330D93BFE745F002054342E5
:102E70000A93F6E745F480655A1C0D925A78A2F140
:102E80003003DBB2092B04D92A2A07D04FF0000BFC
:102E9000B1E70DA8FFF7FAF98346ACE7189B1A1DB6
:102EA00018921B6823EAE37B0D9B01330D93A2E785
:102EB00045F48071531C0D9352786C2A01D00D4655
:102EC00016E045F4407501330D9311E045F08001A3
:102ED000531C0D935278682A01D00D4608E045F046
:102EE000C00501330D9303E045F4807501320D9266
:102EF0000D9B1878A0F12503532B00F26182DFE8C7
:102F000013F054025F025F025F025F025F025F0222
:102F10005F025F025F025F025F025F025F025F02A9
:102F20005F025F025F025F025F025F025F025F0299
:102F30005F025F025F025F025F025F025F025F0289
:102F40005F027401540174015F025F025F025F025D
:102F50005F025F025F025F025F025F025F025F0269
:102F60005F025F025F025F025E005F025F025F025C
:102F70005F025F025F025F025F025F025E009B0111
:102F80005E007401540174015F025E005F025F0223
:102F90005F025F025F025E0039025F025F02D401DE
:102FA0005F025E005F025F025E0045F40075013261
:102FB0000D929DE745F4807501320D9298E77828CF
:102FC00009D058283AD06F283AD062283AD025F054
:102FD00010050A2300E01023582835D0692803D0B3
:102FE000642801D025F00C0515F4806F01D025F080
:102FF000010569282BD0642829D015F4007F40F002
:10300000968015F4807F40F0AE8015F0400F00F000
:10301000BF80189A111D1891127805950A9904918C
:10302000CDF80CB002930023019300923346224660
:1030300041463846FFF717FA044629E01023CBE74C
:103040000823C9E70223C7E745F02005C6E715F4C2
:10305000007F21D115F4807F42D115F0400F58D068
:10306000189A111D1891127882EAE271A1EBE271AF
:1030700005950A980490CDF80CB00293D20F0192F6
:1030800000913346224641463846FFF7ECF90446A4
:103090000D9B01330D937AE6189A073222F007024E
:1030A00002F108011891516812680846002913DBE3
:1030B00008950A9D0795CDF818B004930023059351
:1030C000C90F02910092019033462246414638468C
:1030D000FFF713FA0446DBE7524261EB4100E7E7F2
:1030E000189A111D1891126882EAE271A1EBE2713F
:1030F00005950A980490CDF80CB00293D20F019276
:1031000000913346224641463846FFF7ACF9044663
:10311000BEE715F0800F05D0189A111D1891B2F96D
:103120000020A1E7189A111D189112689CE7189ABF
:10313000073222F0070202F10801189108950A9956
:103140000791CDF818B00021049305910291D2E9BE
:103150000023CDE900233346224641463846FFF797
:10316000CCF9044694E7189A111D189105950A990F
:103170000491CDF80CB002930023019313680093DF
:103180003346224641463846FFF76DF904467FE74D
:1031900015F0800F04D0189A111D189112883CE781
:1031A000189A111D1891126837E746281AD0189BF3
:1031B000073323F0070303F10802189204950A9AD3
:1031C0000392CDF808B0D3E90023CDE900233346BC
:1031D000224641463846FFF703FC04460D9B013367
:1031E0000D93D4E545F02005E1E7672801D0472895
:1031F00001D145F40065452801D0472801D145F0AB
:103200002005189B073323F0070303F108021892E7
:1032100004950A9A0392CDF808B0D3E90023CDE9CA
:1032200000233346224641463846FFF7C9F9044693
:103230000D9B01330D93AAE515F002051FD04FF049
:1032400001091898031D189304F1010A3346224618
:1032500041460078B847BDB90D9B01330D935446E4
:1032600095E502F1010A334641462020B8474B4616
:10327000524603F101099B45F3D81446E1E70123C7
:10328000DDF828B02246F4E75246DDF828A006E033
:10329000551C334641462020B847A1462A4609F12D
:1032A0000104CA45F4D89246D6E7189B1A1D189215
:1032B000D3F800A0BBF1000F1ED14FF0FF33D14671
:1032C00002E009F10109134699F8002012B15A1ED3
:1032D000002BF6D1A9EB0A0915F480630B9302D0F9
:1032E000D94528BFD94615F002030C9306D02246D3
:1032F0005C46B3460B9E1DE05B46E0E722460A9C17
:103300004B4607E002F10109334641462020B84709
:103310002B464A465D1C9C42F4D8A9465C46B346FF
:103320000B9E07E01C460AF1010A551C5B4641460C
:10333000B8472A469AF8000020B1002EF3D0631E49
:10334000002CEFD114465E460C9B1BB90D9B01333C
:103350000D931CE5DDF828A006E0551C33464146D8
:103360002020B847A1462A4609F10104CA45F4D8ED
:103370001446EBE745F02105189B1A1D18921B68AF
:10338000059508220492CDF80CB01022029200227A
:10339000019200933346224641463846FFF763F8D0
:1033A00004460D9B01330D93F1E4651C3346224620
:1033B00041462520B8470D9B01330D932C46E6E48A
:1033C000651C334622464146B8470D9B01330D9399
:1033D0002C46DCE4074FD9E4B44201D3721E00E06E
:1033E0002246334641460020B84720460FB0BDE88C
:1033F000F08F00BF7D22001000B585B002900391D0
:10340000009313464FF0FF3202A90348FFF7B4FCC4
:1034100005B05DF804FB00BF7F22001000BEFDE791
:103420000346094A126842B1074A10680344074A32
:10343000934206D8044A13607047034A0449116056
:10344000F2E74FF0FF3070473015002000000820F1
:10345000E015002008B5FFF7E1FF000000B583B0DC
:103460008C46194613465AB1074A5BB10193009244
:1034700063460246054800F05DF90120FFF7CEFFE4
:10348000034AF2E7024BF1E70879001018790010BF
:103490000482001010B5EFF30583DBB203B100BE68
:1034A000FEF734FC044C02E054F8043B9847034B0D
:1034B0009C42F9D310BD00BF686E00106C6E001006
:1034C00008B5034608461B681146984708BD00002A
:1034D000F8B507460D461646437D13B10024204635
:1034E0000CE003681146284698472EE03B7D10E02B
:1034F0003B68022115489847601C0134B44214DA35
:10350000002CF3DD2B1913F8013C0D2B14BF002305
:1035100001232A5D0A2AF0D1002BEED1A042E7DA7E
:103520003B68211A28449847E2E7B04203DA3B6837
:10353000311A28449847002E07DD354415F8013C20
:103540000D2B14BF002301233B75F8BD48790010F3
:1035500038B50368BBB105460B4B1C6806E029462D
:1035600051F8042B2046FFF7B3FF24694CB12368C0
:10357000002BFAD0054B1B68002BF0D0A342F4D1EE
:10358000EDE700232B6038BDC41400202C1500206B
:1035900038B505460C460B68802B05D021684B1CBE
:1035A00023600C44257138BD0846FFF7D1FFF5E7CD
:1035B00008B5FEF78BF9074A821841F10003002B8A
:1035C00003DB054803F020FC08BD4FF0FF326FF02D
:1035D0000043F6E740420F007810002008B502488B
:1035E00003F00AFC08BD00BF781000202DE9F0436D
:1035F00083B006460D4690461C46FFF7D9FF81462C
:10360000B5F1FF3F04D044B1174F184B1C6807E0D9
:10361000304603F05DFA0546F5E7154FF5E72469F6
:10362000BCB12368002BFAD0124B1B680BB1A3422C
:10363000F5D12A4631462046B847B8F1000FEED002
:103640000A238DF8073001220DF107012046B84703
:10365000E5E7B9F1000F03D1284603B0BDE8F083D8
:10366000FFF7BCFFF8E700BFD1340010C4140020FE
:10367000C13400102C150020084A01E003F11002AB
:1036800013683BB18342F9D131B903691360002358
:103690000361704701B11060704700BFC41400207F
:1036A00010B5054B1C6801E0984724691CB163689C
:1036B000002BF9D1F9E710BDC414002010B582B079
:1036C00004468DF807000123002219460DF107007A
:1036D000FFF78CFF204602B010BD38B5054603F059
:1036E000F7F9044601231A4601462846FFF77EFFF4
:1036F000FFF7D6FF204638BD70B5A2B004460E468F
:10370000FFF756FF0546002301933346224601A9E1
:103710000748FFF771FE044601A8FFF719FFFFF7FE
:10372000BFFF15B9204622B070BDFFF757FFF9E77C
:10373000913500100FB400B583B004A951F8040B03
:103740000191FFF7D9FF03B05DF804EB04B07047B7
:1037500030B583B086460C464FF0000C13E00D23C5
:103760008DF8073000200DF10701E0B9936913F0DF
:10377000200FFBD10B4613F8011B116001301946D5
:10378000F3E70CF1010CA4451FDA114B1A681EF87F
:103790000C50104B9A4214BF002301230E4931F9FB
:1037A0001330AB42DBD08DF8075000200DF107013C
:1037B0000028E6D1936913F0200FFBD10B4613F8D4
:1037C000011B116001301946F2E703B030BD00BFA4
:1037D00074150020008007407015002070B582B07D
:1037E00005460E46002104E09DF807308EF80030B3
:1037F0006146B14218DA164B1A68906910F0100051
:1038000012D101F1010C05EB010E0DF107010028A9
:10381000EAD1936913F0100FFBD114680B4603F83B
:10382000014B01301946F2E70A4B1B684BB1084BBC
:103830001B6850229A635A6B02F0380203F58153D9
:103840005A6111B1084602B070BD6FF00201F9E78C
:10385000741500208C13002008B5054B1B6833B18C
:10386000044A126800219163034A1068984708BD12
:103870008C1300207415002090130020034B1A684D
:10388000936913F0080FFBD1704700BF7415002037
:1038900038B51C4B1B681C4A934206D0212410B13A
:1038A0001A4A12681AB1C8B138BD2224F7E7174B7B
:1038B0001860174B196017492046FDF75FF9012181
:1038C0002046FDF749F90F4B1B6850229A635A6B4B
:1038D00002F0380203F581535A61E5E70B4A12689A
:1038E000002AE1D000259D6329462046FDF734F9E2
:1038F00008492046FDF7A4FA044B1D60044B1D60E7
:10390000D2E700BF74150020008007408C13002010
:10391000901300205938001038B50D461C46104B46
:103920001860101E05DB10F0020F15D00B21FCF7FC
:10393000E3FF002C06DB14F0020F0FD00B21204612
:10394000FCF7DAFF2946064B1868FEF73BF8012121
:103950000448FFF791FE38BD0221E8E70221EEE7B7
:10396000741500209407002008B5064B1B78064B01
:103970001B784FF0FF3300224FF4E1310348FFF78B
:10398000CBFF08BD989500109C95001000000740E3
:1039900090F82F302BB190F82630054800EBC3008B
:1039A000704790F82630DB0002481844704700BF8B
:1039B000800010508400105010B50C46FFF7E8FF4F
:1039C00000EB440010BD90F82E300BB90120704779
:1039D00002207047808C704770B50546164629B1A5
:1039E00011460948A84731460848A847012400E085
:1039F00001340F2C07D8064B53F824000028F7D0C9
:103A00003146A847F4E770BD78150020A8150020BE
:103A1000BC12002038B50446074D687700221146D5
:103A20000648FFF7D9FFAB6823B1211E18BF01215B
:103A30002846984738BD00BF981200202F47001035
:103A4000034B5B7F0BB1034870470020704700BFFA
:103A500098120020A8120020044B1B695B79834256
:103A600001D0002070470248704700BF9812002024
:103A7000A812002010B50446FFF7E2FF034628B164
:103A8000027AA24204D9436853F82430184610BD84
:103A90000023FBE7A8B110B50446802813D0FFF738
:103AA000CFFF68B1012300E001330F2B07D8074A8D
:103AB00052F8230002689278A242F5D100E000207B
:103AC00010BD034870470348FAE700BFBC1200204E
:103AD000A8150020781500200378184443788B42FD
:103AE000FAD1704708B583683BB11A7C62B90122EC
:103AF0001A741B681B68984708BD074B074A40F2B9
:103B0000A7110748FFF7AAFC064B044A4FF4D471EB
:103B10000348FFF7A3FC00BF586F0010BC850010DE
:103B20008C790010C879001070B5D9B104460E46E2
:103B300090F82C50F5B990F826302BB990F82F302A
:103B4000B3B10122144B9A662046FFF721FF0368A8
:103B500043F40063036084F82C6023690BB12046B2
:103B6000984770BD0D4B0E4AAA210E48FFF776FC10
:103B70000222E7E7FFF70CFF036813F4006F04D09D
:103B8000AE42EED984F82C60EBE7074B044AB6212D
:103B90000448FFF763FC00BF00201150F0790010CB
:103BA0002C8500108C790010F479001008B5074BB3
:103BB0005B7F23B9054B1877054B186008BD054B93
:103BC000054A40F23D110548FFF748FC98120020D5
:103BD00000001150247A0010BC8400108C79001071
:103BE00008B50020FFF716FF0020FFF7DFFF034BAB
:103BF0004FF0FF329A651A6508BD00BF00301150C2
:103C000008B5074B834204D1064B987FFFF7CEFFE0
:103C100008BD054B054A40F26E210548FFF71EFC22
:103C20007815002098120020407A0010D4840010EB
:103C30008C79001008B58446022012F8013B63B16C
:103C4000884203D22CF800300230F6E7064B074AD0
:103C500040F283210648FFF701FC8CF800000323A3
:103C60008CF8013008BD00BF5C7A00106884001039
:103C70008C79001038B5002836D004460368002B34
:103C800038D09D7805F00F05244B05F11002002176
:103C900043F8321003EBC2035960214B1B8C238382
:103CA0002046FFF797FE94F82E2002B140001C4BEF
:103CB000198C084480B21884B0F5805F1CD895B187
:103CC00002B34FF06042238B13432268D27843EA59
:103CD000826394F82F20C2B1104A42F8353002EBCB
:103CE000C5020023536038BD0E4B0F4A73210F48A5
:103CF000FFF7B4FB0025C7E70D4B0E4AEB210E483A
:103D0000FFF7ACFB4FF02042DDE7044A002142F808
:103D1000351002EBC5025360E5E700BF000010500C
:103D2000981200206C7A00108C860010707A0010B7
:103D3000C07A0010748600108C790010F8B5D8B1E4
:103D40000D4614461E4607463022002102F050FE62
:103D5000E9B287F8261087F82F407E839DF8183047
:103D600087F82E304023BB8484F0010404EB41012A
:103D700087F828103846F8BD024B034ACB21034888
:103D8000FFF76CFB6C7A0010B08600108C79001085
:103D900070B506460D465288130A022B15D0032B28
:103DA0001AD0012B03D04FF0FF34204670BD1F4BBB
:103DB000196812240029F8D0002CF6DDAC422BD86B
:103DC0002246304602F09EFDEFE712F0FF0F2AD1A7
:103DD000164B19694C88EDE712F0FF0019D0134B10
:103DE000DB6843B19847024660B129463046FFF789
:103DF00021FF0446D9E70E4B0E4A40F2AD210E4892
:103E0000FFF72CFB0D4B0B4A40F2AF210A48FFF79E
:103E100025FB0B490424CDE70A4B064A40F2B621A4
:103E20000548FFF71BFB4FF0FF34BEE79812002058
:103E3000EC7A0010888400108C790010F87A001059
:103E4000CC8600100C7B00102DE9F04100F11C061F
:103E500090F8223053BB0446438B80F8213090F811
:103E60002F7037B390F82A806FB341462046FFF792
:103E7000A3FD038813F4004F1ED1258BB8F1000F6A
:103E800030D02046FFF7A6FD284400F1A04000F501
:103E90008010E06147BB41462046FFF78DFD038857
:103EA000DBB284F82030012384F822303046BDE8AC
:103EB000F08190F82B80D7E70C4B0D4A40F265114A
:103EC0000C48FFF7CBFA41462046FFF775FD038803
:103ED00013F4004FD1D1084B054A40F26711054851
:103EE000FFF7BCFA4046CFE70023DAE71C7B00105F
:103EF000E48500108C790010547B001070B590F8A8
:103F00002930002B58D004460E468368002B5AD027
:103F100090F82C30002B5DD1002380F82C3040F23B
:103F2000FE3399425DD841F4806390F82D2042B170
:103F300090F82A30002B5BD141F4A053002280F886
:103F40002D20628BB2425AD394F82F200AB143F449
:103F5000004394F82720002A58D04FF400551D4301
:103F600082F0010284F8272094F82A1009B145F460
:103F700000652046FFF720FDABB2038094F82F3098
:103F800023B11EB194F82230002B41D0002384F8D5
:103F9000223094F82930013B84F82930A2689368D4
:103FA000013B936094F82E302BB194F82A3083F0C3
:103FB000010384F82A3070BD194B1A4A4FF4BA71C4
:103FC0001948FFF74BFA194B164A40F2751116487B
:103FD000FFF744FA164B134A4FF4BB711248FFF730
:103FE0003DFA144B0F4A40F279110F48FFF736FAA9
:103FF000114B0C4A40F27D110B48FFF72FFA0F4B83
:10400000084A4FF4C1710848FFF728FA0025A6E7CF
:104010000B4B044A40F299110348FFF71FFA00BF07
:104020008C7B0010D08500108C790010546F00102C
:10403000A47B0010B47B0010C07B0010DC7B001060
:10404000F47B001008B543680BB9416008BD034B11
:10405000034A4FF40A710348FFF700FA187C001076
:10406000548500108C790010002303604360836046
:10407000C3600361016042600B7BC3608360704773
:1040800090F82F300BB1024870470248704700BFCC
:10409000347C0010307C001038B504460BE020461C
:1040A000FFF720FD94F82930AB4204D138BD618B75
:1040B0002046FFF723FFA368002BF7D09A68002A59
:1040C000F4D094F82950002DF0D094F82C20002A38
:1040D000ECD194F82F20002AE1D11B7C002BE6D0F4
:1040E0000748FFF727FB94F826502046FFF7C8FF44
:1040F000024694F8293029460248FFF71BFBD6E711
:10410000706E0010387C001010B58368B3B9044697
:1041100081600023C360C1B18B7CEBB901238B7438
:104120000B681A68FAB18A6822B3CA684AB35B6836
:1041300003B198472046FFF7AFFF10BD144B154A57
:1041400040F22D211448FFF789F9144B114A4FF41E
:104150000C711148FFF782F9114B0E4A40F23121E0
:104160000D48FFF77BF90F4B0A4A40F233210A480A
:10417000FFF774F90C4B074A40F235210648FFF768
:104180006DF90A4B034A40F236210348FFF766F9FE
:10419000787C0010408500108C790010606F001052
:1041A000907C0010A47C0010C07C0010E87C001003
:1041B00038B505460C4611461A462046FFF754FF0F
:1041C00021462846FFF7A0FF38BD000070B585687E
:1041D000C5B1044690F82C301BB9EB688BB92B7C29
:1041E0007BB9EB7CABB90123EB740023A36094F89B
:1041F0002C30ABB96B6873B3E2682ABB2946204602
:10420000984770BD174B184A40F2C5111748FFF781
:1042100025F9174B144A40F2C7111448FFF71EF94D
:104220006B686BB11348FFF785FA94F82660204657
:10423000FFF726FF02466B6831460F48FFF77AFA10
:104240000023EB60AB60DCE70C4B074A40F2D31174
:104250000648FFF703F9E1680029D2D02046FFF7AE
:1042600053FFCEE7606F0010888500108C79001036
:10427000107D0010706E0010287D0010647D00100D
:1042800070B582B00546FFF783FB036813F0042F77
:1042900023D095F82E301BB195F82930012B05D18C
:1042A00095F8273083F0010385F8273095F82830FA
:1042B00001249C401B4B5C66A3F580531C661A4B83
:1042C0001A4A526E224204D1013B02D0184A1466A7
:1042D000F6E7ABB1134B1C665C662846FFF758FB4C
:1042E000002404602846FFF76EFB85F8290085F856
:1042F0002B4085F82A40012385F82D3002B070BD8F
:104300000C48FFF717FA95F826602846FFF7B8FE25
:10431000024606490B6E496E009131460648FFF78A
:1043200009FAD7E700301150A086010000001150B3
:1043300000201150706E0010787D001038B5084DC7
:104340002846FFF79DFF074C2046FFF799FF012104
:104350002846FFF7E9FB01212046FFF7E5FB38BDC2
:1043600078150020A815002038B504460D4683684E
:104370001BB11B689B6803B198470023A3602046CC
:10438000FFF77EFF15B1002384F82730002384F85F
:10439000223094F82C3033B1002384F82C30236978
:1043A0000BB120469847064B5B7F1BB1616809B192
:1043B000A36803B138BD0A682046FFF7F9FEF9E7A4
:1043C000981200202DE9F04383B00A20FFF776F918
:1043D0004FF0010835E01F48FFF7ACF925E01E4813
:1043E000FFF7A8F924E0C4F309011C48FFF7A2F97C
:1043F0000135012D23DC1A4B53F828702946384625
:10440000FFF7DAFA03889CB2C3F3403697F8269098
:104410003846FFF735FE02460096234649461148C6
:10442000FFF788F914F4004FD5D114F4804FD6D19A
:1044300014F4805FD7D00C48FFF77CF9D3E708F17C
:104440000108B8F10F0F01DC0025D2E703B0BDE889
:10445000F08300BFBC7D0010C47D0010D47D00102F
:10446000BC120020A07D0010CC7D00102DE9F0478B
:1044700082B01F469DF828800B78092B11D1814608
:104480000C4616460B79BB4212D1C0B1002505601F
:1044900045608560C56005614561016042600772E5
:1044A00034E0374B374A40F25F413748FEF7D6FFDA
:1044B000364B344A4FF48C613348FEF7CFFF344B10
:1044C000304A40F261413048FEF7C8FF314B2D4A77
:1044D00040F269412C48FEF7C1FF2F4B294A40F2B8
:1044E0006A412948FEF7BAFF2C4B264A40F26C413C
:1044F0002548FEF7B3FF56F8253040229A84A2885B
:1045000056F80A309B8C9A422FD80135BD4233D2DF
:1045100005212046FFF7E0FA04460378062BD5D99B
:104520004378052BD9D1827802F00F0101F1FF3CCD
:104530005FFA8CFCBCF10E0FD6D84FEA850A83884F
:10454000CDF80080D20956F82500FFF7F7FB56F8A2
:1045500025301C60E37803F00303012BCBD156F820
:1045600025304FF480729A84C9E70D4B054A40F21A
:1045700077410548FEF772FF484602B0BDE8F08774
:10458000E47D0010548400108C790010207E00100F
:10459000A46E0010487E0010847E0010C07E0010C3
:1045A000F07E001070B582B01D460378122B23D127
:1045B0001446437C012B26D10B79AB422AD1444BC4
:1045C000186019615A611D76069ADA600026009615
:1045D0004023012231463F48FFF7B0FB00964023BD
:1045E000324631463C48FFF7A9FB402231463B4862
:1045F00002F0FEF9B4463CE0394B3A4A40F28241BF
:104600003948FEF72BFF394B364A40F28341364892
:10461000FEF724FF364B334A40F285413248FEF71D
:104620001DFF344B344A73213448FEF717FF002135
:104630004A1E0E2A14D8294A42F82130013054F873
:104640002C100B7A834212D94B6853F82030002B80
:10465000E7D019680029EAD0897801F00F01E7E76F
:10466000274B204A40F295411F48FEF7F7FE0CF118
:10467000010CAC4501D20020E1E70023AB420ED291
:1046800054F82320126892789A4201D10133F5E759
:104690001C4B144A40F29B411348FEF7DFFE0C4CC2
:1046A0004FF48075258400210A48FFF7E3FA25843A
:1046B00000210948FFF7DEFA4FF4C073238400227B
:1046C00011461148FFF788F9204602B070BD00BFBF
:1046D0009812002078150020A8150020BC12002098
:1046E000287F0010A08600108C790010607F0010D9
:1046F000807F00106C7A00108C860010707A001099
:10470000B07F0010D87F0010753C001083680B4408
:104710008360C3681944C160704708B50021FFF782
:1047200023FE08BD08B50121FFF71EFE08BD08B530
:10473000FFF7F8FF08BD08B50221FFF7F5F908BD3E
:1047400038B50F281FD828B33D4B53F8204034B359
:1047500094F82C3053BB94F82930013384F8293075
:10476000A56855B3EB68002B38D02B7C002B4AD0C2
:1047700094F82E30002B38D094F82B3093423BD055
:1047800001236B7438BD2F4B2F4A4FF4F1712F4822
:10479000FEF764FE09B12E4CD9E72E4CD7E72E4B1D
:1047A000294A4FF4F4712948FEF758FE2B4B264A4C
:1047B00040F2E9112548FEF751FE2948FEF7BAFFFD
:1047C00094F826502046FFF75BFC02462946254810
:1047D000FEF7B0FF2046FFF7AEFFD3E7224B1A4AA1
:1047E0004FF4F8711948FEF739FE204B164A40F293
:1047F000F3111648FEF732FE1D4B134A4FF4FA71BF
:104800001248FEF72BFE84F82B2094F82F300BB1C2
:10481000AB6813B12046FFF765F9EB7C002BB1D1F3
:10482000EB682BB1013BEB602046FFF7CFFCA9E71B
:104830000D4B054A4FF4FF710448FEF70FFE00BF11
:10484000BC1200200C800010708500108C790010C4
:1048500078150020A81500206C7A0010A47B0010A9
:10486000706E001030800010E87C0010588000103E
:104870006C80001038B5856895B304462B7CB3B3C3
:1048800000232B74FFF7A2FCEB7C43BB94F82F3082
:104890005BB194F822308BB394F820108AB2638B0A
:1048A0009A4232D82046FFF729FB002384F82230B1
:1048B0006B7C002B37D094F82E306BB300236B74D5
:1048C00094F82930013B84F8293094F82B2082F0A9
:1048D000010294F82F1094F82600FFF731FF38BD3D
:1048E000134B144A40F209211348FEF7B7FD134B4E
:1048F000104A40F20A211048FEF7B0FD104B0D4A55
:1049000040F211210C48FEF7A9FD0E4B094A40F276
:1049100012210948FEF7A2FD0B4B064A4FF406711F
:104920000548FEF79BFD2046FFF7B6FBD7E700BF23
:10493000606F0010AC8500108C7900109080001022
:10494000B0800010C08000105880001070B5114B6E
:104950009E6D0025012401E064000135B6B11F2DD4
:1049600014D82642F8D00B4BDB6D234214BF012232
:104970000022094B9C6515F0010F0CBF012100219D
:104980006808FFF7DDFE26EA0406E5E70EB1024BF4
:104990009E6570BD000011500030115038B50D4BB0
:1049A00002E0002243F8042B0B4A9342F9D1094C50
:1049B000092363670C23A36701252564FFF710F91A
:1049C000064BE364064BC4F8903029460E20FCF7F2
:1049D000C3F838BD000011508400115000000120C0
:1049E000F013010008B50246024B03490348FFF7E4
:1049F000DFFB08BD694B001084120020A8150020C1
:104A000008B590F82F3013B1FFF71EFA08BD034B1D
:104A1000034A4FF4A1610348FEF720FDE480001033
:104A2000348400108C79001010B5044690F82F30B3
:104A30002BB1FFF7E5FF0279638B9A4203D2204640
:104A4000FFF718FF10BD034B034A4FF48B71034867
:104A5000FEF704FDEC8000102C8600108C7900100D
:104A600008B50A48FFF7CCFF03793F2B06D8084B5F
:104A7000084A09490548FFF79BFB08BD074B084A50
:104A800040F2EE410748FEF7E9FC00BF7815002030
:104A9000114B0010D0860010541200202C81001001
:104AA000008600108C79001038B504290AD8054614
:104AB0000C460848FFF7A4FF03681D600471FFF768
:104AC000CFFF38BD044B054A40F2E5410448FEF7EC
:104AD000C5FC00BF781500206C81001050860010C6
:104AE0008C79001070B504460D46164690F82F30AC
:104AF00033B93346054A29462046FFF759FB70BDB6
:104B0000FFF77EFF00230371F3E700BFD08600109C
:104B100008B50D4B834208D10C4B99420CD10022B1
:104B20000B490C48FFF7DEFF08BD0B4B0B4A4FF457
:104B300018710B48FEF792FC0A4B084A40F26121BB
:104B40000748FEF78BFC00BF7815002054120020A8
:104B500084120020A8150020407A0010A4840010C0
:104B60008C7900107881001008B50D4B834208D174
:104B70000C4B99420CD100220B490C48FFF7B2FFB5
:104B800008BD0B4B0B4A40F267210B48FEF766FC51
:104B90000A4B084A4FF41A710748FEF75FFC00BF42
:104BA000A81500208412002054120020781500203F
:104BB0009C810010108500108C790010BC810010C1
:104BC00008B5024602490348FFF78CFF08BD00BF45
:104BD000541200207815002008B50020FFF7F0FFE0
:104BE00008BD000038B504460D46037813F0600F89
:104BF00008D18288120A05D113F0800F10D14378B2
:104C00000B2B21D01A48FEF795FD2968237862788E
:104C100089781848FEF78EFD2046FFF78FFB38BDD8
:104C2000437863B10A2BEDD14388002BEAD1C388C6
:104C3000012BE7D10121287DFFF736FFEFE70221A5
:104C40000020FFF731FFEAE70B691BB141882846D6
:104C5000984740B90648FEF76DFD6288A18806486E
:104C6000FEF768FDCEE763882B75FFF7B5FFD6E743
:104C7000706E001008820010E081001070B582B0E4
:104C800004460D46037813F0600F51D113F0800FE6
:104C900013D14378012B30D0032B3FD02F48FEF7A0
:104CA00049FD95F826602846FFF7EAF90246637841
:104CB00031462B48FEF73EFD4AE0437823B943884E
:104CC00013B9C388022B0ED02448FEF733FD95F8A4
:104CD00026602846FFF7D4F902466378314621481A
:104CE000FEF728FD34E091F82C000221012894BF42
:104CF00000200120FFF7D8FE2DE04388002BCDD106
:104D000091F82C30022B05D9002381F82730FFF7CA
:104D100063FF20E00846FFF705FDF8E74388002B16
:104D2000BCD102212846FEF7FFFEFFF755FF12E037
:104D30000A48FEF7FFFC95F826602846FFF7A0F921
:104D4000024623780093637831460748FEF7F2FC69
:104D50002046FFF7F3FA02B070BD00BF706E00107E
:104D60007482001048820010A482001070B582B0D6
:104D70000446037813F0600F6CD113F0800F09D153
:104D80004378033B062B5ED8DFE803F0515D585DA6
:104D90006F5D76004048FFF733FE054602684679AE
:104DA0006378062B16D0082B35D03BB13B48FEF775
:104DB000C1FC61783A48FEF7BDFC4BE0138002204D
:104DC000B0422DD2E3889842A8BF18462871FFF759
:104DD00047FE42E022464FF480713248FEF7D8FF8A
:104DE000B0F1FF3F02D10028EADADFE7E38898421A
:104DF000A8BF18462C4C2D4B019300904FF48073A4
:104E0000284A2B49204600F071FA23486062214667
:104E1000FFF77AF921E0274B5B7F13700120CFE782
:104E2000254B264A40F2ED212548FEF717FB254B7E
:104E3000224A40F2F5212248FEF710FB4388DAB2FD
:104E40005BB2002B0BDC1548FEF774FC61781E4842
:104E5000FEF770FC2046FFF771FA02B070BD154BEB
:104E60009A771A48FFF7ACFEF7E7164B134A40F261
:104E700002311348FEF7F2FA408810F0FF0504D023
:104E80002846FEF7E9FD0028DDD02846FEF7C2FDE2
:104E9000FFF7A2FEE1E700BF78150020706E00105A
:104EA000E4820010C413002054120020114B0010A3
:104EB000AC070020981200205C7A0010E4840010F7
:104EC0008C7900105C7400100C830010013C001001
:104ED00070B504462E4D2846FFF71FFC2D4E304678
:104EE000FFF71BFC012386F8273085F8273023784D
:104EF00003F01F03012B18D0022B30D04BB12648F2
:104F0000FEF718FC2548FEF7E8FB2046FFF716FAE7
:104F100070BD234B5B6823B1214621489847002888
:104F2000F6D12046FFF722FFF2E7A088C0B2FEF7D5
:104F3000A1FD054650B1C3681BB121469847002822
:104F4000E6D129462046FFF74DFEE1E71248FEF77D
:104F5000F1FBA28861781348FEF7ECFBCFE7A0884D
:104F6000FEF798FD054650B143691BB121469847AD
:104F70000028CDD129462046FFF780FEC8E7064825
:104F8000FEF7D8FBA28861880748FEF7D3FBB6E797
:104F900078150020A8150020706E0010988300106E
:104FA000981200203883001068830010F8B5294B50
:104FB000D3F8984014F480350BD114F0100F12D1AF
:104FC00014F4805F14D114F478761CD1A54237D143
:104FD000F8BD2148FFF77CFF204B4FF400321A65E3
:104FE0004FF48035E9E745F01005FFF7AFFCE7E740
:104FF00045F48055FEF7F4FD184B4FF400221A6576
:1050000000F06FFBDFE73543FFF7DCF91448FEF7EC
:1050100091FB104F3A6D31461248FEF78BFB3B6D0A
:10502000002B02DBFEF7DCFDD0E70D48FEF782FB2C
:105030000D48FEF752FB094B4FF000421A65C5E7D9
:105040000748FEF777FB85EA04010848FEF772FB84
:10505000BEE700BF0000115000001050003011509A
:10506000706E0010C8830010E8830010F8830010F1
:1050700008B590F82F3013B9FEF7E6FE08BD034BD4
:10508000034A40F20E510348FEF7E8F90C84001081
:10509000148400108C7900104269C369013B02EA54
:1050A0000300704770B5456A90F82C30002B32D061
:1050B0000446002380F82C30002D32D095F82F3094
:1050C000002B42D02846FFF79BFC064600282ED036
:1050D0004379402B31D12046FFF7DEFF636903F1AE
:1050E0004001A26991422ED9D21A3271216A01443B
:1050F000306801F007FC3279636913446361A36A85
:10510000002B36D01B68002B33D02046984728460A
:10511000FFF7B0FB70BD1A4B1A4A13211A48FEF76D
:105120009DF91A4B174A16211748FEF797F9184BA5
:10513000144A19211448FEF791F9164B114A1A2105
:105140001148FEF78BF94022CFE72846FFF790FF82
:10515000064640B10379002BCDD10F4B094A2521DA
:105160000948FEF77BF90A4B064A24210648FEF758
:1051700075F90A4B034A29210348FEF76FF900BF6E
:10518000E0860010008900100C8700106C7A001077
:105190005087001058870010708700108487001017
:1051A0002DE9F04182B0054684682046FFF774FF80
:1051B000064695F82F201AB340B1012384F82C300D
:1051C0002046FFF76FFF02B0BDE8F0816369E76931
:1051D000D919A269914200D9D71A95F82630022B25
:1051E00033D93948FEF7A6FAE369A2690192009320
:1051F00033463A4695F826103448FEF79BFA24E0E9
:105200002846FFF735FF054600282ED06369403356
:10521000A269934238D3E76907F1FF3812EA080818
:1052200029D117B92B79402B35D137B12A7917F00D
:105230003F0300D140239A4233D1002E37D0206A59
:105240002A792968304401F05DFB012384F82C3071
:10525000002FB5D0A36A002B2FD05B686BB321461B
:10526000384698470028ABD0ADE7194B194A492179
:105270001948FEF7F3F81448FEF75CFA4146174860
:10528000FEF758FA4746CCE706F14003E769BB4210
:10529000C7D20027C6E7124B0E4A57210E48FEF729
:1052A000DDF8104B0B4A5B210B48FEF7D7F8E2699B
:1052B0000021206A01F09CFBC1E70B4B054A6821E5
:1052C0000548FEF7CBF800BF706E0010BC870010D9
:1052D00050870010DC8800100C870010F487001045
:1052E000088800102C8800107C88001038B5049DB8
:1052F0008162026213F03F0F0FD10446C3610023A5
:1053000043618561059A0849FEF7AEFE05F13F014C
:1053100089092046FFF7FAF938BD044B044A782181
:105320000448FEF79BF800BF24890010AC880010E9
:10533000C08800100C8700107047002070470000E4
:1053400008B50146024A0348FBF730FB08BD00BF21
:1053500034890010DC150020D0F8683113B111F049
:10536000010F05D133B911F0040F05D000207047AB
:1053700000207047012070470120704708B5C979A7
:10538000FFF7EAFF08BD000070B504460D4616465B
:10539000FFF7F4FFD0B195F90530002B01DBB342E4
:1053A00017D104F12F4000F56000000D0A4B53F8AF
:1053B00020102A7901239340013B03FA06F20A42A6
:1053C00001D1002070BD6FF00800FBE76FF00A000C
:1053D000F8E76FF00A00F5E71C130020F8B5064661
:1053E0000D461746FFF7D0FF20BB034606E003EB50
:1053F000070C0CF1120C46F82C4001332979994224
:1054000007D92A6832F8134014F4604FEFD13C44B6
:10541000EDE7012303FA01F1013906F12F4606F504
:105420006006360DB940044A52F82630194342F856
:1054300026103846F8BD00BF1C13002010B50A79AD
:10544000202A19D800F12F4000F56000000D154BFF
:1054500053F8204001239340013B91F905100029A6
:1054600010DB0846C2F12002914218DC8B40234237
:1054700001D04FF0FF3010BD0B4B0C4A43210C48BC
:10548000FDF7ECFFC2F12000002805DB03FA00F273
:105490002242F0D00138F7E76FF00800EBE74FF059
:1054A000FF30E8E71C130020588900101C8A001008
:1054B0008489001008B500F12F4000F56000000D50
:1054C00002280AD0012806D0054A01EB80010548D0
:1054D000FBF76CFA08BD044AF7E7044AF5E700BF9A
:1054E000B889001098130020F8890010D4890010A2
:1054F000F8B505460E46FBF73DFA07463146284605
:10550000FFF79CFF041E04DA3846FBF745FA2046F5
:10551000F8BD224631462846FFF760FF0446F3E710
:10552000F0B501EB410300EBC303D3F8DC70D3F813
:10553000CC6001EB4103DB00C833034403F5405367
:105540004FF400345C604FF0000E202418E0A446B5
:10555000052C28BF4FF0050C4FEA4E1545EA8C6527
:1055600001EB410300EBC303C3F8DC5002F01F055D
:1055700045F46045C3F8D850A4EB0C04E644520946
:10558000002CE4D101EB410300EBC303C3F8DC7052
:10559000C3F8CC60F0BDF0B401EB410400EBC404EF
:1055A000D4F8DC70D4F8CC6001EB4104E400C834DA
:1055B000044404F540544FF40035656018E093FA54
:1055C000A3F4B4FA84F4650145F0806501EB410C65
:1055D00000EBCC0CCCF8DC5022FA04F404F001040B
:1055E00044F4604444F08004CCF8D8405C1E23406E
:1055F000002BE4D101EB410300EBC303C3F8DC70E3
:10560000C3F8CC60F0BC704730B589B086468C4694
:1056100014460268012101FA0CF122EA010202603B
:10562000002B38D01A4619680CEB4C0300EBC3036F
:10563000C3F8C8109168C3F8D0105168C3F8CC10F3
:10564000D268C3F8DC200CEB4C03DB00D03373448E
:1056500003F580534FF000421A601A604FF0013397
:1056600003FA0CF3CEF808300CF10402012303FA1C
:1056700002F20EF500510A600CF1080293400B6033
:1056800004F01F040CEB4C0C0EEBCC0CCCF8D84007
:10569000002009B030BD04AB0022049205920692AE
:1056A00007924FF4803204924FF4F83205924FF48F
:1056B000802206924FF4402206926D460FCB85E879
:1056C0000F000CEB4C030EEBC303C3F8C8004FF400
:1056D0004022C3F8D020C3F8CC100022C3F8DC204D
:1056E000B1E7704708B52D4B1B6833BB00212C4B2D
:1056F000186800F057FC294B186028B38368002B0A
:1057000030D0426813689988012932D1DB88022B96
:1057100036D19388042B3AD1204B5B7A9B0103F15D
:10572000A043DA6822F0300242F010021A610268E7
:10573000516882681960DA6108BD1A4B1A4A4FF441
:105740009D711A48FDF78AFE5B7A9B0103F1A04325
:10575000DA6822F030021A61154A1A604FF480723A
:10576000DA61E9E7134B104A40F24B110F48FDF79D
:1057700075FE114B0C4A40F24D110C48FDF76EFEC0
:105780000E4B094A4FF4A9710848FDF767FE0C4B10
:10579000054A40F253110548FDF760FE60150020F0
:1057A00088130020348A0010048D0010548A0010E1
:1057B000D8150020948A0010A88A0010E48A0010EE
:1057C0000C8B00102DE9F0478CB006460D46944630
:1057D0009946DDF850A004AB00270497059706977B
:1057E00007974FF4803204924FF4F83205924FF449
:1057F000802206924FF4402206926C460FCB84E83A
:105800000F000CF1070821F4FF3323F4C07343EABF
:10581000CC1343EA0833019327F0604242F0804200
:10582000039223F0C04301930DF1200E94E80F0082
:105830008EE80F0023F01F0409F01F031C430B9494
:1058400024F07C7444F480140B9424F4F8444FEA5C
:105850008A2303F4F8431C430B9422F0785323F477
:10586000202343F400330A9323F0C02343F0804302
:105870000A937346624629463046FFF7C5FE012269
:1058800002FA09F9032202FA0AF249EA020213466D
:1058900029463046FFF77FFE3A4629463046FFF755
:1058A0003FFE08F01F0305EB450506EBC505C5F8EF
:1058B000D8300CB0BDE8F08708B5006900F0C6F933
:1058C00008BD08B5406900F049FA08BD10B50446A6
:1058D0000520FCF719F9B0F1804F18D28300B3FB13
:1058E000F4F3B3F1807F18D20F490A7AD8B2C3F328
:1058F0000F231B0443EA002302EB4202D20002F111
:10590000A04202F50012C2F8C8304C6010BD074B2F
:10591000074A69210748FDF7A1FD074B044A6B219F
:105920000448FDF79BFD00BF601500202C8B001084
:10593000A08C0010548A0010508B001038B504461B
:105940000D4603695B681868054B5B68984204D193
:105950002946204600F0C0FB38BDFFF7B7FFF7E748
:105960006015002038B504460D4603695B68186869
:10597000054B5B68984204D12946204600F01CFC88
:1059800038BDFFF7A3FFF7E7601500202DE9F041D0
:1059900082B006460C4606212078FAF7ADFF0621B4
:1059A0006078FAF7A9FF607806210130FAF7A4FFC2
:1059B000E578DFF8F48088F80850304F29463846FB
:1059C000FFF778FD2E493846FFF792FD02466378CF
:1059D0000093237829463846FFF7F4FEBFF35F8F24
:1059E000A4782046FFF7ACFC88F80940102C36D884
:1059F000244B23F4F03343EA443323F00C0343F005
:105A0000080323F4F85323F0C07343F0010323F099
:105A1000007323F002033F2D28D823F4FC0343EA4C
:105A2000454323F00C0343F00803174A02EB8505B6
:105A3000A20102F1A0420021116055609160136142
:105A4000802212490A20FBF7C9F8012303FA04F463
:105A50000F4BC3F80444304602B0BDE8F0810D4B53
:105A60000D4A40F229110D48FDF7F8FC0C4B0D4A88
:105A700040F21B110948FDF7F1FC00BF0000205067
:105A8000208D001010007E0010002050D102002058
:105A900000200050648B0010E88C0010848B0010F4
:105AA000C88B0010D08C0010601500202DE9F0414B
:105AB0000446884615461E46069F2248FDF70DFE01
:105AC00063689B88012B20D11F4B01229A8062685A
:105AD00012681A600222DA801C480423838032464E
