:020000041000EA
:10000000002008205D0100101B0100101D010010E0
:100010001101001011010010110100101101001058
:100020001901001019010010190100101F01001022
:10003000110100101901001021010010230100100E
:100040001101001011010010110100101101001028
:100050001101001011010010110100101101001018
:1000600011010010110100105D130020110100109A
:10007000110100101101001011010010410B0020AE
:10008000ED110020110100101101001011010010EC
:1000900011010010110100101101001011010010D8
:1000A00011010010110100101101001011010010C8
:1000B00011010010110100101101001011010010B8
:1000C00011010010110100101101001011010010A8
:1000D0001101001011010010110100101101001098
:1000E0001101001011010010110100101101001088
:1000F0001101001011010010110100101101001078
:100100001101001011010010110100101101001067
:10011000EFF30580103800BE00BE00BE00BE00BE7A
:1001200000BE00BEF2EB88711C90001058900010C9
:10013000A001001090A31AE7D3DEFFFF42012110B7
:10014000FF01000008B20000793512AB4FF000004B
:100150001E49086006C881F3088810474FF05040D8
:10016000006810B14FF00000F2E70DA40ECC00299A
:1001700002D000F012F8F9E71549164A002000E015
:1001800001C19142FCD11449884714498847144958
:10019000884700BEFDE701C901C29A42FBD3704700
:1001A0005890001010010020F823002040B30010E8
:1001B000000008200000082040B3001000100820B4
:1001C00000100820000000007047000008ED00E06B
:1001D000F8230020183200202532001029020010D8
:1001E000E5310010F8B500BF10B5054C237833B9E0
:1001F000044B13B1044800E000BF0123237010BD7D
:100200008025002000000000B87C001008B5034BDA
:100210001BB10349034800E000BF08BD0000000017
:1002200084250020B87C001010B503F049F90F4C6C
:1002300001220021204600F039F90D4800F024F990
:10024000204607F0BDFC0B4803F06AF906F050FDAC
:10025000002003F03DF92028F8D1074B197881F0F0
:1002600001011970054803F089F9EFE7EC3100202E
:1002700055030010B87C00100F320020E47C001001
:1002800010B504460388C3EBC3032C484289B3FB73
:10029000F2F30133C3F3800CCCEB4C11C3F34002F7
:1002A000C2EB42124FEA821C4CEAC12C03F001035C
:1002B000C3EB43134CEA030CB0F808E04FEA5E1EB0
:1002C00061681F4B1B781BB14FF6DF70002211E0F5
:1002D0000020FBE703230B80930143EAC22313436F
:1002E00003EA0C039BB243404B80AEF103038B80C7
:1002F000013206311F2AEDD911F0030F12D10B2361
:100300000B8000224A808A8001F10803CA8062685B
:100310009B1AC3F38F0323816289934208D201237E
:10032000237410BD074B084A4C21084802F05EFFB9
:10033000074B054A5621054802F058FFE48F00108C
:100340000F320020F47C0010747D00100C7D001032
:100350004C7D001010B5094806F07EFC012006F027
:100360007FFC074807F004FC012007F049FC044625
:10037000FFF786FF204607F01BFCF5E7E48F00102F
:10038000EC31002003BD10B5044601F0BBFBA047D3
:1003900010BD4FF050431B6D13F0020FF9D04FF01A
:1003A0005043586540BF704700E020BF4FF05043B6
:1003B0001B6D13F0010FF8D04FF05043986D70474C
:1003C0002DE9F04186B004460F469046192000F012
:1003D000B5FD06460021192000F0DCFD0025009542
:1003E000019501230293CDF80C800497059400E059
:1003F000002506AB03EB850353F8184C9CB120464F
:10040000FFF7C7FFFFF7D0FF8442F1D10135052D7B
:10041000EFD93146192000F0BDFD06B0BDE8F081EE
:100420004FF050439B6D4FF050431B6D13F0010F85
:10043000F6D140BFE3E7000008B512F0030F11D179
:1004400022F003028B180A4A926843F80C0C43F816
:10045000081C084943F8041CA3F10C010648FFF7E7
:10046000AFFF08BD054B064A8E21064802F0BEFECE
:1004700000ED00E08703001085030010E87D001008
:10048000047E0010AC7D001008B5064A064B9A4267
:1004900005D819464FF40062FFF7CEFF08BD4FF0B4
:1004A000FF31F7E7000008200008082070B5044677
:1004B0000E46154600F094FC0146204600F006F872
:1004C000A680E580BFF35F8F70BD0000014B0B4439
:1004D000036070479427002010B5044600F080FCAC
:1004E00001462046FFF7F2FFFF232371BFF35F8F22
:1004F00010BD10B5044600F073FC01462046FFF71E
:10050000E5FFFF23237100236371BFF35F8F10BDED
:1005100010B50D4C09E00D4B0D4A1A210D4802F0A3
:1005200065FE2046FFF7D8FF08340B4B9C4209D2EA
:100530002368002BF5D0012BEDD12046FFF7D9FF22
:100540000834F2E710BD00BFE8230020287E001029
:10055000F07E0010487E0010F8230020024B0B4470
:100560000360BFF35F8F70479427002010B50446E7
:10057000012000F043FC01462046FFF7EFFF10BDCD
:1005800041EA0040704700000D4B1A68EFF31081FC
:1005900072B6D2E8CFCF0120BCF1000FF9D1C2E88A
:1005A0004C0FBCF1000FF4D1BFF35F8F1A6800232A
:1005B000C2E88F3F81F3108840BF002000217047C0
:1005C000803100202DE9F04F85B0EFF30587FFB2B1
:1005D000103FBB0815D0964D07F00307944B9D4282
:1005E00014BF0023012307EB8303924A52F82340F0
:1005F0002378BB4207D10122BA4005F541535A6026
:1006000031E18D4DE8E78D4B8D4A92218D4802F006
:10061000EDFDD4F814A006EB46084FEAC80B0AEB30
:10062000C808D8F808300193D8F80C90284600F094
:1006300027FB019BC01A61EB0903002BC0F21B8151
:10064000B9F1000F65DBD8F810301A4602937E4BE3
:100650009A4232D0B8F8021089B2B4F90800FFF714
:100660008FFFD8F81410029B984702900391029ACA
:10067000039B52EA03014CD0002B2BDA0199881A14
:1006800069EB0309C8F80800C8F80C903AF90B3078
:10069000002BC0F2F080D4F8148003EB430208EB87
:1006A000C2029168D268411A69EB0202002AC0F2C4
:1006B000E280A6462EF8083F16E0D8F81420136909
:1006C00002921046984720B3029A13680293536827
:1006D0000393CCE7284600F0D3FA029B1818039B3B
:1006E00043EB0109CEE79E46BEF900C0BCF1000F06
:1006F0000ADB0CEB4C0308EBC3039968DA68411A78
:1007000069EB0202002AEEDA2AF80BC0AEF80060AC
:10071000B1E03AF90B3023812369EFF3108272B60E
:10072000D3E8CF0F01210028FAD1C3E8401F0028E9
:10073000F6D1BFF35F8FB4F902302AF80B30668030
:1007400021690023C1E88F3F82F3108893E0236979
:10075000EFF3108272B6D3E8CF0F01210028FAD14F
:10076000C3E8401F0028F6D1BFF35F8FB4F80490B0
:100770000FFA89F94FF6FF73A38021690023C1E8BE
:100780008F3F82F3108816E01E46B6F90020002A3B
:100790000BDB02EB42030EEBC3039868D968BCEB9A
:1007A000000068EB01010029EEDAA6F800903EF99E
:1007B0000A902EF80A20B9F1000F61DBD4F814E09A
:1007C00009EB49034FEAC30A0EEBC303D3F808C091
:1007D000D3F80C8004F10806D7E70023A37104F1D5
:1007E000080EB4F9083011E04FF0FF384FF0FF3930
:1007F000C0E90289B4F90800984206D0AEF800209A
:10080000B4F9080021F80C0023811346B3F1FF3F2F
:1008100039D0616903EB43024FEAC20C01EBC2001D
:1008200031F93220468816F4004FDDD18646ECE7D8
:1008300000800B405430002000000B40047F00106B
:100840009C7F0010307F0010C50500103B1D45F84F
:100850002360284600F014FA361A68EB0101012ED5
:1008600071F100032FDA0123BB40EB63B4F9086098
:10087000002EBFF6CEAEA38813F4004F3FF467AF4F
:10088000A379002BA9D1B4F90830002B1BDB6269D6
:1008900003EB430302EBC3039E68D3F80C80B8F16B
:1008A000FF3F08BFB6F1FF3FD3D0AA6AB11A3B1D84
:1008B00055F823309B1A9942C8D32A6A0123BB40BA
:1008C0001A42C6D1C2E740BF05B0BDE8F08F00BFF5
:1008D0002DE9F0410446884617461E46C16000F0E7
:1008E0007FFA204B034423612770B3B263814FF03A
:1008F0005042127862704FF6FF722281A280013B53
:1009000063804FF0000C08E00CF1FF3560690CEBE0
:100910004C0E20F83E500CF1010CB445F4D3124BB0
:1009200098450CBF0123002307EB83030F4A42F8CD
:10093000234014D000243C44012505FA07F7C8F8E9
:1009400020700B49204600F04FFB2946204600F05E
:1009500021FB08F50158C8F80070BDE8F0810424B7
:10096000E9E700BF9427002000800B4054300020AE
:10097000C505001008B5054B1B690BB1034808BD40
:10098000034B044A6521044802F030FCE81A0020B9
:10099000607F0010847F0010307F0010F8B504469F
:1009A0009E460169EFF3108C72B6D1E8CF5F01204B
:1009B000002DFAD1C1E8450F002DF6D1BFF35F8FAE
:1009C000B4F90250666905EB4500C70006EBC000AC
:1009D000002D01DBF15F618000212369C3E88F1FD7
:1009E0008CF310888D4233DB0699016107994161D0
:1009F0008260C0F80CE0418889B20131C1F30E0178
:100A000001B9012141802846FFF7BAFD2369EFF3C0
:100A1000108272B6D3E8CFCF0121BCF1000FF9D11B
:100A2000C3E84C1FBCF1000FF4D1BFF35F8FA38864
:100A3000F353A58021690023C1E88F3F82F310881A
:100A4000E368217801228A4003F501535A60F8BD1A
:100A50004FF0FF30FBE770B582B0064615461C46E6
:100A60009DF8203033B900F035F9854264EB01017F
:100A700000290ADB079B0193069B00932A46234625
:100A80003046FFF78BFF02B070BD0020FBE7034646
:100A90004089B0EB214F31DD10B50A14586902EBE3
:100AA000420200EBC2021869EFF3108C72B6D0E874
:100AB000CF4F5FF0010E002CF9D1C0E844EF002CBD
:100AC000F5D1BFF35F8F508880B289B288420FD0D2
:100AD000002019690022C1E88F2F8CF3108830B1F3
:100AE000DA681B780121994002F50153596010BD65
:100AF00040F40040508001209871EAE700207047E0
:100B000040787047F0B585B005460C46EFF3058395
:100B1000DBB293B1404B5B6A8B4209D33E4A926A87
:100B2000824208D28B4201D0012002E0002000E086
:100B3000002005B0F0BD0120FBE7FFF71BFFC768F1
:100B40000678384600F09CF82A1A64EB0101043656
:100B500057F82630181A824271F1000312DB20BFC9
:100B60002D4B5B6A9C4209D82B4A926AAA4207D253
:100B70009C4201D00120DCE70020DAE70020D8E722
:100B80000120D6E7FFF7F6FE002302930193234BE3
:100B900000932A462346FFF75EFF061E0BDD1E4B21
:100BA0005B6A9C421BD81C4A926AAA422BD29C4286
:100BB00013D0012314E0184B5B6A9C4209D8164AF3
:100BC000926AAA4207D29C4201D00120B1E70020DC
:100BD000AFE70020ADE70120ABE7002300E00023F2
:100BE00003B920BFFFF7C6FE3146FFF750FF0A4B9F
:100BF0005B6A9C420BD8084A926AAA4209D29C427C
:100C000003D0012095E70123EAE7002091E70020C7
:100C10008FE701208DE700BF00000B408905001021
:100C20000048704700000B4010B50A4B1B6923B108
:100C30000A210948FFF74AFC10BDFFF7F1FF0446FF
:100C4000032100F00BF81023032221460148FFF78F
:100C50003FFEEDE7E81A00208031002010B5054A7C
:100C6000054C064BA04214BF1846581C00F078F8FB
:100C700010BD00BFB47F001000800B40C42B0020CB
:100C80000246436A906A1946536A9942FAD17047FC
:100C9000416A00E0416A9942FCD300E0416A99420E
:100CA00002D1816A9142F9D3704770B50646144665
:100CB0001D46FFF7E5FF021941EB0503824273EB86
:100CC000010102D24FF0FF3213463046FFF7E0FF3A
:100CD00070BD000008B50248FFF7D2FF08BD00BF95
:100CE00000000B4008B502460B460248FFF7DDFF47
:100CF00008BD00BF00000B400FB400B583B0049CDA
:100D0000074802F00DFC3CB105A90191204602F014
:100D100017FC044802F004FC012002F047FA00BF6F
:100D2000D87F0010F07C0010EFF3108072B6064BF5
:100D3000D3E8CF1F01220029FAD1C3E8412F0029AF
:100D4000F6D1BFF35F8F70479F2700200023034A2F
:100D5000C2E88F3F80F31088704700BF9F270020B4
:100D600070B505460C461646FFF7DEFFE208A95CA3
:100D700004F0070C012303FA0CF3194205D1DBB28E
:100D80000B43AB54FFF7E2FF70BD21463046FFF73F
:100D9000B3FFF8B506460D4614461F46FFF7C4FFDD
:100DA00000E00134BC420ED8E20806EBD40CB35C80
:100DB00004F0070101228A401342F2D1D2B21A4351
:100DC0008CF8002001E04FF0FF34FFF7BFFF002C4C
:100DD00001DB2046F8BD002DFBD00698FFF78CFF05
:100DE000054A1078431CDBB21370172B02D9134647
:100DF00010221A70704700BF001B002000B583B09E
:100E00000146054B00931F2318220448FFF7C1FF3A
:100E100003B05DF804FB00BFE87F0010C82B002082
:100E20004FF0E022936843F0005393607047000056
:100E3000002305E0044A1A440021C2E88F1F013351
:100E40001F2BF7D9704700BF9427002008B51F2833
:100E500005D8064B18440023C0E88F3F08BD044B5B
:100E6000044A0F21044802F0C1F900BF9427002072
:100E7000048000106C80001020800010064B9B68DE
:100E8000103043F82010BFF35F8F00230349C1E8FF
:100E90008F3F82F31088704700ED00E09D2700200F
:100EA0000048704700E400E008B5FFF7F9FF0023B1
:100EB00004E04FF0803240F8042B01330C2BF8D9BA
:100EC00062B608BD08B5091A081F01F2FC7140F6A8
:100ED000FE73994207D810F0010F04D1C0F34A0005
:100EE00040F4604008BD034B034A4FF48771034848
:100EF00002F07CF97C800010E8820010AC800010C9
:100F000008B5091A04394B08090B0AD1C1F30A01C3
:100F100041F4704101806FEA43536FEA53534380B9
:100F200008BD034B034A4FF48B71034802F05EF98E
:100F3000E0800010C4820010AC8000104209064B13
:100F400053F8222000F01F00012303FA00F00242B0
:100F500014BF18460020704700E100E021B1044BA7
:100F6000C3F8800118607047014BC3F880007047D8
:100F700000E100E03AB1064B00F1600243F82210B4
:100F800043F8201070472030014B43F82010704781
:100F900000E100E008B50A4600F01F030121994076
:100FA0004009FFF7E7FF08BD00F01F0240090123D9
:100FB00093404030014A42F82030704700E100E0A1
:100FC000024B9B68103053F82000704700ED00E0A2
:100FD00008B5FFF7F5FF034BC01A2F288CBF002080
:100FE000012008BD041B002070B505460C46EFF338
:100FF000108672B60F4BD3E8CF1F01220029FAD119
:10100000C3E8412F0029F6D1BFF35F8FFFF7D8FF68
:10101000094B984201D0A04205D1324621462846CC
:10102000FFF72CFF70BD054B054AED21054802F086
:10103000DDF800BF9D27002011010010F080001096
:101040001C830010AC8000102DE9F04F87B0009198
:101050001546EFF3108A72B6864BD3E8CF1F0122F4
:101060000029FAD1C3E8412F0029F6D1BFF35F8FE1
:10107000814B93F90040002C44DB804604EB44078D
:101080007E4B03EB870797F906107B4A11707C4A69
:10109000926800F1100152F82190A9EB03022F2A67
:1010A0003ED9784B994534D14FF42143ADF80C30FB
:1010B0004FEA440904EB4400704E06EB800072498D
:1010C0000230FFF7FFFEADF80E004BF60153ADF80E
:1010D0001030FF238DF812308DF81350009B0593CC
:1010E0004C4406EB840406AB13E9070084E80700D0
:1010F00047F00109524649464046FFF7BFFE07B098
:10110000BDE8F08F614B624A4FF4BE71614802F056
:101110006DF8614B5E4A40F283115E4802F066F85A
:1011200029F0010BABEB03035C4AA2FB0312D208CC
:1011300002EB4202B3EB820F0FD15B460026DA7955
:10114000AA4212D993F90620002A0DDB02EB4202D3
:101150001E464A4B03EB8203F1E7514B4C4A4FF4D6
:10116000CA714C4802F042F81E46002E48D044F6A0
:101170000103ADF80C304FF48F43ADF80E3096F903
:1011800006B0BBF1000F1ADA4BF60150ADF81000B3
:101190008DF812B08DF81350009B05933946301D21
:1011A000FFF790FEB080B47104EB4404334B03EBC3
:1011B000840406AB13E9070084E807009AE704EB10
:1011C00044002E4B03EB80000430311DB388DA0A53
:1011D0001C2A08D15B050DD45B15023301EB4301DA
:1011E000FFF770FED2E72F4B2F4A4FF48E7129483C
:1011F00001F0FCFF03F5FF1303F5FF531F33EBE78B
:101200004FF42143ADF80C306300019304EB440626
:10121000DFF8689009EB86061B49B01CFFF752FE09
:10122000ADF80E005946301DFFF74CFEADF810002A
:101230004AF6AA235A464946521A524153431B0DB5
:101240008DF812308DF81350009A0592019B1C44C2
:1012500009EB840906AB13E9070089E8070044F6A7
:101260000103ABF800304FF48F43ABF8023047F086
:1012700001093FE79D27002010320020041B0020B9
:1012800000ED00E011010010341B00202881001047
:1012900004830010AC80001050810010ABAAAAAAF1
:1012A00078810010FC810010F48200102DE9F047D5
:1012B00006460D46EFF3108872B65B4BD3E8CF1F9E
:1012C00001220029FAD1C3E8412F0029F6D1BFF34A
:1012D0005F8F564B9B6800F1100A53F82A70544BED
:1012E0009F4207D0AF4200F09D803C46514BFB1A15
:1012F0002F2B06D9424639463046FFF7BFFDBDE8E1
:10130000F087FFF71BFE814600213046FFF742FEC3
:10131000BFF35F8FEFF30580C0B208B1824510D1F3
:1013200024F001040021A268954212D094F90630FD
:10133000002B0DDB03EB430321463E4C04EB8304FF
:10134000F1E73D4B3D4A40F202213D4801F04EFF9E
:10135000214695425FD194F90650002D41DB05EB03
:101360004503344A02EB83039A68A260DA79E2719A
:1013700093F90620A27193F90630002B10DA4BF690
:101380000150A08005EB45022A4B03EB82032D4A56
:1013900011789971157049463046FFF7FBFDA9E7B2
:1013A000201D05EB4503234A02EB8303191D9B888F
:1013B000DA0A1C2A08D15B050DD45B15023301EB58
:1013C0004301FFF77FFDDCE71F4B204A4FF48E718E
:1013D0001B4801F00BFF03F5FF1303F5FF531F3309
:1013E000EBE798B981B1FF238B714BF601538B80EA
:1013F000144A1378A3714AF6AA230E49641A644169
:1014000063431B0D1370C6E7094FF1E71049201D18
:10141000FFF776FDBFE70F4B084A4FF411710848FC
:1014200001F0E4FE024F65E79D27002000ED00E09B
:1014300011010010041B002014820010D48200103F
:10144000AC80001010320020FC810010F4820010EB
:101450003E1B00204882001038B504460D46FFF7B9
:101460001FFDA10850F8213004F00304E400FF221E
:10147000A24023EA020305FA04F41C4340F8214089
:1014800038BD000038B540F0010E344BAEEB03031D
:101490002F2B31D8EFF30581C9B2002933D0EFF3F8
:1014A000108472B62E4BD3E8CF5F0122002DFAD103
:1014B000C3E8452F002DF6D1BFF35F8F4AF6AA236C
:1014C0000246264D521B524153431B0D4FFA83FCDB
:1014D000244B9B6853F8213073451BD00023032B0A
:1014E00034D803EB43021D4901EB820292F9062036
:1014F000624520D00133F2E71B4B1C4A40F27F21AA
:101500001B4801F073FE1B4B184A40F28221184819
:1015100001F06CFE134B9B68174A43F82120174BD0
:101520001A78827183F800C000230D4AC2E88F3F09
:1015300084F3108838BD0A4603EB430102EB8101B6
:10154000FF258D714BF601528A80E8E70C4B074A64
:1015500040F29321064801F049FE00BF041B002021
:101560009D27002000ED00E050820010A8820010AE
:10157000AC800010788200101101001010320020A1
:101580008482001000B583B00146074B0093052309
:1015900000220648FFF7FDFB002801DBC0F1330005
:1015A00003B05DF804FB00BF8C82001014320020F1
:1015B0000C4B03EB800253F8203083F0400303F020
:1015C000C00302F5805CCCF80030C00000F1804020
:1015D00000F52030416002F540524FF480731360F3
:1015E000704700BF0480034038B5046B14F0010F4E
:1015F00001D1204638BD00F5405340F201321A6354
:10160000436A856A05EB8315AD02062000F0F8F801
:10161000044BA3FB0030C00AB5FBF0F00021FFF73C
:1016200061FBE6E7757B2B8F70B505460C461646C9
:10163000FFF7DAFFE96A4C40344005F58153DC607E
:10164000286370BD70B505460C46062000F0D8F83A
:10165000C300B3FBF4F10131CC0907D04FF6FE73A0
:101660009C4214D82646C1F3450400E001266E6270
:10167000AC62002211462846FFF7D6FF062000F094
:10168000BFF8800004EB8614B0FBF4F070BD0024BA
:101690004FF6FF76EBE7000049B10A22054B98426E
:1016A00014BF00200120044B23F8102070474FF492
:1016B0008072F3E700800740C831002038B5044647
:1016C0000D46062000F09CF848B3174B9C4227D0EB
:1016D0001A2201239340154A1360134B9C4221D0D8
:1016E0001A2301229A40124B1A60124B9B6832EA6D
:1016F0000303FAD100212046FFF7CEFF29462046FA
:10170000FFF7A0FFE36A83F0700303F07E0304F5A4
:101710008152D36040F2013323630323A36438BDB5
:101720001B22D6E71B23DCE7008007400020024095
:10173000003002400000024070B5049D00EB400CF8
:101740004FEA8C0C0CF1804C0CF5803CDCF804402A
:10175000AC4201D2CCF80450A0F1040E5FFA8EFE28
:10176000BEF1010F27D90CF540544FF400662660F6
:101770001D4C54F820603EB16469B4FBF6F40134AA
:1017800004EB4404033CFDD2DCF8004084EA42123E
:1017900002F0E0020CF580542260BEF1010F16D970
:1017A0000CF500524FF400611160CCF804500E4A61
:1017B00042F8203070BD0129D5D10CF540540326E4
:1017C0002660DCF8084014F0010FFAD0DCE7DCF802
:1017D00000204A4002F003022260DCF808400122A7
:1017E0008A401442F9D0DBE7D02B002010B582B03C
:1017F0004FF480340094FFF79FFF02B010BD00004B
:10180000014B53F820007047D02B002070B5049C8A
:10181000344DB5FBF1FC344D1544344EB54237D848
:10182000B2FBFCF5A5F1100EBEF5987F36D803F19A
:10183000FF3EBEF1060F37D804F1FF3EBEF1060FA2
:1018400032D8BCEB121F35D8240344EA03440368A2
:10185000002B35DB264B984242D00E2301229A40C2
:10186000244B1A6003F580531A60234B9B6832EABD
:101870000303FAD10160856000F540520432212350
:1018800013600368002BFCDAC4600823136070BD8A
:101890001A4B1B4A11211B4801F0A8FC1A4B184A8D
:1018A0001921184801F0A2FC184B154A1C211548B3
:1018B00001F09CFC164B124A2321124801F096FCC1
:1018C000036803F03F038B42C4D18368C3F30B0367
:1018D000AB42BFD1C36803F4EE23A342BAD1D6E72B
:1018E0000F23BBE7001BB70080E84BD380F8A93279
:1018F00000800540002002400000024038830010B4
:101900004084001088830010BC830010D88300102E
:1019100024840010024B1A68024B5A60704700BFC3
:101920004430002000800D4008B5164B4FF0804237
:101930001A60A3F54123144A9A6051B103F540237C
:101940004FF0E0621A6048B9104B4FF000421A6045
:1019500008BD0C4B4FF0E0621A60F4E74FF47A7365
:1019600003FB00F00A4B1860B0F1807F02D36FF0E8
:101970007F421A60FFF7CEFF044B4FF080421A609F
:10198000E6E700BF00B00D40F3FFFF0100A00D40EF
:101990004430002010B50C4B4FF080441C6070B1F7
:1019A00040F0010309480A4CC4610A4C5C400462DF
:1019B0004162836200211046FFF7B6FF10BD034B62
:1019C0000021D961F6E700BF00B00D4000800D4056
:1019D000D3C007B02D3FF84F054A00EB400302EBA0
:1019E0008303596000EB40008000012313507047CF
:1019F000008010402DE9F04105460E4617469846F6
:101A00000023DB8A002242E800F212F4800F0BD19F
:101A1000102144F252209847044643463A46314644
:101A20002846A047BDE8F081042144F2522098479F
:101A30000446F2E708B50023DB8A002242E800F200
:101A400012F4800F02D11021984708BD0421984755
:101A5000FBE708B5031E06DB41F0200012B141F0A0
:101A6000300100E001460A460A214FF48170FFF779
:101A7000C1FF0000034BD3F82838002BFAD0BFF386
:101A80005F8F704700000E40002207E0054B1344B3
:101A90009B00BFF35F8F002119600132072AF5D93F
:101AA000704700BF0382031008B5FFF7EDFF08BDC4
:101AB000074B4FF42A621A604FF48D72DA6003F517
:101AC0000053044A1A60024B5B68002BFBDA704734
:101AD0000080044000B0FA0010B5044602E054F85B
:101AE000043B9847014B9C42F9D310BDB07C0010D9
:101AF0007047000008B50248FFF7EEFF08BD00BFC1
:101B0000707C001008B50248FFF7E6FF08BD00BF73
:101B10009C7C0010064B074A1A6003F58053064A66
:101B20001A60064B9A68044B9343FAD1704700BF82
:101B3000002002407F3BEFEFF6FFF303000002407E
:101B4000054BDB6CB3F5004F00D07047034B4FF4EF
:101B50008022DA64F9E700BF000011500020115024
:101B60004FF0E022D2F8881D034B0B43C2F8883DAA
:101B700010EE3004704700BF03033000054B6FF0D8
:101B800060421A60044B9B68DB4333F06043F9D139
:101B9000704700BF003002400000024008B545F227
:101BA0005320FFF747FF03460420984708BD08B5B8
:101BB00045F25320FFF73EFF03460120984708BD3A
:101BC00008B5FFF735F908BD10B50C490C4A521A93
:101BD00092101446442A28BF44229200094805F076
:101BE00057FD04E0084A074B43F824200134432CF6
:101BF000F8D9044A054B9A6010BD00BF00000010E0
:101C000010010010000000201101001000ED00E0A4
:101C100038B50420FFF7F4FD064DA5FB0035AD0CEB
:101C2000002404E02946E0B2FFF7D6FE0134052C7B
:101C3000F8DD38BD83DE1B4330B583B0264B002270
:101C4000C3F88420FFF734FF244B0122DA63224BD0
:101C50005B6C012BFBD1214B03221A631E4B9B6B48
:101C6000012BFBD10224009405231D4A01211D48AC
:101C7000FFF7CCFD052500952B461B4A01211B488B
:101C8000FFF7C4FD1A4B002221460420FFF7AEFDEA
:101C9000184C2346002201212846FFF7A7FD164DC8
:101CA0002B46002211460820FFF7A0FD2B460022FC
:101CB00011460920FFF79AFD23460022114606200F
:101CC000FFF794FD2346002211460720FFF78EFD03
:101CD000FFF79EFF03B030BD00000140003001401F
:101CE000002F685900000540008C864700800540A1
:101CF000001BB70080D1F008006CDC0286B003B492
:101D000051FC0804CDE9020151FC0904CDE90401AC
:101D100051EC0A04CDE9060103BCF047BDE80050D0
:101D20004EEC00C4BDE800504EEC01C4BDE80050CC
:101D30004EEC02C400BD000000B5FFF7DFFF02E07B
:101D400010FE30F4F8D441EC100443EC112400EE02
:101D5000010410EE010480EE200451EC10047047E1
:101D600000B5FFF7CBFF02E010FE30F4F8D441ECF1
:101D7000100443EC112400EE010410EE210480EE67
:101D8000200451EC3004704700B5FFF7B7FF02E0C4
:101D900010FE30F4F8D410B541EC100443EC1124DB
:101DA00051EC040453EC0524A0FB024C5FF0000E40
:101DB000E0FB03CEE1FB02CE4CEC20440024E1FB2F
:101DC00003E444EC30E480EE200451EC5004BDE820
:101DD0001040704700B5FFF791FF02E010FE30F4AD
:101DE000F8D441EC100443EC112451EC2104A0FB85
:101DF00001126FEA820252FB100052FB12F252FBF8
:101E00001000A0EBD07C53EC04245CFB13F153ECEA
:101E10001524A1FB022001FB030053EC4424A2EB98
:101E2000000050FB1CF24FEA111312EB017043EB60
:101E3000E27140EA515020EA915020F0070053EC43
:101E40007524A0FB023C53EC752400FB03CC01FB82
:101E500002CC53EC0424ACEB824C40EA5C70A0F161
:101E6000010041EC400480EE200451EC7004704706
:101E700000B5FFF743FF02E010FE30F4F8D440EC69
:101E8000700400EE010410EE210480EE200451ECF9
:101E90003004704700B5FFF731FF02E010FE30F468
:101EA000F8D440EC600400EE010410EE210480EE52
:101EB000200451EC3004704700B5FFF71FFF02E02B
:101EC00010FE30F4F8D441EC800400EE010410EE72
:101ED000010480EE400410EE1304704700B5FFF7D4
:101EE0000DFF02E010FE30F4F8D441EC800400EE67
:101EF000010410EE010480EE400410EE330470473C
:101F000000B5FFF7FBFE02E010FE30F4F8D441EC20
:101F1000100443EC112400EE010410EE3004C0F371
:101F20000070704700B5FFF7E9FE02E010FE30F4E4
:101F3000F8D443EC102441EC110400EE010410EE3F
:101F400030F48CBF01200020704700BF00B5FFF7C0
:101F5000D5FE02E010FE30F4F8D443EC102441EC3E
:101F6000110400EE010410EE30F42CBF012000201B
:101F7000704700BF00B5FFF7C1FE02E010FE30F46D
:101F8000F8D441EC100443EC112400EE010410EEEF
:101F900030F42CBF01200020704700BF00B5FFF7D0
:101FA000ADFE02E010FE30F4F8D441EC100443EC36
:101FB000112400EE010410EE30F48CBF012000204B
:101FC000704700BFF8B504460E460C4F384605F082
:101FD00047FE3146204605F05DF80546384605F0D7
:101FE000DFFD06FB04F42DB12C44054B9C4201D8C7
:101FF0002846F8BD0348FEF77FFE00BFE823002017
:10200000000008204C840010704720B108B50A6811
:102010004968904708BD70470146002007E000EB83
:102020008000531C0B60137803EB400030380A68C3
:102030001378303BDBB2092BF1D970472DE9F04F13
:1020400083B005460E4693461F46DDF830A00D9C32
:10205000DDF838900F9B13F0030F19D1A0460192C1
:10206000C84509D202F1010B3B4631462020A84762
:1020700008F101085A46F3E7DDF804B008E0013C36
:1020800002F101083B4631461AF80400A8474246CF
:10209000002CF4D10F9B13F0020F03D1104603B0B4
:1020A000BDE8F08FA2EB0B034B45F7D2541C3B4627
:1020B00031462020A8472246F4E72DE9F04385B0B9
:1020C0000C9D0D9C9DF83890DDF83C80DDF840E0DB
:1020D000119F129E16F0020F21D17FB116F0010F51
:1020E0000CD0B9F1000F02D116F00C0F06D0013F51
:1020F00004E04FF0300C05F804C00134744501D2FF
:102100001F2CF6D916F0010F09D0BC4207D21F2CA4
:1021100005D84FF0300C05F804C00134F2E716F092
:10212000100F17D016F4806F04D11CB1744524D061
:10213000BC4222D0B8F1100F2BD0B8F1100F33D021
:10214000B8F1020F3BD01F2C04D84FF0300C05F82B
:1021500004C001341F2C07D8B9F1000F37D04FF05D
:102160002D0C05F804C001340396029701940095E4
:10217000FFF764FF05B0BDE8F083B4F1010C06D0B1
:10218000B8F1100F01D06446D4E7023CD2E76446B0
:10219000D0E716F0200FD0D11F2CCED84FF0780CFE
:1021A00005F804C00134CEE716F0200FC8D01F2C6C
:1021B000C6D84FF0580C05F804C00134C3E71F2CF3
:1021C000C1D84FF0620C05F804C00134BBE716F02B
:1021D000040F05D04FF02B0C05F804C00134C3E701
:1021E00016F0080FC0D04FF0200C05F804C00134E1
:1021F000BAE7F0B591B0169C189D1B9E0CB926F05D
:10220000100616F4806E16D064B34FF0000E12E084
:102210000CF1300C5FFA8CFC0EF101070EF1400E50
:10222000EE440EF820CCB4FBF5FCAC421BD31F2FC0
:1022300019D8BE466446B4FBF5FC05FB1C4C5FFA9E
:102240008CFCBCF1090FE3D916F0200F08D0412710
:10225000BC445FFA8CFCACF10A0C5FFA8CFCDBE747
:102260006127F5E7274606961A9C0594199C049465
:1022700003959DF85C400294019708AC0094FFF729
:102280001CFF11B0F0BD2DE9F04F95B009900A91F7
:102290000B929B461E9D1F9E229FDDF88C80DDF8D1
:1022A00098A055EA060301D12AF0100A1AF48064B6
:1022B0001FD055EA060330D000241AE003F13002A3
:1022C000D2B204F1010904F150030DEB030404F848
:1022D000202C3A4643462846314605F051FCBD4283
:1022E00076EB08031BD3B9F11F0F18D84C460546EF
:1022F0000E463A4643462846314605F041FCD3B2E5
:10230000092BDBD91AF0200F05D041221A44D2B292
:102310000A3AD2B2D5E76122F8E74FF00009CDF8CA
:1023200018A0259B0593249B049303979DF8803068
:102330000293CDF804900CAB00935B460B9A0A997C
:102340000998FFF7BAFE15B0BDE8F08F0000000055
:102350002DE9F04F91B004460D4617461E46DDE9C3
:102360001A2310461946FFF7CFFD002840F0ED80F4
:102370004FF0FF32AE4BDDE91A01FFF713FE0028E4
:1023800040F0E3804FF0FF326FF48013DDE91A0173
:10239000FFF7CCFD002840F0D88000220023DDE9C3
:1023A0001A01FFF7C3FD002840F0E2809DED1A7B83
:1023B0008DED067B1E9B13F480630D9301D10623E4
:1023C0001C93DDE9062310461946CDE9080152EABF
:1023D000030100F0D880C3F30A50C3F313039046FF
:1023E00043F07F5949F44019A0F2FF30FFF744FD54
:1023F0007DA3D3E90023FFF7CBFC7DA3D3E9002322
:10240000FFF79EFC82468B4600228A4B4046494697
:10241000FFF7AAFC78A3D3E90023FFF7B9FC024633
:102420000B4650465946FFF78BFCFFF749FD8246A5
:10243000FFF722FD8046894671A3D3E90023FFF709
:10244000A7FC00227C4BFFF77BFCFFF739FD83469E
:102450006DA3D3E9002340464946FFF799FC804627
:1024600089465846FFF708FD69A3D3E90023FFF723
:102470008FFC02460B4640464946FFF775FC8046F6
:10248000894602460B46FFF783FCCDE90A010BF2B1
:10249000FF3B00210022CDE908124FEA0B530993BC
:1024A0000023089342464B4640464946FFF748FC06
:1024B000CDE90E0142464B4600204FF08041FFF728
:1024C00053FC8046894600225C4BDDE90A01FFF798
:1024D00085FC00225A4BFFF733FC02460B46DDE930
:1024E0000A01FFF77BFC0022564BFFF729FC02464E
:1024F0000B46DDE90A01FFF771FC02460B46404638
:102500004946FFF71DFC02460B46DDE90E01FFF7C9
:1025100065FC00224C4BFFF713FCDDE90823FFF7B5
:1025200037FC80468946CDE90889DDE90623FFF7B7
:1025300039FD50B30AF1FF3A0022414B404649466B
:10254000FFF74CFCCDE908011FE01E9B04931D9B87
:1025500003931C9B02939DED1A7B8DED007B33460C
:102560003A462946204600F003F911B0BDE8F08F45
:102570009FED297B8DED067B1A9B06931B9B03F138
:102580000043079316E74FF0000A0AF16303C62BD6
:1025900027D84FF004081E9B13F4006F5FD0DDE9CD
:1025A000081213460B4313D01DA3D3E90023DDE922
:1025B0000601FFF7E3FC002800F0B4801AA3D3E97A
:1025C0000023DDE90601FFF7B1FC002800F0AA8036
:1025D0001C9B53453ADDA3EB0A0A0AF1FF331C9317
:1025E00036E04FF00508D6E7FB799F501344D33F00
:1025F000B3C8608B288AC63F61436F63A787D23F09
:1026000071A379094F930A401655B5BBB16B0240CF
:10261000EF39FAFE422EE63F000000000000000005
:102620002D431CEBE2361A3F0000000080842E414F
:10263000FFFFEF7F0000F83F0000E03F00002C406C
:1026400000002440000018400000F03F00231C93CD
:102650001E9B43F480631E934FF00008C2461D9BEF
:10266000984569D2A3EB08091E9B13F0020B04D016
:10267000B8F1000F01D04FF00009BAF1000F07D0F8
:10268000DDE90823DDE90601FFF7A8FBCDE9060136
:1026900000220023DDE91A01FFF748FC00284ED193
:1026A0001E9B23F400630493CDF80C901C9B0293B3
:1026B0009DED067B8DED007B33463A46294620464C
:1026C00000F056F8B8F1000F3FF44FAF1E9B13F027
:1026D000200F3CD04FF0450C00F101093346024673
:1026E00029466046A0478AEAEA72A2EBEA7205230D
:1026F000059308F1FF330493002303930A23029305
:102700004FEADA700190009233464A462946204645
:10271000FFF76FFDBBF1000F3FF427AF0246DDF876
:1027200074901EE01C9B002B99D00D9B002B96D023
:102730001C9B013B1C9392E74FF0000994E7DDE9F5
:102740000601024601F10043CDE90623A8E74FF058
:10275000650CC1E702F10108334629462020A04755
:102760004246D31B4B45F5D31046FEE60000000061
:102770002DE9F04F2DED028B95B007900A9192460E
:102780009B46DDE92089229D42464B46404649460C
:10279000FFF7BAFB002835D14FF0FF326FF48013FA
:1027A00040464946FFF7C2FB00283AD14FF0FF32BE
:1027B0009F4B40464946FFF7F5FB002840D198A3C0
:1027C000D3E9002340464946FFF7ECFB00284FD1F0
:1027D00095A3D3E9002340464946FFF7A7FB00280D
:1027E00046D10022002340464946FFF79FFB0028C0
:1027F0004CD100230B93249B13F4806F00F0B7801F
:10280000002456E0249B0393239B0293032301930C
:10281000884B00935B4652460A990798FFF70EFCD7
:1028200037E1249B0393239B029304230193824B60
:1028300000935B4652460A990798FFF7FFFB28E191
:10284000249B13F004030FD07C4A7BB1042324990A
:10285000039123990291019300925B4652460A9993
:102860000798FFF7EBFB14E1754AEEE70323EEE769
:10287000249B0493239B03930295CDE900895B4637
:1028800052460A990798FFF763FD02E142464B461C
:1028900000200021FFF768FA8046894601230B9348
:1028A000A9E704F150036B44302203F8202C013DCA
:1028B00001341F2C01D8092DF3D840464946FFF7B3
:1028C000FFFA0646FFF7D8FA02460B46404649464D
:1028D000FFF74AFA5B4B03EBC50393ED008B53EC18
:1028E000182BFFF755FA02460B46CDE90823FFF7F0
:1028F000F9FA0746FFF7D2FA02460B46DDE908016E
:10290000FFF732FA02460B46CDE9082300224E4B70
:10291000FFF748FB68B301373846FFF7BFFA0246B6
:102920000B4651EC180BFFF715FB08B101360027D9
:102930006DBB3046FFF7A0FA02460B4640464946BB
:10294000FFF712FA0746884600223F4BFFF7EEFAE0
:1029500000284CD100223C4B38464146FFF722FB71
:10296000002844D116F0010F41D001363FE0062582
:1029700046E70022344BDDE90801FFF7D7FA0028CB
:10298000D6D117B117F0010FD2D00137D0E71F2CE5
:1029900017D8013D2D4BA3FB0723DB08194603EB9A
:1029A0008303A7EB4303621C303304F150000DEBAB
:1029B000000404F8203C092F02D90F461446E6E72C
:1029C00014461F2C0AD86B1E45B104F150026A440C
:1029D000302102F8201C1D460134F2E71F2C06D8D6
:1029E00004F150036B442E2203F8202C01341F2CD9
:1029F00031D8174A82FB0632F317C3EBA2031A46FB
:102A000003EB8303A6EB4303611C303304F1500056
:102A10000DEB000404F8203C1646DAB10C46E6E75C
:102A20000000000065CDCD410000000065CDCDC1A6
:102A3000FFFFEF7F0085001004850010F884001070
:102A4000F4840010108500100000E03FCDCCCCCC09
:102A5000676666660C46249B03F00303012B1DD0BA
:102A60001F2C09D80B9B002B35D004F150036B446D
:102A70002D2203F8202C0134249B0393239B0293E3
:102A800001940CAB00935B4652460A990798FFF7F6
:102A9000D5FA15B0BDEC028BBDE8F08F239BB3B126
:102AA0000B9B1BB9249B13F00C0F12D0239B013BF3
:102AB0002393194606E004F150036B44302203F8D7
:102AC000202C01348C42CBD21F2CF4D9C8E7239997
:102AD000F8E72399F6E7249B13F0040F07D004F1DD
:102AE00050036B442B2203F8202C0134C4E7249BB1
:102AF00013F0080FC0D004F150036B44202203F8F8
:102B0000202C0134B8E700BF2DE9F04F8FB0074605
:102B100016460D938846002900F0248300240D9B5F
:102B20001878002800F02083252809D0651C33463A
:102B300022464146B8470D9B01330D932C46EEE7E4
:102B400001330D9300250D9B1978A1F12002102A65
:102B50000AD8DFE802F03809093D0909090909091D
:102B60000933092E09092900A1F13003DBB2092B31
:102B700033D92A2936D000230A930D9B1A782E2A9E
:102B800040D04FF0000B0D9A1378683B122B77D88A
:102B9000DFE803F06476D3765676767676767676C8
:102BA000727676767676D80045F0010501330D937E
:102BB000C9E745F0020501330D93C4E745F004056C
:102BC00001330D93BFE745F0080501330D93BAE7D4
:102BD00045F0100501330D93B5E70DA8FFF71CFA7A
:102BE0000A90CAE7189B1A1D18921868002804DB7F
:102BF0000A900D9B01330D93BFE745F00205434258
:102C00000A93F6E745F480655A1C0D925A78A2F1B2
:102C10003003DBB2092B04D92A2A07D04FF0000B6E
:102C2000B1E70DA8FFF7F8F98346ACE7189B1A1D2A
:102C300018921B6823EAE37B0D9B01330D93A2E7F7
:102C400045F48071531C0D9352786C2A01D00D46C7
:102C500016E045F4407501330D9311E045F0800115
:102C6000531C0D935278682A01D00D4608E045F0B8
:102C7000C00501330D9303E045F4807501320D92D8
:102C80000D9B1878A0F12503532B00F26182DFE839
:102C900013F054025F025F025F025F025F025F0295
:102CA0005F025F025F025F025F025F025F025F021C
:102CB0005F025F025F025F025F025F025F025F020C
:102CC0005F025F025F025F025F025F025F025F02FC
:102CD0005F027401540174015F025F025F025F02D0
:102CE0005F025F025F025F025F025F025F025F02DC
:102CF0005F025F025F025F025E005F025F025F02CF
:102D00005F025F025F025F025F025F025E009B0183
:102D10005E007401540174015F025E005F025F0295
:102D20005F025F025F025E0039025F025F02D40150
:102D30005F025E005F025F025E0045F400750132D3
:102D40000D929DE745F4807501320D9298E7782841
:102D500009D058283AD06F283AD062283AD025F0C6
:102D600010050A2300E01023582835D0692803D025
:102D7000642801D025F00C0515F4806F01D025F0F2
:102D8000010569282BD0642829D015F4007F40F074
:102D9000968015F4807F40F0AE8015F0400F00F073
:102DA000BF80189A111D1891127805950A990491FF
:102DB000CDF80CB0029300230193009233462246D3
:102DC00041463846FFF715FA044629E01023CBE7C1
:102DD0000823C9E70223C7E745F02005C6E715F435
:102DE000007F21D115F4807F42D115F0400F58D0DB
:102DF000189A111D1891127882EAE271A1EBE27122
:102E000005950A980490CDF80CB00293D20F019268
:102E100000913346224641463846FFF7EAF9044618
:102E20000D9B01330D937AE6189A073222F00702C0
:102E300002F108011891516812680846002913DB55
:102E400008950A9D0795CDF818B0049300230593C3
:102E5000C90F0291009201903346224641463846FE
:102E6000FFF711FA0446DBE7524261EB4100E7E766
:102E7000189A111D1891126882EAE271A1EBE271B1
:102E800005950A980490CDF80CB00293D20F0192E8
:102E900000913346224641463846FFF7AAF90446D8
:102EA000BEE715F0800F05D0189A111D1891B2F9E0
:102EB0000020A1E7189A111D189112689CE7189A32
:102EC000073222F0070202F10801189108950A99C9
:102ED0000791CDF818B00021049305910291D2E931
:102EE0000023CDE900233346224641463846FFF70A
:102EF000CAF9044694E7189A111D189105950A9984
:102F00000491CDF80CB00293002301931368009351
:102F10003346224641463846FFF76BF904467FE7C1
:102F200015F0800F04D0189A111D189112883CE7F3
:102F3000189A111D1891126837E746281AD0189B65
:102F4000073323F0070303F10802189204950A9A45
:102F50000392CDF808B0D3E90023CDE9002333462E
:102F6000224641463846FFF703FC04460D9B0133D9
:102F70000D93D4E545F02005E1E7672801D0472807
:102F800001D145F40065452801D0472801D145F01D
:102F90002005189B073323F0070303F1080218925A
:102FA00004950A9A0392CDF808B0D3E90023CDE93D
:102FB00000233346224641463846FFF7C9F9044606
:102FC0000D9B01330D93AAE515F002051FD04FF0BC
:102FD00001091898031D189304F1010A334622468B
:102FE00041460078B847BDB90D9B01330D93544657
:102FF00095E502F1010A334641462020B8474B4689
:10300000524603F101099B45F3D81446E1E7012339
:10301000DDF828B02246F4E75246DDF828A006E0A5
:10302000551C334641462020B847A1462A4609F19F
:103030000104CA45F4D89246D6E7189B1A1D189287
:10304000D3F800A0BBF1000F1ED14FF0FF33D146E3
:1030500002E009F10109134699F8002012B15A1E45
:10306000002BF6D1A9EB0A0915F480630B9302D06B
:10307000D94528BFD94615F002030C9306D0224645
:103080005C46B3460B9E1DE05B46E0E722460A9C89
:103090004B4607E002F10109334641462020B8477C
:1030A0002B464A465D1C9C42F4D8A9465C46B34672
:1030B0000B9E07E01C460AF1010A551C5B4641467F
:1030C000B8472A469AF8000020B1002EF3D0631EBC
:1030D000002CEFD114465E460C9B1BB90D9B0133AF
:1030E0000D931CE5DDF828A006E0551C334641464B
:1030F0002020B847A1462A4609F10104CA45F4D860
:103100001446EBE745F02105189B1A1D18921B6821
:10311000059508220492CDF80CB0102202920022EC
:10312000019200933346224641463846FFF761F844
:1031300004460D9B01330D93F1E4651C3346224692
:1031400041462520B8470D9B01330D932C46E6E4FC
:10315000651C334622464146B8470D9B01330D930B
:103160002C46DCE4074FD9E4B44201D3721E00E0E0
:103170002246334641460020B84720460FB0BDE8FE
:10318000F08F00BF0920001000B585B002900391B8
:10319000009313464FF0FF3202A90348FFF7B4FC37
:1031A00005B05DF804FB00BF0B20001000BEFDE77A
:1031B0000346094A126842B1074A10680344074AA5
:1031C000934206D8044A13607047034A04491160C9
:1031D000F2E74FF0FF307047402C0020000008203D
:1031E0001832002008B5FFF7E1FF000000B583B0FA
:1031F0008C46194613465AB1074A5BB101930092B7
:1032000063460246054800F0B9F90120FFF7CEFFFA
:10321000034AF2E7024BF1E7608500107085001069
:103220006C85001010B5EFF30583DBB203B100BE6F
:10323000FEF760FC044C02E054F8043B9847034B53
:103240009C42F9D310BD00BFB07C0010B87C0010C8
:1032500008B5034608461B681146984708BD00009C
:10326000F8B507460D461646437D13B100242046A7
:103270000CE003681146284698472EE03B7D10E09D
:103280003B68022115489847601C0134B44214DAA7
:10329000002CF3DD2B1913F8013C0D2B14BF002378
:1032A00001232A5D0A2AF0D1002BEED1A042E7DAF1
:1032B0003B68211A28449847E2E7B04203DA3B68AA
:1032C000311A28449847002E07DD354415F8013C93
:1032D0000D2B14BF002301233B75F8BDF4850010AE
:1032E00038B50368BBB105460B4B1C6806E02946A0
:1032F00051F8042B2046FFF7B3FF24694CB1236833
:10330000002BFAD0054B1B68002BF0D0A342F4D160
:10331000EDE700232B6038BD302C00203C2C002032
:1033200038B505460C460B68802B05D021684B1C30
:1033300023600C44257138BD0846FFF7D1FFF5E73F
:1033400008B5FDF7C7FC074A821841F10003002BBE
:1033500003DB054804F05CFC08BD4FF0FF326FF062
:103360000043F6E740420F00F023002008B5024872
:1033700004F016FC08BD00BFF02300202DE9F04347
:1033800083B006460D4690461C46FFF7D9FF81469E
:10339000B5F1FF3F04D044B1174F184B1C6807E04C
:1033A000304604F05BFA0546F5E7154FF5E724696A
:1033B000BCB12368002BFAD0124B1B680BB1A3429F
:1033C000F5D12A4631462046B847B8F1000FEED075
:1033D0000A238DF8073001220DF107012046B84776
:1033E000E5E7B9F1000F03D1284603B0BDE8F0834B
:1033F000FFF7BCFFF8E700BF61320010302C00205F
:10340000513200103C2C00202DE9F04106460D46BB
:1034100090461F4623E0A36823B1294630469847CB
:10342000002823DC246934B1114B1B68002BF2D037
:10343000A342F7D1EFE70F4B5B6A9F4209D80D4AD1
:10344000926A42450ED29F4201D0012302E000233E
:1034500000E0002343B901200021FDF743FC064BA7
:103460001C68E0E70123F5E76FF00100BDE8F0819B
:103470003C2C002000000B40302C0020084A01E0CA
:1034800003F1100213683BB18342F9D131B90369EA
:10349000136000230361704701B11060704700BFE3
:1034A000302C002010B5054B1C6801E098472469BA
:1034B0001CB16368002BF9D1F9E710BD302C002056
:1034C00008B500F075F900F0DBFA012008BD000036
:1034D00010B582B00446FDF7FDFB221841F1000350
:1034E000002B0ADB012101A8FFF78EFF002802DB79
:1034F00040B19DF8040002B010BD4FF0FF326FF0F4
:103500000043EFE7034B044A40F203110348FFF77F
:103510006DFE00BFA0850010D8850010A4850010A6
:1035200038B5054604F09AF9044601231A460146C7
:103530002846FFF723FFFFF7B5FF204638BD000000
:1035400070B5A2B004460E46FFF7FAFE054600230A
:1035500001933346224601A90748FFF715FE0446AA
:1035600001A8FFF7BDFEFFF79DFF15B9204622B069
:1035700070BDFFF7FBFEF9E7213300100FB400B573
:1035800083B004A951F8040B0191FFF7D9FF03B0F0
:103590005DF804EB04B0704730B583B086460C4646
:1035A0004FF0000C13E00D238DF8073000200DF1D3
:1035B0000701E0B9936913F0200FFBD10B4613F814
:1035C000011B116001301946F3E70CF1010CA44511
:1035D0001FDA114B1A681EF80C50104B9A4214BF98
:1035E000002301230E4931F91330AB42DBD08DF8B3
:1035F000075000200DF107010028E6D1936913F070
:10360000200FFBD10B4613F8011B11600130194646
:10361000F2E703B030BD00BFCC310020008007408E
:10362000C831002070B582B005460E46002104E086
:103630009DF807308EF800306146B14218DA164B1B
:103640001A68906910F0100012D101F1010C05EB1D
:10365000010E0DF107010028EAD1936913F0100F54
:10366000FBD114680B4603F8014B01301946F2E711
:103670000A4B1B684BB1084B1B6850229A635A6B6C
:1036800002F0380203F581535A6111B1084602B0C5
:1036900070BD6FF00201F9E7CC310020B42B00209F
:1036A00008B5054B1B6833B1044A126800219163C9
:1036B000034A1068984708BDB42B0020CC31002085
:1036C000BC2B0020034B1A68936913F0080FFBD141
:1036D000704700BFCC31002038B51C4B1B681C4A1A
:1036E000934206D0212410B11A4A12681AB1C8B107
:1036F00038BD2224F7E7174B1860174B196017499C
:103700002046FDF771FC01212046FDF743FC0F4BDD
:103710001B6850229A635A6B02F0380203F58153FA
:103720005A61E5E70B4A1268002AE1D000259D6343
:1037300029462046FDF72EFC08492046FDF7B6FD38
:10374000044B1D60044B1D60D2E700BFCC3100204C
:1037500000800740B42B0020BC2B0020A1360010B5
:1037600038B50D461C46104B1860101E05DB10F0D6
:10377000020F15D00B21FDF71BFF002C06DB14F008
:10378000020F0FD00B212046FDF712FF2946064BF2
:103790001868FDF793FF01210448FFF76FFE38BD5D
:1037A0000221E8E70221EEE7CC3100204C1B00208B
:1037B00008B5074B1B78074B1B78074B1B78012379
:1037C00000224FF4E1310548FFF7CAFF08BD00BFF2
:1037D000389000103C90001040900010000007400E
:1037E00070470000014B00221A7070471132002010
:1037F0004B79FF2B0BD18B795BB9CB79012B0AD19C
:10380000082A0AD98A78064B1A70092070470020C6
:10381000704700207047002070470020704700BFAD
:103820001132002001207047012923D108B5918869
:10383000114B1B78994201D0002008BD5378012B11
:1038400003D0022B0FD00020F7E7518811F4807FBE
:1038500006D0480AC1F3402201F07F01FEF7F9F8D3
:103860004FF0FF30F6E7642200210846FEF792F899
:103870000120E2E701207047113200200048704724
:103880006086001001290FD108B594465378012BAA
:103890000CD19388072B01D0002008E0A623044A0E
:1038A000614601F0E9FB02E001207047002008BDFD
:1038B0008486001001230370004870474086001082
:1038C00008B50B68B3F5966F00D008BD002211460D
:1038D0004FF0FF30FEF7BDF8024B1860024B196045
:1038E000704700BFB82B0020C02B002008B5FDF7A3
:1038F000F1F90E4A821841F10003002B11DB0C484C
:1039000004F086F960B100214FF0FF3001F044FA75
:10391000002001F04FFD0028F5D1054804F040F9E2
:1039200008BD4FF0FF326FF00043E8E740420F0060
:103930008431002038B5184B1B681BB3EFF310829D
:1039400072B6D3E8CF0F01210028FAD1C3E8401F97
:103950000028F6D1BFF35F8F0F494A6000230F485C
:1039600003700968C1E88F3F82F3108800240025A6
:103970000B4B1878FDF7E2FA40B9002400252046E9
:10398000294638BD4FF47A740025F1E7044B1878C6
:10399000FDF70AFBF3E700BF4C3000201332002094
:1039A0001232002008B5024B1878FDF7FDFA08BD69
:1039B0001232002010B584B000212B4804F008F921
:1039C00008BB2A4B1B68E3B1EFF3108272B6D3E851
:1039D000CF0F01210028FAD1C3E8401F0028F6D1FB
:1039E000BFF35F8F21494A602148037883F00103C8
:1039F0000124047008680021C0E88F1F82F310883A
:103A0000BBB904B010BD00214FF0FF3001F0C4F984
:103A1000002001F0A9FC0446134804F0C1F8002C72
:103A2000EFD0144B1B68002BEBD0134A106898475B
:103A3000E7E7FCF79FFF0446FDF74CF910F57A72B3
:103A400041F10003002B09DB0121029100210191CA
:103A50000A4900912046FCF7FEFFD2E74FF0FF3203
:103A60006FF00043F0E700BF843100204C300020AD
:103A700013320020B82B0020C02B00203539001055
:103A800010B584B04FF050431C68FCF773FFFDF78E
:103A900037F8A0422DD12D4B1B780021084602F0AB
:103AA0003BF92B4B1B6853B30120FDF76BFDC0B2F4
:103AB000284C20702849FDF797FA01212078FDF75E
:103AC00069FA0E20FDF784FA0446E0B10120FDF703
:103AD00095F901462148FCF741FD002220490E20BE
:103AE000FDF7B2FA01211F48FFF7C8FC204604B0D9
:103AF00010BD1D4B1D4AC6211D48FFF777FB14481A
:103B0000FCF7EAFCD0E7154B00221A605A60FCF77C
:103B100031FF0446FDF7DEF810F57A7241F100033B
:103B2000002B0DDB0121029100210191114900912F
:103B30002046FCF790FFC443E40F002CD6D0D1E719
:103B40004FF0FF326FF00043ECE700BF44900010ED
:103B50008431002012320020B53900104C30002092
:103B6000A5390010641B00204882001088870010CF
:103B70002C8700103539001008B5002001F0D6FB65
:103B800008BD000038B504460D46FFF7F5FF90B3B9
:103B9000002001F0E9FB88B3FDF79CF81A4A82186F
:103BA00041F10003002B16DB184804F031F840B354
:103BB000FFF7E2FF18B1002001F0D6FB80B9002129
:103BC0004FF0FF3001F0E8F86FF002040F4803F007
:103BD000E7FF204638BD4FF0FF326FF00043E3E7C8
:103BE0002A462146002001F0CBFB04460028EDD1F7
:103BF0006FF00204EAE76FF00204EAE76FF00204F4
:103C0000E7E76FF00204E4E740420F008431002050
:103C1000F8B507460D46FDF75DF82E4A821841F1CA
:103C20000003002B04DB2C4803F0F2FF28B9F8BD99
:103C30004FF0FF326FF00043F5E7FFF79DFF0028DC
:103C400046D1264B00200021C3E90001224803F0A1
:103C5000A7FFECE700214FF0FF3001F09DF80020B6
:103C600001F0A8FBFFF788FF0028EFD0002001F04B
:103C700027FCF8B1AC42E9DA2E1B002001F020FC51
:103C8000864200DC30460028E4D002463919002084
:103C900001F0F2FB064600214FF0FF3001F07CF806
:103CA000002001F087FB3444FDF714F80B4BC3E907
:103CB0000001DFE7FDF70EF8084A13685268084E66
:103CC0009B1942F10002834272EB0103D2D2BDE79D
:103CD0000024CFE740420F008431002078250020E7
:103CE00020A107000048704718880010004870475E
:103CF000C487001010B50446144B1B786BB18CB907
:103D0000134B40F209425A80012301335B001BB27E
:103D100043F440730E48038010BD11210B4800F09E
:103D200047F8ECE7052C0ED80A4B53F82400002383
:103D3000122BEAD8C25C002AE7D00133044921F8EB
:103D40001320DBB2F4E70020E6E700BFD03100200B
:103D5000F82B00202C88001000B58BB045F24730BE
:103D6000FDF768FE03460122092101A898470428AF
:103D700001D100230EE00A4B0A4A2F210A48FFF71F
:103D800035FAC3F10F0228326A4412F8241C074A9C
:103D9000D1540133072BF4DD0BB05DF804FB00BFF9
:103DA00044880010B08800104C8800107430002047
:103DB00008B511B18C4600220AE0114B114A3B2193
:103DC0001148FFF713FA00210FE037338354013213
:103DD0000CF1FF3393420FD90F2A0DD853080B492A
:103DE000CB5C12F0010FEED104210B4103F00F0365
:103DF000092BEADC3033E9E70023835408BD00BF18
:103E000088880010908800104C88001074300020C2
:103E100010B400F07F04630003EBD01C284B03EBCD
:103E20004C139870C0090CBF4FF0010C4FF0000C00
:103E300083F801C04FF0000C83F803C01983DA76D1
:103E4000E0B9E3001F49194400EB44031C4A02EBAC
:103E50004313996000EB4403194A02EB43139B6838
:103E600000221A60A4B900EB4400154B03EB40108C
:103E70004260154BC3605DF8044B7047134901EB7A
:103E8000C40100EB44030E4A02EB43139960E1E7DF
:103E900050B9631EDB000E4A1A4400EB4400084B85
:103EA00003EB40104260E6E7631E0A4A02EBC302DE
:103EB00000EB4400024B03EB40104260DBE700BF25
:103EC000442C00208400105000011050800010503D
:103ED0000C0010500800105008B5038B3F3323F03E
:103EE0003F03C27E022A08D008490A68C260134410
:103EF0000B60074A934202D808BD5B00F4E7054B0C
:103F0000054A52210548FFF771F900BF48300020EB
:103F1000FF0F1050CC880010AC89001010890010E1
:103F200070B500F07F054FEA450C0CEBD0130C4C3C
:103F300004EB4314FFF76CFF05B970BD218B2046DD
:103F4000FFF7CAFFE27EE36883F0A04383F48013A7
:103F500043EA826343F0004362681360EDE700BF09
:103F6000442C002008B500F07F035B0003EBD01069
:103F7000024B03EB401000F01BF908BD442C00205D
:103F800008B520B901210E20FDF704F808BD034B48
:103F9000034A40F297110348FFF728F9708900108F
:103FA0009C8900101089001008B528B9002211461C
:103FB0008020FFF7D7FF08BD034B044A40F2A11150
:103FC0000348FFF713F900BF708900108C890010B7
:103FD00010890010024B4FF48032DA64704700BF42
:103FE0000020115070B548BB064600F0C1F8174CD0
:103FF0000C23A367FF2216490E20FDF725F8402564
:104000002A460021134803F0B9FB00222946104636
:10401000FFF786FF002229468020FFF781FF03F08B
:10402000E7FD012525644FF00053E3640A4BC4F813
:1040300090303046FFF7CEFF284670BD074B084A48
:1040400040F263110748FFF7D1F800BF000011509C
:1040500091040020442C002010D001007089001031
:10406000C089001010890010044B197021B1044B55
:104070004FF40032C3F89020704700BF0D3200208B
:10408000002011500B7813F07F0F02D14B78052BD5
:1040900000D070474B88DBB2014A1360F9E700BFDC
:1040A00000001150CA7802F00302012A09D008B5B5
:1040B0000B468988C1F30A019878FFF731FF012088
:1040C00008BD0020704708B503F092FD08BD000050
:1040D00010B530B9084611461A46FFF743FF0120D4
:1040E00010BD034B034A4FF401710348FFF77EF8FC
:1040F000708900107C8900101089001008B511F03B
:104100007F0004D1CB090ED10222084B9A664000F1
:1041100000EBD1104FF400620021054B03EB40107F
:1041200003F096FD08BD0122EFE700BF002011500B
:10413000442C002011F07F0000D1704708B54000EA
:1041400000EBD111044800EB41100022C2706FF463
:10415000006103F07DFD08BD442C002004E011F84F
:10416000012B00F8012B1A46531E002AF7D1704785
:1041700008B54FF080530A4A136002F5805213606D
:10418000084B9B6813F0805FFAD04FF480520021F7
:10419000054803F0F3FA054B09225A6708BD00BF32
:1041A00000200240000002400000105000001150AA
:1041B00070B504460D461646837EABB9A682002331
:1041C000E3820123A3762561204603F031FD20B16F
:1041D0000B4B4FF40032C3F89020204603F0D8FC7C
:1041E00050B10123237770BD81780648FFF7C6F9E7
:1041F000204603F025FDE1E7204603F011FDF2E73C
:1042000000201150A08A001038B50546002409E0AE
:10421000D21A1C4B03EB42138BB1DB68284698473C
:104220000134E4B2184B1B78591C2246A14215DB1D
:10423000A342EDD9154B1B6803EB4413ECE740F2A6
:10424000252213491348FFF799F94FF0E023D3F8DB
:10425000F03D13F0010F13D000BE11E00E4C5422BC
:104260000021204603F08AFA4FF0FF336360A36019
:10427000E36023612022FF2104F1140003F07EFAA1
:1042800038BD00BFB88B00100C320020D4250020B0
:10429000008B0010E88A0010C027002008B5FFF747
:1042A000B3FF00F047FF08BD70B505460C46164643
:1042B000486900F049FF6369324601212846984762
:1042C00070BD00002DE9F04F83B08246481EC0B299
:1042D000FFF70CFD20B1034642780192022A11D06B
:1042E00040F2D63263496448FFF748F94FF0E023C3
:1042F000D3F8F03D13F0010F00D000BE002003B052
:10430000BDE8F08FC179C1F340145C4A107864F3C2
:1043100004101070C1F38011C0B261F34510107029
:1043200003F109085A8813440093009B984580F0D4
:104330009E8098F801300B2B0BD04FF0010B98F8B2
:104340000130042B0BD1009BA3EB0807BFB2002464
:1043500060E098F803B098F800309844EFE740F236
:10436000F13244494448FFF709F94FF0E023D3F80C
:10437000F03D13F0010F00D000BE0020BFE7A9EB15
:1043800005053F4B03EB451550E040F2FA32394941
:104390003948FFF7F3F84FF0E023D3F8F03D13F07E
:1043A000010F00D000BE0020A9E72A69354B9A42D0
:1043B0004BD1DDF804B048E040F219422D492E48B7
:1043C000FFF7DCF84FF0E023D3F8F03D13F0010FD6
:1043D00000D000BE002092E72346324641462A48DC
:1043E00001F0AAFDB044294B1B78013399459CDDAF
:1043F0004FF485621F492048FFF7C0F84FF0E023D3
:10440000D3F8F03D13F0010F00D000BE002076E796
:104410000134E4B21D4B1D786B1CA146A342E2DBC4
:10442000A542ACD91A4B1D6805EB4415002DACD044
:104430002B693A464146504698470828E8D98742B2
:10444000E6D30646BBF1010FAFD000229345C3D996
:1044500098F802301344DBB2084919440979FF295E
:10446000AAD106490B441C710132D2B2EEE70120F9
:1044700045E700BF8C8B0010E88A0010C0270020A1
:10448000B88B001045560010D42700200C320020B5
:10449000D4250020704770470020704700207047E7
:1044A00038B505460C464B881A0AD8B2531E0E2B57
:1044B00064D8DFE803F0082D4E6363592D6363630E
:1044C000636363632200FFF70DFC024628B11223E9
:1044D0002146284600F0D0FD51E040F23A422C49F6
:1044E0002C48FFF74BF84FF0E023D3F8F03D13F0E2
:1044F000010F00D000BE002041E0FFF7BFF90246E7
:1045000000283DD043882146284600F0B5FD36E01E
:10451000022A09D0FFF7C2FF024698B3538821460A
:10452000284600F0A9FD2AE0FFF7E0FB024600283C
:10453000F4D140F2614216491648FFF71FF84FF0D8
:10454000E023D3F8F03D13F0010F00D000BE0020AF
:1045500015E0A188FFF7CEFB0246A8B103782146FB
:10456000284600F089FD0AE0FFF796FF024668B191
:1045700003782146284600F07FFD00E0002038BD8A
:104580000020FCE70020FAE70020F8E70020F6E72B
:10459000748B0010E88A00107047704770477047AE
:1045A000024B5878003818BF01207047C027002000
:1045B000024B1878C0F38000704700BFC02700206E
:1045C000024B1878FF3818BF01207047981B002055
:1045D000F8B506460D46FFF7F3FF0746002855D10C
:1045E00005B354220021384803F0C8F8374B0022A5
:1045F0001A70374C2046FBF76FFF364B1C60364C69
:1046000004F11400FBF7B2FF204602F047F8334BE9
:104610001C60334B23B13348FFF74CF9324B186021
:10462000002418E04FF4E97230493148FEF7A6FF44
:104630004FF0E023D3F8F03D13F0010F26D000BE79
:1046400024E0D21A2B4B03EB42138BB15B687BB196
:1046500098470134E4B2234B1B78591C2246A142EF
:1046600016DBA342EDD9204B1B6803EB4413ECE7A8
:104670004FF4F8721D491E48FEF780FF4FF0E0230B
:10468000D3F8F03D13F0010F00D000BE3846F8BD5E
:10469000194B1E7029463046FFF7A4FC074618B197
:1046A0003046FFF76DFCF1E74FF4FC720F491048FC
:1046B000FEF764FF4FF0E023D3F8F03D13F0010F55
:1046C000E4D000BEE2E700BFC02700200E32002089
:1046D000B8270020142800207C1B00201828002068
:1046E000B53800100C320020D4250020248B001097
:1046F000E88A0010B88B0010981B002070B51A4B88
:104700001E788B7813F0700F0ED10C46174B9978EA
:10471000204601F0A1FB0546B0B121463046FFF727
:10472000C1FC0546284670BD40F20B5210491148A5
:10473000FEF724FF4FF0E023D3F8F03D13F0010F14
:1047400000D000BE0025EDE740F20C5208490948B0
:10475000FEF714FF4FF0E023D3F8F03D13F0010F04
:10476000E0D000BEDEE700BF981B0020C02700207D
:10477000448B0010E88A00102DE9F84F80460C4663
:1047800016461F46DDF82890DDF82CA0002526E00F
:1047900040F2E7421F492048FEF7F0FE4FF0E023C9
:1047A000D3F8F03D13F0010F00D000BE4FF0000B26
:1047B0005846BDE8F88F4FF49D6216491648FEF73B
:1047C000DDFE4FF0E023D3F8F03D13F0010FEFD002
:1047D00000BEEDE78AF8003023781C440135AE4274
:1047E00014DD6378052BD3D1E17801F00301B942E0
:1047F000CED121464046FFF781FF83460028DAD01C
:10480000A378DA09E6D189F80030E5E74FF0010B2B
:10481000CEE700BF548B0010E88A001008B501F005
:104820007F00400000EBD1103030044B1844044BA3
:104830001968043001F0C6FA08BD00BFC027002087
:104840001428002008B501F07F00400000EBD110D3
:104850003030044B1844044B1968043001F0DCFA82
:1048600008BD00BFC02700201428002070B51F48D5
:10487000007801F07F051E4C04EB450C0CEBD11CBD
:104880009CF8344014F0010F1FD1CE09184C04EBF2
:104890004504344494F834C04CF0010C84F834C01E
:1048A0003034FFF715FCF8B923796FF30003237157
:1048B00023796FF3820323714FF0E023D3F8F03DA7
:1048C00013F0010F10D000BE0EE040F2395209493A
:1048D0000948FEF753FE4FF0E023D3F8F03D13F004
:1048E000010F00D000BE002070BD00BF981B00204B
:1048F000C0270020348B0010E88A001038B501F082
:104900007F05CC090A4B1878FFF7F8FB094B03EB3E
:104910004503234493F8342042F0020283F8342004
:1049200093F8342042F0010283F8342038BD00BFF0
:10493000981B0020C027002038B501F07F05CC0966
:104940000A4B1878FFF7F6FB094B03EB45032344AA
:1049500093F834206FF3410283F8342093F8342025
:104960006FF3000283F8342038BD00BF981B00208D
:10497000C027002001F07F02044B03EB420303EB4E
:10498000D11191F83400C0F340007047C0270020D7
:104990002DE9F04182B006460C46002000F0D4FB21
:1049A000237803F06003602B16D0402B27D02278A9
:1049B00002F01F02012A00F00681022A00F048815D
:1049C0003AB34FF0E023D3F8F03D13F0010F00F0BD
:1049D000D88100BE00250EE04FF43572AC49AD48D9
:1049E000FEF7CCFD4FF0E023D3F8F03D13F0010FBC
:1049F00000D000BE0025284602B0BDE8F081A648E0
:104A000000F0A2FB224601213046FEF73BFF05469F
:104A1000F1E7202B0BD063BB6378092B00F2C88031
:104A2000DFE803F0B3A3C693C6318DC6404DA3881B
:104A3000DBB20F2B00F29381984A13441979984BFB
:104A40001B7899420CD2974B1B6803EB411100294C
:104A500000F0898122463046FFF726FC0546CAE76A
:104A60005A1C8A42C0F27D81C91A8F4B03EB411157
:104A7000EDE74FF0E023D3F8F03D13F0010F00D045
:104A800000BE0025B7E7204600F064FB6188C9B28C
:104A90003046FFF789FA814A137843F00203137016
:104AA0000125A8E77D4B5B788DF8063001230DF1D9
:104AB00006022146304600F0DFFA01259BE76588B3
:104AC000EDB2764B5B78DBB2AB4232D0734B5B78A6
:104AD0005BB9724B5D7055B329463046FFF7F2FB68
:104AE000054690B1FFF758FD23E000213046FFF75F
:104AF000BBFA3046FFF7E7FA684F97F80280304676
:104B0000FFF782FB87F80280E3E74FF449726049C0
:104B10006048FEF733FD4FF0E023D3F8F03D13F08B
:104B2000010F00D000BE5D4B00225A7063E7FFF713
:104B300034FD2146304600F085FA01255BE7214629
:104B40003046FFF7ADFC054655E76388012B01D0E1
:104B5000002550E7514A137843F0080313702146AB
:104B6000304600F06FFA012545E76388012B01D03C
:104B7000002540E7494B1A786FF3C3021A702146AB
:104B8000304600F05FFA012535E7444B1B789A0860
:104B9000C3F3401302F002021343ADF806300223C0
:104BA0000DF106022146304600F066FA012522E7A3
:104BB0004FF0E023D3F8F03D13F0010F00F0D58063
:104BC00000BE002517E7A388DBB20F2B00F2CF80D1
:104BD000324A13441979324B1B78994223D2314B14
:104BE0001B6803EB4111002900F0C58022463046C6
:104BF000FFF75AFB054600287FF4FDAE237813F03B
:104C0000600F7FF4F8AE63780A3B012B3FF6F3AEFA
:104C100000F09AFA63780A2B0ED02146304600F055
:104C200011FA0125E7E65A1C8A42C0F2A280C91A8D
:104C30001D4B03EB4111D6E700238DF8063001230D
:104C40000DF106022146304600F016FA0125D2E6A3
:104C5000A288D1B202F07F05C2F3C01012F0700F2B
:104C600024D10E4A02EB45020244127D0C48007822
:104C700082422BD20B48056805EB421583B3002D09
:104C80007BD0224629463046FFF70EFB0546B2E6AA
:104C9000A08B0010E88A001085380010C027002083
:104CA0000C320020D4250020B88B001040F2953241
:104CB00035493648FEF762FC4FF0E023D3F8F03D6B
:104CC00013F0010F00D000BE002594E6451C95426C
:104CD00004DB121A2E4D05EB4215CFE70025CDE778
:104CE0006378012B1AD0032B18D04BB14FF0E0237F
:104CF000D3F8F03D13F0010F00D000BE00257AE696
:104D00003046FFF737FEADF8060002230DF106022C
:104D10002146304600F0B0F901256CE6628822B9E0
:104D2000012B18D03046FFF7E9FD45B3224629464E
:104D30003046FFF7B9FA002000F006FA154B93F859
:104D4000355015F001057FF456AE2146304600F08F
:104D500079F901254FE63046FFF7EEFDE5E700253E
:104D600049E6002547E6002545E6002543E60025FF
:104D700041E600253FE600253DE600253BE601250E
:104D800039E6002537E600BFA08B0010E88A001046
:104D9000B88B0010C027002010B584B0FFF710FCBE
:104DA00048B904B010BD9DF80400FFF777FA9DF8EC
:104DB0000820854B9A70854B1C686369EFF310825D
:104DC00072B6D3E8CF0F01210028FAD1C3E8401F03
:104DD0000028F6D1BFF35F8FA26101A9204601F040
:104DE00005FC6169A3690022C1E88F2F83F3108855
:104DF0000028D6D09DF80530013B072B00F2DA8061
:104E000001A252F823F000BFA74D0010294E001058
:104E1000A14F0010674F0010814F0010374E001057
:104E2000CD4E0010934F00109DF80400FFF736FAA6
:104E3000FFF7B3FBBFE7664B1B78002B36D0644A05
:104E40001378013BDBB213701378002BB3D15E4BA8
:104E50001A7842F001021A7093F834206FF30002BE
:104E600083F8342093F834206FF3820283F83420DF
:104E700093F835206FF3000283F8352093F835203E
:104E80006FF3820283F8352002A99DF80400FFF732
:104E90007FFD00288FD100219DF80400FFF72EF937
:104EA00080219DF80400FFF729F984E740F265228C
:104EB00048494948FEF762FB4FF0E023D3F8F03D44
:104EC00013F0010F3FF46DAF00BE6AE79DF80810C4
:104ED00001F07F00CC093C4B03EB400303EBD11303
:104EE00093F834206FF3000283F8342093F83420D1
:104EF0006FF3820283F83420A8B1334B03EB4003F5
:104F000023441A7D354B1B789A4214D2344B1B68CC
:104F100003EB4213BBB19C69039B9DF809209DF8EC
:104F20000400A04747E7039B9DF809209DF8040073
:104F300000F01EF93FE7581C904204DBD21A294BBF
:104F400003EB4213E6E74FF4247222492248FEF7AE
:104F500015FB4FF0E023D3F8F03D13F0010F3FF4C1
:104F600020AF00BE1DE7184B1B7813F0010F3FF474
:104F700022AF154B1878C0F3C000FFF70FFB1AE7FC
:104F8000114B1B7813F0010F3FF415AFFFF707FB30
:104F900011E7029B002B3FF40EAF039898470AE7F6
:104FA000094BDB7813F0010F3FF405AF0298FFF7D0
:104FB00072FA00E74FF0E023D3F8F03D13F0010F51
:104FC0003FF4F9AE00BEF6E6C02700201828002006
:104FD0000E320020148B0010E88A00100C320020E2
:104FE000D4250020B88B0010F8B50746134B9E89D6
:104FF000DD89741BA4B2402C28BF402493F90030F3
:10500000002B08DB0021AE4213D00D4A2346384660
:10501000FFF72CFCF8BDAE4209D0084B9968402C34
:1050200009D82246064802F033FB8021EBE78021B5
:10503000E9E70022EAE70020ECE700BF6427002050
:105040002427002008B586460B460A4A944608687D
:105050004968ACE8030000219160D181918193F906
:1050600000308B4200DB802100231A467046FFF798
:10507000FDFB08BD6427002038B505468C462A4C48
:10508000A64608684968AEE80300A2600021E181F5
:10509000BCF806108B4228BF0B46A381BCF8061053
:1050A00029B303B132B12846FFF79EFF044680B111
:1050B000204638BD72221D491D48FEF75FFA4FF0A9
:1050C000E023D3F8F03D13F0010F00D000BE002420
:1050D000EEE7742215491648FEF750FA4FF0E02328
:1050E000D3F8F03D13F0010FE2D000BEE0E79CF9E9
:1050F0000030002B16DB802100231A462846FFF7DC
:10510000B5FB04460028D3D1762208490848FEF7AB
:1051100035FA4FF0E023D3F8F03D13F0010FC7D07C
:1051200000BEC5E70021E7E764270020108C0010CF
:10513000E88A0010034B00221A605A609A60DA6015
:105140001A61704764270020014B1861704700BF47
:10515000642700200146054B1A460068496803C2CF
:1051600000229A60DA819A81704700BF642700208C
:1051700038B505461C46424B1B78DB09B3EBD11F03
:105180001CD07CB19D223F493F48FEF7F7F94FF014
:10519000E023D3F8F03D13F0010F00D000BE00244F
:1051A000204638BD364C2146FEF76CFF23691BB103
:1051B00022460321284698470124F1E7304B93F912
:1051C0000030002B07DB2E4B9868002855D0224674
:1051D0002E4902F05DFA2A4AD38913FA84F39BB26E
:1051E000D381916821449160D288934201D03F2CB1
:1051F0002FD8234B1B6923B1214A02212846984707
:10520000E8B11F4B93F90030002B16DB80210023FF
:105210001A462846FFF72AFB04460028C0D1C522BB
:1052200018491948FEF7AAF94FF0E023D3F8F03DEA
:1052300013F0010FB4D000BEB2E70021E7E7002170
:105240002846FEF75BFF80212846FEF757FF012422
:10525000A6E72846FFF7C8FE04460028A0D1CD22C5
:1052600008490948FEF78AF94FF0E023D3F8F03DEA
:1052700013F0010F94D000BE92E7002490E700BF26
:1052800064270020F88B0010E88A001024270020F3
:1052900038B50446FFF784F950B90023184633B1F6
:1052A000204BC82202FB0433DB7843B9002038BD11
:1052B000FFF77EF908B90123F0E70023EEE7134674
:1052C00004FB03F31033174D1D44284601F078F911
:1052D0003F2801D80020EAE7124BC82202FB043322
:1052E000D9780020FFF79AFA0028E0D0284601F08C
:1052F00067F93F280CD90B49C82303FB041140234D
:10530000094A02EBC412C9780020FFF7AFFACEE7D2
:10531000044BC82202FB0434E1780020FFF792FA24
:105320000020C4E75C260020D825002010B50446E4
:10533000FFF736F958B9002383B10A48C82303FBA5
:105340000400037913F0010F0AD0012007E0FFF7F2
:105350002FF908B90123EFE70023EDE7002010BD86
:105360000020FCE75C26002008B5C82303FB00F002
:105370001030024B184401F0F2F808BD5C26002002
:1053800038B50446C82300FB03F31033084818441B
:105390004FF6FE739A4208D892B201F046F90546DC
:1053A0002046FFF775FF284638BD4FF6FF72F4E739
:1053B0005C26002070B50546FFF7F2F818B9002307
:1053C00043B9002070BDFFF7F3F808B90123F7E7F0
:1053D0000023F5E7C82305FB03F32033224C1C44CC
:1053E0000434204601F0BBF808B90020EAE71E4B60
:1053F000C82202FB053399780020FFF70FFA08B99D
:105400000020DFE7EE0106F14003184E1E44402263
:105410003146204601F009F90446D8B11248C823A4
:1054200003FB05002346324681780020FFF71EFA71
:1054300008B12046C6E7D5220D490E48FEF79EF872
:105440004FF0E023D3F8F03D13F0010F00D000BE81
:105450000020B7E70448C82303FB0500817800203B
:10546000FFF7F0F90020ADE75C260020D8250020EA
:10547000408C0010E88A001070B50546C82400FB77
:1054800004F404F120030D4C1C4404344FF6FE7365
:105490009A420BD892B2204601F0FBF8064620460D
:1054A00001F05DF83F2804D8304670BD4FF6FF721A
:1054B000F1E72846FFF77EFFF6E700BF5C260020F5
:1054C00008B5C82303FB00F02030034B1844043018
:1054D00001F076F808BD00BF5C2600202DE9F043FE
:1054E00083B0C8220021244802F048F90025234B4C
:1054F0001D7015B103B0BDE8F0831F4EC82405FB35
:1055000004F43719FF237B714FF4E133BB604FF094
:10551000000887F80C8087F80D800823BB7304F11E
:10552000380104F11000CDF80080012340223144FD
:10553000304400F0E3FF04F1780104F1200030442E
:105540000123009340223144043000F0D7FF04F1DE
:10555000B809B1444846FAF7BFFFC0343444204686
:10556000FAF7BAFFC7F81C80C7F820903C63C7F869
:1055700034800135EDB2BCE75C26002058260020BF
:1055800000230BB10120704710B49C460E4AC8217D
:1055900001FB0322116A146B31B10B49C82202FBD3
:1055A00003110020C861086234B1074AC82101FB19
:1055B0000C220021116351630133DBB2002BE4D0D4
:1055C00001205DF8044B70475C26002038B50024AC
:1055D00004B138BD25461949C82304FB03F3C81894
:1055E0000022CA500271164B1B7813F0010F11D024
:1055F000134B1B7813F0020F15D0C82005FB00F0E9
:1056000020300E4D28440121043001F062F80134AD
:10561000E4B2DDE7C82304FB03F310330846184463
:1056200001F03CF8E4E7C82005FB00F02030034B14
:105630001844043001F032F8DFE700BF5C26002098
:10564000582600202DE9F04182B04B79022B7ED103
:1056500006468B79022B7FD100273FB197B98B7813
:1056600088F800300C780C4409251FE03B4B4FF0C4
:10567000C80808FB073898F80230002BEED0013735
:10568000FFB2EAE740F2411235493648FDF776FFAE
:105690004FF0E023D3F8F03D13F0010F00D000BE2F
:1056A000002555E023781D44ADB21C446378242BBB
:1056B00001D19542F6D9052B09D06378042B02D18C
:1056C00063790A2B20D03846FFF7E2FD40E02146FF
:1056D0003046FFF713F838B1A37888F80130237803
:1056E0001D44ADB21C44E8E740F253121C491D486A
:1056F000FDF744FF4FF0E023D3F8F03D13F0010F26
:1057000000D000BE002523E021780D44ADB208F1A1
:105710000203019308F10303009302231A46214474
:105720003046FFF729F810B10E35ADB2CBE74FF494
:10573000B1720B490B48FDF721FF4FF0E023D3F87E
:10574000F03D13F0010F00D000BE002500E0002561
:10575000284602B0BDE8F0810025F9E75C2600206C
:10576000348C0010E88A0010137803F06003202BBB
:1057700078D170B59446002454B1002C74D19CF8B3
:105780000130203B032B71D8DFE803F01028345898
:105790003A4AC82304FB03F302EB030ED25CBCF8C5
:1057A00004309A42E9D00134E4B2E5E7012903D09C
:1057B000032909D0012058E007230EF108026146B1
:1057C000FFF75AFC012050E02D4B002B50D00EF17A
:1057D00008012046FEF774F8012046E0012901D0B7
:1057E000012042E007230EF108026146FFF744FC66
:1057F00001203AE0012903D0032906D0012034E03A
:105800006146FFF71FFC01202FE0BCF8023013F0C7
:1058100001010D46C3F340068EF804300CBF012190
:1058200000210EF1240000F054FF164B13B3324652
:105830002946204600E000BF012016E0012903D0E0
:10584000032906D0012010E06146FFF7FBFB012091
:105850000BE00D4B83B1BCF80210204600E000BF06
:10586000012002E000207047002070BD0020FCE70E
:105870000120FAE70120F8E70120F6E75C26002086
:10588000C138001000000000000000002DE9F84FB2
:1058900080460D461F4600245CB1BCB9A246F37891
:1058A000AB4223D0B378AB4255D001242046BDE8AB
:1058B000F88F3D4EC82303FB0466F378AB42ECD06F
:1058C000B378AB42E9D00134E4B2E5E74FF4E672D5
:1058D00036493748FDF752FE4FF0E023D3F8F03D4C
:1058E00013F0010F00D000BE0024DFE706F1100B1B
:1058F000BAB2304901EBC411584600F0CAFE2E4B33
:10590000DBB17379FF2B18D04FF0000901E009F1EA
:105910000109B94511D27279264B03EBCA1313F86A
:1059200009309A42F3D1584600F02DFE0028EED1FE
:105930007179204600E000BFE9E7204B1BB15846D3
:1059400000F021FE18B12046FFF7A2FCAAE720468E
:1059500000E000BFF7E71A4B13B1204600E000BF9C
:105960002046FFF727FD08B101249FE706F1240038
:1059700000F0F5FDA0B9AFB117F03F0F01D0012441
:1059800094E7B1784046FEF749FF044608B9012480
:105990008CE700231A46B1784046FEF767FF85E79B
:1059A000012483E7012481E75C260020248C001079
:1059B000E88A0010D8250020000000000000000048
:1059C0000000000090B90A4B4FF4137101FB003343
:1059D00093F8293133B9064B01FB003253791BB1DF
:1059E0000120704701207047002070470020704759
:1059F0006829002008B10020704708B504494FF419
:105A0000137202FB0011043100F030FB08BD00BF2F
:105A1000682900202DE9F04784B04FF4137200216B
:105A20001E4801F0ABFE002414B104B0BDE8F087BD
:105A30001A4D4FF4137000FB04F606F5A4732B44C3
:105A40000433174F4FEAC41A07EBC41206F59470DB
:105A50004FF04009CDF80C9002924FF48078CDF8C9
:105A60000480009300231A461946284400F089FA5E
:105A700006F120032B440833CA445744A819CDF833
:105A80000C900297CDF80480009300230122194660
:105A9000043000F076FA0134E4B2C5E7682900204A
:105AA000E828002070B500240CB1012070BD084D1D
:105AB0004FF4137000FB04F606F59470284400F0D0
:105AC0008BFAA819043000F087FA0134E4B2EBE74E
:105AD000682900202DE9F04100250DB1BDE8F081D5
