:020000041000EA
:10000000002008205D0100101B0100101D010010E0
:100010001101001011010010110100101101001058
:100020001901001019010010190100101F01001022
:10003000110100101901001021010010230100100E
:100040001101001011010010110100101101001028
:100050001101001011010010110100101101001018
:100060001101001011010010550A002011010010AB
:10007000110100101101001011010010B908002039
:10008000E5080020110100101101001011010010FD
:1000900011010010110100101101001011010010D8
:1000A00011010010110100101101001011010010C8
:1000B00011010010110100101101001011010010B8
:1000C00011010010110100101101001011010010A8
:1000D0001101001011010010110100101101001098
:1000E0001101001011010010110100101101001088
:1000F0001101001011010010110100101101001078
:100100001101001011010010110100101101001067
:10011000EFF30580103800BE00BE00BE00BE00BE7A
:1001200000BE00BEF2EB8871286700106067001007
:10013000A001001090A31AE7D3DEFFFF42012110B7
:10014000FF010000B87D0000793512AB4FF00000D0
:100150001E49086006C881F3088810474FF05040D8
:10016000006810B14FF00000F2E70DA40ECC00299A
:1001700002D000F012F8F9E71549164A002000E015
:1001800001C19142FCD11449884714498847144958
:10019000884700BEFDE701C901C29A42FBD3704700
:1001A0006067001010010020A0180020F07E0010F1
:1001B0000000082000000820F07E00100010082039
:1001C00000100820000000007047000008ED00E06B
:1001D000A0180020641C0120FD2F0010250600102F
:1001E000BD2F0010F8B500BF10B5054C237833B90A
:1001F000044B13B1044800E000BF0123237010BD7D
:10020000201A002000000000084E001008B5034B23
:100210001BB10349034800E000BF08BD0000000017
:10022000241A0020084E0010F8B5074640683C88A4
:10023000334B1B681C440423BB81324BB3F808E0EA
:10024000BEF5787F1BD24FEADE03013BDB009BB299
:10025000013B9BB22C498B81024642F8041B2B4B7D
:100260001E682B4B1B68197994FBF1F501FB1544B3
:100270001B689B685D884FF0000C614617E040F2F8
:10028000D733E7E7012107E04FEADE03013B9C4556
:1002900012DA01318D42F5D01D4B1B681B7901FB31
:1002A000034306EB031342F8043B0CF1010CBEF5CB
:1002B000787FE9D37B23EAE71346164943F8081B06
:1002C0000021516013F0030F0BD17A8900EB8202F9
:1002D0009A420DD31B1AC3F38F033B81012038755B
:1002E000F8BD0D4B0D4A4FF4E0710D4802F06AFE67
:1002F0000C4B0A4A40F2C111094802F063FE00BFEC
:10030000541C0120F066001010010020FC1A00208F
:10031000A80F002020010020084E0010D44E00102D
:10032000284E0010604E001070B54FF050431D680D
:10033000012D05D9294B2A4A51212A4802F042FEB3
:100340002946294802F0FEFF012D21D1142001F099
:10035000BFF84FF4801340EE143019E0234A1368BD
:10036000013313601B0203F48073214A1360214A96
:10037000136801331360204B1E70204804F0FCFC0E
:100380001F4B1B68294620469847204604F0FCFC7A
:10039000012004F001FD0446184804F00DFD6388B7
:1003A000184A12689A42E8D0164A1360114A136834
:1003B000154909680B4413604FF050435E6806F41A
:1003C0008002C6F380560C4B1B780BB1002AC5D0B7
:1003D000002002F061FF2028CDD1BFE7904E001031
:1003E000E84E0010284E0010B04E0010AC0F002058
:1003F000008006400C1B00205D1C0120001B00201B
:10040000B40F0020101B0020B00F002008B5FFF72C
:100410008BFF000008B5054803F018FD012003F02C
:1004200019FD034804F098FC08BD00BFF0660010F9
:100430004C1C01202DE9F04188B000220EE002EBB7
:10044000420303EBD3735B1008A901EB420103EBFA
:10045000431003EB801321F8203C01320F2AEED920
:100460004C4B1B6819791B689B685B8803FB01F187
:100470008900042001F092FC0146474B18604FF0C0
:10048000000866E04FEA6E02BA5C120908AC04EBA1
:10049000420232F8205C23E0002513F0010F28D13E
:1004A0000D600133072B2CDC90F906209A1AF3D447
:1004B00090F90440944216DDBCF1000F15DB90F971
:1004C0000520624513DD1EF0010FDBD04FEA6E02FE
:1004D000BA5C02F00F0208AC04EB420232F8205C76
:1004E0000EF1010ED9E70025D7E70025D5E7002555
:1004F000D3E70A4652F8044B44EA05440C6011461F
:10050000CFE7BCF1000F03DB90F90530634511DC48
:100510000136204B1A681379B34218DDA6EB030CA1
:1005200053799C4490F907309C4490F905309C44E1
:100530000023B7E790F90630C3F1080302E00EF19B
:10054000010E013390F904209A42F8DCE0E708F14B
:100550000108104B186803689A68528842450BDD01
:100560005A6808F1010402EBC4001F6832F8343005
:100570001F440026B646CCE7037903FB02F2064B84
:100580001B6803EB0212054802F0DCFE08B0BDE870
:10059000F08100BFA80F0020FC1A0020C84E0010F8
:1005A00008B500F0C9F808BD70B5194800F0EBF8BF
:1005B000132403E0204600F08BFF0134152CF9DDF5
:1005C000182000F085FF162000F082FF4FF09C738A
:1005D00040EE14304FF4800360EE143018260024EF
:1005E00044EC40600B4B19780B4802F0ABFE012540
:1005F00045EC4060FFF71EFF2A462146074800F001
:10060000ADF8FFF707FF0648FFF7CAFFFFF78CFEBC
:10061000001B0020141B0020D04E00104C1C012099
:100620000D04001008B51B23002242EC403000F0FE
:100630002FFFFFF7B9FF03BD10B5044601F04EF9D7
:10064000A04710BD4FF050431B6D13F0020FF9D0BF
:100650004FF05043586540BF704700E020BF4FF057
:1006600050431B6D13F0010FF8D04FF05043986DBD
:1006700070472DE9F04186B004460F469046192098
:1006800000F03AFD06460021192000F061FD00252A
:100690000095019501230293CDF80C8004970594F1
:1006A00000E0002506AB03EB850353F8184C9CB122
:1006B0002046FFF7C7FFFFF7D0FF8442F1D1013595
:1006C000052DEFD93146192000F042FD06B0BDE8F6
:1006D000F0814FF050439B6D4FF050431B6D13F072
:1006E000010FF6D140BFE3E708B512F0030F11D1B7
:1006F00022F003028B180A4A926843F80C0C43F864
:10070000081C084943F8041CA3F10C010648FFF734
:10071000B0FF08BD054B064A8E21064802F052FC88
:1007200000ED00E03906001037060010F85B0010FD
:10073000145C0010BC5B001008B5064A064B9A42D8
:1007400005D819464FF40062FFF7CEFF08BD4FF001
:10075000FF31F7E7000008200008082070B50446C4
:100760000E46154600F032FC0146204600F005F822
:10077000A680E580BFF35F8F70BD01F1505140311D
:1007800089000160704710B5044600F01FFC014667
:100790002046FFF7F2FFFF232371BFF35F8F10BDE9
:1007A00010B5044600F012FC01462046FFF7E5FFB5
:1007B000FF23237100236371BFF35F8F10BD00001F
:1007C00010B50D4C09E00D4B0D4A1A210D4802F0F1
:1007D000F9FB2046FFF7D7FF08340B4B9C4209D2A8
:1007E0002368002BF5D0012BEDD12046FFF7D8FF71
:1007F0000834F2E710BD00BF90180020385C0010EC
:10080000005D0010585C0010A018002041EA004074
:10081000704700000A4B1A68EFF3108172B6136834
:10082000002BFCD0BFF35F8F054B1B68BFF35F8FBE
:1008300000221A6081F3108840BF00200021704719
:10084000E81B01202DE9F04F85B0EFF30587FFB2DB
:10085000103FBB0815D0B04D07F00307AE4B9D42CB
:1008600014BF0023012307EB8303AC4A52F8234053
:100870002378BB4207D10122BA4005F541535A60A3
:1008800015E1A74DE8E7A74BA74A9221A74802F038
:1008900099FBD4F814A008EB4806F30002930AEB86
:1008A000C606B3680193D6F80C90284600F00AFB00
:1008B000019BC01A61EB0903002BC0F20181B9F161
:1008C000000F5FDBD6F810B0994B9B453FD0718885
:1008D00089B2B4F90800FFF799FF7169D84703900E
:1008E0008B46039B53EA0B024CD0BBF1000F3BDA63
:1008F000019AD01A69EB0B0BB060C6F80CB0029BE2
:100900003AF90330002BC0F2DB80D4F814E003EB9B
:1009100043020EEBC2029168D268411A6BEB0202ED
:10092000002AC0F2CD80A4462CF8083FBCF9006034
:10093000002E21DB06EB46030EEBC3039968DA6851
:10094000411A6BEB0202002A16DB9C46EEE7D6F852
:1009500014B0DBF810305846984798B1DBF80030F7
:100960000393DBF804B0BCE7284600F0ABFA039B26
:1009700018184BEB010BBFE7029B2AF80360ACF899
:1009800000809DE0029B3AF9033023812269EFF356
:10099000108372B611680029FCD0BFF35F8FB4F9E1
:1009A000022002992AF80120A4F802802269BFF3EC
:1009B0005F8F0021116083F3108881E02269EFF3DB
:1009C000108172B61368002BFCD0BFF35F8FB4F8B0
:1009D00004900FFA89F94FF6FF73A3802369BFF3E0
:1009E0005F8F00221A6081F3108816E01E46B6F968
:1009F0000020002A0BDB02EB42030EEBC3039868D6
:100A0000D968BCEB000068EB01010029EEDAA6F81A
:100A100000903EF90A902EF80A20B9F1000F54DB3D
:100A2000D4F814E009EB49034FEAC30A0EEBC30301
:100A3000D3F808C0D3F80C8004F10806D7E70023E8
:100A4000A37104F1080EB4F9083011E04FF0FF383B
:100A50004FF0FF39C0E90289B4F90800984206D086
:100A6000AEF80020B4F9080021F80C0023811346E9
:100A7000B3F1FF3F2CD0616903EB43024FEAC20C94
:100A800001EBC20031F93220468816F4004FDDD167
:100A90008646ECE73B1D45F82360284600F012FA35
:100AA000361A68EB0101012E71F1000330DA0123DF
:100AB000BB40EB63B4F90880B8F1000FBFF6E9AEB4
:100AC000A38813F4004F3FF479AFA379002BB6D17C
:100AD000B4F90830002B1BDB626903EB430302EB24
:100AE000C3039E68D3F80C80B8F1FF3F08BFB6F18E
:100AF000FF3FD2D0AA6AB11A3B1D55F823309B1A8A
:100B00009942C7D32A6A0123BB401A42C5D1C1E723
:100B100040BF05B0BDE8F08F00800B40141B0120E2
:100B200000000B40145D0010AC5D0010405D001033
:100B3000450800102DE9F0410446884617461E4638
:100B4000C16000F043FA00F1505040308000206155
:100B50002770B3B263814FF05042127862704FF643
:100B6000FF722281A280013B63804FF0000C08E0FD
:100B70000CF1FF3560690CEB4C0E20F83E500CF187
:100B8000010CB445F4D3114B98450CBF012300234D
:100B900007EB83030E4A42F8234014D000243C4460
:100BA000012505FA07F7C8F820700A49204600F029
:100BB000E1FA2946204600F0CBFA08F50158C8F8BA
:100BC0000070BDE8F0810424E9E700BF00800B401D
:100BD000141B01204508001008B5054B1B690BB11B
:100BE000034808BD034B044A6521044802F0EAF9B2
:100BF000CC0F0020705D0010945D0010405D00106F
:100C0000F8B5044696461A460069EFF3108C72B6A2
:100C100001680029FCD0BFF35F8FB4F90250666908
:100C200005EB4500C70006EBC000002D01DBF35FBC
:100C300063802169BFF35F8F00230B608CF3108802
:100C40009D422CDB069B0361079B4361C0F808E0D3
:100C5000C260418889B20131C1F30E0101B901219D
:100C600041802846FFF7D2FD2269EFF3108172B66A
:100C70001368002BFCD0BFF35F8FA388F353A580CC
:100C80002369BFF35F8F00221A6081F31088E36845
:100C9000217801228A4003F501535A60F8BD4FF0D4
:100CA000FF30FBE770B582B0064615461C469DF83E
:100CB000203033B900F030F9854264EB010100299E
:100CC0000ADB079B0193069B00932A462346304686
:100CD000FFF796FF02B070BD0020FBE70346408996
:100CE000B0EB214F2DDD10B40A14586902EB42021B
:100CF00000EBC2021C69EFF3108C72B6206800286A
:100D0000FCD0BFF35F8F508880B289B2884212D086
:100D100000201A69BFF35F8F002111608CF31088E7
:100D200030B1DA681B780121994002F5015359600E
:100D30005DF8044B704740F40040508001209871EA
:100D4000E7E7002070470000F0B585B005460C4687
:100D5000EFF30583DBB293B1404B5B6A8B4209D35F
:100D60003E4A926A824208D28B4201D0012002E0C0
:100D7000002000E0002005B0F0BD0120FBE7FFF7F8
:100D80002BFFC7680678384600F09CF82A1A64EBF7
:100D90000101043657F82630181A824271F1000317
:100DA00012DB20BF2D4B5B6A9C4209D82B4A926A0A
:100DB000AA4207D29C4201D00120DCE70020DAE7FA
:100DC0000020D8E70120D6E7FFF706FF00230293B3
:100DD0000193234B00932A462346FFF763FF061E29
:100DE0000BDD1E4B5B6A9C421BD81C4A926AAA42CE
:100DF0002BD29C4213D0012314E0184B5B6A9C4217
:100E000009D8164A926AAA4207D29C4201D0012010
:100E1000B1E70020AFE70020ADE70120ABE70023FA
:100E200000E0002303B920BFFFF7D6FE3146FFF7ED
:100E300055FF0A4B5B6A9C420BD8084A926AAA4249
:100E400009D29C4203D0012095E70123EAE7002064
:100E500091E700208FE701208DE700BF00000B40E5
:100E6000150800100048704700000B4010B50A4BF1
:100E70001B6923B10A210948FFF77FFC10BDFFF76A
:100E8000F1FF0446032100F00BF810230322214652
:100E90000148FFF74FFEEDE7CC0F0020E81B0120D3
:100EA00010B5054A054C064BA04214BF1846581C05
:100EB00000F072F810BD00BFC45D001000800B4050
:100EC000A81A00200246436A906A1946536A99425A
:100ED000FAD17047416A00E0416A9942FCD300E0D0
:100EE000416A994202D1816A9142F9D3704770B543
:100EF000064614461D46FFF7E5FF021941EB0503C0
:100F0000824273EB010102D24FF0FF3213463046AA
:100F1000FFF7E0FF70BD000008B50248FFF7D2FF01
:100F200008BD00BF00000B4008B502460B46024852
:100F3000FFF7DDFF08BD00BF00000B400FB400B598
:100F400083B0049C074802F0CFF93CB105A9019198
:100F5000204602F0D9F9044802F0C6F9012002F057
:100F600011F800BFE85D001040650010EFF310803D
:100F700072B64FF05043D3F82C31002BF9D0BFF3A9
:100F80005F8F7047BFF35F8F4FF050430022C3F86D
:100F90002C2180F31088704770B505460C46164624
:100FA000FFF7E4FFE208A95C04F0070C012303FA51
:100FB0000CF3194205D1DBB20B43AB54FFF7E2FF50
:100FC00070BD21463046FFF7B9FF0000054A107892
:100FD000431CDBB21370172B02D9134610221A7070
:100FE000704700BFE40F0020002208E002F15053D8
:100FF00040339B00BFF35F8F0021196001321F2A2D
:10100000F4D9704708B51F2808D800F15050403077
:101010008000BFF35F8F0023036008BD024B034ACB
:101020000F21034801F0CEFFF85D0010605E001054
:10103000145E0010084B9B68103043F82010BFF37B
:101040005F8FBFF35F8F4FF050430021C3F824112F
:1010500082F31088704700BF00ED00E00048704741
:1010600000E400E008B5FFF7F9FF002304E04FF0CB
:10107000803240F8042B01330C2BF8D962B608BD3E
:1010800008B5091A081F01F2FC7140F6FE73994277
:1010900007D810F0010F04D1C0F34A0040F46040BB
:1010A00008BD034B034A4FF48771034801F08AFFE0
:1010B000705E0010C0600010A05E001008B5091A34
:1010C00004394B08090B0AD1C1F30A0141F47041FC
:1010D00001806FEA43536FEA5353438008BD034BCB
:1010E000034A4FF48B71034801F06CFFD45E00108B
:1010F0009C600010A05E00104209064B53F82220AD
:1011000000F01F00012303FA00F0024214BF18464A
:101110000020704700E100E021B1044BC3F88001DA
:1011200018607047014BC3F88000704700E100E091
:101130003AB1064B00F1600243F8221043F8201048
:1011400070472030014B43F82010704700E100E069
:1011500008B50A4600F01F03012199404009FFF736
:10116000E7FF08BD024B9B68103053F82000704722
:1011700000ED00E070B504460D46EFF3108672B640
:101180004FF05043D3F82431002BF9D0BFF35F8FD9
:101190002046FFF7E7FF084B984201D0A84205D14F
:1011A000324629462046FFF745FF70BD034B044AEF
:1011B000ED21044801F006FF11010010E45E00106B
:1011C000DC600010A05E00102DE9F04706460D46D9
:1011D000EFF3108872B64FF05043D3F82431002B50
:1011E000F9D0BFF35F8F564B9B6806F1100A53F896
:1011F0002A70544B9F4207D0AF4200F09E803C467D
:10120000514BFB1A2F2B06D9424639463046FFF781
:1012100011FFBDE8F0873046FFF76EFF81460021E1
:101220003046FFF795FFBFF35F8FEFF30580C0B245
:1012300008B1824510D124F001040021A268954232
:1012400012D094F90630002B0DDB03EB430321464B
:101250003D4C04EB8304F1E73C4B3D4A40F2022154
:101260003C4801F0AFFE214695425FD194F906500B
:10127000002D41DB05EB4503334A02EB83039A68FB
:10128000A260DA79E27193F90620A27193F906302F
:10129000002B10DA4BF60150A08005EB45022A4BDB
:1012A00003EB82032C4A1178997115704946304638
:1012B000FFF74EFFA8E7201D05EB4503224A02EB8E
:1012C0008303191D9B88DA0A1C2A08D15B050DD4FB
:1012D0005B15023301EB4301FFF7D2FEDCE71F4B46
:1012E0001F4A4FF48E711B4801F06CFE03F5FF138B
:1012F00003F5FF531F33EBE798B981B1FF238B71DF
:101300004BF601538B80144A1378A3714AF6AA2333
:101310000D49641A644163431B0D1370C6E7094FFE
:10132000F1E71049201DFFF7C9FEBFE70E4B084A41
:101330004FF41171074801F045FE024F64E700BF0A
:1013400000ED00E011010010E80F0020086000101F
:10135000AC600010A05E00105C1C0120F05F00106B
:10136000CC600010221000203C60001038B504460C
:101370000D46FFF773FEA10850F8213004F0030476
:10138000E400FF22A24023EA020305FA04F41C430E
:1013900040F8214038BD000038B540F0010E334B15
:1013A000AEEB03032F2B2DD8EFF30581C9B2002933
:1013B0002FD0EFF3108472B64FF05043D3F824319E
:1013C000002BF9D0BFF35F8F4AF6AA230246274DC0
:1013D000521B524153431B0D4FFA83FC244B9B6815
:1013E00053F8213073451BD00023032B37D803EB70
:1013F00043021E4901EB820292F90620624523D086
:101400000133F2E71B4B1C4A40F27F211B4801F0DD
:10141000D9FD1B4B184A40F28221184801F0D2FD39
:10142000134B9B68174A43F82120174B1A78827197
:1014300083F800C0BFF35F8F4FF050430022C3F822
:10144000242184F3108838BD0A4603EB430102EBE4
:101450008101FF258D714BF601528A80E5E70B4B28
:10146000054A40F29321054801F0ACFDE80F002049
:1014700000ED00E04460001080600010A05E0010ED
:101480006C600010110100105C1C012078600010DD
:1014900008B502F071F808BD0C4B03EB800253F85D
:1014A000203083F0400303F0C00302F5805CCCF8E9
:1014B0000030C00000F1804000F52030416002F5AE
:1014C00040524FF480731360704700BF04800340A4
:1014D00008B5002242EC440042EC40000521FFF731
:1014E000DBFF08BD38B5046B14F0010F01D12046B5
:1014F00038BD00F5405340F201321A63436A856AF1
:1015000005EB8315AD02062000F0F8F8044BA3FBB1
:101510000030C00AB5FBF0F00021FFF705FDE6E75B
:10152000757B2B8F70B505460C461646FFF7DAFF24
:10153000E96A4C40344005F58153DC60286370BD96
:1015400070B505460C46062000F0D8F8C300B3FB82
:10155000F4F10131CC0907D04FF6FE739C4214D848
:101560002646C1F3450400E001266E62AC6200220B
:1015700011462846FFF7D6FF062000F0BFF880008E
:1015800004EB8614B0FBF4F070BD00244FF6FF7638
:10159000EBE7000049B10A22054B984214BF002036
:1015A0000120044B23F8102070474FF48072F3E7BA
:1015B00000800740281C012038B504460D4606204F
:1015C00000F09CF848B3174B9C4227D01A22012305
:1015D0009340154A1360134B9C4221D01A230122D9
:1015E0009A40124B1A60124B9B6832EA0303FAD1FD
:1015F00000212046FFF7CEFF29462046FFF7A0FF37
:10160000E36A83F0700303F07E0304F58152D36034
:1016100040F2013323630323A36438BD1B22D6E7C2
:101620001B23DCE70080074000200240003002401E
:101630000000024070B5049D00EB400C4FEA8C0C9A
:101640000CF1804C0CF5803CDCF80440AC4201D23B
:10165000CCF80450A0F1040E5FFA8EFEBEF1010F2B
:1016600027D90CF540544FF4006626601D4C54F801
:1016700020603EB16469B4FBF6F4013404EB440429
:10168000033CFDD2DCF8004084EA421202F0E002A2
:101690000CF580542260BEF1010F16D90CF50052F2
:1016A0004FF400611160CCF804500E4A42F820302B
:1016B00070BD0129D5D10CF5405403262660DCF815
:1016C000084014F0010FFAD0DCE7DCF800204A40B3
:1016D00002F003022260DCF8084001228A40144232
:1016E000F9D0DBE7B01A002010B582B04FF4803497
:1016F0000094FFF79FFF02B010BD0000014B53F8AC
:1017000020007047B01A002070B5049C344DB5FB22
:10171000F1FC344D1544344EB54237D8B2FBFCF5DC
:10172000A5F1100EBEF5987F36D803F1FF3EBEF14D
:10173000060F37D804F1FF3EBEF1060F32D8BCEBDE
:10174000121F35D8240344EA03440368002B35DB19
:10175000264B984242D00E2301229A40244B1A6015
:1017600003F580531A60234B9B6832EA0303FAD1D6
:101770000160856000F54052043221231360036844
:10178000002BFCDAC4600823136070BD1A4B1B4A9F
:1017900011211B4801F016FC1A4B184A1921184850
:1017A00001F010FC184B154A1C21154801F00AFCE9
:1017B000164B124A2321124801F004FC036803F07F
:1017C0003F038B42C4D18368C3F30B03AB42BFD149
:1017D000C36803F4EE23A342BAD1D6E70F23BBE7D5
:1017E000001BB70080E84BD380F8A9320080054089
:1017F0000020024000000240F8600010006200106B
:10180000486100107C61001098610010E4610010D4
:10181000054A00EB400302EB8303596000EB4000F4
:1018200080000123135070470080104008B500234A
:10183000DB8A002242E800F212F4800F02D110216C
:10184000984708BD04219847FBE70000034BD3F8F5
:101850002838002BFAD0BFF35F8F704700000E408E
:10186000002207E0054B13449B00BFF35F8F00216C
:1018700019600132072AF5D9704700BF03820310AF
:1018800008B5FFF7EDFF08BD074B4FF42A621A6059
:101890004FF48D72DA6003F50053044A1A60024B6C
:1018A0005B68002BFBDA70470080044000B0FA0050
:1018B00010B5044602E054F8043B9847014B9C42A3
:1018C000F9D310BD044E00107047000008B502485F
:1018D000FFF7EEFF08BD00BFC84D001008B5024875
:1018E000FFF7E6FF08BD00BFF44D0010064B074AA6
:1018F0001A6003F58053064A1A60064B9A68044B37
:101900009343FAD1704700BF002002407F3BEFEFC6
:10191000F6FFF30300000240054BDB6CB3F5004F0C
:1019200000D07047034B4FF48022DA64F9E700BF20
:1019300000001150002011504FF0E022D2F8881D15
:10194000034B0B43C2F8883D10EE3004704700BFD4
:1019500003033000054B6FF060421A60044B9B6834
:10196000DB4333F06043F9D1704700BF00300240E1
:101970000000024008B545F25320FFF757FF034629
:101980000420984708BD08B545F25320FFF74EFFE5
:1019900003460120984708BD08B5FFF725FB08BDA1
:1019A00010B50C490C4A521A92101446442A28BF0A
:1019B00044229200094802F05FFF04E0084A074B06
:1019C00043F824200134432CF8D9044A054B9A608B
:1019D00010BD00BF0000001010010010000000202A
:1019E0001101001000ED00E038B50420FFF786FE7D
:1019F000064DA5FB0035AD0C002404E02946E0B2FD
:101A0000FFF706FF0134052CF8DD38BD83DE1B43EC
:101A100030B583B0264B0022C3F88420FFF734FF93
:101A2000244B0122DA63224B5B6C012BFBD1214B4F
:101A300003221A631E4B9B6B012BFBD102240094E3
:101A400005231D4A01211D48FFF75EFE052500956F
:101A50002B461B4A01211B48FFF756FE1A4B00225A
:101A600021460420FFF740FE184C234600220121A6
:101A70002846FFF739FE164D2B4600221146082056
:101A8000FFF732FE2B46002211460920FFF72CFEFD
:101A90002346002211460620FFF726FE2346002299
:101AA00011460720FFF720FEFFF79EFF03B030BD71
:101AB0000000014000300140002F6859000005403F
:101AC000008C864700800540001BB70080D1F008DD
:101AD000006CDC0286B003B451FC0804CDE90201BD
:101AE00051FC0904CDE9040151EC0A04CDE90601D9
:101AF00003BCF047BDE800504EEC00C4BDE8005008
:101B00004EEC01C4BDE800504EEC02C400BD000024
:101B100000B5FFF7DFFF02E010FE30F4F8D441EC2F
:101B2000100443EC112400EE010410EE010480EED9
:101B3000200451EC1004704700B5FFF7CBFF02E022
:101B400010FE30F4F8D441EC100443EC112400EE04
:101B5000010410EE210480EE200451EC30047047A3
:101B600000B5FFF7B7FF02E010FE30F4F8D410B56F
:101B700041EC100443EC112451EC040453EC052413
:101B8000A0FB024C5FF0000EE0FB03CEE1FB02CEB7
:101B90004CEC20440024E1FB03E444EC30E480EE10
:101BA000200451EC5004BDE81040704700B5FFF729
:101BB00091FF02E010FE30F4F8D441EC100443EC45
:101BC000112451EC2104A0FB01126FEA820252FBA6
:101BD000100052FB12F252FB1000A0EBD07C53EC31
:101BE00004245CFB13F153EC1524A1FB022001FB40
:101BF000030053EC4424A2EB000050FB1CF24FEA1C
:101C0000111312EB017043EBE27140EA515020EAEC
:101C1000915020F0070053EC7524A0FB023C53ECDC
:101C2000752400FB03CC01FB02CC53EC0424ACEB89
:101C3000824C40EA5C70A0F1010041EC400480EE6F
:101C4000200451EC7004704700B5FFF743FF02E039
:101C500010FE30F4F8D440EC700400EE010410EEF5
:101C6000210480EE200451EC3004704700B5FFF7EA
:101C700031FF02E010FE30F4F8D440EC600400EED6
:101C8000010410EE210480EE200451EC3004704772
:101C900000B5FFF71FFF02E010FE30F4F8D441EC6E
:101CA000800400EE010410EE010480EE400410EE0A
:101CB0001304704700B5FFF70DFF02E010FE30F48B
:101CC000F8D441EC800400EE010410EE010480EE33
:101CD000400410EE3304704700B5FFF7FBFE02E04E
:101CE00010FE30F4F8D441EC100443EC112400EE63
:101CF000010410EE3004C0F30070704700B5FFF728
:101D0000E9FE02E010FE30F4F8D443EC102441EC7C
:101D1000110400EE010410EE30F48CBF012000200D
:101D2000704700BF00B5FFF7D5FE02E010FE30F4AB
:101D3000F8D443EC102441EC110400EE010410EE41
:101D400030F42CBF01200020704700BF00B5FFF722
:101D5000C1FE02E010FE30F4F8D441EC100443EC74
:101D6000112400EE010410EE30F42CBF01200020FD
:101D7000704700BF00B5FFF7ADFE02E010FE30F483
:101D8000F8D441EC100443EC112400EE010410EEF1
:101D900030F48CBF01200020704700BFF8B5044626
:101DA0000E460C4F384603F007F83146204602F045
:101DB00065FA0546384602F0DFFF06FB04F42DB154
:101DC0002C44054B9C4201D82846F8BD0348FFF738
:101DD000B5F800BF90180020000008200C62001029
:101DE000704720B108B50A684968904708BD704738
:101DF0000146002007E000EB8000531C0B601378C5
:101E000003EB400030380A681378303BDBB2092B13
:101E1000F1D970472DE9F04F83B005460E46934641
:101E20001F46DDF830A00D9CDDF838900F9B13F0B5
:101E3000030F19D1A0460192C84509D202F1010B46
:101E40003B4631462020A84708F101085A46F3E7EF
:101E5000DDF804B008E0013C02F101083B463146E0
:101E60001AF80400A8474246002CF4D10F9B13F047
:101E7000020F03D1104603B0BDE8F08FA2EB0B03B5
:101E80004B45F7D2541C3B4631462020A8472246FA
:101E9000F4E72DE9F04385B00C9D0D9C9DF838903A
:101EA000DDF83C80DDF840E0119F129E16F0020F35
:101EB00021D17FB116F0010F0CD0B9F1000F02D182
:101EC00016F00C0F06D0013F04E04FF0300C05F87F
:101ED00004C00134744501D21F2CF6D916F0010F4D
:101EE00009D0BC4207D21F2C05D84FF0300C05F8A2
:101EF00004C00134F2E716F0100F17D016F4806F0B
:101F000004D11CB1744524D0BC4222D0B8F1100FCA
:101F10002BD0B8F1100F33D0B8F1020F3BD01F2CEB
:101F200004D84FF0300C05F804C001341F2C07D83A
:101F3000B9F1000F37D04FF02D0C05F804C0013473
:101F40000396029701940095FFF764FF05B0BDE882
:101F5000F083B4F1010C06D0B8F1100F01D0644643
:101F6000D4E7023CD2E76446D0E716F0200FD0D188
:101F70001F2CCED84FF0780C05F804C00134CEE702
:101F800016F0200FC8D01F2CC6D84FF0580C05F8FB
:101F900004C00134C3E71F2CC1D84FF0620C05F810
:101FA00004C00134BBE716F0040F05D04FF02B0C32
:101FB00005F804C00134C3E716F0080FC0D04FF095
:101FC000200C05F804C00134BAE7F0B591B0169CB6
:101FD000189D1B9E0CB926F0100616F4806E16D0C4
:101FE00064B34FF0000E12E00CF1300C5FFA8CFC81
:101FF0000EF101070EF1400EEE440EF820CCB4FBBA
:10200000F5FCAC421BD31F2F19D8BE466446B4FB67
:10201000F5FC05FB1C4C5FFA8CFCBCF1090FE3D905
:1020200016F0200F08D04127BC445FFA8CFCACF1BD
:102030000A0C5FFA8CFCDBE76127F5E7274606967A
:102040001A9C0594199C049403959DF85C40029495
:10205000019708AC0094FFF71CFF11B0F0BD2DE90B
:10206000F04F95B009900A910B929B461E9D1F9EC2
:10207000229FDDF88C80DDF898A055EA060301D197
:102080002AF0100A1AF480641FD055EA060330D0F3
:1020900000241AE003F13002D2B204F1010904F184
:1020A00050030DEB030404F8202C3A46434628461F
:1020B000314602F059FEBD4276EB08031BD3B9F15D
:1020C0001F0F18D84C4605460E463A46434628464A
:1020D000314602F049FED3B2092BDBD91AF0200FAA
:1020E00005D041221A44D2B20A3AD2B2D5E76122CF
:1020F000F8E74FF00009CDF818A0259B0593249B25
:10210000049303979DF880300293CDF804900CABB4
:1021100000935B460B9A0A990998FFF7BAFE15B02F
:10212000BDE8F08F000000002DE9F04F91B00446AB
:102130000D4617461E46DDE91A2310461946FFF7DD
:10214000CFFD002840F0ED804FF0FF32AE4BDDE9CF
:102150001A01FFF713FE002840F0E3804FF0FF3232
:102160006FF48013DDE91A01FFF7CCFD002840F081
:10217000D88000220023DDE91A01FFF7C3FD002803
:1021800040F0E2809DED1A7B8DED067B1E9B13F4E3
:1021900080630D9301D106231C93DDE906231046CD
:1021A0001946CDE9080152EA030100F0D880C3F3D3
:1021B0000A50C3F31303904643F07F5949F4401982
:1021C000A0F2FF30FFF744FD7DA3D3E90023FFF722
:1021D000CBFC7DA3D3E90023FFF79EFC82468B4610
:1021E00000228A4B40464946FFF7AAFC78A3D3E970
:1021F0000023FFF7B9FC02460B4650465946FFF74D
:102200008BFCFFF749FD8246FFF722FD8046894699
:1022100071A3D3E90023FFF7A7FC00227C4BFFF753
:102220007BFCFFF739FD83466DA3D3E900234046CD
:102230004946FFF799FC804689465846FFF708FD56
:1022400069A3D3E90023FFF78FFC02460B46404603
:102250004946FFF775FC8046894602460B46FFF764
:1022600083FCCDE90A010BF2FF3B00210022CDE9FE
:1022700008124FEA0B5309930023089342464B463A
:1022800040464946FFF748FCCDE90E0142464B4621
:1022900000204FF08041FFF753FC80468946002222
:1022A0005C4BDDE90A01FFF785FC00225A4BFFF782
:1022B00033FC02460B46DDE90A01FFF77BFC0022F6
:1022C000564BFFF729FC02460B46DDE90A01FFF7F2
:1022D00071FC02460B4640464946FFF71DFC02468C
:1022E0000B46DDE90E01FFF765FC00224C4BFFF7C2
:1022F00013FCDDE90823FFF737FC80468946CDE96A
:102300000889DDE90623FFF739FD50B30AF1FF3AEA
:102310000022414B40464946FFF74CFCCDE90801FD
:102320001FE01E9B04931D9B03931C9B02939DED3A
:102330001A7B8DED007B33463A462946204600F055
:1023400003F911B0BDE8F08F9FED297B8DED067B81
:102350001A9B06931B9B03F10043079316E74FF06C
:10236000000A0AF16303C62B27D84FF004081E9B0E
:1023700013F4006F5FD0DDE9081213460B4313D04E
:102380001DA3D3E90023DDE90601FFF7E3FC0028E4
:1023900000F0B4801AA3D3E90023DDE90601FFF7BA
:1023A000B1FC002800F0AA801C9B53453ADDA3EB4A
:1023B0000A0A0AF1FF331C9336E04FF00508D6E70E
:1023C000FB799F501344D33FB3C8608B288AC63F24
:1023D00061436F63A787D23F71A379094F930A4086
:1023E0001655B5BBB16B0240EF39FAFE422EE63FFF
:1023F00000000000000000002D431CEBE2361A3FF5
:102400000000000080842E41FFFFEF7F0000F83FB6
:102410000000E03F00002C40000024400000184075
:102420000000F03F00231C931E9B43F480631E9327
:102430004FF00008C2461D9B984569D2A3EB0809DE
:102440001E9B13F0020B04D0B8F1000F01D04FF027
:102450000009BAF1000F07D0DDE90823DDE9060124
:10246000FFF7A8FBCDE9060100220023DDE91A01F0
:10247000FFF748FC00284ED11E9B23F40063049311
:10248000CDF80C901C9B02939DED067B8DED007B9F
:1024900033463A462946204600F056F8B8F1000F78
:1024A0003FF44FAF1E9B13F0200F3CD04FF0450C74
:1024B00000F101093346024629466046A0478AEAF0
:1024C000EA72A2EBEA720523059308F1FF33049345
:1024D000002303930A2302934FEADA7001900092DB
:1024E00033464A4629462046FFF76FFDBBF1000FF1
:1024F0003FF427AF0246DDF874901EE01C9B002BD2
:1025000099D00D9B002B96D01C9B013B1C9392E70E
:102510004FF0000994E7DDE90601024601F10043AE
:10252000CDE90623A8E74FF0650CC1E702F10108E9
:10253000334629462020A0474246D31B4B45F5D3BE
:102540001046FEE6000000002DE9F04F2DED028B55
:1025500095B007900A9192469B46DDE92089229D1D
:1025600042464B4640464946FFF7BAFB002835D164
:102570004FF0FF326FF4801340464946FFF7C2FB2D
:1025800000283AD14FF0FF329F4B40464946FFF7B3
:10259000F5FB002840D198A3D3E9002340464946E3
:1025A000FFF7ECFB00284FD195A3D3E90023404669
:1025B0004946FFF7A7FB002846D1002200234046EA
:1025C0004946FFF79FFB00284CD100230B93249B27
:1025D00013F4806F00F0B780002456E0249B03932F
:1025E000239B029303230193884B00935B4652463F
:1025F0000A990798FFF70EFC37E1249B0393239B6E
:10260000029304230193824B00935B4652460A993E
:102610000798FFF7FFFB28E1249B13F004030FD07A
:102620007C4A7BB10423249903912399029101935D
:1026300000925B4652460A990798FFF7EBFB14E1BC
:10264000754AEEE70323EEE7249B0493239B039351
:102650000295CDE900895B4652460A990798FFF733
:1026600063FD02E142464B4600200021FFF768FA75
:102670008046894601230B93A9E704F150036B447C
:10268000302203F8202C013D01341F2C01D8092DE4
:10269000F3D840464946FFF7FFFA0646FFF7D8FA57
:1026A00002460B4640464946FFF74AFA5B4B03EBAE
:1026B000C50393ED008B53EC182BFFF755FA024638
:1026C0000B46CDE90823FFF7F9FA0746FFF7D2FAE0
:1026D00002460B46DDE90801FFF732FA02460B46D7
:1026E000CDE9082300224E4BFFF748FB68B30137C2
:1026F0003846FFF7BFFA02460B4651EC180BFFF7BE
:1027000015FB08B1013600276DBB3046FFF7A0FA74
:1027100002460B4640464946FFF712FA07468846EE
:1027200000223F4BFFF7EEFA00284CD100223C4B31
:1027300038464146FFF722FB002844D116F0010F2E
:1027400041D001363FE0062546E70022344BDDE963
:102750000801FFF7D7FA0028D6D117B117F0010FFB
:10276000D2D00137D0E71F2C17D8013D2D4BA3FB4A
:102770000723DB08194603EB8303A7EB4303621C23
:10278000303304F150000DEB000404F8203C092F15
:1027900002D90F461446E6E714461F2C0AD86B1ED2
:1027A00045B104F150026A44302102F8201C1D4654
:1027B0000134F2E71F2C06D804F150036B442E229B
:1027C00003F8202C01341F2C31D8174A82FB063223
:1027D000F317C3EBA2031A4603EB8303A6EB4303F1
:1027E000611C303304F150000DEB000404F8203C70
:1027F0001646DAB10C46E6E70000000065CDCD4193
:102800000000000065CDCDC1FFFFEF7FBC6200106E
:10281000C0620010B4620010B0620010C862001004
:102820000000E03FCDCCCCCC676666660C46249BAE
:1028300003F00303012B1DD01F2C09D80B9B002B89
:1028400035D004F150036B442D2203F8202C0134C1
:10285000249B0393239B029301940CAB00935B4650
:1028600052460A990798FFF7D5FA15B0BDEC028BCE
:10287000BDE8F08F239BB3B10B9B1BB9249B13F0D6
:102880000C0F12D0239B013B2393194606E004F161
:1028900050036B44302203F8202C01348C42CBD2FD
:1028A0001F2CF4D9C8E72399F8E72399F6E7249B6E
:1028B00013F0040F07D004F150036B442B2203F8EC
:1028C000202C0134C4E7249B13F0080FC0D004F17E
:1028D00050036B44202203F8202C0134B8E700BFDA
:1028E0002DE9F04F8FB0074616460D938846002914
:1028F00000F0248300240D9B1878002800F020832A
:10290000252809D0651C334622464146B8470D9B11
:1029100001330D932C46EEE701330D9300250D9BFB
:102920001978A1F12002102A0AD8DFE802F038094C
:10293000093D0909090909090933092E090929006D
:10294000A1F13003DBB2092B33D92A2936D0002379
:102950000A930D9B1A782E2A40D04FF0000B0D9A47
:102960001378683B122B77D8DFE803F06476D376D0
:102970005676767676767676727676767676D8002F
:1029800045F0010501330D93C9E745F00205013318
:102990000D93C4E745F0040501330D93BFE745F0FF
:1029A000080501330D93BAE745F0100501330D9387
:1029B000B5E70DA8FFF71CFA0A90CAE7189B1A1D85
:1029C00018921868002804DB0A900D9B01330D93C0
:1029D000BFE745F0020543420A93F6E745F48065F8
:1029E0005A1C0D925A78A2F13003DBB2092B04D99C
:1029F0002A2A07D04FF0000BB1E70DA8FFF7F8F92E
:102A00008346ACE7189B1A1D18921B6823EAE37BE8
:102A10000D9B01330D93A2E745F48071531C0D9378
:102A200052786C2A01D00D4616E045F4407501330A
:102A30000D9311E045F08001531C0D935278682AE4
:102A400001D00D4608E045F0C00501330D9303E0C9
:102A500045F4807501320D920D9B1878A0F1250385
:102A6000532B00F26182DFE813F054025F025F0231
:102A70005F025F025F025F025F025F025F025F024E
:102A80005F025F025F025F025F025F025F025F023E
:102A90005F025F025F025F025F025F025F025F022E
:102AA0005F025F025F025F025F0274015401740102
:102AB0005F025F025F025F025F025F025F025F020E
:102AC0005F025F025F025F025F025F025F025F02FE
:102AD0005E005F025F025F025F025F025F025F02F1
:102AE0005F025F025E009B015E007401540174018D
:102AF0005F025E005F025F025F025F025F025E00D4
:102B000039025F025F02D4015F025E005F025F0272
:102B10005E0045F4007501320D929DE745F4807525
:102B200001320D9298E7782809D058283AD06F28BA
:102B30003AD062283AD025F010050A2300E010238D
:102B4000582835D0692803D0642801D025F00C0519
:102B500015F4806F01D025F0010569282BD0642879
:102B600029D015F4007F40F0968015F4807F40F066
:102B7000AE8015F0400F00F0BF80189A111D18911B
:102B8000127805950A990491CDF80CB002930023B0
:102B9000019300923346224641463846FFF715FA24
:102BA000044629E01023CBE70823C9E70223C7E73F
:102BB00045F02005C6E715F4007F21D115F4807F8C
:102BC00042D115F0400F58D0189A111D1891127863
:102BD00082EAE271A1EBE27105950A980490CDF8C2
:102BE0000CB00293D20F0192009133462246414627
:102BF0003846FFF7EAF904460D9B01330D937AE658
:102C0000189A073222F0070202F108011891516860
:102C100012680846002913DB08950A9D0795CDF830
:102C200018B0049300230593C90F029100920190FC
:102C30003346224641463846FFF711FA0446DBE7A1
:102C4000524261EB4100E7E7189A111D1891126892
:102C500082EAE271A1EBE27105950A980490CDF841
:102C60000CB00293D20F01920091334622464146A6
:102C70003846FFF7AAF90446BEE715F0800F05D0E5
:102C8000189A111D1891B2F90020A1E7189A111D88
:102C9000189112689CE7189A073222F0070202F195
:102CA0000801189108950A990791CDF818B00021EC
:102CB000049305910291D2E90023CDE90023334624
:102CC000224641463846FFF7CAF9044694E7189A67
:102CD000111D189105950A990491CDF80CB0029335
:102CE0000023019313680093334622464146384639
:102CF000FFF76BF904467FE715F0800F04D0189AB0
:102D0000111D189112883CE7189A111D189112682C
:102D100037E746281AD0189B073323F0070303F13F
:102D20000802189204950A9A0392CDF808B0D3E9E4
:102D30000023CDE900233346224641463846FFF7BB
:102D400003FC04460D9B01330D93D4E545F02005AB
:102D5000E1E7672801D0472801D145F400654528FF
:102D600001D0472801D145F02005189B073323F0F7
:102D7000070303F10802189204950A9A0392CDF80A
:102D800008B0D3E90023CDE900233346224641466B
:102D90003846FFF7C9F904460D9B01330D93AAE5A8
:102DA00015F002051FD04FF001091898031D189364
:102DB00004F1010A3346224641460078B847BDB9BE
:102DC0000D9B01330D93544695E502F1010A3346FC
:102DD00041462020B8474B46524603F101099B4526
:102DE000F3D81446E1E70123DDF828B02246F4E7E2
:102DF0005246DDF828A006E0551C33464146202007
:102E0000B847A1462A4609F10104CA45F4D89246BA
:102E1000D6E7189B1A1D1892D3F800A0BBF1000F3B
:102E20001ED14FF0FF33D14602E009F101091346EC
:102E300099F8002012B15A1E002BF6D1A9EB0A090D
:102E400015F480630B9302D0D94528BFD94615F0FD
:102E500002030C9306D022465C46B3460B9E1DE04F
:102E60005B46E0E722460A9C4B4607E002F1010977
:102E7000334641462020B8472B464A465D1C9C42BB
:102E8000F4D8A9465C46B3460B9E07E01C460AF1FF
:102E9000010A551C5B464146B8472A469AF800008D
:102EA00020B1002EF3D0631E002CEFD114465E46F5
:102EB0000C9B1BB90D9B01330D931CE5DDF828A07D
:102EC00006E0551C334641462020B847A1462A4615
:102ED00009F10104CA45F4D81446EBE745F0210591
:102EE000189B1A1D18921B68059508220492CDF8AC
:102EF0000CB0102202920022019200933346224627
:102F000041463846FFF761F804460D9B01330D93A7
:102F1000F1E4651C3346224641462520B8470D9B07
:102F200001330D932C46E6E4651C334622464146A8
:102F3000B8470D9B01330D932C46DCE4074FD9E4D1
:102F4000B44201D3721E00E02246334641460020BF
:102F5000B84720460FB0BDE8F08F00BFE11D00105C
:102F600000B585B002900391009313464FF0FF32F5
:102F700002A90348FFF7B4FC05B05DF804FB00BFED
:102F8000E31D001000BEFDE70346094A126842B186
:102F9000074A10680344074A934206D8044A13605C
:102FA0007047034A04491160F2E74FF0FF30704761
:102FB000081B002000000820641C012008B5FFF752
:102FC000E1FF000000B583B08C46194613465AB1A4
:102FD000074A5BB10193009263460246054800F040
:102FE000B1F90120FFF7CEFF034AF2E7024BF1E708
:102FF00018630010286300102463001010B5EFF36D
:103000000583DBB203B100BEFEF760FC044C02E0B6
:1030100054F8043B9847034B9C42F9D310BD00BFC2
:10302000044E0010084E001008B5034608461B6801
:103030001146984708BD0000F8B507460D461646EC
:10304000437D13B1002420460CE003681146284656
:1030500098472EE03B7D10E03B68022115489847D9
:10306000601C0134B44214DA002CF3DD2B1913F880
:10307000013C0D2B14BF002301232A5D0A2AF0D145
:10308000002BEED1A042E7DA3B68211A284498478A
:10309000E2E7B04203DA3B68311A28449847002E31
:1030A00007DD354415F8013C0D2B14BF0023012327
:1030B0003B75F8BDAC63001038B50368BBB105467D
:1030C0000B4B1C6806E0294651F8042B2046FFF7FD
:1030D000B3FF24694CB12368002BFAD0054B1B6861
:1030E000002BF0D0A342F4D1EDE700232B6038BDD4
:1030F000E81A0020F01A002038B505460C460B6887
:10310000802B05D021684B1C23600C44257138BDF1
:103110000846FFF7D1FFF5E708B5FDF7FDFE074AC2
:10312000821841F10003002B03DB054801F03CFE4F
:1031300008BD4FF0FF326FF00043F6E740420F004A
:103140009818002008B5024801F016FE08BD00BF1F
:10315000981800202DE9F04383B006460D469046AE
:103160001C46FFF7D9FF8146B5F1FF3F04D044B1BB
:10317000174F184B1C6807E0304601F063FC05460A
:10318000F5E7154FF5E72469BCB12368002BFAD0A9
:10319000124B1B680BB1A342F5D12A46314620469B
:1031A000B847B8F1000FEED00A238DF8073001229E
:1031B0000DF107012046B847E5E7B9F1000F03D14B
:1031C000284603B0BDE8F083FFF7BCFFF8E700BF77
:1031D00039300010E81A002029300010F01A0020C1
:1031E0002DE9F04106460D4690461F4623E0A368B0
:1031F00023B1294630469847002823DC246934B19E
:10320000114B1B68002BF2D0A342F7D1EFE70F4B15
:103210005B6A9F4209D80D4A926A42450ED29F428C
:1032200001D0012302E0002300E0002343B9012084
:103230000021FDF779FE064B1C68E0E70123F5E766
:103240006FF00100BDE8F081F01A002000000B4093
:10325000E81A0020084A01E003F1100213683BB1AC
:103260008342F9D131B903691360002303617047C8
:1032700001B11060704700BFE81A002010B5054B7F
:103280001C6801E0984724691CB16368002BF9D1E0
:10329000F9E710BDE81A002010B582B00446FDF72A
:1032A0003BFE221841F10003002B0ADB012101A89B
:1032B000FFF796FF002802DB40B19DF8040002B042
:1032C00010BD4FF0FF326FF00043EFE7034B044AAD
:1032D00040F203110348FFF775FE00BF586300106A
:1032E000906300105C63001038B5054601F0AAFB3E
:1032F000044601231A4601462846FFF72BFFFFF735
:10330000BDFF204638BD000070B5A2B004460E4691
:10331000FFF702FF0546002301933346224601A929
:103320000748FFF71DFE044601A8FFF7C5FEFFF79B
:10333000A5FF15B9204622B070BDFFF703FFF9E7DE
:10334000F93000100FB400B583B004A951F8040B94
:103350000191FFF7D9FF03B05DF804EB04B07047AB
:1033600030B583B086460C464FF0000C13E00D23B9
:103370008DF8073000200DF10701E0B9936913F0D3
:10338000200FFBD10B4613F8011B116001301946C9
:10339000F3E70CF1010CA4451FDA114B1A681EF873
:1033A0000C50104B9A4214BF002301230E4931F9EF
:1033B0001330AB42DBD08DF8075000200DF1070130
:1033C0000028E6D1936913F0200FFBD10B4613F8C8
:1033D000011B116001301946F2E703B030BD00BF98
:1033E0002C1C012000800740281C012070B582B0F1
:1033F00005460E46002104E09DF807308EF80030A7
:103400006146B14218DA164B1A68906910F0100044
:1034100012D101F1010C05EB010E0DF1070100289D
:10342000EAD1936913F0100FFBD114680B4603F82F
:10343000014B01301946F2E70A4B1B684BB1084BB0
:103440001B6850229A635A6B02F0380203F58153CD
:103450005A6111B1084602B070BD6FF00201F9E780
:103460002C1C0120A01A002008B5054B1B6833B1A5
:10347000044A126800219163034A1068984708BD06
:10348000A01A00202C1C0120A41A0020034B1A684B
:10349000936913F0080FFBD1704700BF2C1C01206B
:1034A00038B51C4B1B681C4A934206D0212410B12E
:1034B0001A4A12681AB1C8B138BD2224F7E7174B6F
:1034C0001860174B196017492046FDF753FE01217C
:1034D0002046FDF73DFE0F4B1B6850229A635A6B46
:1034E00002F0380203F581535A61E5E70B4A12688E
:1034F000002AE1D000259D6329462046FDF728FEDD
:1035000008492046FDF760FE044B1D60044B1D601A
:10351000D2E700BF2C1C012000800740A01A002029
:10352000A41A00206934001038B50D461C46104B13
:103530001860101E05DB10F0020F15D00B21FDF7EF
:10354000ABFF002C06DB14F0020F0FD00B2120463E
:10355000FDF7A2FF2946064B1868FEF72DF801215A
:103560000448FFF777FE38BD0221E8E70221EEE7C5
:103570002C1C01203010002008B5074B1B78074B8E
:103580001B78074B1B78012300224FF4E1310548DB
:10359000FFF7CAFF08BD00BF44670010486700106E
:1035A0004C67001000000740800100F1A040704708
:1035B00000F01F00704700BF002814BFC02040204B
:1035C00009B142F0100202F01F02104340F4005013
:1035D000704700BF01F01F0100F0070041EA4010F2
:1035E00040F4C040704700BF01EB410100EBC10156
:1035F000C1F8D820704700BF01EB410100EBC101C9
:10360000D1F8CC00C00F70470123426818318B40BD
:10361000134214BF01200020704700BF4FF0004349
:1036200001EB4101C900D031084400F5805003602E
:1036300003607047000C704780B27047401A002842
:10364000D4BF00200120704703688B610160704780
:1036500039B10B461A469B69002BFBD10368936175
:103660000160704703681BB10022996901609A618B
:1036700018467047036823B19A6902601AB10022A4
:103680009A611846704718460A607047054B82B227
:103690005B89013B93428EBF013000F58030801A78
:1036A000704700BF381C0120036803B330B41468AE
:1036B0001D68A4EB050CBCF1000F14DD0D68286833
:1036C000201A002807DDAA610A6030BC704719681B
:1036D000611A002903DD18469B69002BF7D193611D
:1036E00030BC82617047936130BC026070470A60F1
:1036F000036893610260704710B5054B054C1B6869
:10370000A0619847044BDB8913FB00F0E08310BDF8
:10371000901A0020A41B0120381C0120012030B584
:103720004FF00214097BB3F80AE0013901FA00FCFA
:1037300084444FEA0C2C1FFA8CFC4CEA0E0EA3F8C2
:103740000AE0B3F80CE049024CEA0E0EA3F80CE0D4
:10375000B3F80EE089B241EA0E0EA3F80EE0B3F81A
:1037600012E00F4D41EA0E0EA3F812E0B3F816E096
:1037700041EA0E0EA3F816E0B3F81AE04CEA0E0C7C
:10378000A3F81AC0B3F81EC041EA0C0CA3F81EC07F
:10379000B3F806C041EA0C01D980C2E9015430BD3A
:1037A000F41A002008B54FF41571024B024A034881
:1037B000FFF708FCF8630010746500102064001027
:1037C00008B540F21D51024B024A0348FFF7FAFBCD
:1037D000646400109C6500102064001070B59C4665
:1037E0000124164682B000940CF10D040546240312
:1037F00008460CF10B0144EAC114102300223146A3
:1038000000F07FFC24F47E046EB144F438144FF4CD
:1038100080324FF08073284604492A60C5E901418F
:10382000EB6002B070BD44F40034F0E700000E40DD
:103830002DE9F0416A4D82B06A6BEFF3108072B6E9
:103840001368002BFCD0BFF35F8F95F83D30002B41
:103850005AD1AB6B002B40F0BA8095F83C30002B6E
:1038600040F0BC806A6BBFF35F8F136080F31088F9
:103870001C460193EA68EFF3108772B61368002BB9
:10388000FCD0BFF35F8F2B69002B6ED0EB68BFF3CA
:103890005F8F00221A6087F31088E4B12A68EFF383
:1038A000108772B61368002BFCD0BFF35F8F4D4EAC
:1038B000013C31464C48FFF7DDFE013C014601A8C2
:1038C000FFF7C2FE631CF4D12B68BFF35F8F0022A9
:1038D0001A6087F31088019999B1EA6AEFF31084AE
:1038E00072B61368002BFCD0BFF35F8F3F48FFF721
:1038F000AFFEEB6ABFF35F8F00221A6084F310887B
:1039000040BF02B0BDE8F0814FF0A043D3F80C14E3
:10391000AA6BCF0712D5012142EA010432F001025D
:10392000C3F80C1414D0D3F80C24D20705D5C3F86F
:103930000C14D3F80C24D607F9D4AC636B6BBFF32B
:103940005F8F00221A6080F3108802B0BDE8F0811A
:10395000002395F83C406A6BAB63AB87BFF35F8F86
:10396000136080F31088019384E76E6A002E8DD077
:10397000DFF880800BE041461D48FFF77BFE3146B3
:1039800001A8FFF761FE6E6A002E3FF47FAFAB69BE
:1039900031681846FFF752FE0028ECD18B427FF4C5
:1039A00075AF1449081FFFF765FE2B681A68002AD7
:1039B000FCD0BFF35F8F0B493246081FFFF774FE40
:1039C0002B68BFF35F8F002119602E615EE740F224
:1039D0005221094B094A0A48FFF7F4FAFFF7E2FEC1
:1039E000A41B0120AC1B0120A81B0120D41B01201B
:1039F000C81B0120CC1B01208864001074650010D6
:103A000020640010000000002DE9F04F344F4422E4
:103A10009BB081460C463846002100F0A3FF0220EF
:103A2000FDF7F0FA03460420FB60FDF7EBFA78633C
:103A30000320FDF7E7FA0346DFF8C8800520FB62A4
:103A40004546FDF7DFFA4E464FF0FF3338607B61A5
:103A50000FCE0FC53368C8F800402B609BB213B976
:103A60000123A8F81030B9F808301E4A5B08033B60
:103A700093801D4B00211A601C480122FCF76EFE4A
:103A80004FF47A710120FEF789F9FA26DFF878B051
:103A9000CBF80400ABF80A600BF11C050BF1700ABF
:103AA00045F8045C4FF47A710120FEF777F91C3574
:103AB00025F8126C554545F8180CF1D10025C7F8CA
:103AC00030B0CBF86C50BFF35F8F094B094E1B78B9
:103AD000094B1B78094B1B78094B1B781BE000BF77
:103AE000A41B012048100020F41A0020301C0120E3
:103AF00050670010DFFF0300546700105867001084
:103B00005C670010381C0120341B01200135122D88
:103B10004FEA56060AD0F007F8D5284606210135A7
:103B2000FDF7BAFC122D4FEA5606F4D10520FDF739
:103B3000E5FD2268DFF808B3B0FBF2F3ABF8003024
:103B40009BB202FB03F3834240F04B81D9F804504F
:103B50002B681A79202A00F24881D3E9001A0AAEAC
:103B60005200304600F088FE3346A34A49462846B4
:103B7000CDE9046AAD68A847A04804A900F0A9FAF5
:103B8000D9F804309E4A1B6810701B79002B00F096
:103B90002581B44600214FF0FF3542F2C4093CF8BC
:103BA000022B4A4508BF0D4601318B42F7D1012255
:103BB000914B3D640021C5B292481A75FFF7C2FBD4
:103BC000D8F804300022DF688C492B4606A8B84795
:103BD000BBF800302A46D8015B08C0B21B0443EA98
:103BE000002300210693854806AB00F0D9FA864AE7
:103BF000864B257E0592049693E8070086E8070029
:103C0000002D40F0D4804CF204034CF244064CF2F8
:103C100001074FF440480393DFF8E09104A94846B8
:103C200000F057FA05464FF0010A794B0321754819
:103C30001D70FFF787FB9FED6E7BBBF80030EDB288
:103C4000DA0123FA0AF3D2B21B0443EA02230693F1
:103C50006B1D05EB0A021B0343EAC213484603210E
:103C60001022CDF800A0079302238DED087B00F011
:103C700048FA2A4606AB4846032100F091FA002193
:103C80000F20FDF773FB40211020FDF76FFB402153
:103C90000A20FDF76BFB504600F030F94FF0A043CF
:103CA00000225C49DFF89CE1C1F804A4DFF898C168
:103CB00059495A4D1A600320C3F804E09A60C3F8CA
:103CC00010C0C3F8C020C3F8C450C3F8C8A0C3F8DC
:103CD000D01000F007F94CF24403C9F82031A37D5D
:103CE0002189002BA37B0BBF4FF0804B4FF0000BC3
:103CF0004FF000094FF08049002B0CBF52460022C4
:103D0000A389B4F80AE0A088A3EB0101A1EB0E019E
:103D1000A1EB0001AEF10700B4F806A0B4F810C0A2
:103D20004FEA004048EA427847EA427540EA42706A
:103D3000628AD44448F48037B4F8148002EB0C044F
:103D4000374AA3EB0103C2E902C445F4803540EAD7
:103D50000600A1F10304A3EB0E03C2E900A8C2E927
:103D60000597C2E90750C2F810B046EA0444A3F12F
:103D700003032CD0039944F0005441EA03474FF069
:103D800020411B0443F000531E43264B3943C3E933
:103D9000010401209162C2F8309023495462D66236
:103DA000224A1D60DE6011601BB0BDE8F08F204B21
:103DB000204A4DF24406CDE90A231F4B4DF201077C
:103DC0000C934DF204034FF45048039324E70399F6
:103DD00041EA03474FF000411B04D5E74FF0FF35A0
:103DE000E5E601461548FDF7A9F8FFF7E9FC00BF35
:103DF00000000E0010002020741A00200000205047
:103E00005F1C01203065001006FF0100E465001012
:103E10005E1C01200020005059727E003C000050C2
:103E2000EC1B0120D81A002001030020901A00206A
:103E30002D600370A090F06042A04410DC6400107C
:103E40005A1C012010002050196080000168FFF703
:103E5000DBBD00BFF8B51B4E3378834200D1F8BDFF
:103E600080224FF4407C184B184F194D0146C7F87B
:103E700000C004461A604FF4C230FDF74DF9092125
:103E8000284600F015F94FF410622B6823F009035F
:103E90002B60104B1A609CB10F4B104A5B68127874
:103EA0001B7903F01F0313440D4AC5F8D83013786B
:103EB00003F01F03C5F820312B6843F009032B6082
:103EC0003470F8BD601C01207C21205070212050EE
:103ED0000000205000202050381C01205F1C0120D1
:103EE0005E1C012008B50146024A0348FDF754F85C
:103EF00008BD00BFF0650010581C012038B504460D
:103F0000002501E00135640834B114F0010FF9D047
:103F10002846FFF7E7FFF5E738BDD0F8683113B161
:103F200011F0010F05D133B911F0040F05D00020B5
:103F3000704700207047012070470120704708B586
:103F4000C979FFF7EAFF08BD70B504460D4616466D
:103F5000FFF7F5FFD0B195F90530002B01DBB34237
:103F600017D104F12F4000F56000000D0A4B53F803
:103F700020102A7901239340013B03FA06F20A42FA
:103F800001D1002070BD6FF00800FBE76FF00A0060
:103F9000F8E76FF00A00F5E7941A0020F8B5064636
:103FA0000D461746FFF7D0FF20BB034606E003EBA4
:103FB000070C0CF1120C46F82C4001332979994278
:103FC00007D92A6832F8134014F4604FEFD13C440B
:103FD000EDE7012303FA01F1013906F12F4606F559
:103FE0006006360DB940044A52F82630194342F8AB
:103FF00026103846F8BD00BF941A002010B50A7983
:10400000202A19D800F12F4000F56000000D154B53
:1040100053F8204001239340013B91F905100029FA
:1040200010DB0846C2F12002914218DC8B4023428B
:1040300001D04FF0FF3010BD0B4B0C4A43210C4810
:10404000FEF7C0FFC2F12000002805DB03FA00F2F2
:104050002242F0D00138F7E76FF00800EBE74FF0AD
:10406000FF30E8E7941A002014660010D8660010AC
:104070004066001008B500F12F4000F56000000D0B
:1040800002280AD0012806D0054A01EB8001054824
:10409000FCF782FF08BD044AF7E7044AF5E700BFD2
:1040A00074660010AC1A0020B46600109066001010
:1040B00070B506460C46002501E0013564083CB1A8
:1040C00014F0010FF9D029463046FFF7D3FFF4E78B
:1040D00070BDF8B505460E46FCF748FF0746314669
:1040E0002846FFF78BFF041E04DA3846FCF74AFF28
:1040F0002046F8BD224631462846FFF74FFF0446CA
:10410000F3E7F0B59DF81470D0F86841121B1F2A30
:1041100043D801EB410400EBC404D4F8DC60D4F8CC
:10412000CC5001EB4104E400C834044404F540548D
:104130004FF4003CC4F804C017B14FF01F0E15E057
:104140004FF0000E12E0540144F0A05401EB410C7A
:1041500000EBCC0CCCF8DC404EF4604444F080041E
:10416000CCF8D840053B053202F01F02052BEAD8F7
:10417000520142EA836201EB410400EBC404C4F83B
:10418000DC204EF4604343F08003C4F8D830C4F818
:10419000DC60C4F8CC500020F0BD6FF00400FBE7F9
:1041A00030B589B086468C4614460268012101FA72
:1041B0000CF122EA01020260002B38D01A4619687D
:1041C0000CEB4C0300EBC303C3F8C8109168C3F8B1
:1041D000D0105168C3F8CC10D268C3F8DC200CEBC7
:1041E0004C03DB00D033734403F580534FF000429F
:1041F0001A601A604FF0013303FA0CF3CEF808305E
:104200000CF10402012303FA02F20EF500510A60D8
:104210000CF1080293400B6004F01F040CEB4C0CF3
:104220000EEBCC0CCCF8D840002009B030BD04AB6C
:10423000002204920592069207924FF48032049273
:104240004FF4F83205924FF4802206924FF4402248
:1042500006926D460FCB85E80F000CEB4C030EEB7E
:10426000C303C3F8C8004FF44022C3F8D020C3F8FA
:10427000CC100022C3F8DC20B1E70000024B0A4654
:104280000146186800F002B85410002038B5A1FBB0
:1042900002145CBB00F036F80546C0B150F8042C9F
:1042A00022F00302043A242A13D8132A0AD91B2A1B
:1042B000C0E9004412D9242AC0E9024411D000F117
:1042C000100200E002460023C2E900339360284652
:1042D00038BD214600F046FB284638BD00F10802F3
:1042E000F1E700F11802C0E90444ECE700F004F83B
:1042F0000C2300250360EAE7014B1868704700BFF4
:104300005410002001F10B03162B2DE9F04F054648
:1043100083B024D8102900F2F58000F075FB10243A
:1043200018220220C04E32445368A2F108018B4289
:1043300000F0EF805A68284622F00302D3E90241D8
:104340001A44E1608C6003F10804536843F00103F0
:10435000536000F05FFB204603B0BDE8F08F002BF8
:1043600023F00704C0F2CE80A14200F2CB8000F01F
:104370004BFBB4F5FC7FC0F0C281630A00F03381CF
:10438000042B00F29881A30903F1390003F13807E7
:10439000C300A54E3344A3F1080C5B689C4507D1CC
:1043A000BCE0002980F25081DB689C4500F0B680BB
:1043B0005A6822F00302111B0F29F2DD33693846D7
:1043C000DFF87CE2734540F0AF8083100121726812
:1043D0009940914240F2D180B7687B6823F003098D
:1043E000A9EB04030F2B02DD4C4540F20C818F4BEF
:1043F00007EB090B1B6804EB03088D4B1A680132AD
:1044000000F0CB8141F20F024244DFF8388202EA29
:1044100008084146284600F003FBB0F1FF3F824602
:10442000834B00F0A981B74202D0834500F2A481FA
:10443000804AD34511684144116000F0A08118689A
:10444000013000F0A781AAEB0B0B594411601AF060
:10445000070300F0AC81C3F10801284601938A44A8
:1044600041F20801D044C91AA1EB0801C1F30B0BBA
:10447000594600F0D5FA421C019B6E4A00F0DE81DD
:10448000A0EB0A0000EB0B08106848F00103B742EC
:10449000C6F808A00BEB0001CAF80430116000F068
:1044A000A981B9F10F0F40F2A7817B68A9F10C0037
:1044B0004FF0050C20F0070003F0010303430F2821
:1044C0007B6007EB0003C3E901CC00F2AD81DAF8B1
:1044D00004305746584A1068884238BF1160574A1E
:1044E0001068884238BF116023F003084445A8EBE8
:1044F000040302D80F2B00F386802846002400F026
:1045000089FA28E700240C2320462B6003B0BDE87D
:10451000F08FD3689A427FF40DAF02303369DFF831
:1045200020E173453FF451AF596821F003010A1BA4
:104530000F2A00F3E880002AC6E904EE58DAB1F544
:10454000007F80F093804FEAD10C012249090CF1E1
:10455000010C8A40716856F83C700A4306EBCC01A6
:1045600008397260C3E9027146F83C30FB60831081
:104570000121994091423FF62FAF114205D120F021
:104580000300490004301142FBD006EBC00980460D
:10459000CC46DCF80C70BC4507D198E0002B80F2CB
:1045A0009F80FF68BC4500F092807A6822F0030289
:1045B000131B0F2BF2DD391944F0010428467C60EF
:1045C00043F00104D7E902C5CCF80C50C5F808C087
:1045D000C6E904114C6007F10804C1E902EEBB50C2
:1045E00000F018FAB7E64FF4007340203F27D0E6FA
:1045F000194403F1080428464B6843F001034B605B
:1046000000F008FAA7E63A1944F0010443F0010368
:1046100028467C6007F10804B260536000F0FAF9A4
:10462000204603B0BDE8F08F80140020701A0020EF
:1046300088180020401A0020681A00206C1A0020F8
:104640008814002000F0FFFF1A4403F108042846F4
:10465000D3E902615368F16043F001038E60536057
:1046600000F0D8F9204603B0BDE8F08FB1F5206F17
:104670004FEA512259D3142A00F2AA8002F15C07B2
:104680005B32FF0006EB070CF759ACF1080CBC4598
:1046900000F086807A6822F003028A4202D9BF685D
:1046A000BC45F7D1D7F80CC07268C3E9027CCCF8DE
:1046B0000830FB605BE7142B3DD9542B00F290804F
:1046C000230B03F16F0003F16E07C30061E608F1ED
:1046D00001080CF1080C18F0030F7FF45AAF35E015
:1046E0003A443C46F9682846536843F00103536056
:1046F00054F8083FD9608B6000F08CF92BE6E00895
:1047000004F108020EE628461D1944F001045C601D
:1047100042F00104C6E904556C6003F10804C5E9E0
:1047200002EE5A5000F076F915E68A0902F13907CF
:104730003832FF00A6E703F15C0003F15B07C3001A
:1047400027E659F808394B4540F0928010F0030FE6
:1047500000F1FF30F5D1736823EA0103736049006B
:104760003FF43AAE994203D936E6490008F104080D
:104770001942FAD0404608E7B7687B68B4E6CBF345
:104780000B0000287FF45BAEC844B76848F0010313
:104790007B609FE6C3F800A059E608F1100838E6F0
:1047A00092100121914072680A4372607DE70AEB22
:1047B0000801284601934942C1F30B0B594600F00A
:1047C0002FF9431C2B4A019B7FF45AAE9B465BE6B4
:1047D000542A15D80A0B02F16F076E32FF0051E719
:1047E000B3F5AA7F15D8E30B03F1780003F177073F
:1047F000C300CEE557466DE60123CAF804307CE6D7
:10480000B2F5AA7F21D8CA0B02F178077732FF00F0
:1048100038E740F25452934221D8A30C03F17D00B3
:1048200003F17C07C300B4E507F10801284600F056
:1048300087F9B7680F4A7B6811684BE6083B4FF071
:10484000000B9844A8EB0A081EE640F25457BA42FF
:104850000AD88A0C02F17D077C32FF0012E74FF480
:104860007E737F207E2794E54FF47E777E2209E7D2
:10487000736874E7401A0020844641EA000313F08D
:10488000030349D1403A23D30B6803604B6843606C
:104890008B688360CB68C3600B6903614B694361BC
:1048A0008B698361CB69C3610B6A03624B6A4362A4
:1048B0008B6A8362CB6AC3620B6B03634B6B43638C
:1048C0008B6B8363CB6BC36340304031403ADBD2A8
:1048D00030320BD30B6803604B6843608B68836096
:1048E000CB68C36010301031103AF3D20C3205D3CC
:1048F00051F8043B40F8043B043AF9D2043208D0A2
:10490000D2071CBF11F8013B00F8013B01D30B8813
:1049100003806046704700BF082A13D38B07B1D0CD
:1049200010F00303AED0C3F10403D21ADB071CBF9F
:1049300011F8013B00F8013BA4D331F8023B20F809
:10494000023B9FE7043AD9D3013A11F8013B00F842
:10495000013BF9D20B7803704B7843708B788370EE
:104960006046704770B5860748D0541E002A3FD075
:10497000CAB2034601E0013C3AD303F8012B9D077C
:10498000F9D1032C2DD9CDB20F2C45EA052545EAE6
:10499000054536D9A4F1100C03F1200E03F11002E5
:1049A0002CF00F064FEA1C1CB64442E9045542E9BC
:1049B000025510327245F8D10CF1010214F00C0FBF
:1049C00004F00F0C03EB021213D0ACF1040323F03C
:1049D00003030433134442F8045B9342FBD10CF00D
:1049E00003042CB1CAB21C4403F8012B9C42FBD136
:1049F00070BD64461346002CF4D1F9E70346144613
:104A0000BFE71A46A446E0E7014800F09FB900BF9F
:104A10003C1A0020014800F09BB900BF3C1A00205E
:104A200038B50022064D044608462A60FEF7ACFA67
:104A3000431C00D038BD2B68002BFBD0236038BD51
:104A4000EC1A002020F0030110F00300C0F1000078
:104A500051F8043B00F1040C4FEACC0C6FF000025B
:104A60001CBF22FA0CF213434FF0010C4CEA0C2C41
:104A70004CEA0C4CA3EB0C0222EA030212EACC1221
:104A800004BF51F8043B0430F4D0C2F1000102EA43
:104A90000102B2FA82F2C2F11F0200EBD2007047AB
:104AA000F8B5234F0C460646FFF7AEFFBA6840F64E
:104AB000EF7355681B1B1F4C25F003052B441C404E
:104AC000A4F58054B4F5805F07DB00213046FFF782
:104AD000A7FFBB682B44984204D03046FFF79AFFEB
:104AE0000020F8BD61423046FFF79AFF01300DD03B
:104AF0002D1B114BBA68304645F0010555601A6808
:104B0000121B1A60FFF786FF0120F8BD0021304616
:104B1000FFF786FFBA68831A0F2BDEDD43F001032F
:104B200005495360054B1B68C01A0860D5E700BFF4
:104B30008014002000F0FFFF401A00208818002099
:104B4000002961D0F8B50C460646FFF75DFF7C4FA3
:104B500054F8042CA4F10805B86822F0010105EB13
:104B6000010CDCF80430604523F0030300F08B8077
:104B7000D207CCF8043032D454F8082C07F10800DE
:104B8000AD1A1144AA6882426AD00CEB0304D4F82F
:104B900004E0EC681EF0010FD460A26000F0978082
:104BA00041F001036B60CCF80010B1F5007F35D205
:104BB0004A09CB080121013391407A68114307EB80
:104BC000C3027960083A57F83310C5E9021247F872
:104BD0003350CD603046BDE8F840FFF71BBF0CEB0B
:104BE00003025268D00710D4194407F10800DCF81A
:104BF0000830834273D0DCF80C20DA60936041F017
:104C000001036B606950D0E7704741F00103B1F5D3
:104C1000007F44F8043CCCF80010C9D3B1F5206FF4
:104C20004FEA512348D28B0903F1390003F13802CE
:104C3000C300F818FB580838984259D05A6822F037
:104C400003028A4202D99B689842F7D1D868C5E925
:104C5000023085603046DD60BDE8F840FFF7DABE1F
:104C60000CEB03025268D20763D40B443046DCE9F4
:104C70000212CA60916043F001026A60EB50BDE825
:104C8000F840FFF7C7BE0B44D10707D454F8082CEF
:104C9000AD1A1344D5E90212CA60916043F00102D3
:104CA0006A60284ABD6012689A4293D8264B304603
:104CB0001968FFF7F5FE8DE7142B0AD9542B1FD87E
:104CC0000B0B03F16F0003F16E02C300B1E719444F
:104CD0008DE703F15C0003F15B02C300A9E741F03B
:104CE0000103C7E90455C5E902006B60695071E72B
:104CF0000121921001FA02F279680A437A60A6E76C
:104D0000B3F5AA7F06D8CB0B03F1780003F1770245
:104D1000C3008EE740F25452934206D88B0C03F145
:104D20007D0003F17C02C30083E74FF47E737E2293
:104D30007FE741F001036B60CCF800104AE700BF49
:104D4000801400208C180020701A0020704700BFCB
:104D5000704700BFF8B500BF01B40248844601BCEB
:104D6000604700BF3101002001B40248844601BC05
:104D7000604700BF250B002001B40248844601BCF7
:104D8000604700BFB502002001B40248844601BC60
:104D9000604700BFED0A002001B40248844601BC10
:104DA000604700BF590A002001B40248844601BC94
:104DB000604700BF8102002001B40248844601BC64
:104DC000604700BF7701002075190010ED18001032
:104DD00019190010111A001055190010811800102F
:104DE000991900104D180010C1070010A1190010EA
:104DF0006D0E0010C9180010871900103919001025
:084E0000651000100D02001006
:104E080030203D3D2028337520262028696E747097
:104E180074725F7429206F75747075743332290049
:104E2800433A2F7069636F2F7069636F2D706C61DF
:104E38007967726F756E642F7363616E76696465E6
:104E48006F2F746578746D6F64652F746578746DF1
:104E58006F64652E630000002875696E7433325FD5
:104E680074202A29206F75747075743332203C3D84
:104E78002028627566202B20646573742D3E64615A
:104E880074615F6D61782900636F72655F6E756D1F
:104E9800203E3D203020262620636F72655F6E75A8
:104EA8006D203C203200000052656E646572696EA8
:104EB80067206F6E20636F72652025640A0000000A
:104EC80025702025700A000025640A0072656E644A
:104ED80065725F7363616E6C696E655F626700001F
:104EE80072656E6465725F6C6F6F700020005F00A2
:104EF80001000000000000000000000000000000A9
:104F08000000000000000000000080000000000019
:104F180000008000010A0300050080000304020766
:104F28000B008000070A00002E008000060D01FE1D
:104F380055008000070A000078008000070A010079
:104F48009B008000010403079D008000040D02FD02
:104F5800B7008000040D02FDD100800005060104A1
:104F6800E000800007070001F9008000020302FE4C
:104F7800FC00800004010203FE0080000101030020
:104F8800FF008000060E01FD29018000060A0100CD
:104F980047018000050A020060018000060A01003E
:104FA8007E018000060A01009C018000060A0100BB
:104FB800BA018000060A0100D8018000060A010033
:104FC800F6018000060A010014028000060A0100AA
:104FD80032028000060A0100500280000106030028
:104FE80053028000020802FE5B02800006070101EE
:104FF80070028000060401027C028000060701019D
:1050080091028000040A0200A5028000060C01FE3D
:10501800C9028000070A0000EC028000060A0100AD
:105028000A038000060A010028038000060A01001E
:1050380046038000060A010064038000060A010096
:1050480082038000060A0100A0038000060A01000E
:10505800BE038000050A0100D7038000060A01008C
:10506800F5038000060A010013048000060A010007
:1050780031048000060A01004F048000060A01007E
:105088006D048000060A01008B048000060A0100F6
:10509800A9048000060C01FECD048000070A010067
:1050A800F0048000060A01000E058000070A0000CF
:1050B80031058000060A01004F058000070A00003C
:1050C80072058000060A010090058000070A0000AA
:1050D800B3058000070A0000D6058000060A010013
:1050E800F4058000040D02FD0E068000060E01FD89
:1050F80038068000040D02FD5206800007050105F0
:1051080064068000080100FD6806800003030208A9
:105118006D0680000607010082068000060B01006C
:10512800A306800006070100B8068000060B0100F0
:10513800D906800006070100EE068000070B010073
:1051480015078000060A01FD33078000060B0100E1
:1051580054078000060901006F078000050C01FD57
:105168008D078000060B0100AE078000060B0100CA
:10517800CF07800006070100E4078000060701004A
:10518800F9078000060701000E088000060A01FDE5
:105198002C088000060A01FD4A0880000507020065
:1051A8005C088000060701007108800006090100FC
:1051B8008C08800006070100A1088000070700008E
:1051C800BA08800007070000D3088000070700001E
:1051D800EC088000060A01FD0A09800006070100A4
:1051E8001F098000060E01FD49098000010E03FD1C
:1051F80050098000060E01FD7A09800007020103AC
:10520800FFFFFFF90CF0FF0FF0F90900F00F003D68
:1052180003D004C04C0FFFFFFF0880880088088077
:10522800FFFFFFF0C40C400D30D300F00F0000F07A
:105238000000F0003CFFB0E60000F10000AC4000C8
:1052480006DE700002CA00001FB4007CAFFD9100AA
:10525800F00000F0004EE407CE44E1E2F00FA80EA3
:1052680044FF104FFF600006EEE401EF44E08AF0CF
:105278000F2F1E44EC705FF404DE6000E53F000F62
:1052880000F000D47A0005EF2001BEA0F0A80A9F24
:105298000F000AC0D813CF33CFF95CFFFA005804C7
:1052A800F61D706C00B600F200F000F100B5006B5E
:1052B800001E7004F6005994006F4007D100C60024
:1052C8005B001E000F002F006C00C607E16F40A6B0
:1052D8000000F00B484A69F960BAA09E0E968086D5
:1052E800000F000000F000000F000FFFFFFF000F8D
:1052F800000000F000000F00000D2DF4FFFFC000BB
:10530800003D0000970000E20004C0000A60000EA3
:1053180010005B0000B50001E00006A0000C400092
:105328002E0000790000D3000006DD604D22D4A5D0
:10533800005AE1001DF0DC0FF0DD0FE1001DA500B3
:105348005A4D22C406EE6003E004EF00C5F0000FDA
:105358000000F0000F0000F0000F0000F00FFFFF4A
:105368004BFE91A7108B00000F00004E0003E400D5
:105378003E6006F4003F3000C30000FFFFFF8EFFD1
:10538800A300018B00000F00019C00FFF40002BB8A
:1053980000001F00001F00029AAFFE91000AF000F3
:1053A8007FF002E4F00BA0F04F10F0C800F0FFFF10
:1053B800FF0000F00000F00000F00CFFFF0C4000C0
:1053C8000C20000C00000FEB500015D800002E0038
:1053D800001F00029ABFFFA1006CF00AD5004E1012
:1053E80000B60000FCFF91F300ABF0000FC3001FF4
:1053F8006C119A09EFA1FFFFFF0000690003D000BC
:105408000C30006A0000C30003D0000880000C4084
:10541800000F000019FFA1C911ABF0000FC6007CF6
:105428003EA9C15F6AE3E4005CF0000FC8118B2B52
:10543800FFB119FD70AA12D6F1003CF0000FB900B7
:105448003F1BFFDD00007B0001C4005BA00FC7000D
:10545800C0000C0C000000000D2DF400006A006D67
:10546800D46DE600FD20006ED500006EC400006B10
:10547800FFFFFF000000000000FFFFFFB500004D28
:10548800D500006ED50002DF006DE64CE600B600E0
:1054980000CFD3007C000F002F00B805E10D600F8E
:1054A8000000000C0003DFA11E408A78001EC41B08
:1054B800FFF0B70FF0F00FF0F00FF2B70FB53EFEA8
:1054C8006A00000D602001CFF0006F60000BCB0078
:1054D80001F3F1005D0D500A908900E404D02FFF1C
:1054E800FF26C000B6A70007AE30003EEFFFA2F0CF
:1054F800016CF0000FF0026CFFFFF4F0028CF0007A
:105508000FF0000FF00279EFFD8103AFE71E604A4C
:10551800980000E30000F00000F00000E30000A89D
:1055280000002F502903DFF9EFFA30F028F2F000DD
:105538008AF0004DF0000FF0000FF0003EF0008AF6
:10554800F016F2EFFB30FFFFFFF00000F00000F074
:105558000000FFFFF0F00000F00000F00000F00095
:1055680000FFFFFFFFFFFFF00000F00000F0000069
:10557800FFFFF0F00000F00000F00000F00000F085
:10558800000003BFE81E7049980000D30000F00037
:1055980000F0000FE3000FA8000F2F601F03DFFBD0
:1055A800F0000FF0000FF0000FF0000FFFFFFFF00A
:1055B800000FF0000FF0000FF0000FF0000FFFFFDA
:1055C800F00F0000F0000F0000F0000F0000F000E6
:1055D8000F0000F00FFFFF0FFFFF00000F00000F8C
:1055E80000000F00000F00000F00000F00002F95B3
:1055F80001AA8EFFA1F000CAF008D1F06F20F4F3E1
:1056080000FE4000F7D100F07B00F00B90F001F4B1
:10561800F0008BF00000F00000F00000F00000F057
:105628000000F00000F00000F00000F00000FFFFB4
:10563800FF4D00E58F22F88E66E8A9AB7CC1FE1C01
:10564800C0DD0CC0000CF0000FF0000FF0000FF6EA
:10565800000FFE100FFC800FF2F20FF0AA0FF02FD0
:105668001FF00A8FF002EFF000AFF0004F08EE7065
:105678005D22E4B6006BF1001EF0000FF0000FF1A0
:10568800002EB6006B5D22D408FF80EFFE81F00487
:10569800CAF0003FF0001EF002A9FFFD80F00000F4
:1056A800F00000F00000F0000008EE705D22E4B6A3
:1056B800006BF1001EF0000FF0000FF1001EC50096
:1056C8006A7C22D40BFE5000C7300017CEEFFD7164
:1056D8000F002A90F0001F0F0001F0F002980FFF52
:1056E800F900F009900F000C60F0002E2F00008BDD
:1056F80019EFD8B8106AF00000E700003DD5100097
:105708004AF300006E00000FB4017B8EFFA1FFFF7B
:10571800FFF000F000000F000000F000000F000094
:1057280000F000000F000000F000000F000000F083
:1057380000F0000FF0000FF0000FF0000FF0000F66
:10574800F0000FF0000FF2002FA9119A1AFFA1E341
:105758000002EB70004B7B000872F000C20E500D87
:1057680000AA02A005E065001F5A1000BB900007C0
:10577800F600F0000FF0000FF0000FF0000FF0DC63
:105788000FF2EE2FF7AA7FFC55CFFF00FFFA00AF0C
:10579800C80007C2F202E20AA0C9001F9F10009FBA
:1057A80070000DFB0006E2F600E608D06E001F6DE3
:1057B80060008CD50005D6B000C61F204F008A0CAB
:1057C8008001F8E10007F600000F000000F000007B
:1057D8000F000000F000FFFFFF0000890003F10048
:1057E8000D60007C0001E30009A0002F2000A80044
:1057F80000FFFFFFFFFFF000F000F000F000F000F6
:10580800F000F000F000F000F000F000FFFFD3001F
:10581800007900002E00000C400006A00001E00006
:1058280000B500006B00000E10000A600005C00003
:1058380000E200009700004DFFFF000F000F000F6F
:10584800000F000F000F000F000F000F000F000FD8
:10585800FFFF007F70002ECE200CC0CB05F101F5B4
:10586800B50005B0FFFFFFFFA606F303B00DFFC3A9
:1058780000008D00000F3AFFEFF6000FF5000F3D16
:10588800FFFCE00000F00000F00000F00000FBFE6C
:1058980070F502C8F0002EF0000FF0004EF104C8B9
:1058A800CFFE8006CFFC7D4000E30000F00000E260
:1058B80000008C300006DFFD00000E00000F000025
:1058C8000F00000F08EFCF8C205FE2000FF0000FF1
:1058D800E3000F8C400F08EFFC08EE918D21AAE23F
:1058E800001EFFFFFFE2000089100009FFE0001A18
:1058F800FFB00A900000F100000F0000FFFFFF005A
:105908000F000000F000000F000000F000000F0082
:105918000000F0000008EFFB8D301FE3000FF000DF
:105928000FE2000F8B205F09FFDF00001E000199C6
:10593800BFFE81E00000F00000F00000F00000FD74
:10594800FE91F201ABF0001FF0000FF0000FF00025
:105958000FF0000F00C000000000FFF00000F00092
:1059680000F00000F00000F00000E500005FFD001E
:105978000C0000000FFFF0000F0000F0000F000007
:10598800F0000F0000F0000F4207CAFFD3E000004C
:10599800F00000F00000F00000F003E6F04E60F7C1
:1059A800E300FF7000F1D900F01C90F001D9FFF07E
:1059B8000000F00000F00000F00000F00000F0002F
:1059C80000F00000F00000F00000D400005EFDDFF1
:1059D800EAF7F03F3FF00F0FF00F0FF0000FF00065
:1059E8000FF0000FCEFE91F101ABF0001FF0000F99
:1059F800F0000FF0000FF0000F09EE808C22C8E2D3
:105A0800002EF0000FE2002E8B22B809FF90CFFD88
:105A180070F104D8F0004EF0000FF0002EF402B838
:105A2800FDFF80F00000F00000F0000008DFFB8DB3
:105A3800400FE4000FF0000FE2000F8C204F08FF2A
:105A4800DF00000F00000F00000FADFFDF3000F097
:105A5800000F0000F0000F0000F000003AFFFCE724
:105A68001000D9300018DD7100028DB5006EAEFF50
:105A7800C300E00000F000FFFFFF00F00000F000AE
:105A880000F00000F00000E400006FFDF0000FF0EF
:105A9800000FF0000FF0000FF1000FB9100F1BFFFF
:105AA800FCD50003D7A000A72F201F10A808A0042A
:105AB800F2E2000CDA00004F2000F00000FC300099
:105AC8003CB42A04B888F4885BE8EB52FD09F20F6D
