:020000041000EA
:10000000002008205D0100101B0100101D010010E0
:100010001101001011010010110100101101001058
:100020001901001019010010190100101F01001022
:10003000110100101901001021010010230100100E
:100040001101001011010010110100101101001028
:100050001101001011010010110100101101001018
:100060001101001011010010110100101101001008
:1000700011010010110100101101001011010010F8
:1000800011010010110100101101001011010010E8
:1000900011010010110100101101001011010010D8
:1000A00011010010110100101101001011010010C8
:1000B00011010010110100101101001011010010B8
:1000C00011010010110100101101001011010010A8
:1000D0001101001011010010110100101101001098
:1000E0001101001011010010110100101101001088
:1000F0001101001011010010110100101101001078
:100100001101001011010010110100101101001067
:10011000EFF30580103800BE00BE00BE00BE00BE7A
:1001200000BE00BEF2EB8871686600109066001099
:10013000A001001090A31AE7D3DEFFFF42012110B7
:10014000FF01000088730000793512AB4FF000000A
:100150001E49086006C881F3088810474FF05040D8
:10016000006810B14FF00000F2E70DA40ECC00299A
:1001700002D000F012F8F9E71549164A002000E015
:1001800001C19142FCD11449884714498847144958
:10019000884700BEFDE701C901C29A42FBD3704700
:1001A0009066001010010020400F0020C074001065
:1001B0000000082000000820C07400100010082073
:1001C00000100820000000007047000008ED00E06B
:1001D000400F0020D025002075320010850200104D
:1001E00035320010F8B500BF10B5054C237833B98F
:1001F000044B13B1044800E000BF0123237010BD7D
:10020000C0100020000000002C53001008B5034B64
:100210001BB10349034800E000BF08BD0000000017
:10022000C41000202C53001010B54FF4807203212D
:100230000D4804F065FA04460C490D4803F05EFCD5
:1002400040B1204603F0C7FD38B1012003F0C8FDDE
:10025000204610BD074800F0B7F8074B074A5B215E
:10026000074802F0EBFF00BF20060020605F00108F
:1002700018060020305300105C530010B4530010D7
:1002800060530010F8B503F043F900241AE063004E
:1002900007EE903AF8EEE77A9FED387A67EE877AC4
:1002A00017EE900A01F093FD07EE900A9FED347A65
:1002B00067EE877AFDEEE77A324B17EE902A23F845
:1002C00014200134B4F5006FE1DBFFF7ADFF074602
:1002D000802500244FF400162BE08DB3043D2FE061
:1002E000FE2D31D804352FE0B6F5803F2ED9A6F586
:1002F00080362BE0B6F1807F2AD206F5803627E0E3
:100300000132CB68934210D94FEA144C1D4B33F99C
:100310001C3005FB03F31B0A20F812303444B4F1FF
:10032000006FEDD304F17844EAE78B60384604F0BF
:1003300013FA002003F0F2F8002810DB2D28CCD0AF
:100340003D28CDD02B28CBD05B28CDD05D28D1D077
:1003500071280DD0320C29460B4803F035F90121E4
:10036000384604F013FA0146036858680022C8E7CB
:10037000064803F0FBF80020F8BD00BFDB0FC93AC8
:1003800000FEFF46C011002094530010B05300102F
:100390000C4B03EB800253F8203083F0400303F052
:1003A000C00302F5805CCCF80030C00000F1804052
:1003B00000F52030416002F540524FF48073136025
:1003C000704700BF048003400FB400B583B0049CA5
:1003D000074803F0CBF83CB105A90191204603F092
:1003E000D5F8044803F0C2F8012002F007FF00BF6F
:1003F000C0530010B053001008B50148FFF7E4FFE8
:10040000D0530010EFF3108072B6064BD3E8CF1F25
:1004100001220029FAD1C3E8412F0029F6D1BFF308
:100420005F8F70471F1100200023034AC2E88F3FEF
:1004300080F31088704700BF1F11002070B505467B
:100440000C461646FFF7DEFFE208A95C04F0070C35
:10045000012303FA0CF3194205D1DBB20B43AB5471
:10046000FFF7E2FF70BD21463046FFF7ADFF000009
:10047000054A1078431CDBB21370172B02D91346C0
:1004800010221A70704700BF280600204FF0E022AB
:10049000936843F00053936070470000002305E029
:1004A000044A1A440021C2E88F1F01331F2BF7D9D9
:1004B000704700BF1411002008B51F2805D8064B4F
:1004C00018440023C0E88F3F08BD044B044A0F21A5
:1004D000044802F0B3FE00BF14110020E0530010E6
:1004E00048540010FC530010064B9B68103043F832
:1004F0002010BFF35F8F00230349C1E88F3F82F3D1
:100500001088704700ED00E01D1100200048704782
:1005100000E400E008B5FFF7F9FF002304E04FF026
:10052000803240F8042B01330C2BF8D962B608BD99
:1005300008B5091A081F01F2FC7140F6FE739942D2
:1005400007D810F0010F04D1C0F34A0040F4604016
:1005500008BD034B034A4FF48771034802F06EFE57
:1005600058540010A85600108854001008B5091AF5
:1005700004394B08090B0AD1C1F30A0141F4704157
:1005800001806FEA43536FEA5353438008BD034B26
:10059000034A4FF48B71034802F050FEBC54001024
:1005A00084560010885400104209064B53F822204C
:1005B00000F01F00012303FA00F0024214BF1846A6
:1005C0000020704700E100E03AB1064B00F1600204
:1005D00043F8221043F8201070472030014B43F8B5
:1005E0002010704700E100E008B50A4600F01F0344
:1005F000012199404009FFF7E7FF08BD024B9B68C6
:10060000103053F82000704700ED00E070B505464B
:100610000C46EFF3108672B60F4BD3E8CF1F0122C2
:100620000029FAD1C3E8412F0029F6D1BFF35F8F2B
:10063000FFF7E4FF094B984201D0A04205D13246B2
:1006400021462846FFF750FF70BD054B054AED21B6
:10065000054802F0F3FD00BF1D110020110100103C
:10066000CC540010DC560010885400102DE9F04FD7
:1006700087B000911546EFF3108A72B6864BD3E827
:10068000CF1F01220029FAD1C3E8412F0029F6D15A
:10069000BFF35F8F814B93F90040002C44DB804611
:1006A00004EB44077E4B03EB870797F906107B4A60
:1006B00011707C4A926800F1100152F82190A9EB68
:1006C00003022F2A3ED9784B994534D14FF4214368
:1006D000ADF80C304FEA440904EB4400704E06EBD1
:1006E000800072490230FFF723FFADF80E004BF691
:1006F0000153ADF81030FF238DF812308DF81350F0
:10070000009B05934C4406EB840406AB13E90700F9
:1007100084E8070047F00109524649464046FFF782
:10072000E3FE07B0BDE8F08F614B624A4FF4BE7143
:10073000614802F083FD614B5E4A40F283115E48DE
:1007400002F07CFD29F0010BABEB03035C4AA2FB3A
:100750000312D20802EB4202B3EB820F0FD15B46C9
:100760000026DA79AA4212D993F90620002A0DDB75
:1007700002EB42021E464A4B03EB8203F1E7514B68
:100780004C4A4FF4CA714C4802F058FD1E46002EE8
:1007900048D044F60103ADF80C304FF48F43ADF868
:1007A0000E3096F906B0BBF1000F1ADA4BF6015085
:1007B000ADF810008DF812B08DF81350009B059322
:1007C0003946301DFFF7B4FEB080B47104EB440429
:1007D000334B03EB840406AB13E9070084E80700FE
:1007E0009AE704EB44002E4B03EB80000430311DEC
:1007F000B388DA0A1C2A08D15B050DD45B150233D5
:1008000001EB4301FFF794FED2E72F4B2F4A4FF441
:100810008E71294802F012FD03F5FF1303F5FF5313
:100820001F33EBE74FF42143ADF80C306300019325
:1008300004EB4406DFF8689009EB86061B49B01C00
:10084000FFF776FEADF80E005946301DFFF770FE3B
:10085000ADF810004AF6AA235A464946521A5241A8
:1008600053431B0D8DF812308DF81350009A0592EA
:10087000019B1C4409EB840906AB13E9070089E8D6
:10088000070044F60103ABF800304FF48F43ABF898
:10089000023047F001093FE71D110020CF2500205D
:1008A0002C06002000ED00E0110100105C06002085
:1008B00004550010C4560010885400102C55001028
:1008C000ABAAAAAA54550010D8550010B45600106F
:1008D0002DE9F04706460D46EFF3108872B65B4BE4
:1008E000D3E8CF1F01220029FAD1C3E8412F002904
:1008F000F6D1BFF35F8F564B9B6800F1100A53F897
:100900002A70544B9F4207D0AF4200F09D803C4676
:10091000514BFB1A2F2B06D9424639463046FFF77A
:10092000E3FDBDE8F087FFF73FFE8146002130463A
:10093000FFF75AFEBFF35F8FEFF30580C0B208B137
:10094000824510D124F001040021A268954212D002
:1009500094F90630002B0DDB03EB430321463E4C9C
:1009600004EB8304F1E73D4B3D4A40F202213D4850
:1009700002F064FC214695425FD194F90650002DA7
:1009800041DB05EB4503344A02EB83039A68A2601E
:10099000DA79E27193F90620A27193F90630002BFF
:1009A00010DA4BF60150A08005EB45022A4B03EB11
:1009B00082032D4A11789971157049463046FFF728
:1009C00013FEA9E7201D05EB4503234A02EB830331
:1009D000191D9B88DA0A1C2A08D15B050DD45B150A
:1009E000023301EB4301FFF7A3FDDCE71F4B204A75
:1009F0004FF48E711B4802F021FC03F5FF1303F541
:100A0000FF531F33EBE798B981B1FF238B714BF68E
:100A100001538B80144A1378A3714AF6AA230E4916
:100A2000641A644163431B0D1370C6E7094FF1E775
:100A30001049201DFFF79AFDBFE70F4B084A4FF4FE
:100A40001171084802F0FAFB024F65E71D11002002
:100A500000ED00E0110100102C060020F055001000
:100A60009456001088540010CF250020D85500104F
:100A7000B4560010660600202456001038B540F029
:100A8000010E344BAEEB03032F2B31D8EFF305816E
:100A9000C9B2002933D0EFF3108472B62E4BD3E8DD
:100AA000CF5F0122002DFAD1C3E8452F002DF6D1EA
:100AB000BFF35F8F4AF6AA230246264D521B5241CE
:100AC00053431B0D4FFA83FC244B9B6853F8213092
:100AD00073451BD00023032B34D803EB43021D497D
:100AE00001EB820292F90620624520D00133F2E741
:100AF0001B4B1C4A40F27F211B4802F09FFB1B4B03
:100B0000184A40F28221184802F098FB134B9B6868
:100B1000174A43F82120174B1A78827183F800C0D6
:100B200000230D4AC2E88F3F84F3108838BD0A467F
:100B300003EB430102EB8101FF258D714BF601525E
:100B40008A80E8E70C4B074A40F29321064802F0FE
:100B500075FB00BF2C0600201D11002000ED00E0F9
:100B60002C5600106856001088540010545600107F
:100B700011010010CF25002060560010014B0B44DE
:100B8000036070471411002010B50446FFF770FC95
:100B900001462046FFF7F2FFFF232371BFF35F8F6B
:100BA00010BD10B50446FFF763FC01462046FFF771
:100BB000E5FFFF23237100236371BFF35F8F10BD37
:100BC00010B50D4C09E00D4B0D4A1A210D4802F0ED
:100BD00035FB2046FFF7D8FF08340B4B9C4209D267
:100BE0002368002BF5D0012BEDD12046FFF7D9FF6C
:100BF0000834F2E710BD00BF380F0020F85600108F
:100C0000C057001018570010400F002041EA004064
:100C1000704700000D4B1A68EFF3108172B6D2E8EE
:100C2000CFCF0120BCF1000FF9D1C2E84C0FBCF1CD
:100C3000000FF4D1BFF35F8F1A680023C2E88F3F23
:100C400081F3108840BF002000217047C0210020A0
:100C50002DE9F04F85B0EFF30587FFB2103FBB08D9
:100C600015D0964D07F00307944B9D4214BF002307
:100C7000012307EB8303924A52F823402378BB42B7
:100C800007D10122BA4005F541535A6031E18D4D3B
:100C9000E8E78D4B8D4A92218D4802F0CFFAD4F8C7
:100CA00014A006EB46084FEAC80B0AEBC808D8F8B0
:100CB00008300193D8F80C90284600F025FB019BE2
:100CC000C01A61EB0903002BC0F21B81B9F1000FC0
:100CD00065DBD8F810301A4602937E4B9A4232D028
:100CE000B8F8021089B2B4F90800FFF78FFFD8F8FE
:100CF0001410029B984702900391029A039B52EAB8
:100D000003014CD0002B2BDA0199881A69EB0309F7
:100D1000C8F80800C8F80C903AF90B30002BC0F264
:100D2000F080D4F8148003EB430208EBC202916810
:100D3000D268411A69EB0202002AC0F2E280A6469C
:100D40002EF8083F16E0D8F81420136902921046D6
:100D5000984720B3029A1368029353680393CCE731
:100D6000284600F0D1FA029B1818039B43EB0109B7
:100D7000CEE79E46BEF900C0BCF1000F0ADB0CEBCB
:100D80004C0308EBC3039968DA68411A69EB020265
:100D9000002AEEDA2AF80BC0AEF80060B1E03AF9AA
:100DA0000B3023812369EFF3108272B6D3E8CF0FA3
:100DB00001210028FAD1C3E8401F0028F6D1BFF373
:100DC0005F8FB4F902302AF80B3066802169002366
:100DD000C1E88F3F82F3108893E02369EFF310821C
:100DE00072B6D3E8CF0F01210028FAD1C3E8401F23
:100DF0000028F6D1BFF35F8FB4F804900FFA89F999
:100E00004FF6FF73A38021690023C1E88F3F82F36F
:100E1000108816E01E46B6F90020002A0BDB02EB14
:100E200042030EEBC3039868D968BCEB000068EB83
:100E300001010029EEDAA6F800903EF90A902EF89A
:100E40000A20B9F1000F61DBD4F814E009EB490383
:100E50004FEAC30A0EEBC303D3F808C0D3F80C80E3
:100E600004F10806D7E70023A37104F1080EB4F9D2
:100E7000083011E04FF0FF384FF0FF39C0E9028928
:100E8000B4F90800984206D0AEF80020B4F9080082
:100E900021F80C0023811346B3F1FF3F39D061697B
:100EA00003EB43024FEAC20C01EBC20031F93220DE
:100EB000468816F4004FDDD18646ECE700800B40F3
:100EC0009411002000000B40D45700106C58001003
:100ED00000580010510C00103B1D45F823602846B7
:100EE00000F012FA361A68EB0101012E71F10003CD
:100EF0002FDA0123BB40EB63B4F90860002EBFF684
:100F0000CEAEA38813F4004F3FF467AFA379002B54
:100F1000A9D1B4F90830002B1BDB626903EB430352
:100F200002EBC3039E68D3F80C80B8F1FF3F08BF03
:100F3000B6F1FF3FD3D0AA6AB11A3B1D55F8233052
:100F40009B1A9942C8D32A6A0123BB401A42C6D1D0
:100F5000C2E740BF05B0BDE8F08F00BF2DE9F0410A
:100F60000446884617461E46C160FFF781FA204BAB
:100F7000034423612770B3B263814FF0504212786B
:100F800062704FF6FF722281A280013B63804FF0B6
:100F9000000C08E00CF1FF3560690CEB4C0E20F8FA
:100FA0003E500CF1010CB445F4D3124B98450CBFE4
:100FB0000123002307EB83030F4A42F8234014D098
:100FC00000243C44012505FA07F7C8F820700B49B6
:100FD0002046FFF71BFB29462046FFF705FB08F5D7
:100FE0000158C8F80070BDE8F0810424E9E700BFAB
:100FF0001411002000800B4094110020510C0010AF
:1010000008B5054B1B690BB1034808BD034B044AE7
:101010006521044802F012F97406002030580010CF
:101020005458001000580010F8B504469E46016957
:10103000EFF3108C72B6D1E8CF5F0120002DFAD10A
:10104000C1E8450F002DF6D1BFF35F8FB4F9025010
:10105000666905EB4500C70006EBC000002D01DB0B
:10106000F15F618000212369C3E88F1F8CF3108832
:101070008D4233DB06990161079941618260C0F8B6
:101080000CE0418889B20131C1F30E0101B901219F
:1010900041802846FFF7BAFD2369EFF3108272B64C
:1010A000D3E8CFCF0121BCF1000FF9D1C3E84C1F29
:1010B000BCF1000FF4D1BFF35F8FA388F353A58079
:1010C00021690023C1E88F3F82F31088E36821780B
:1010D00001228A4003F501535A60F8BD4FF0FF30FA
:1010E000FBE770B582B0064615461C469DF82030D9
:1010F00033B900F033F9854264EB010100290ADBC2
:10110000079B0193069B00932A4623463046FFF730
:101110008BFF02B070BD0020FBE703464089B0EBB7
:10112000214F31DD10B50A14586902EB420200EB81
:10113000C2021869EFF3108C72B6D0E8CF4F5FF09F
:10114000010E002CF9D1C0E844EF002CF5D1BFF31B
:101150005F8F508880B289B288420FD00020196911
:101160000022C1E88F2F8CF3108830B1DA681B7829
:101170000121994002F50153596010BD40F400402F
:10118000508001209871EAE700207047F0B585B0E3
:1011900005460C46EFF30583DBB293B1404B5B6A27
:1011A0008B4209D33E4A926A824208D28B4201D0D6
:1011B000012002E0002000E0002005B0F0BD012089
:1011C000FBE7FFF71DFFC7680678384600F09CF87C
:1011D0002A1A64EB0101043657F82630181A8242A5
:1011E00071F1000312DB20BF2D4B5B6A9C4209D8D2
:1011F0002B4A926AAA4207D29C4201D00120DCE726
:101200000020DAE70020D8E70120D6E7FFF7F8FE54
:10121000002302930193234B00932A462346FFF7B2
:1012200060FF061E0BDD1E4B5B6A9C421BD81C4AEE
:10123000926AAA422BD29C4213D0012314E0184B8D
:101240005B6A9C4209D8164A926AAA4207D29C421B
:1012500001D00120B1E70020AFE70020ADE7012079
:10126000ABE7002300E0002303B920BFFFF7C8FE6F
:101270003146FFF752FF0A4B5B6A9C420BD8084A83
:10128000926AAA4209D29C4203D0012095E7012329
:10129000EAE7002091E700208FE701208DE700BFFB
:1012A00000000B40150C00100048704700000B4078
:1012B00010B50A4B1B6923B10A210948FFF75EFCF0
:1012C00010BDFFF7F1FF0446032100F00BF81023D7
:1012D000032221460148FFF741FEEDE77406002096
:1012E000C021002010B5054A054C064BA04214BF92
:1012F0001846581CFFF7A2F810BD00BF8458001014
:1013000000800B404C1100200246436A906A194647
:10131000536A9942FAD17047416A00E0416A9942A2
:10132000FCD300E0416A994202D1816A9142F9D32B
:10133000704770B5064614461D46FFF7E5FF0219D3
:1013400041EB0503824273EB010102D24FF0FF3201
:1013500013463046FFF7E0FF70BD000008B50248B5
:10136000FFF7D2FF08BD00BF00000B4008B50246E2
:101370000B460248FFF7DDFF08BD00BF00000B4031
:1013800038B5046B14F0010F01D1204638BD00F5CB
:10139000405340F201321A63436A856A05EB8315B4
:1013A000AD02062000F0F8F8044BA3FB0030C00AA1
:1013B000B5FBF0F00021FFF7D9FFE6E7757B2B8F37
:1013C00070B505460C461646FFF7DAFFE96A4C4051
:1013D000344005F58153DC60286370BD70B5054667
:1013E0000C46062000F0D8F8C300B3FBF4F101313D
:1013F000CC0907D04FF6FE739C4214D82646C1F3A1
:10140000450400E001266E62AC62002211462846C7
:10141000FFF7D6FF062000F0BFF8800004EB86142B
:10142000B0FBF4F070BD00244FF6FF76EBE7000050
:1014300049B10A22054B984214BF00200120044BF9
:1014400023F8102070474FF48072F3E700800740C4
:10145000C425002038B504460D46062000F09CF84F
:1014600048B3174B9C4227D01A2201239340154AB8
:101470001360134B9C4221D01A2301229A40124B35
:101480001A60124B9B6832EA0303FAD1002120460E
:10149000FFF7CEFF29462046FFF7A0FFE36A83F05F
:1014A000700303F07E0304F58152D36040F20133F0
:1014B00023630323A36438BD1B22D6E71B23DCE789
:1014C000008007400020024000300240000002403F
:1014D00070B5049D00EB400C4FEA8C0C0CF1804C75
:1014E0000CF5803CDCF80440AC4201D2CCF804504E
:1014F000A0F1040E5FFA8EFEBEF1010F27D90CF5A4
:1015000040544FF4006626601D4C54F820603EB1F4
:101510006469B4FBF6F4013404EB4404033CFDD2EB
:10152000DCF8004084EA421202F0E0020CF580543C
:101530002260BEF1010F16D90CF500524FF4006184
:101540001160CCF804500E4A42F8203070BD0129D9
:10155000D5D10CF5405403262660DCF8084014F081
:10156000010FFAD0DCE7DCF800204A4002F0030269
:101570002260DCF8084001228A401442F9D0DBE7FF
:101580005411002010B582B04FF480340094FFF75E
:101590009FFF02B010BD0000014B53F820007047C0
:1015A0005411002070B5049C344DB5FBF1FC344D52
:1015B0001544344EB54237D8B2FBFCF5A5F1100EF8
:1015C000BEF5987F36D803F1FF3EBEF1060F37D83F
:1015D00004F1FF3EBEF1060F32D8BCEB121F35D826
:1015E000240344EA03440368002B35DB264B98426E
:1015F00042D00E2301229A40244B1A6003F58053F7
:101600001A60234B9B6832EA0303FAD101608560BC
:1016100000F540520432212313600368002BFCDAEA
:10162000C4600823136070BD1A4B1B4A11211B486C
:1016300001F004FE1A4B184A1921184801F0FEFD6A
:10164000184B154A1C21154801F0F8FD164B124A9B
:101650002321124801F0F2FD036803F03F038B429F
:10166000C4D18368C3F30B03AB42BFD1C36803F497
:10167000EE23A342BAD1D6E70F23BBE7001BB70086
:1016800080E84BD380F8A93200800540002002405A
:1016900000000240A8580010B0590010F85800107F
:1016A0002C5900104859001094590010054A00EBBD
:1016B000400302EB8303596000EB400080000123EC
:1016C000135070470080104008B50023DB8A0022C9
:1016D00042E800F212F4800F02D11021984708BDB1
:1016E00004219847FBE70000034BD3F82838002B70
:1016F000FAD0BFF35F8F704700000E40002207E072
:10170000054B13449B00BFF35F8F0021196001322A
:10171000072AF5D9704700BF0382031008B5FFF709
:10172000EDFF08BD074B4FF42A621A604FF48D722B
:10173000DA6003F50053044A1A60024B5B68002B21
:10174000FBDA70470080044000B0FA0010B5044690
:1017500002E054F8043B9847014B9C42F9D310BD7A
:10176000285300107047000008B50248FFF7EEFF4D
:1017700008BD00BFE8520010064B074A1A6003F587
:101780008053064A1A60064B9A68044B9343FAD179
:10179000704700BF002002407F3BEFEFF6FFF303EE
:1017A00000000240054BDB6CB3F5004F00D07047E2
:1017B000034B4FF48022DA64F9E700BF00001150B8
:1017C000002011504FF0E022D2F8881D034B0B434C
:1017D000C2F8883D10EE3004704700BF03033000AC
:1017E000054B6FF060421A60044B9B68DB4333F09B
:1017F0006043F9D1704700BF003002400000024052
:1018000008B545F25320FFF75FFF034604209847D1
:1018100008BD08B545F25320FFF756FF03460120E7
:10182000984708BD08B5FEF739FE08BD10B50C494C
:101830000C4A521A92101446442A28BF442292009D
:10184000094803F0C9FA04E0084A074B43F824208A
:101850000134432CF8D9044A054B9A6010BD00BFEF
:101860000000001010010010000000201101001005
:1018700000ED00E038B50420FFF78EFE064DA5FB15
:101880000035AD0C002404E02946E0B2FFF70EFF5E
:101890000134052CF8DD38BD83DE1B4330B583B041
:1018A000264B0022C3F88420FFF73CFF244B012283
:1018B000DA63224B5B6C012BFBD1214B03221A63B1
:1018C0001E4B9B6B012BFBD10224009405231D4A68
:1018D00001211D48FFF766FE052500952B461B4A92
:1018E00001211B48FFF75EFE1A4B0022214604200F
:1018F000FFF748FE184C2346002201212846FFF737
:1019000041FE164D2B46002211460820FFF73AFEF5
:101910002B46002211460920FFF734FE2346002201
:1019200011460620FFF72EFE23460022114607200F
:10193000FFF728FEFFF79EFF03B030BD0000014017
:1019400000300140002F685900000540008C864798
:1019500000800540001BB70080D1F008006CDC025D
:1019600086B003B451FC0804CDE9020151FC09041E
:10197000CDE9040151EC0A04CDE9060103BCF047AE
:10198000BDE800504EEC00C4BDE800504EEC01C470
:10199000BDE800504EEC02C400BD000000B5FFF7EA
:1019A000DFFF02E010FE30F4F8D441EC100443EC09
:1019B000112400EE010410EE010480EE200451EC2D
:1019C0001004704700B5FFF7CBFF02E010FE30F4C3
:1019D000F8D441EC100443EC112400EE010410EEA5
:1019E000210480EE200451EC3004704700B5FFF76D
:1019F000B7FF02E010FE30F4F8D410B541EC10044B
:101A000043EC112451EC040453EC0524A0FB024CDC
:101A10005FF0000EE0FB03CEE1FB02CE4CEC204475
:101A20000024E1FB03E444EC30E480EE200451ECBC
:101A30005004BDE81040704700B5FFF791FF02E089
:101A400010FE30F4F8D441EC100443EC112451ECB6
:101A50002104A0FB01126FEA820252FB100052FB2C
:101A600012F252FB1000A0EBD07C53EC04245CFB80
:101A700013F153EC1524A1FB022001FB030053ECEE
:101A80004424A2EB000050FB1CF24FEA111312EBAE
:101A9000017043EBE27140EA515020EA915020F08E
:101AA000070053EC7524A0FB023C53EC752400FBAB
:101AB00003CC01FB02CC53EC0424ACEB824C40EA97
:101AC0005C70A0F1010041EC400480EE200451EC78
:101AD0007004704700B5FFF743FF02E010FE30F4DA
:101AE000F8D440EC700400EE010410EE210480EE06
:101AF000200451EC3004704700B5FFF731FF02E0DD
:101B000010FE30F4F8D440EC600400EE010410EE56
:101B1000210480EE200451EC3004704700B5FFF73B
:101B20001FFF02E010FE30F4F8D441EC800400EE18
:101B3000010410EE010480EE400410EE130470471F
:101B400000B5FFF70DFF02E010FE30F4F8D441ECD1
:101B5000800400EE010410EE010480EE400410EE5B
:101B60003304704700B5FFF7FBFE02E010FE30F4CF
:101B7000F8D441EC100443EC112400EE010410EE03
:101B80003004C0F30070704700B5FFF7E9FE02E0D3
:101B900010FE30F4F8D443EC102441EC110400EEB4
:101BA000010410EE30F48CBF01200020704700BF0C
:101BB00000B5FFF7D5FE02E010FE30F4F8D443EC98
:101BC000102441EC110400EE010410EE30F42CBF9F
:101BD00001200020704700BF00B5FFF7C1FE02E002
:101BE00010FE30F4F8D441EC100443EC112400EE64
:101BF000010410EE30F42CBF01200020704700BF1C
:101C000000B5FFF7ADFE02E010FE30F4F8D441EC71
:101C1000100443EC112400EE010410EE30F48CBFEC
:101C200001200020704700BF0000000000000000FD
:101C300000000000DB60BE284A059193F4D5097FBF
:101C400070374D7D66A5D83610E4104FAFF22402F0
:101C50004B1102EB830201F01F034FF001049C4083
:101C6000A4FB0034D568A5FB0456956805FB046603
:101C7000E5FB0356556805FB03667047000000004E
:101C8000410201D150F0004050F480007047F0B59F
:101C9000012363F3DF50C1F109014FF07E07FFF725
:101CA000D5FFB30F53F100039C44B6EB8376B2002B
:101CB00028BF5242B2F1805F0BD20231FFF7C6FF5C
:101CC00096EA260242F10002B2F1805F01D2023FA1
:101CD000F3D50A4CA2FB0424B4FA84F29440240AFB
:101CE000A7EB020244EBC250C10DD1F17F01F60F08
:101CF00000EBC673BDE8F04073E00000A2DA0FC944
:101D000011F1800FBCD030EACC7248BF0CF1020C4C
:101D100020F0004000EE100A0DA2F2EC032A22EEA1
:101D2000802A11F1080FB9FE422AB0DDA2EE630A43
:101D3000A2EE430A10EE103AFDEEC21AC3F3C752E8
:101D4000782AA4D3D2F17F0111EE902A944448E07E
:101D500083F9223F7A7795B60010C93F07B5C0F3E3
:101D6000C751FF2925D000F032F8BDE80640CEF873
:101D700000000ED2C9438CEAD17C63EEA02AE1EECA
:101D8000032A73EE622A12EE900A80EACC70106089
:101D900000BD8CEAD17C21EE232AA3EE602A8CEAD6
:101DA000D37133EEC22A12EE100A80EAC1701060BD
:101DB00000BD4102BDE80E4001D150F0004050F49A
:101DC00080001060186070475FF0000C01E05FF069
:101DD000010CC0F3C751A1B3D1F17F0190D920EA22
:101DE000CC7323F0004000EE100AC0F38440203092
:101DF00030FA01F1834A51F10001B2EC024A02EBE0
:101E0000810202EBC102D2EC032A70EE620A20EEDC
:101E1000A01A5FEA5C0C61EE201A15D221EE041ABA
:101E200061EEA41A70EEE10A21EE232AA3EE602AE5
:101E30008CEAD37133EEC22A12EE100A80EAC17026
:101E4000704700F00040C7E761EEA41A70EEE10AA7
:101E500021EE041A63EEA02AE1EE032A73EE622A51
:101E600012EE900A80EACC70704700BFAFF300809A
:101E7000C1FEFF3E25AA2A3E000000000000803F70
:101E80000000000061C9FC3CCDE07F3F1CBFFC3C72
:101E90007605813DFE7D7F3F9EEF803D090CBF3D75
:101EA0000FE37E3F22C5BE3DB624FF3D14047E3FB6
:101EB000E27BFE3D13071F3E48EB7C3FA0631E3EC6
:101EC0006D30403E1D817B3F15103F3EA2AD603E10
:101ED000CFDC793F3EE15E3E7B0D803EFA08783FE5
:101EE00096717D3E6E988F3E65FF753F68B88D3E5A
:101EF000F4E19F3E939E733FFD4B9D3EC654B03E22
:101F0000AEF7703FB3DDAC3EC589BF3E604B6E3F60
:101F10000A1ABB3E26C4CF3ECA356B3F631CCA3E7D
:101F2000F254E03E66D1673F0739D93EDDF0EF3E1F
:101F30004B66643F1641E73E312B003F8894603F7B
:101F40000FC3F53E07E4073FA2C55C3F2B99013F55
:101F5000C51F103F8F7D583F65A1083F8AF6173F88
:101F6000B534543FCA310F3FE2FF1F3F599B4F3FEB
:101F7000D7C8153F4606283F6BCF4A3FC4371C3FA2
:101F80004130303FE0B9453FE49A223FA71D383F3A
:101F9000CA98403F20A6283F2FC73F3FAC763B3F23
:101FA0004A562E3FDB13483FCCB6353F6B52343F89
:101FB00079C74F3F2F35303FD0B4393F52DD573FBF
:101FC00070412A3F912D3F3F26CE5F3F9F3E243FE9
:101FD000C35D443FF125683F50C21D3F1C9D493FF2
:101FE000E13B703F4150173FBF7E4E3F7810783F36
:101FF00071ED103FAF06533FD4F47F3FA75A0A3F1D
:102000009B64573F701E001010B5044602F01AFC86
:1020100020B10444034A944200D810BD0248FEF7A0
:10202000D3F900BF00000820BC59001038B50446A1
:102030000D4602F0C3FB05FB04F420B10444034A3F
:10204000944200D838BD0248FEF7BEF900000820CF
:10205000BC59001008B502F0FDFB08BD704720B167
:1020600008B50A684968904708BD704701460020D6
:1020700007E000EB8000531C0B60137803EB40007B
:1020800030380A681378303BDBB2092BF1D970473E
:102090002DE9F04F83B005460E4693461F46DDF806
:1020A00030A00D9CDDF838900F9B13F0030F19D171
:1020B000A0460192C84509D202F1010B3B463146C8
:1020C0002020A84708F101085A46F3E7DDF804B0DC
:1020D00008E0013C02F101083B4631461AF80400D1
:1020E000A8474246002CF4D10F9B13F0020F03D1F6
:1020F000104603B0BDE8F08FA2EB0B034B45F7D2BF
:10210000541C3B4631462020A8472246F4E72DE9DF
:10211000F04385B00C9D0D9C9DF83890DDF83C8017
:10212000DDF840E0119F129E16F0020F21D17FB121
:1021300016F0010F0CD0B9F1000F02D116F00C0F00
:1021400006D0013F04E04FF0300C05F804C0013424
:10215000744501D21F2CF6D916F0010F09D0BC42EC
:1021600007D21F2C05D84FF0300C05F804C00134FD
:10217000F2E716F0100F17D016F4806F04D11CB1DF
:10218000744524D0BC4222D0B8F1100F2BD0B8F146
:10219000100F33D0B8F1020F3BD01F2C04D84FF0F2
:1021A000300C05F804C001341F2C07D8B9F1000F1A
:1021B00037D04FF02D0C05F804C001340396029778
:1021C00001940095FFF764FF05B0BDE8F083B4F11A
:1021D000010C06D0B8F1100F01D06446D4E7023CE0
:1021E000D2E76446D0E716F0200FD0D11F2CCED80E
:1021F0004FF0780C05F804C00134CEE716F0200F3C
:10220000C8D01F2CC6D84FF0580C05F804C00134B4
:10221000C3E71F2CC1D84FF0620C05F804C001348D
:10222000BBE716F0040F05D04FF02B0C05F804C0E7
:102230000134C3E716F0080FC0D04FF0200C05F8AA
:1022400004C00134BAE7F0B591B0169C189D1B9EEE
:102250000CB926F0100616F4806E16D064B34FF059
:10226000000E12E00CF1300C5FFA8CFC0EF101074D
:102270000EF1400EEE440EF820CCB4FBF5FCAC425F
:102280001BD31F2F19D8BE466446B4FBF5FC05FBD3
:102290001C4C5FFA8CFCBCF1090FE3D916F0200F3F
:1022A00008D04127BC445FFA8CFCACF10A0C5FFA01
:1022B0008CFCDBE76127F5E7274606961A9C059418
:1022C000199C049403959DF85C400294019708AC16
:1022D0000094FFF71CFF11B0F0BD2DE9F04F95B051
:1022E00009900A910B929B461E9D1F9E229FDDF82E
:1022F0008C80DDF898A055EA060301D12AF0100A77
:102300001AF480641FD055EA060330D000241AE086
:1023100003F13002D2B204F1010904F150030DEBD4
:10232000030404F8202C3A4643462846314602F07E
:10233000C3FFBD4276EB08031BD3B9F11F0F18D8BA
:102340004C4605460E463A4643462846314602F07C
:10235000B3FFD3B2092BDBD91AF0200F05D04122ED
:102360001A44D2B20A3AD2B2D5E76122F8E74FF066
:102370000009CDF818A0259B0593249B049303978F
:102380009DF880300293CDF804900CAB00935B462F
:102390000B9A0A990998FFF7BAFE15B0BDE8F08FBD
:1023A0002DE9F04F91B004460D4617461E46DDE973
:1023B0001A2310461946FFF7D9FB002840F0ED809C
:1023C0004FF0FF32AE4BDDE91A01FFF71DFC00288C
:1023D00040F0E3804FF0FF326FF48013DDE91A0123
:1023E000FFF7D6FB002840F0D88000220023DDE96B
:1023F0001A01FFF7CDFB002840F0E2809DED1A7B2B
:102400008DED067B1E9B13F480630D9301D1062393
:102410001C93DDE9062310461946CDE9080152EA6E
:10242000030100F0D880C3F30A50C3F313039046AE
:1024300043F07F5949F44019A0F2FF30FFF74EFBFB
:102440007DA3D3E90023FFF7D5FA7DA3D3E90023C9
:10245000FFF7A8FA82468B4600228A4B404649463F
:10246000FFF7B4FA78A3D3E90023FFF7C3FA0246D3
:102470000B4650465946FFF795FAFFF753FB824645
:10248000FFF72CFB8046894671A3D3E90023FFF7B1
:10249000B1FA00227C4BFFF785FAFFF743FB834636
:1024A0006DA3D3E9002340464946FFF7A3FA8046CF
:1024B00089465846FFF712FB69A3D3E90023FFF7CB
:1024C00099FA02460B4640464946FFF77FFA804696
:1024D000894602460B46FFF78DFACDE90A010BF259
:1024E000FF3B00210022CDE908124FEA0B5309936C
:1024F0000023089342464B4640464946FFF752FAAE
:10250000CDE90E0142464B4600204FF08041FFF7D7
:102510005DFA8046894600225C4BDDE90A01FFF73F
:102520008FFA00225A4BFFF73DFA02460B46DDE9CF
:102530000A01FFF785FA0022564BFFF733FA0246ED
:102540000B46DDE90A01FFF77BFA02460B464046DF
:102550004946FFF727FA02460B46DDE90E01FFF771
:102560006FFA00224C4BFFF71DFADDE90823FFF755
:1025700041FA80468946CDE90889DDE90623FFF75F
:1025800043FB50B30AF1FF3A0022414B4046494613
:10259000FFF756FACDE908011FE01E9B04931D9B2F
:1025A00003931C9B02939DED1A7B8DED007B3346BC
:1025B0003A462946204600F003F911B0BDE8F08FF5
:1025C0009FED297B8DED067B1A9B06931B9B03F1E8
:1025D0000043079316E74FF0000A0AF16303C62B86
:1025E00027D84FF004081E9B13F4006F5FD0DDE97D
:1025F000081213460B4313D01DA3D3E90023DDE9D2
:102600000601FFF7EDFA002800F0B4801AA3D3E921
:102610000023DDE90601FFF7BBFA002800F0AA80DD
:102620001C9B53453ADDA3EB0A0A0AF1FF331C93C6
:1026300036E04FF00508D6E7FB799F501344D33FAF
:10264000B3C8608B288AC63F61436F63A787D23FB8
:1026500071A379094F930A401655B5BBB16B02407F
:10266000EF39FAFE422EE63F0000000000000000B5
:102670002D431CEBE2361A3F0000000080842E41FF
:10268000FFFFEF7F0000F83F0000E03F00002C401C
:1026900000002440000018400000F03F00231C937D
:1026A0001E9B43F480631E934FF00008C2461D9B9F
:1026B000984569D2A3EB08091E9B13F0020B04D0C6
:1026C000B8F1000F01D04FF00009BAF1000F07D0A8
:1026D000DDE90823DDE90601FFF7B2F9CDE90601DE
:1026E00000220023DDE91A01FFF752FA00284ED13B
:1026F0001E9B23F400630493CDF80C901C9B029363
:102700009DED067B8DED007B33463A4629462046FB
:1027100000F056F8B8F1000F3FF44FAF1E9B13F0D6
:10272000200F3CD04FF0450C00F101093346024622
:1027300029466046A0478AEAEA72A2EBEA720523BC
:10274000059308F1FF330493002303930A230293B4
:102750004FEADA700190009233464A4629462046F5
:10276000FFF771FDBBF1000F3FF427AF0246DDF824
:1027700074901EE01C9B002B99D00D9B002B96D0D3
:102780001C9B013B1C9392E74FF0000994E7DDE9A5
:102790000601024601F10043CDE90623A8E74FF008
:1027A000650CC1E702F10108334629462020A04705
:1027B0004246D31B4B45F5D31046FEE60000000011
:1027C0002DE9F04F2DED028B95B007900A919246BE
:1027D0009B46DDE92089229D42464B4640464946BC
:1027E000FFF7C4F9002835D14FF0FF326FF48013A2
:1027F00040464946FFF7CCF900283AD14FF0FF3266
:102800009F4B40464946FFF7FFF9002840D198A367
:10281000D3E9002340464946FFF7F6F900284FD197
:1028200095A3D3E9002340464946FFF7B1F90028B4
:1028300046D10022002340464946FFF7A9F9002867
:102840004CD100230B93249B13F4806F00F0B780CE
:10285000002456E0249B0393239B029303230193BC
:10286000884B00935B4652460A990798FFF710FC85
:1028700037E1249B0393239B029304230193824B10
:1028800000935B4652460A990798FFF701FC28E13E
:10289000249B13F004030FD07C4A7BB104232499BA
:1028A000039123990291019300925B4652460A9943
:1028B0000798FFF7EDFB14E1754AEEE70323EEE717
:1028C000249B0493239B03930295CDE900895B46E7
:1028D00052460A990798FFF763FD02E142464B46CC
:1028E00000200021FFF772F88046894601230B93F0
:1028F000A9E704F150036B44302203F8202C013D7A
:1029000001341F2C01D8092DF3D840464946FFF762
:1029100009F90646FFF7E2F802460B4640464946EB
:10292000FFF754F85B4B03EBC50393ED008B53ECBF
:10293000182BFFF75FF802460B46CDE90823FFF797
:1029400003F90746FFF7DCF802460B46DDE908010C
:10295000FFF73CF802460B46CDE9082300224E4B18
:10296000FFF752F968B301373846FFF7C9F8024656
:102970000B4651EC180BFFF71FF908B10136002781
:102980006DBB3046FFF7AAF802460B464046494663
:10299000FFF71CF80746884600223F4BFFF7F8F880
:1029A00000284CD100223C4B38464146FFF72CF919
:1029B000002844D116F0010F41D001363FE0062532
:1029C00046E70022344BDDE90801FFF7E1F8002873
:1029D000D6D117B117F0010FD2D00137D0E71F2C95
:1029E00017D8013D2D4BA3FB0723DB08194603EB4A
:1029F0008303A7EB4303621C303304F150000DEB5B
:102A0000000404F8203C092F02D90F461446E6E7DB
:102A100014461F2C0AD86B1E45B104F150026A44BB
:102A2000302102F8201C1D460134F2E71F2C06D885
:102A300004F150036B442E2203F8202C01341F2C88
:102A400031D8174A82FB0632F317C3EBA2031A46AA
:102A500003EB8303A6EB4303611C303304F1500006
:102A60000DEB000404F8203C1646DAB10C46E6E70C
:102A70000000000065CDCD410000000065CDCDC156
:102A8000FFFFEF7F705A0010745A0010685A001050
:102A9000645A0010805A00100000E03FCDCCCCCC2E
:102AA000676666660C46249B03F00303012B1DD06A
:102AB0001F2C09D80B9B002B35D004F150036B441D
:102AC0002D2203F8202C0134249B0393239B029393
:102AD00001940CAB00935B4652460A990798FFF7A6
:102AE000D7FA15B0BDEC028BBDE8F08F239BB3B1D4
:102AF0000B9B1BB9249B13F00C0F12D0239B013BA3
:102B00002393194606E004F150036B44302203F886
:102B1000202C01348C42CBD21F2CF4D9C8E7239946
:102B2000F8E72399F6E7249B13F0040F07D004F18C
:102B300050036B442B2203F8202C0134C4E7249B60
:102B400013F0080FC0D004F150036B44202203F8A7
:102B5000202C0134B8E700BF2DE9F04F8FB00746B5
:102B600016460D938846002900F0248300240D9B0F
:102B70001878002800F02083252809D0651C3346EA
:102B800022464146B8470D9B01330D932C46EEE794
:102B900001330D9300250D9B1978A1F12002102A15
:102BA0000AD8DFE802F03809093D090909090909CD
:102BB0000933092E09092900A1F13003DBB2092BE1
:102BC00033D92A2936D000230A930D9B1A782E2A4E
:102BD00040D04FF0000B0D9A1378683B122B77D83A
:102BE000DFE803F06476D376567676767676767678
:102BF000727676767676D80045F0010501330D932E
:102C0000C9E745F0020501330D93C4E745F004051B
:102C100001330D93BFE745F0080501330D93BAE783
:102C200045F0100501330D93B5E70DA8FFF71EFA27
:102C30000A90CAE7189B1A1D18921868002804DB2E
:102C40000A900D9B01330D93BFE745F00205434207
:102C50000A93F6E745F480655A1C0D925A78A2F162
:102C60003003DBB2092B04D92A2A07D04FF0000B1E
:102C7000B1E70DA8FFF7FAF98346ACE7189B1A1DD8
:102C800018921B6823EAE37B0D9B01330D93A2E7A7
:102C900045F48071531C0D9352786C2A01D00D4677
:102CA00016E045F4407501330D9311E045F08001C5
:102CB000531C0D935278682A01D00D4608E045F068
:102CC000C00501330D9303E045F4807501320D9288
:102CD0000D9B1878A0F12503532B00F26182DFE8E9
:102CE00013F054025F025F025F025F025F025F0245
:102CF0005F025F025F025F025F025F025F025F02CC
:102D00005F025F025F025F025F025F025F025F02BB
:102D10005F025F025F025F025F025F025F025F02AB
:102D20005F027401540174015F025F025F025F027F
:102D30005F025F025F025F025F025F025F025F028B
:102D40005F025F025F025F025E005F025F025F027E
:102D50005F025F025F025F025F025F025E009B0133
:102D60005E007401540174015F025E005F025F0245
:102D70005F025F025F025E0039025F025F02D40100
:102D80005F025E005F025F025E0045F40075013283
:102D90000D929DE745F4807501320D9298E77828F1
:102DA00009D058283AD06F283AD062283AD025F076
:102DB00010050A2300E01023582835D0692803D0D5
:102DC000642801D025F00C0515F4806F01D025F0A2
:102DD000010569282BD0642829D015F4007F40F024
:102DE000968015F4807F40F0AE8015F0400F00F023
:102DF000BF80189A111D1891127805950A990491AF
:102E0000CDF80CB002930023019300923346224682
:102E100041463846FFF717FA044629E01023CBE76E
:102E20000823C9E70223C7E745F02005C6E715F4E4
:102E3000007F21D115F4807F42D115F0400F58D08A
:102E4000189A111D1891127882EAE271A1EBE271D1
:102E500005950A980490CDF80CB00293D20F019218
:102E600000913346224641463846FFF7ECF90446C6
:102E70000D9B01330D937AE6189A073222F0070270
:102E800002F108011891516812680846002913DB05
:102E900008950A9D0795CDF818B004930023059373
:102EA000C90F0291009201903346224641463846AE
:102EB000FFF713FA0446DBE7524261EB4100E7E714
:102EC000189A111D1891126882EAE271A1EBE27161
:102ED00005950A980490CDF80CB00293D20F019298
:102EE00000913346224641463846FFF7ACF9044686
:102EF000BEE715F0800F05D0189A111D1891B2F990
:102F00000020A1E7189A111D189112689CE7189AE1
:102F1000073222F0070202F10801189108950A9978
:102F20000791CDF818B00021049305910291D2E9E0
:102F30000023CDE900233346224641463846FFF7B9
:102F4000CCF9044694E7189A111D189105950A9931
:102F50000491CDF80CB00293002301931368009301
:102F60003346224641463846FFF76DF904467FE76F
:102F700015F0800F04D0189A111D189112883CE7A3
:102F8000189A111D1891126837E746281AD0189B15
:102F9000073323F0070303F10802189204950A9AF5
:102FA0000392CDF808B0D3E90023CDE900233346DE
:102FB000224641463846FFF703FC04460D9B013389
:102FC0000D93D4E545F02005E1E7672801D04728B7
:102FD00001D145F40065452801D0472801D145F0CD
:102FE0002005189B073323F0070303F1080218920A
:102FF00004950A9A0392CDF808B0D3E90023CDE9ED
:1030000000233346224641463846FFF7C9F90446B5
:103010000D9B01330D93AAE515F002051FD04FF06B
:1030200001091898031D189304F1010A334622463A
:1030300041460078B847BDB90D9B01330D93544606
:1030400095E502F1010A334641462020B8474B4638
:10305000524603F101099B45F3D81446E1E70123E9
:10306000DDF828B02246F4E75246DDF828A006E055
:10307000551C334641462020B847A1462A4609F14F
:103080000104CA45F4D89246D6E7189B1A1D189237
:10309000D3F800A0BBF1000F1ED14FF0FF33D14693
:1030A00002E009F10109134699F8002012B15A1EF5
:1030B000002BF6D1A9EB0A0915F480630B9302D01B
:1030C000D94528BFD94615F002030C9306D02246F5
:1030D0005C46B3460B9E1DE05B46E0E722460A9C39
:1030E0004B4607E002F10109334641462020B8472C
:1030F0002B464A465D1C9C42F4D8A9465C46B34622
:103100000B9E07E01C460AF1010A551C5B4641462E
:10311000B8472A469AF8000020B1002EF3D0631E6B
:10312000002CEFD114465E460C9B1BB90D9B01335E
:103130000D931CE5DDF828A006E0551C33464146FA
:103140002020B847A1462A4609F10104CA45F4D80F
:103150001446EBE745F02105189B1A1D18921B68D1
:10316000059508220492CDF80CB01022029200229C
:10317000019200933346224641463846FFF763F8F2
:1031800004460D9B01330D93F1E4651C3346224642
:1031900041462520B8470D9B01330D932C46E6E4AC
:1031A000651C334622464146B8470D9B01330D93BB
:1031B0002C46DCE4074FD9E4B44201D3721E00E090
:1031C0002246334641460020B84720460FB0BDE8AE
:1031D000F08F00BF5D20001000B585B00290039114
:1031E000009313464FF0FF3202A90348FFF7B4FCE7
:1031F00005B05DF804FB00BF5F20001000BEFDE7D6
:103200000346094A126842B1074A10680344074A54
:10321000934206D8044A13607047034A0449116078
:10322000F2E74FF0FF3070478811002000000820BF
:10323000D025002008B5FFF7E1FF000000B583B0FE
:103240008C46194613465AB1074A5BB10193009266
:1032500063460246054800F0B7F90120FFF7CEFFAC
:10326000034AF2E7024BF1E7D05A0010E05A00108F
:103270005853001010B5EFF30583DBB203B100BE65
:10328000FEF772FA044C02E054F8043B9847034BF3
:103290009C42F9D310BD00BF285300102C530010DE
:1032A00008B5034608461B681146984708BD00004C
:1032B000F8B507460D461646437D13B10024204657
:1032C0000CE003681146284698472EE03B7D10E04D
:1032D0003B68022115489847601C0134B44214DA57
:1032E000002CF3DD2B1913F8013C0D2B14BF002328
:1032F00001232A5D0A2AF0D1002BEED1A042E7DAA1
:103300003B68211A28449847E2E7B04203DA3B6859
:10331000311A28449847002E07DD354415F8013C42
:103320000D2B14BF002301233B75F8BD645B001017
:1033300038B50368BBB105460B4B1C6806E029464F
:1033400051F8042B2046FFF7B3FF24694CB12368E2
:10335000002BFAD0054B1B68002BF0D0A342F4D110
:10336000EDE700232B6038BD7C1100208411002084
:1033700038B505460C460B68802B05D021684B1CE0
:1033800023600C44257138BD0846FFF7D1FFF5E7EF
:1033900008B5FDF7E3FF074A821841F10003002B4F
:1033A00003DB054801F098FF08BD4FF0FF326FF0D6
:1033B0000043F6E740420F00380F002008B50248EE
:1033C00001F082FF08BD00BF380F00202DE9F04357
:1033D00083B006460D4690461C46FFF7D9FF81464E
:1033E000B5F1FF3F04D044B1174F184B1C6807E0FC
:1033F000304601F0D7FD0546F5E7154FF5E724699E
:10340000BCB12368002BFAD0124B1B680BB1A3424E
:10341000F5D12A4631462046B847B8F1000FEED024
:103420000A238DF8073001220DF107012046B84725
:10343000E5E7B9F1000F03D1284603B0BDE8F083FA
:10344000FFF7BCFFF8E700BFB13200107C1100208D
:10345000A1320010841100202DE9F04106460D46EE
:1034600090461F4623E0A36823B12946304698477B
:10347000002823DC246934B1114B1B68002BF2D0E7
:10348000A342F7D1EFE70F4B5B6A9F4209D80D4A81
:10349000926A42450ED29F4201D0012302E00023EE
:1034A00000E0002343B901200021FDF75FFF064B38
:1034B0001C68E0E70123F5E76FF00100BDE8F0814B
:1034C0008411002000000B407C110020084A01E01C
:1034D00003F1100213683BB18342F9D131B903699A
:1034E000136000230361704701B11060704700BF93
:1034F0007C11002010B5054B1C6801E09847246939
:103500001CB16368002BF9D1F9E710BD7C110020D4
:1035100008B500F073F9012008BD000010B582B0B5
:103520000446FDF71BFF221841F10003002B0ADBC4
:10353000012101A8FFF790FF002802DB40B19DF8B0
:10354000040002B010BD4FF0FF326FF00043EFE710
:10355000034B044A40F203110348FFF76FFE00BF1C
:10356000105B0010485B0010145B001038B5054676
:1035700001F018FD044601231A4601462846FFF7CC
:1035800025FFFFF7B7FF204638BD000070B5A2B099
:1035900004460E46FFF7FCFE054600230193334622
:1035A000224601A90748FFF717FE044601A8FFF7C6
:1035B000BFFEFFF79FFF15B9204622B070BDFFF791
:1035C000FDFEF9E7713300100FB400B583B004A914
:1035D00051F8040B0191FFF7D9FF03B05DF804EB3C
:1035E00004B0704730B583B086460C464FF0000CEF
:1035F00013E00D238DF8073000200DF10701E0B92D
:10360000936913F0200FFBD10B4613F8011B1160D7
:1036100001301946F3E70CF1010CA4451FDA114BF8
:103620001A681EF80C50104B9A4214BF0023012355
:103630000E4931F91330AB42DBD08DF80750002032
:103640000DF107010028E6D1936913F0200FFBD19B
:103650000B4613F8011B116001301946F2E703B065
:1036600030BD00BFC825002000800740C4250020D1
:1036700070B582B005460E46002104E09DF8073083
:103680008EF800306146B14218DA164B1A6890691C
:1036900010F0100012D101F1010C05EB010E0DF13B
:1036A00007010028EAD1936913F0100FFBD11468C9
:1036B0000B4603F8014B01301946F2E70A4B1B6831
:1036C0004BB1084B1B6850229A635A6B02F03802C8
:1036D00003F581535A6111B1084602B070BD6FF015
:1036E0000201F9E7C82500204411002008B5054B68
:1036F0001B6833B1044A126800219163034A1068C1
:10370000984708BD44110020C8250020481100201A
:10371000034B1A68936913F0080FFBD1704700BF81
:10372000C825002038B51C4B1B681C4A934206D0A4
:10373000212410B11A4A12681AB1C8B138BD222426
:10374000F7E7174B1860174B196017492046FCF72D
:103750005DFF01212046FCF747FF0F4B1B685022FD
:103760009A635A6B02F0380203F581535A61E5E718
:103770000B4A1268002AE1D000259D6329462046A5
:10378000FCF732FF08492046FDF7A2F8044B1D6004
:10379000044B1D60D2E700BFC82500200080074011
:1037A0004411002048110020ED36001038B50D46B8
:1037B0001C46104B1860101E05DB10F0020F15D0D0
:1037C0000B21FCF7E5FD002C06DB14F0020F0FD0F7
:1037D0000B212046FCF7DCFD2946064B1868FDF757
:1037E00039FE01210448FFF771FE38BD0221E8E7E8
:1037F0000221EEE7C82500208C06002008B5074B03
:103800001B78074B1B78074B1B78012300224FF4D2
:10381000E1310548FFF7CAFF08BD00BF846600100C
:10382000886600108C6600100000074008B5C36869
:10383000C02B03D103685A68002115E00F4B104AD2
:103840005C211048FFF7FAFC24230B4103F001032D
:103850000FE00D4810605B0743F0AA4353600B482C
:103860009060D36010320131BF2906D81F29EBD9EF
:1038700000230029EDD00648ECE708BDB05B00103E
:10388000305F0010F05B0010395555006955550048
:10389000C955550008B5254B1B6813BB0021244BA7
:1038A000186800F073FF214B186008B382680AB3F0
:1038B00043681968B1F804E040F2145CE64520D191
:1038C000C988022924D19B88102B28D1174B5B7AF9
:1038D0000168496892009B0103F1A0431960DA6115
:1038E00008BD144B144A4FF49B711448FFF7A6FC13
:1038F0001348DBE7134B104A4FF4A1710F48FFF751
:103900009DFC114B0C4A4FF4A2710C48FFF796FC3A
:103910000E4B094A40F245110848FFF78FFC0C4B4B
:10392000054A4FF4A3710548FFF788FCB411002045
:1039300040110020345C0010445F0010F05B001068
:10394000CC060020545C0010685C0010A45C0010E1
:10395000CC5C001008B54B681B689B88012B02D11A
:1039600000F052FB08BDFCF747FD000038B50546E6
:1039700001461948FFF728FE0520FDF70DFEB0F1BE
:10398000804F1CD20146B0FBF5F422461348FFF7E6
:103990001BFEB4F1807F18D2114A137AE1B2C4F34E
:1039A0000F24240444EA012403EB4303DB0003F166
:1039B000A04303F50013C3F8C840556038BD094B58
:1039C000094AB0210948FFF739FC094B064AB421DE
:1039D0000648FFF733FC00BF085D0010445D00108F
:1039E000B4110020205D0010C85E0010F05B0010D4
:1039F000785D001038B504460D4603695B681868A9
:103A0000054B5B68984204D12946204600F094FD9E
:103A100038BDFFF7ABFFF7E7B41100202DE9F04305
:103A20008FB006460D461746994606AB4FF0000884
:103A3000CDF81880CDF81C80CDF82080CDF82480FA
:103A40004FF4803206924FF4F83207924FF48022FE
:103A500008924FF4402208920DF1080E0FCB8EE829
:103A60000F00FC1C21F4FF3C2CF4C07C4CEAC71C6A
:103A70004CEA0434039428F0604343F00053059368
:103A800024F0C04403940AAC9EE80F0084E80F00C1
:103A900022F0785323F4202343F420230C930D9B2E
:103AA00023F0604343F000530D9321F0C0420B928A
:103AB00023F4F8434FEA892202F4F84213430D93AA
:103AC00023463A462946304600F01CFC0123009369
:103AD0004A462946304600F0C6FB42462946304653
:103AE00000F086FB07F01F0705EB450506EBC50553
:103AF000C5F8D8700FB0BDE8F08300002DE9F041A3
:103B000080460C46002115E00133072B0CD801221A
:103B10009A400A42F8D08CF0010C4FEA430E022280
:103B200002FA0EF21043EFE740EA0C406A4B43F80A
:103B300021000131FF2904D800239C4645F255504D
:103B4000E3E706212078FCF723FCA578634B1D7280
:103B5000634E2946304600F015FB6249304600F0BE
:103B60002FFB0246237829463046FFF757FF0C20EB
:103B7000FEF74AFA064658B14FF440610120FEF7BD
:103B800055FA706070B14FF440633360012363B144
:103B9000554F3E603846FFF749FE3B6859684FF085
:103BA000000C4BE000233360F1E73046FEF752FA99
:103BB0000026EDE70846484F3A680B6823F07F433C
:103BC00043EA02630B60D1F804E04FEA1E63160279
:103BD00026F07F4626F0FF06C2F30722324303F0A9
:103BE0002A032A267343C3F380130EF0FE4E42EAE3
:103BF0000E0242EAC3734B6010313F6850F8083F31
:103C000023F07F4343EA07630360D0F804E04FEA00
:103C10001E623B0223F07F4323F0FF03C7F3072715
:103C20003B4332407243C2F380120EF0FE4E43EA31
:103C30000E0343EAC27343600CF1010C2A4B9B68EC
:103C40006345B7D8BFF35F8F6478204600F0E0F992
:103C5000224B5C72254B102C30D823F4F03343EA0E
:103C6000443323F00C0343F0080323F4F85323F008
:103C7000C07343F0010323F0007323F002033F2DD0
:103C800023D823F4FC0343EA4543194A02EB850594
:103C9000A20102F1A0420021116055609160136100
:103CA000802214490A20FCF7E1FC012303FA04F402
:103CB000114BC3F804444046BDE8F0810F4B104A55
:103CC00040F229110F48FFF7B9FA0F4B0F4A40F2A3
:103CD0001B110C48FFF7B2FAC4210020B4110020D8
:103CE00000002050645F0010CC06002010007E0011
:103CF0001000205079020020002000508C5D001040
:103D0000145F0010AC5D0010F05D0010FC5E001050
:103D100070B5054614461E462148FFF727FC6B6820
:103D20009B88012B13D11F4B40F214529A806A6872
:103D300012681A600222DA801B4810238380C02296
:103D4000214600F0E3FC194B1860046909E0184BA8
:103D5000184AE3211848FFF771FA2046FFF766FD7D
:103D60006469002CF9D16B681868FFF7FFFDBFF399
:103D70005F8F3EB10D4B1A682946304600F0CCFCEF
:103D8000012070BD6B68DA88022A05D019680B48DB
:103D9000FFF71AFC0A4EEDE70A48FCF715FB00BFD7
:103DA000045E00108C110020C40600204011002089
:103DB000205E0010E05E0010F05B0010785E0010E6
:103DC000A4060020585E001008B50B46022201210F
:103DD000FFF79EFF08BD08B50021FFF7F5FF08BDFE
:103DE000144B1B78834223D010B5044698B9214662
:103DF0000A20FCF7F9FBC4B90F4B1A7A0F48036885
:103E00000121914023EA010304FA02F21343036003
:103E1000084B1C7010BD0A48FFF7A8FB4FF0504339
:103E200019680848FFF7D0FBE1E7FFF733FDE3E748
:103E3000704700BFCE250020B411002000002050A4
:103E40009C5E0010B85E00102DE9F04F87B0039023
:103E50000291002301937DE00121039C606900F041
:103E6000BEFAA0610023E3617EE005AB8BE0604B0E
:103E7000604A40F205116048FFF7E0F95F4B5D4A88
:103E80004FF483715C48FFF7D9F934F9027B0D4692
:103E90005FFA87FEDFF86CC15CF82E60C7F3072776
:103EA0005CF827000B6823F07F4343EA06630B604E
:103EB000D1F804904FEA1962030223F07F4323F004
:103EC000FF03C6F3072B43EA0B03000C80EA1640FE
:103ED00002F02A022A267243C2F38012424009F0FD
:103EE000FE4943EA090343EAC2724A6010315CF8B2
:103EF0002EE05CF8270055F8083F23F07F4343EAA3
:103F00000E632B606F683A0E030223F07F4323F0A9
:103F1000FF03CEF3072C43EA0C03000C80EA1E409B
:103F200032407243C2F38012424007F0FE473B43E7
:103F300043EAC2726A6008F10108C245A5D8019B34
:103F400053440193039AD3695344D3619269D1686E
:103F50008B4232D0029B9B68019A934236D9039BD5
:103F60009B69002B3FF478AF029B9A68019BD21AA1
:103F7000049203998869C368C9695B1A05939A42D8
:103F80003FF673AF04ABD3F800A0029B5B689A883E
:103F9000022A7FF46CAF1B68DB88012B7FF46EAFC5
:103FA00003685B6803EB0111029B1B685C68019B63
:103FB00004EB43044FF00008BFE79160039CA16944
:103FC000606900F0BFFA0023A361C3E7019A93423E
:103FD00007D10299039B186900F02CFA07B0BDE8DD
:103FE000F08F074B034A40F21B110348FFF726F9F5
:103FF000745F0010346100108C600010D8600010F5
:1040000018610010C421002008B5FFF71DFF08BD8E
:1040100008B50146024A0348FCF710FA08BD00BF84
:1040200014620010CC250020D0F8683113B111F0D3
:10403000010F05D133B911F0040F05D000207047EE
:1040400000207047012070470120704708B5C979EA
:10405000FFF7EAFF08BD000070B504460D4616469E
:10406000FFF7F4FFD0B195F90530002B01DBB34227
:1040700017D104F12F4000F56000000D0A4B53F8F2
:1040800020102A7901239340013B03FA06F20A42E9
:1040900001D1002070BD6FF00800FBE76FF00A004F
:1040A000F8E76FF00A00F5E734110020F8B506468E
:1040B0000D461746FFF7D0FF20BB034606E003EB93
:1040C000070C0CF1120C46F82C4001332979994267
:1040D00007D92A6832F8134014F4604FEFD13C44FA
:1040E000EDE7012303FA01F1013906F12F4606F548
:1040F0006006360DB940044A52F82630194342F89A
:1041000026103846F8BD00BF3411002010B50A79DA
:10411000202A19D800F12F4000F56000000D154B42
:1041200053F8204001239340013B91F905100029E9
:1041300010DB0846C2F12002914218DC8B4023427A
:1041400001D04FF0FF3010BD0B4B0C4A43210C48FF
:10415000FFF774F8C2F12000002805DB03FA00F233
:104160002242F0D00138F7E76FF00800EBE74FF09C
:10417000FF30E8E73411002038620010FC620010C4
:104180006462001008B500F12F4000F56000000DDA
:1041900002280AD0012806D0054A01EB8001054813
:1041A000FCF74CF908BD044AF7E7044AF5E700BFFD
:1041B0009862001050110020D8620010B462001004
:1041C000F8B505460E46FCF71DF907463146284668
:1041D000FFF79CFF041E04DA3846FCF725F9204659
:1041E000F8BD224631462846FFF760FF0446F3E754
:1041F000F0B501EB410300EBC303D3F8DC70D3F857
:10420000CC6001EB4103DB00C833034403F54053AA
:104210004FF400345C604FF0000E202418E0A446F8
:10422000052C28BF4FF0050C4FEA4E1545EA8C656A
:1042300001EB410300EBC303C3F8DC5002F01F05A0
:1042400045F46045C3F8D850A4EB0C04E644520989
:10425000002CE4D101EB410300EBC303C3F8DC7095
:10426000C3F8CC60F0BDF0B59DF81470D0F868418B
:10427000121B1F2A43D801EB410400EBC404D4F8FD
:10428000DC60D4F8CC5001EB4104E400C8340444B1
:1042900004F540544FF4003CC4F804C017B14FF08B
:1042A0001F0E15E04FF0000E12E0540144F0A05430
:1042B00001EB410C00EBCC0CCCF8DC404EF460443C
:1042C00044F08004CCF8D840053B053202F01F02D0
:1042D000052BEAD8520142EA836201EB410400EB6C
:1042E000C404C4F8DC204EF4604343F08003C4F8F7
:1042F000D830C4F8DC60C4F8CC500020F0BD6FF0BA
:104300000400FBE730B589B086468C461446026847
:10431000012101FA0CF122EA01020260002B38D0DF
:104320001A4619680CEB4C0300EBC303C3F8C81022
:104330009168C3F8D0105168C3F8CC10D268C3F8A4
:10434000DC200CEB4C03DB00D033734403F58053CB
:104350004FF000421A601A604FF0013303FA0CF379
:10436000CEF808300CF10402012303FA02F20EF534
:1043700000510A600CF1080293400B6004F01F0426
:104380000CEB4C0C0EEBCC0CCCF8D840002009B058
:1043900030BD04AB002204920592069207924FF4BE
:1043A000803204924FF4F83205924FF48022069244
:1043B0004FF4402206926D460FCB85E80F000CEBC0
:1043C0004C030EEBC303C3F8C8004FF44022C3F8FC
:1043D000D020C3F8CC100022C3F8DC20B1E710B520
:1043E00003460CE042691A61002242610022DC6847
:1043F000C4E88F2F8CF31088B0B9A9B120BFDA6858
:10440000EFF3108C72B6D2E8CFEF0120BEF1000FAF
:10441000F9D1C2E84E0FBEF1000FF4D1BFF35F8FA8
:1044200018690028DED1E1E710BD08B50069FFF783
:10443000D6FF08BD08B54B6903BBC368EFF3108214
:1044400072B6D3E8CFEF5FF0010CBEF1000FF8D1E8
:10445000C3E84ECFBEF1000FF3D1BFF35F8F4B69BE
:1044600093B90369994215D04B610161C16800237A
:10447000C1E88F3F82F3108840BF08BD084B094A4E
:104480005B210948FEF7DAFE084B094A3421064849
:10449000FEF7D4FE074B064A35210348FEF7CEFE51
:1044A0001463001020630010646300109863001010
:1044B000AC630010E463001008B54069FFF7BAFF71
:1044C00008BD000010B503460DE0DA69904225D121
:1044D0000022DA6100225C69C4E88F2F8CF3108817
:1044E00010BB09B320BF5A69EFF3108C72B6D2E843
:1044F000CFEF0120BEF1000FF9D1C2E84E0FBEF19F
:10450000000FF4D1BFF35F8F98690028E2D04269B1
:104510009A61002AD9D000224261DBE7034B044AAA
:1045200029210448FEF78AFE10BD00BFF463001085
:10453000046400106463001008B54069FFF7C2FF0F
:1045400008BD000008B54B69002B23D14369EFF388
:10455000108C72B6D3E8CFEF0122BEF1000FF9D173
:10456000C3E84E2FBEF1000FF4D1BFF35F8F4B694C
:10457000B3B98369994219D0C26991421CD00BB377
:104580005161C16142690023C2E88F3F8CF31088FA
:1045900040BF08BD194B1A4A70211A48FEF74EFE5B
:1045A000194B1A4A3D211748FEF748FE184B174A87
:1045B0003E211448FEF742FE164B144A3F21114893
:1045C000FEF73CFE42B9C1614B695BB98369994210
:1045D0000ED04B618161D5E70F4B0C4A422109484F
:1045E000FEF72CFE084B0D4A34210648FEF726FE46
:1045F000074B0A4A35210348FEF720FE14630010DA
:1046000054640010646300109863001098640010F4
:10461000E4630010E8640010F8640010AC6300105C
:1046200008B50069FFF78EFF08BDF8B504461546CA
:1046300041608E8802FB06F60C20FDF7E5FC07467C
:1046400040B131460120FDF7F1FC786038B13E60A1
:1046500001233BB12760E5600023A360F8BD002380
:104660003B60F6E73846FDF7F5FC0027F2E700006F
:104670002DE9F04780460E46914620210120FDF7A6
:10468000D5FC824636B90027D8F80030CAF8043085
:10469000002408E018213046FDF7C8FC0746F3E780
:1046A00000236B610134B44211DA04EB440507EBDB
:1046B000C5054A4641462846FFF7B7FF731EA34289
:1046C000EED0631C03EB430307EBC303E9E70620CB
:1046D000FBF7F2FECAF80C00CAF810700720FBF7CF
:1046E000EBFECAF814000023CAF81830CAF81C30D0
:1046F000024BCAF808305046BDE8F087E4060020B7
:1047000008B5FFF7B5FF0022027008BD08B5FFF736
:10471000AFFF0123037008BD08B50B783BB91378D0
:10472000012B0AD1886090600161426108BD064B8F
:10473000064ACC210648FEF781FD064B034ACD21EF
:104740000348FEF77BFD00BF0065001038650010D0
:10475000646300109865001008B5034600220A61E2
:10476000806820B11B7843B94368984708BD044B63
:10477000044AD6210448FEF761FDC3689847F5E76F
:10478000D0650010E06500106463001008B50346B2
:10479000806820B11B7843B90368984708BD044B73
:1047A000044ADE210448FEF749FD83689847F5E78F
:1047B000D06500102066001064630010024B0A46AA
:1047C0000146186800F002B8FC06002038B5A1FBCD
:1047D00002145CBB00F046F80546C0B150F8042C4A
:1047E00022F00302043A242A13D8132A0AD91B2AD6
:1047F000C0E9004412D9242AC0E9024411D000F1D2
:10480000100200E002460023C2E90033936028460C
:1048100038BD214600F056FB284638BD00F108029D
:10482000F1E700F11802C0E90444ECE700F004F8F5
:104830000C2300250360EAE7014B1868704700BFAE
:10484000FC060020024B0146186800F00BB800BFC0
:10485000FC060020024B0146186800F021BC00BF96
:10486000FC06002001F10B03162B2DE9F04F054645
:1048700083B024D8102900F2F58000F075FB1024D5
:1048800018220220C04E32445368A2F108018B4224
:1048900000F0EF805A68284622F00302D3E9024173
:1048A0001A44E1608C6003F10804536843F001038B
:1048B000536000F05FFB204603B0BDE8F08F002B93
:1048C00023F00704C0F2CE80A14200F2CB8000F0BA
:1048D0004BFBB4F5FC7FC0F0C281630A00F033816A
:1048E000042B00F29881A30903F1390003F1380782
:1048F000C300A54E3344A3F1080C5B689C4507D167
:10490000BCE0002980F25081DB689C4500F0B68055
:104910005A6822F00302111B0F29F2DD3369384671
:10492000DFF87CE2734540F0AF80831001217268AC
:104930009940914240F2D180B7687B6823F0030927
:10494000A9EB04030F2B02DD4C4540F20C818F4B89
:1049500007EB090B1B6804EB03088D4B1A68013247
:1049600000F0CB8141F20F024244DFF8388202EAC4
:1049700008084146284600F003FBB0F1FF3F82469D
:10498000834B00F0A981B74202D0834500F2A48195
:10499000804AD34511684144116000F0A081186835
:1049A000013000F0A781AAEB0B0B594411601AF0FB
:1049B000070300F0AC81C3F10801284601938A4443
:1049C00041F20801D044C91AA1EB0801C1F30B0B55
:1049D000594600F0D5FA421C019B6E4A00F0DE8178
:1049E000A0EB0A0000EB0B08106848F00103B74287
:1049F000C6F808A00BEB0001CAF80430116000F003
:104A0000A981B9F10F0F40F2A7817B68A9F10C00D1
:104A10004FF0050C20F0070003F0010303430F28BB
:104A20007B6007EB0003C3E901CC00F2AD81DAF84B
:104A300004305746584A1068884238BF1160574AB8
:104A40001068884238BF116023F003084445A8EB82
:104A5000040302D80F2B00F386802846002400F0C0
:104A600089FA28E700240C2320462B6003B0BDE818
:104A7000F08FD3689A427FF40DAF02303369DFF8CC
:104A800020E173453FF451AF596821F003010A1B3F
:104A90000F2A00F3E880002AC6E904EE58DAB1F5DF
:104AA000007F80F093804FEAD10C012249090CF17C
:104AB000010C8A40716856F83C700A4306EBCC0141
:104AC00008397260C3E9027146F83C30FB6083101C
:104AD0000121994091423FF62FAF114205D120F0BC
:104AE0000300490004301142FBD006EBC0098046A8
:104AF000CC46DCF80C70BC4507D198E0002B80F266
:104B00009F80FF68BC4500F092807A6822F0030223
:104B1000131B0F2BF2DD391944F0010428467C6089
:104B200043F00104D7E902C5CCF80C50C5F808C021
:104B3000C6E904114C6007F10804C1E902EEBB505C
:104B400000F018FAB7E64FF4007340203F27D0E694
:104B5000194403F1080428464B6843F001034B60F5
:104B600000F008FAA7E63A1944F0010443F0010303
:104B700028467C6007F10804B260536000F0FAF93F
:104B8000204603B0BDE8F08F280B00201011002054
:104B9000300F0020E0100020081100200C11002030
:104BA000300B002000F0FFFF1A4403F108042846F0
:104BB000D3E902615368F16043F001038E605360F2
:104BC00000F0D8F9204603B0BDE8F08FB1F5206FB2
:104BD0004FEA512259D3142A00F2AA8002F15C074D
:104BE0005B32FF0006EB070CF759ACF1080CBC4533
:104BF00000F086807A6822F003028A4202D9BF68F8
:104C0000BC45F7D1D7F80CC07268C3E9027CCCF878
:104C10000830FB605BE7142B3DD9542B00F29080E9
:104C2000230B03F16F0003F16E07C30061E608F187
:104C300001080CF1080C18F0030F7FF45AAF35E0AF
:104C40003A443C46F9682846536843F001035360F0
:104C500054F8083FD9608B6000F08CF92BE6E0082F
:104C600004F108020EE628461D1944F001045C60B8
:104C700042F00104C6E904556C6003F10804C5E97B
:104C800002EE5A5000F076F915E68A0902F139076A
:104C90003832FF00A6E703F15C0003F15B07C300B5
:104CA00027E659F808394B4540F0928010F0030F81
:104CB00000F1FF30F5D1736823EA01037360490006
:104CC0003FF43AAE994203D936E6490008F10408A8
:104CD0001942FAD0404608E7B7687B68B4E6CBF3E0
:104CE0000B0000287FF45BAEC844B76848F00103AE
:104CF0007B609FE6C3F800A059E608F1100838E68B
:104D000092100121914072680A4372607DE70AEBBC
:104D10000801284601934942C1F30B0B594600F0A4
:104D20002FF9431C2B4A019B7FF45AAE9B465BE64E
:104D3000542A15D80A0B02F16F076E32FF0051E7B3
:104D4000B3F5AA7F15D8E30B03F1780003F17707D9
:104D5000C300CEE557466DE60123CAF804307CE671
:104D6000B2F5AA7F21D8CA0B02F178077732FF008B
:104D700038E740F25452934221D8A30C03F17D004E
:104D800003F17C07C300B4E507F10801284600F0F1
:104D900087F9B7680F4A7B6811684BE6083B4FF00C
:104DA000000B9844A8EB0A081EE640F25457BA429A
:104DB0000AD88A0C02F17D077C32FF0012E74FF41B
:104DC0007E737F207E2794E54FF47E777E2209E76D
:104DD000736874E7E0100020844641EA000313F092
:104DE000030349D1403A23D30B6803604B68436007
:104DF0008B688360CB68C3600B6903614B69436157
:104E00008B698361CB69C3610B6A03624B6A43623E
:104E10008B6A8362CB6AC3620B6B03634B6B436326
:104E20008B6B8363CB6BC36340304031403ADBD242
:104E300030320BD30B6803604B6843608B68836030
:104E4000CB68C36010301031103AF3D20C3205D366
:104E500051F8043B40F8043B043AF9D2043208D03C
:104E6000D2071CBF11F8013B00F8013B01D30B88AE
:104E700003806046704700BF082A13D38B07B1D068
:104E800010F00303AED0C3F10403D21ADB071CBF3A
:104E900011F8013B00F8013BA4D331F8023B20F8A4
:104EA000023B9FE7043AD9D3013A11F8013B00F8DD
:104EB000013BF9D20B7803704B7843708B78837089
:104EC0006046704770B5860748D0541E002A3FD010
:104ED000CAB2034601E0013C3AD303F8012B9D0717
:104EE000F9D1032C2DD9CDB20F2C45EA052545EA81
:104EF000054536D9A4F1100C03F1200E03F1100280
:104F00002CF00F064FEA1C1CB64442E9045542E956
:104F1000025510327245F8D10CF1010214F00C0F59
:104F200004F00F0C03EB021213D0ACF1040323F0D6
:104F300003030433134442F8045B9342FBD10CF0A7
:104F400003042CB1CAB21C4403F8012B9C42FBD1D0
:104F500070BD64461346002CF4D1F9E703461446AD
:104F6000BFE71A46A446E0E7014800F09FB900BF3A
:104F7000DC100020014800F09BB900BFDC100020CD
:104F800038B50022064D044608462A60FEF738F977
:104F9000431C00D038BD2B68002BFBD0236038BDEC
:104FA0008011002020F0030110F00300C0F1000088
:104FB00051F8043B00F1040C4FEACC0C6FF00002F6
:104FC0001CBF22FA0CF213434FF0010C4CEA0C2CDC
:104FD0004CEA0C4CA3EB0C0222EA030212EACC12BC
:104FE00004BF51F8043B0430F4D0C2F1000102EADE
:104FF0000102B2FA82F2C2F11F0200EBD200704746
:10500000F8B5234F0C460646FFF7AEFFBA6840F6E8
:10501000EF7355681B1B1F4C25F003052B441C40E8
:10502000A4F58054B4F5805F07DB00213046FFF71C
:10503000A7FFBB682B44984204D03046FFF79AFF85
:105040000020F8BD61423046FFF79AFF01300DD0D5
:105050002D1B114BBA68304645F0010555601A68A2
:10506000121B1A60FFF786FF0120F8BD00213046B1
:10507000FFF786FFBA68831A0F2BDEDD43F00103CA
:1050800005495360054B1B68C01A0860D5E700BF8F
:10509000280B002000F0FFFFE0100020300F002060
:1050A000002961D0F8B50C460646FFF75DFF7C4F3E
:1050B00054F8042CA4F10805B86822F0010105EBAE
:1050C000010CDCF80430604523F0030300F08B8012
:1050D000D207CCF8043032D454F8082C07F1080079
:1050E000AD1A1144AA6882426AD00CEB0304D4F8CA
:1050F00004E0EC681EF0010FD460A26000F097801D
:1051000041F001036B60CCF80010B1F5007F35D29F
:105110004A09CB080121013391407A68114307EB1A
:10512000C3027960083A57F83310C5E9021247F80C
:105130003350CD603046BDE8F840FFF71BBF0CEBA5
:1051400003025268D00710D4194407F10800DCF8B4
:105150000830834273D0DCF80C20DA60936041F0B1
:1051600001036B606950D0E7704741F00103B1F56E
:10517000007F44F8043CCCF80010C9D3B1F5206F8F
:105180004FEA512348D28B0903F1390003F1380269
:10519000C300F818FB580838984259D05A6822F0D2
:1051A00003028A4202D99B689842F7D1D868C5E9C0
:1051B000023085603046DD60BDE8F840FFF7DABEBA
:1051C0000CEB03025268D20763D40B443046DCE98F
:1051D0000212CA60916043F001026A60EB50BDE8C0
:1051E000F840FFF7C7BE0B44D10707D454F8082C8A
:1051F000AD1A1344D5E90212CA60916043F001026E
:105200006A60284ABD6012689A4293D8264B30469D
:105210001968FFF7F5FE8DE7142B0AD9542B1FD818
:105220000B0B03F16F0003F16E02C300B1E71944E9
:105230008DE703F15C0003F15B02C300A9E741F0D5
:105240000103C7E90455C5E902006B60695071E7C5
:105250000121921001FA02F279680A437A60A6E706
:10526000B3F5AA7F06D8CB0B03F1780003F17702E0
:10527000C3008EE740F25452934206D88B0C03F1E0
:105280007D0003F17C02C30083E74FF47E737E222E
:105290007FE741F001036B60CCF800104AE700BFE4
:1052A000280B0020340F002010110020704700BF91
:1052B000704700BFF8B500BF01B40248844601BC86
:1052C000604700BFB902002001B40248844601BC17
:1052D000604700BF2102002001B40248844601BC9F
:1052E000604700BFED010020011800107917001081
:1052F000A51700109D180010E11700101D170010D1
:1053000025180010E9160010C10B00102D18001010
:10531000B11200106517001013180010C517001007
:0C5320008D040010150500100D02001097
:105330005069636F417564696F3A20556E61626CA4
:105340006520746F206F70656E20617564696F20D1
:105350006465766963652E0A000000006F6B0000CB
:10536000433A2F7069636F2F7069636F2D706C61A2
:105370007967726F756E642F617564696F2F7369D9
:105380006E655F776176652F73696E655F776176AD
:10539000652E6300766F6C203D2025642C2073748D
:1053A0006570203D2025642020202020200D000055
:1053B0000A000000696E69745F617564696F0000BE
:1053C0000A2A2A2A2050414E4943202A2A2A0A0022
:1053D0006E6F7420737570706F7274656400000076
:1053E0006C6F636B5F6E756D203C204E554D5F5347
:1053F00050494E5F4C4F434B53000000433A2F70CF
:1054000069636F2F7069636F2D73646B2F737263A1
:105410002F7270325F636F6D6D6F6E2F6861726493
:10542000776172655F73796E635F7370696E5F6CCD
:105430006F636B2F73796E635F7370696E5F6C6FF0
:10544000636B2E63000000007370696E5F6C6F63A6
:105450006B5F696E6974000064656C7461203E3D29
:10546000202D323034382026262064656C7461206B
:105470003C3D203230343620262620212864656CBD
:105480007461202620312900433A2F7069636F2F01
:105490007069636F2D73646B2F7372632F72703238
:1054A0005F636F6D6D6F6E2F686172647761726597
:1054B0005F6972712F6972712E6300002128646523
:1054C0006C7461203E3E2031317529006375727223
:1054D000656E74203D3D205F5F756E68616E646C23
:1054E00065645F757365725F697271207C7C20638F
:1054F000757272656E74203D3D2068616E646C65E6
:10550000720000006972715F68616E646C65725F41
:10551000636861696E5F667265655F736C6F745F07
:1055200068656164203E3D20300000007674616251
:105530006C655F68616E646C6572203D3D205F5FE5
:10554000756E68616E646C65645F757365725F69C2
:1055500072710000212828282875696E7470747291
:105560005F742972656D6F76655F7468756D625FD3
:1055700062697428767461626C655F68616E646CE0
:1055800065722929202D20282875696E747074721F
:105590005F74296972715F68616E646C65725F63C4
:1055A0006861696E5F736C6F74732929202520739D
:1055B000697A656F66287374727563742069727195
:1055C0005F68616E646C65725F636861696E5F736A
:1055D0006C6F74292900000030783163203D3D2034
:1055E000282A696E7374293E3E313175000000002F
:1055F00021657863657074696F6E207C7C206578A6
:1056000063657074696F6E203D3D206E756D202B53
:1056100020565441424C455F46495253545F4952CB
:105620005100000066616C736500000069735F7370
:1056300068617265645F6972715F7261775F6861EA
:105640006E646C657228736C6F745F68616E646CF5
:1056500065722900657863657074696F6E0000007B
:10566000666F756E640000006972715F6164645FEB
:105670007461696C5F746F5F667265655F6C697396
:1056800074000000696E736572745F626C5F333220
:10569000000000006972715F72656D6F76655F680A
:1056A000616E646C657200006D616B655F6A5F318D
:1056B000360000007265736F6C76655F6A5F313625
:1056C000000000006972715F6164645F73686172F9
:1056D00065645F68616E646C657200006972715F19
:1056E0007365745F6578636C75736976655F68610F
:1056F0006E646C657200000031203D3D20287569A4
:105700006E747074725F74296C2D3E7370696E5F75
:105710006C6F636B00000000433A2F7069636F2F5A
:105720007069636F2D73646B2F7372632F636F6D7A
:105730006D6F6E2F7069636F5F73796E632F6D7518
:105740007465782E63000000746F74616C00000053
:105750006D74782D3E636F72652E7370696E5F6C29
:105760006F636B006C6F636B5F69735F6F776E6500
:10577000725F69645F76616C6964286D74782D3E30
:105780006F776E65722900006D74782D3E656E74BA
:1057900065725F636F756E74000000006D757465EF
:1057A000785F6578697400006D757465785F656E03
:1057B0007465725F626C6F636B5F756E74696C00A9
:1057C00072756E74696D655F696E69745F6D75740D
:1057D00065780000706F6F6C2D3E74696D65725F47
:1057E000616C61726D5F6E756D203D3D2074696DF9
:1057F00065725F616C61726D5F6E756D00000000B7
:10580000433A2F7069636F2F7069636F2D73646BF8
:105810002F7372632F636F6D6D6F6E2F7069636F7F
:105820005F74696D652F74696D652E6300000000FB
:1058300064656661756C745F616C61726D5F706FD9
:105840006F6C5F696E697469616C697A6564282937
:1058500000000000616C61726D5F706F6F6C5F675C
:1058600065745F64656661756C740000616C61727B
:105870006D5F706F6F6C5F6972715F68616E646C91
:1058800065720000486172647761726520616C61C5
:10589000726D20256420616C726561647920636C8F
:1058A00061696D656400000076636F5F66726571A3
:1058B000203E3D205049434F5F504C4C5F56434F74
:1058C0005F4D494E5F465245515F485A202626207B
:1058D00076636F5F66726571203C3D205049434F8F
:1058E0005F504C4C5F56434F5F4D41585F465245A9
:1058F000515F485A00000000433A2F7069636F2FD0
:105900007069636F2D73646B2F7372632F727032C3
:105910005F636F6D6D6F6E2F686172647761726522
:105920005F706C6C2F706C6C2E6300006662646933
:1059300076203E3D20313620262620666264697638
:10594000203C3D203332300028706F73745F6469EF
:105950007631203E3D203120262620706F73745F03
:1059600064697631203C3D20372920262620287086
:105970006F73745F64697632203E3D2031202626A5
:1059800020706F73745F64697632203C3D20372944
:10599000000000007265665F66726571203C3D2004
:1059A0002876636F5F66726571202F20313629007B
:1059B000706C6C5F696E6974000000004F75742034
:1059C0006F66206D656D6F727900000044656275C9
:1059D00067000000626F6F74325F77323571303864
:1059E00030000000322E322E300000007069636FEC
:1059F0003200000073696E655F776176655F737072
:105A000064696600417567203139203230323500D3
:105A100005005250DE65F468D47400100600525040
:105A20005422A29D045A001006005250861C030204
:105A3000F459001006005250BBFF3CB6EC59001060
:105A400006005250ABB36053E459001006005250A8
:105A5000E182887FD459001006005250D3F075427D
:105A6000CC590010666E6900666E692B000000005C
:105A70006E616E00666E692D00000000000000007F
:105A8000000000000000F03F000000000000244083
:105A900000000000000059400000000000408F405E
:105AA000000000000088C34000000000006AF840C9
:105AB0000000000080842E4100000000D0126341ED
:105AC0000000000084D797410000000065CDCD4163
:105AD0002C2066756E6374696F6E3A2000000000BA
