:020000041000EA
:10000000002008205D0100101B0100101D010010E0
:100010001101001011010010110100101101001058
:100020001901001019010010190100101F01001022
:10003000110100101901001021010010230100100E
:100040001101001011010010110100101101001028
:100050001101001011010010110100101101001018
:100060001101001011010010256201201101001082
:10007000110100101101001011010010E5590120BB
:10008000B5600120110100101101001011010010D4
:1000900011010010110100101101001011010010D8
:1000A00011010010110100101101001011010010C8
:1000B00011010010110100101101001011010010B8
:1000C00011010010110100101101001011010010A8
:1000D0001101001011010010110100101101001098
:1000E0001101001011010010110100101101001088
:1000F0001101001011010010110100101101001078
:100100001101001011010010110100101101001067
:10011000EFF30580103800BE00BE00BE00BE00BE7A
:1001200000BE00BEF2EB8871905D0010C85D00104B
:10013000A001001090A31AE7D3DEFFFF42012110B7
:10014000FF010000B0CD0100793512AB4FF0000087
:100150001E49086006C881F3088810474FF05040D8
:10016000006810B14FF00000F2E70DA40ECC00299A
:1001700002D000F012F8F9E71549164A002000E015
:1001800001C19142FCD11449884714498847144958
:10019000884700BEFDE701C901C29A42FBD3704700
:1001A000C85D00101001002030720120E8CE01105F
:1001B0000000082000000820E8CE011000100820F0
:1001C00000100820000000007047000008ED00E06B
:1001D000307201203C76012085330010750A001032
:1001E00045330010F8B500BF10B5054C237833B97E
:1001F000044B13B1044800E000BF0123237010BD7D
:10020000B073012000000000444F001008B5034BFC
:100210001BB10349034800E000BF08BD0000000017
:10022000B4730120444F00102DE9F04F87B007460A
:10023000D0F804900368AA4A146814FA83F4A94A0F
:100240001068A94A1278BAB104EB134303F03F03D4
:10025000A64AD356A64A126802FB03F310EB2323E7
:1002600036D4A44A1168A44A1289C2EBC102D00054
:10027000B3EBC20F00DC18462146002C2ADBCB1062
:100280009C4A1268811102FB0311DFF884C20CEB57
:1002900041030493994E356904F0070305EB4305C8
:1002A00009F10802049B023300933CF81110090184
:1002B000695AC0F3C208F668DFF858C29CF800C05B
:1002C000BCF1000F08D010F0040F2ED1002004E084
:1002D0000023C6E7E11DD2E7002001EB48010591AC
:1002E00071180191029010B308F1010EBEF1060FD2
:1002F00026DD049B04334FF0010A7F49B1F808C0A2
:100300004FEADC0C0CF1FF3CD4451DDD33F8021B39
:100310000901695A31440420106011F0030F08D11B
:1003200051600AF1010A0832E7E70120D5E7C64625
:10033000DCE7734B734A4FF4BC71734803F006F863
:100340004FF0000A009BD8E700934FF0000AC2F874
:1003500000A0C2F804A0C2F808A002F11000C2F880
:100360000CA00EF0070ACAEBCC0C0CF105010391AE
:100370000299F9B14FF00E0AA2F810A0019B03F107
:10038000020A02F1140B059BF15A5182BEF1080FCB
:1003900002D0CDF804A00EE0049B5988090135F87D
:1003A00001A006EB0A030193ACF1030303934FF0A2
:1003B000000E00E083461EF0010F39D00D21ABF88E
:1003C0000010DDF804A03AF8021BABF80210BEF1F1
:1003D000070F24D00EF1020E039B023B03935346FA
:1003E00033F8021B0193ABF804100BF1080A072144
:1003F000ABF80610DDF804C03CF802BB514621F80A
:1004000004BB039BAAF80230009BBEF1060F14DC6C
:100410003CF802AB21F802AB0EF1010EF5E7049BAC
:100420005988090135F801A0B2444FF0010ED3E715
:10043000DA4607212AF8021BDCE700938C4611F00C
:10044000030F2AD1A1EB000E4FEAAE0EC9F800E06F
:10045000C9F80400B8F1000F03D1029B002B00F093
:10046000C980009B1B881B0135F803E006EB0E05D5
:10047000B8F1010F18D0B8F1020F1FD0B8F1000F7A
:100480004AD007230B8036F80E304B808B1DA8F125
:1004900003068E80023501261FE01C4B194A4FF4DB
:1004A000E171194802F052FF0B464FF00B0823F898
:1004B000048B36F80E604E8002352EE00D230B8043
:1004C00036F80E304B808B1D6E888E80043524E00C
:1004D00035F802EB23F802EB01364645F8DB1CE069
:1004E0002C760120B474012034760120D8510010FC
:1004F0004469012030520010585D00103452001041
:10050000484F0010AC510010604F0010A84F001071
:10051000D0170120386901200B46029E3EB11E46CD
:100520004FF00E0E26F804EB2D885D8033461D46F5
:100530000B2625F8046B00265E8015F0020F5BD0B9
:100540009D1D01269E80691A89101160C2F804C0A1
:1005500015F0030F58D17B8909EB8303AB425AD3C3
:10056000A0EB0900C0F38F003881D7F80C8008F5A4
:10057000C879B7F802E04FEA9E0E4D4BA3FB0E235D
:10058000AEEB030203EB52039B08C3EBC303AEEBDA
:10059000030E1FFA8EFE4B4642460020BB464549DD
:1005A0000968814245DD0721198000255D804249A7
:1005B00049884E1E9E8003F10806DD8013F0030F6C
:1005C00030D10225156053603B4D00EB0E0CB5F8A1
:1005D00004A03A4B1B68E31A0AFB0C332F6937F867
:1005E00013C0EB68634449089160D360013033461F
:1005F0001032D4E70B469AE700259D8003F10805E9
:100600004FF6FF76DE809EE72D4B2E4A40F2FF111B
:100610002D4802F09BFE2D4B2A4A4FF400712A48C8
:1006200002F094FE2A4B274A4FF40871264802F044
:100630008DFE0B21198000215980998003F108005B
:100640004FF6FF71D98013F0030F1BD10221116007
:1006500053600021916002F11003D160994518D9CF
:10066000BBF8122008EB8202824219D3A3EB0803E5
:10067000C3F38F03ABF8103001208BF8180007B0DC
:10068000BDE8F08F124B0F4A40F22E210E4802F0C7
:100690005DFE104B0B4A4FF40D710B4802F056FEF5
:1006A0000D4B084A40F23521074802F04FFE00BFCB
:1006B0002549922448690120185200102C76012007
:1006C000A84F0010AC510010604F0010C84F001030
:1006D000F84F0010185000103050001000B583B0D3
:1006E000084B1B680193084B1B680093074B1B7852
:1006F000074A127807490968074802F085FF03B0E6
:100700005DF804FB4869012044690120347601202A
:10071000386901203C6901206050001010B5C468A0
:10072000002103E0134324F80C3001318368B1EB5E
:10073000530F13D24FEA410C34F81120C2F3842E28
:10074000C2F344139B0143EACE2302F01F0E43EA97
:100750000E039BB2D20BE5D02022E3E710BD0000D0
:1007600070B582B04FF050431D68012D05D9714B13
:10077000714A6721714802F0E9FD2946704802F08C
:1007800043FFA1E00126AFE00DF1070261B96D4B17
:100790009B6913F0100FFAD16A4B1868134603F8DF
:1007A000010B01311A46F1E79DF807302B3B4C2B2A
:1007B00060D8DFE803F0275F2D5F5F3C5F5F5F5F1E
:1007C0005F5F5F5F335F5F5F275F5F5F5F5F5F5F9D
:1007D0005F5F5F5F5F5F5F5F5F5F5F5F5F5F5F5F29
:1007E0005F5F5F5F5F5F455F4B5F2D5F5F5F5F5F79
:1007F0005F5F5F515F5F5F5F5F5F5F5F5F5F5F5F17
:100800005F5F5800504A136801331360012673E09C
:100810004D4A1368013B136001266DE04B4B1B688A
:10082000002B29DD013B494A1360012664E0474B58
:100830001B68102B22DC0133444A136001265BE065
:10084000434A1368013B1360012655E0404A136890
:100850000133136001264FE03E4A137883F0010311
:100860001370012648E03C4A137883F001031370AB
:10087000012641E001263FE001263DE001263BE064
:100880000B460021196052422F4B1A604FF0504323
:100890005B6803F48001C3F38053304A127822B1BD
:1008A00019B92F490A6801320A602C4A13702D4881
:1008B00004F0FEFA2C4B1B68294620469847204638
:1008C00004F0FEFA002E31D1012004F001FB0446B1
:1008D000244804F00DFB6388244A12689A4223D00E
:1008E000012B3FF44FAF0026204A1360154B996946
:1008F00011F010013FF448AF134B1A6818490B6808
:1009000013440B60002BBBDB19490868194909899E
:10091000C1EBC001C800B3EBC10FB7DB104B1860CF
:100920005242094B1A60B1E70026C0E7FFF7D6FE36
:10093000CAE700BFA0500010CC510010604F00105B
:10094000C0500010000007403C69012048690120A8
:10095000446901203869012034760120367601206F
:10096000B4740120A874012040690120B8740120EA
:1009700030520010585D001008B5FFF7F1FE00007E
:1009800008B5054803F0FAFA012003F0FBFA034822
:1009900004F07EFA08BD00BF585D001024760120E7
:1009A00008B502F0E5FF08BD08B5204B1B7B012B05
:1009B00030D91F4800F05EFB1E4B1A681B4B5B8949
:1009C000C3EBC2031C4A1360002B29DB1B48FFF753
:1009D000A5FE1B48FFF7A2FE01220021194800F0E6
:1009E00033FBFFF7CDFF184802F0E0FD174802F097
:1009F000DDFD174802F0DAFD164802F0D7FD164873
:100A000002F0D4FD154802F0D1FD1548FFF7C8FFEC
:100A1000FFF7A6FE134B144ADB21144802F096FCA4
:100A2000134B114AE321114802F090FC585D00106D
:100A3000A87401202C5200102C7601203452001092
:100A40001852001024760120FC50001004510010B0
:100A50002851001048510010705100108C510010A6
:100A600079090010D8500010C0510010604F0010DC
:100A7000F050001008B500F002F8FFF795FF08B538
:100A800002F0DCFE08BD00000C4B03EB800253F8C3
:100A9000203083F0400303F0C00302F5805CCCF803
:100AA0000030C00000F1804000F52030416002F5C8
:100AB00040524FF480731360704700BF04800340BE
:100AC0000FB400B583B0049C074802F06FFD3CB141
:100AD00005A90191204602F079FD044802F066FD67
:100AE000012002F013FC00BF48520010A85B001068
:100AF000EFF3108072B6064BD3E8CF1F0122002916
:100B0000FAD1C3E8412F0029F6D1BFF35F8F7047B8
:100B1000337401200023034AC2E88F3F80F310881A
:100B2000704700BF3374012070B505460C46164669
:100B3000FFF7DEFFE208A95C04F0070C012303FACB
:100B40000CF3194205D1DBB20B43AB54FFF7E2FFC4
:100B500070BD21463046FFF7B3FF0000054A10780C
:100B6000431CDBB21370172B02D9134610221A70E4
:100B7000704700BF4C6901204FF0E022936843F0BA
:100B80000053936070470000002305E0044A1A44B4
:100B90000021C2E88F1F01331F2BF7D9704700BF18
:100BA0002874012008B51F2805D8064B18440023D7
:100BB000C0E88F3F08BD044B044A0F21044802F0EF
:100BC000C5FB00BF2874012058520010C05200100D
:100BD00074520010064B9B68103043F82010BFF38E
:100BE0005F8F00230349C1E88F3F82F3108870476D
:100BF00000ED00E0317401200048704700E400E09F
:100C000008B5FFF7F9FF002304E04FF0803240F809
:100C1000042B01330C2BF8D962B608BD08B5091AAC
:100C2000081F01F2FC7140F6FE73994207D810F0DC
:100C3000010F04D1C0F34A0040F4604008BD034BEB
:100C4000034A4FF48771034802F080FBD052001032
:100C5000205500100053001008B5091A04394B083C
:100C6000090B0AD1C1F30A0141F4704101806FEA16
:100C700043536FEA5353438008BD034B034A4FF479
:100C80008B71034802F062FB34530010FC540010D7
:100C9000005300104209064B53F8222000F01F00B9
:100CA000012303FA00F0024214BF184600207047E7
:100CB00000E100E021B1044BC3F8800118607047E7
:100CC000014BC3F88000704700E100E03AB1064BE9
:100CD00000F1600243F8221043F8201070472030E2
:100CE000014B43F82010704700E100E008B50A46C8
:100CF00000F01F03012199404009FFF7E7FF08BDFD
:100D0000024B9B68103053F82000704700ED00E064
:100D100070B505460C46EFF3108672B60F4BD3E85C
:100D2000CF1F01220029FAD1C3E8412F0029F6D1B3
:100D3000BFF35F8FFFF7E4FF094B984201D0A04259
:100D400005D1324621462846FFF744FF70BD054BCA
:100D5000054AED21054802F0F9FA00BF317401207F
:100D600011010010445300103C55001000530010B6
:100D70002DE9F04706460D46EFF3108872B65B4B3F
:100D8000D3E8CF1F01220029FAD1C3E8412F00295F
:100D9000F6D1BFF35F8F564B9B6800F1100A53F8F2
:100DA0002A70544B9F4207D0AF4200F09D803C46D2
:100DB000514BFB1A2F2B06D9424639463046FFF7D6
:100DC00009FFBDE8F087FFF765FF81460021304647
:100DD000FFF78CFFBFF35F8FEFF30580C0B208B160
:100DE000824510D124F001040021A268954212D05E
:100DF00094F90630002B0DDB03EB430321463E4CF8
:100E000004EB8304F1E73D4B3D4A40F202213D48AB
:100E100002F09CFA214695425FD194F90650002DCC
:100E200041DB05EB4503344A02EB83039A68A26079
:100E3000DA79E27193F90620A27193F90630002B5A
:100E400010DA4BF60150A08005EB45022A4B03EB6C
:100E500082032D4A11789971157049463046FFF783
:100E600045FFA9E7201D05EB4503234A02EB830359
:100E7000191D9B88DA0A1C2A08D15B050DD45B1565
:100E8000023301EB4301FFF7C9FEDCE71F4B204AA9
:100E90004FF48E711B4802F059FA03F5FF1303F566
:100EA000FF531F33EBE798B981B1FF238B714BF6EA
:100EB00001538B80144A1378A3714AF6AA230E4972
:100EC000641A644163431B0D1370C6E7094FF1E7D1
:100ED0001049201DFFF7C0FEBFE70F4B084A4FF433
:100EE0001171084802F032FA024F65E731740120AF
:100EF00000ED00E01101001050690120685400105D
:100F00000C5500100053001035760120505400108D
:100F10002C5500108A6901209C54001038B50446F5
:100F20000D46FFF769FEA10850F8213004F00304D4
:100F3000E400FF22A24023EA020305FA04F41C4362
:100F400040F8214038BD000038B540F0010E344B68
:100F5000AEEB03032F2B31D8EFF30581C9B2002983
:100F600033D0EFF3108472B62E4BD3E8CF5F01225B
:100F7000002DFAD1C3E8452F002DF6D1BFF35F8FC6
:100F80004AF6AA230246264D521B524153431B0DDB
:100F90004FFA83FC244B9B6853F8213073451BD0D8
:100FA0000023032B34D803EB43021D4901EB8202DB
:100FB00092F90620624520D00133F2E71B4B1C4A10
:100FC00040F27F211B4802F0C1F91B4B184A40F246
:100FD0008221184802F0BAF9134B9B68174A43F86C
:100FE0002120174B1A78827183F800C000230D4A24
:100FF000C2E88F3F84F3108838BD0A4603EB4301F3
:1010000002EB8101FF258D714BF601528A80E8E7E2
:101010000C4B074A40F29321064802F097F900BFB3
:10102000506901203174012000ED00E0A45400104B
:10103000E054001000530010CC54001011010010B7
:1010400035760120D854001070B504460E4615467A
:10105000FFF784FD0146204600F006F8A680E580F3
:10106000BFF35F8F70BD0000014B0B4403607047FE
:101070002874012010B50446FFF770FD0146204694
:10108000FFF7F2FFFF232371BFF35F8F10BD10B591
:101090000446FFF763FD01462046FFF7E5FFFF2307
:1010A000237100236371BFF35F8F10BD10B50D4C2A
:1010B00009E00D4B0D4A1A210D4802F047F9204670
:1010C000FFF7D8FF08340B4B9C4209D22368002B52
:1010D000F5D0012BEDD12046FFF7D9FF0834F2E718
:1010E00010BD00BF2072012058550010205600107E
:1010F000785500103072012041EA0040704700002E
:101100000D4B1A68EFF3108172B6D2E8CFCF0120F1
:10111000BCF1000FF9D1C2E84C0FBCF1000FF4D1C3
:10112000BFF35F8F1A680023C2E88F3F81F31088F6
:1011300040BF002000217047C07501202DE9F04F0D
:1011400085B0EFF30587FFB2103FBB0815D0964D71
:1011500007F00307944B9D4214BF0023012307EBC4
:101160008303924A52F823402378BB4207D10122DD
:10117000BA4005F541535A6031E18D4DE8E78D4B9A
:101180008D4A92218D4802F0E1F8D4F814A006EBC4
:1011900046084FEAC80B0AEBC808D8F80830019394
:1011A000D8F80C90284600F025FB019BC01A61EB93
:1011B0000903002BC0F21B81B9F1000F65DBD8F8E1
:1011C00010301A4602937E4B9A4232D0B8F8021081
:1011D00089B2B4F90800FFF78FFFD8F81410029B0A
:1011E000984702900391029A039B52EA03014CD064
:1011F000002B2BDA0199881A69EB0309C8F808005B
:10120000C8F80C903AF90B30002BC0F2F080D4F8FB
:10121000148003EB430208EBC2029168D268411AC2
:1012200069EB0202002AC0F2E280A6462EF8083FCF
:1012300016E0D8F81420136902921046984720B39C
:10124000029A1368029353680393CCE7284600F090
:10125000D1FA029B1818039B43EB0109CEE79E4687
:10126000BEF900C0BCF1000F0ADB0CEB4C0308EB2D
:10127000C3039968DA68411A69EB0202002AEEDAC0
:101280002AF80BC0AEF80060B1E03AF90B302381C8
:101290002369EFF3108272B6D3E8CF0F0121002843
:1012A000FAD1C3E8401F0028F6D1BFF35F8FB4F92D
:1012B00002302AF80B30668021690023C1E88F3F95
:1012C00082F3108893E02369EFF3108272B6D3E8BB
:1012D000CF0F01210028FAD1C3E8401F0028F6D122
:1012E000BFF35F8FB4F804900FFA89F94FF6FF73DC
:1012F000A38021690023C1E88F3F82F3108816E0A4
:101300001E46B6F90020002A0BDB02EB42030EEB6F
:10131000C3039868D968BCEB000068EB01010029A1
:10132000EEDAA6F800903EF90A902EF80A20B9F1FC
:10133000000F61DBD4F814E009EB49034FEAC30A5C
:101340000EEBC303D3F808C0D3F80C8004F10806F1
:10135000D7E70023A37104F1080EB4F9083011E0B7
:101360004FF0FF384FF0FF39C0E90289B4F90800A7
:10137000984206D0AEF80020B4F9080021F80C001D
:1013800023811346B3F1FF3F39D0616903EB430278
:101390004FEAC20C01EBC20031F93220468816F444
:1013A000004FDDD18646ECE700800B40BC74012085
:1013B00000000B4034560010CC5600106056001050
:1013C0003D1100103B1D45F82360284600F012FA3D
:1013D000361A68EB0101012E71F100032FDA0123A7
:1013E000BB40EB63B4F90860002EBFF6CEAEA38815
:1013F00013F4004F3FF467AFA379002BA9D1B4F9E0
:101400000830002B1BDB626903EB430302EBC303D1
:101410009E68D3F80C80B8F1FF3F08BFB6F1FF3FDC
:10142000D3D0AA6AB11A3B1D55F823309B1A9942B2
:10143000C8D32A6A0123BB401A42C6D1C2E740BFC3
:1014400005B0BDE8F08F00BF2DE9F04104468846A5
:1014500017461E46C160FFF781FB204B0344236102
:101460002770B3B263814FF05042127862704FF62A
:10147000FF722281A280013B63804FF0000C08E0E4
:101480000CF1FF3560690CEB4C0E20F83E500CF16E
:10149000010CB445F4D3124B98450CBF0123002333
:1014A00007EB83030F4A42F8234014D000243C4446
:1014B000012505FA07F7C8F820700B492046FFF709
:1014C00027FC29462046FFF711FC08F50158C8F80B
:1014D0000070BDE8F0810424E9E700BF2874012012
:1014E00000800B40BC7401203D11001008B5054B75
:1014F0001B690BB1034808BD034B044A652104482E
:1015000001F024FF9869012090560010B456001095
:1015100060560010F8B504469E460169EFF3108C42
:1015200072B6D1E8CF5F0120002DFAD1C1E8450F96
:10153000002DF6D1BFF35F8FB4F90250666905EB59
:101540004500C70006EBC000002D01DBF15F6180A4
:1015500000212369C3E88F1F8CF310888D4233DB91
:1015600006990161079941618260C0F80CE04188E9
:1015700089B20131C1F30E0101B901214180284630
:10158000FFF7BAFD2369EFF3108272B6D3E8CFCF2D
:101590000121BCF1000FF9D1C3E84C1FBCF1000FD1
:1015A000F4D1BFF35F8FA388F353A5802169002393
:1015B000C1E88F3F82F31088E368217801228A40D6
:1015C00003F501535A60F8BD4FF0FF30FBE770B5EB
:1015D00082B0064615461C469DF8203033B900F00F
:1015E00033F9854264EB010100290ADB079B019373
:1015F000069B00932A4623463046FFF78BFF02B036
:1016000070BD0020FBE703464089B0EB214F31DD80
:1016100010B50A14586902EB420200EBC2021869C5
:10162000EFF3108C72B6D0E8CF4F5FF0010E002CB4
:10163000F9D1C0E844EF002CF5D1BFF35F8F50889B
:1016400080B289B288420FD0002019690022C1E817
:101650008F2F8CF3108830B1DA681B780121994004
:1016600002F50153596010BD40F400405080012044
:101670009871EAE700207047F0B585B005460C4642
:10168000EFF30583DBB293B1404B5B6A8B4209D326
:101690003E4A926A824208D28B4201D0012002E087
:1016A000002000E0002005B0F0BD0120FBE7FFF7BF
:1016B0001DFFC7680678384600F09CF82A1A64EBCC
:1016C0000101043657F82630181A824271F10003DE
:1016D00012DB20BF2D4B5B6A9C4209D82B4A926AD1
:1016E000AA4207D29C4201D00120DCE70020DAE7C1
:1016F0000020D8E70120D6E7FFF7F8FE0023029389
:101700000193234B00932A462346FFF760FF061EF2
:101710000BDD1E4B5B6A9C421BD81C4A926AAA4294
:101720002BD29C4213D0012314E0184B5B6A9C42DD
:1017300009D8164A926AAA4207D29C4201D00120D7
:10174000B1E70020AFE70020ADE70120ABE70023C1
:1017500000E0002303B920BFFFF7C8FE3146FFF7C2
:1017600052FF0A4B5B6A9C420BD8084A926AAA4213
:1017700009D29C4203D0012095E70123EAE700202B
:1017800091E700208FE701208DE700BF00000B40AC
:10179000011100100048704700000B4010B50A4BC3
:1017A0001B6923B10A210948FFF75EFC10BDFFF752
:1017B000F1FF0446032100F00BF810230322214619
:1017C0000148FFF741FEEDE798690120C07501204F
:1017D00010B5054A054C064BA04214BF1846581CCC
:1017E000FFF7A2F910BD00BFE456001000800B40C7
:1017F0005C7401200246436A906A1946536A994212
:10180000FAD17047416A00E0416A9942FCD300E096
:10181000416A994202D1816A9142F9D3704770B509
:10182000064614461D46FFF7E5FF021941EB050386
:10183000824273EB010102D24FF0FF321346304671
:10184000FFF7E0FF70BD000008B50248FFF7D2FFC8
:1018500008BD00BF00000B4008B502460B46024819
:10186000FFF7DDFF08BD00BF00000B4038B5046B7B
:1018700014F0010F01D1204638BD00F5405340F26D
:1018800001321A63436A856A05EB8315AD020620AF
:1018900000F0F8F8044BA3FB0030C00AB5FBF0F0F1
:1018A0000021FFF7D9FFE6E7757B2B8F70B5054662
:1018B0000C461646FFF7DAFFE96A4C40344005F55E
:1018C0008153DC60286370BD70B505460C46062068
:1018D00000F0D8F8C300B3FBF4F10131CC0907D014
:1018E0004FF6FE739C4214D82646C1F3450400E02F
:1018F00001266E62AC62002211462846FFF7D6FF31
:10190000062000F0BFF8800004EB8614B0FBF4F072
:1019100070BD00244FF6FF76EBE7000049B10A22C4
:10192000054B984214BF00200120044B23F81020DF
:1019300070474FF48072F3E7008007400076012083
:1019400038B504460D46062000F09CF848B3174B06
:101950009C4227D01A2201239340154A1360134B4F
:101960009C4221D01A2301229A40124B1A60124B3A
:101970009B6832EA0303FAD100212046FFF7CEFF2D
:1019800029462046FFF7A0FFE36A83F0700303F0C7
:101990007E0304F58152D36040F2013323630323B5
:1019A000A36438BD1B22D6E71B23DCE70080074079
:1019B00000200240003002400000024070B5049D4B
:1019C00000EB400C4FEA8C0C0CF1804C0CF5803C89
:1019D000DCF80440AC4201D2CCF80450A0F1040E73
:1019E0005FFA8EFEBEF1010F27D90CF540544FF47B
:1019F000006626601D4C54F820603EB16469B4FB5B
:101A0000F6F4013404EB4404033CFDD2DCF800405E
:101A100084EA421202F0E0020CF580542260BEF12A
:101A2000010F16D90CF500524FF400611160CCF88B
:101A300004500E4A42F8203070BD0129D5D10CF572
:101A4000405403262660DCF8084014F0010FFAD059
:101A5000DCE7DCF800204A4002F003022260DCF8F8
:101A6000084001228A401442F9D0DBE76474012067
:101A700010B582B04FF480340094FFF79FFF02B09E
:101A800010BD0000014B53F8200070476474012022
:101A900070B5049C344DB5FBF1FC344D1544344E07
:101AA000B54237D8B2FBFCF5A5F1100EBEF5987F14
:101AB00036D803F1FF3EBEF1060F37D804F1FF3EE2
:101AC000BEF1060F32D8BCEB121F35D8240344EA0E
:101AD00003440368002B35DB264B984242D00E238B
:101AE00001229A40244B1A6003F580531A60234B5D
:101AF0009B6832EA0303FAD10160856000F5405229
:101B00000432212313600368002BFCDAC46008232D
:101B1000136070BD1A4B1B4A11211B4801F016FCC3
:101B20001A4B184A1921184801F010FC184B154A95
:101B30001C21154801F00AFC164B124A23211248B9
:101B400001F004FC036803F03F038B42C4D18368B7
:101B5000C3F30B03AB42BFD1C36803F4EE23A3422C
:101B6000BAD1D6E70F23BBE7001BB70080E84BD301
:101B700080F8A932008005400020024000000240A9
:101B80000857001010580010585700108C570010BC
:101B9000A8570010F4570010054A00EB400302EB71
:101BA0008303596000EB400080000123135070470D
:101BB0000080104008B50023DB8A002242E800F2D2
:101BC00012F4800F02D11021984708BD04219847D4
:101BD000FBE70000034BD3F82838002BFAD0BFF303
:101BE0005F8F704700000E40002207E0054B134452
:101BF0009B00BFF35F8F002119600132072AF5D9DE
:101C0000704700BF0382031008B5FFF7EDFF08BD62
:101C1000074B4FF42A621A604FF48D72DA6003F5B5
:101C20000053044A1A60024B5B68002BFBDA7047D2
:101C30000080044000B0FA0010B5044602E054F8F9
:101C4000043B9847014B9C42F9D310BD404F001014
:101C50007047000008B50248FFF7EEFF08BD00BF5F
:101C6000004F001008B50248FFF7E6FF08BD00BFAF
:101C70002C4F0010064B074A1A6003F58053064AA2
:101C80001A60064B9A68044B9343FAD1704700BF21
:101C9000002002407F3BEFEFF6FFF303000002401D
:101CA000054BDB6CB3F5004F00D07047034B4FF48E
:101CB0008022DA64F9E700BF0000115000201150C3
:101CC0004FF0E022D2F8881D034B0B43C2F8883D49
:101CD00010EE3004704700BF03033000054B6FF077
:101CE00060421A60044B9B68DB4333F06043F9D1D8
:101CF000704700BF003002400000024008B545F2C6
:101D00005320FFF757FF03460420984708BD08B546
:101D100045F25320FFF74EFF03460120984708BDC8
:101D200008B5FEF731FF08BD10B50C490C4A521A30
:101D300092101446442A28BF44229200094802F017
:101D400035FE04E0084A074B43F824200134432CB5
:101D5000F8D9044A054B9A6010BD00BF000000107E
:101D600010010010000000201101001000ED00E043
:101D700038B50420FFF786FE064DA5FB0035AD0CF7
:101D8000002404E02946E0B2FFF706FF0134052CE9
:101D9000F8DD38BD83DE1B4330B583B0264B00220F
:101DA000C3F88420FFF734FF244B0122DA63224B6F
:101DB0005B6C012BFBD1214B03221A631E4B9B6BE7
:101DC000012BFBD10224009405231D4A01211D484B
:101DD000FFF75EFE052500952B461B4A01211B4897
:101DE000FFF756FE1A4B002221460420FFF740FE63
:101DF000184C2346002201212846FFF739FE164DD4
:101E00002B46002211460820FFF732FE2B46002207
:101E100011460920FFF72CFE23460022114606201A
:101E2000FFF726FE2346002211460720FFF720FE7B
:101E3000FFF79EFF03B030BD0000014000300140BD
:101E4000002F685900000540008C8647008005403F
:101E5000001BB70080D1F008006CDC0286B003B430
:101E600051FC0804CDE9020151FC0904CDE904014B
:101E700051EC0A04CDE9060103BCF047BDE800506F
:101E80004EEC00C4BDE800504EEC01C4BDE800506B
:101E90004EEC02C400BD000000B5FFF7DFFF02E01A
:101EA00010FE30F4F8D441EC100443EC112400EEA1
:101EB000010410EE010480EE200451EC1004704780
:101EC00000B5FFF7CBFF02E010FE30F4F8D441EC90
:101ED000100443EC112400EE010410EE210480EE06
:101EE000200451EC3004704700B5FFF7B7FF02E063
:101EF00010FE30F4F8D410B541EC100443EC11247A
:101F000051EC040453EC0524A0FB024C5FF0000EDE
:101F1000E0FB03CEE1FB02CE4CEC20440024E1FBCD
:101F200003E444EC30E480EE200451EC5004BDE8BE
:101F30001040704700B5FFF791FF02E010FE30F44B
:101F4000F8D441EC100443EC112451EC2104A0FB23
:101F500001126FEA820252FB100052FB12F252FB96
:101F60001000A0EBD07C53EC04245CFB13F153EC89
:101F70001524A1FB022001FB030053EC4424A2EB37
:101F8000000050FB1CF24FEA111312EB017043EBFF
:101F9000E27140EA515020EA915020F0070053ECE2
:101FA0007524A0FB023C53EC752400FB03CC01FB21
:101FB00002CC53EC0424ACEB824C40EA5C70A0F100
:101FC000010041EC400480EE200451EC70047047A5
:101FD00000B5FFF743FF02E010FE30F4F8D440EC08
:101FE000700400EE010410EE210480EE200451EC98
:101FF0003004704700B5FFF731FF02E010FE30F407
:10200000F8D440EC600400EE010410EE210480EEF0
:10201000200451EC3004704700B5FFF71FFF02E0C9
:1020200010FE30F4F8D441EC800400EE010410EE10
:10203000010480EE400410EE1304704700B5FFF772
:102040000DFF02E010FE30F4F8D441EC800400EE05
:10205000010410EE010480EE400410EE33047047DA
:1020600000B5FFF7FBFE02E010FE30F4F8D441ECBF
:10207000100443EC112400EE010410EE3004C0F310
:102080000070704700B5FFF7E9FE02E010FE30F483
:10209000F8D443EC102441EC110400EE010410EEDE
:1020A00030F48CBF01200020704700BF00B5FFF75F
:1020B000D5FE02E010FE30F4F8D443EC102441ECDD
:1020C000110400EE010410EE30F42CBF01200020BA
:1020D000704700BF00B5FFF7C1FE02E010FE30F40C
:1020E000F8D441EC100443EC112400EE010410EE8E
:1020F00030F42CBF01200020704700BF00B5FFF76F
:10210000ADFE02E010FE30F4F8D441EC100443ECD4
:10211000112400EE010410EE30F48CBF01200020E9
:10212000704700BFF8B504460E460C4F384602F023
:10213000DFFE3146204602F03BF90546384602F004
:10214000B7FE06FB04F42DB12C44054B9C4201D88C
:102150002846F8BD0348FEF7B3FC00BF20720120FB
:10216000000008201C580010704720B108B50A680C
:102170004968904708BD70470146002007E000EB22
:102180008000531C0B60137803EB400030380A6862
:102190001378303BDBB2092BF1D970472DE9F04FB2
:1021A00083B005460E4693461F46DDF830A00D9CD1
:1021B000DDF838900F9B13F0030F19D1A046019260
:1021C000C84509D202F1010B3B4631462020A84701
:1021D00008F101085A46F3E7DDF804B008E0013CD5
:1021E00002F101083B4631461AF80400A84742466E
:1021F000002CF4D10F9B13F0020F03D1104603B053
:10220000BDE8F08FA2EB0B034B45F7D2541C3B46C5
:1022100031462020A8472246F4E72DE9F04385B057
:102220000C9D0D9C9DF83890DDF83C80DDF840E079
:10223000119F129E16F0020F21D17FB116F0010FEF
:102240000CD0B9F1000F02D116F00C0F06D0013FEF
:1022500004E04FF0300C05F804C00134744501D29D
:102260001F2CF6D916F0010F09D0BC4207D21F2C43
:1022700005D84FF0300C05F804C00134F2E716F031
:10228000100F17D016F4806F04D11CB1744524D000
:10229000BC4222D0B8F1100F2BD0B8F1100F33D0C0
:1022A000B8F1020F3BD01F2C04D84FF0300C05F8CA
:1022B00004C001341F2C07D8B9F1000F37D04FF0FC
:1022C0002D0C05F804C00134039602970194009583
:1022D000FFF764FF05B0BDE8F083B4F1010C06D050
:1022E000B8F1100F01D06446D4E7023CD2E764464F
:1022F000D0E716F0200FD0D11F2CCED84FF0780C9D
:1023000005F804C00134CEE716F0200FC8D01F2C0A
:10231000C6D84FF0580C05F804C00134C3E71F2C91
:10232000C1D84FF0620C05F804C00134BBE716F0C9
:10233000040F05D04FF02B0C05F804C00134C3E79F
:1023400016F0080FC0D04FF0200C05F804C001347F
:10235000BAE7F0B591B0169C189D1B9E0CB926F0FB
:10236000100616F4806E16D064B34FF0000E12E023
:102370000CF1300C5FFA8CFC0EF101070EF1400EEF
:10238000EE440EF820CCB4FBF5FCAC421BD31F2F5F
:1023900019D8BE466446B4FBF5FC05FB1C4C5FFA3D
:1023A0008CFCBCF1090FE3D916F0200F08D04127AF
:1023B000BC445FFA8CFCACF10A0C5FFA8CFCDBE7E6
:1023C0006127F5E7274606961A9C0594199C049404
:1023D00003959DF85C400294019708AC0094FFF7C8
:1023E0001CFF11B0F0BD2DE9F04F95B009900A9196
:1023F0000B929B461E9D1F9E229FDDF88C80DDF870
:1024000098A055EA060301D12AF0100A1AF4806454
:102410001FD055EA060330D000241AE003F1300241
:10242000D2B204F1010904F150030DEB030404F8E6
:10243000202C3A4643462846314602F031FDBD4243
:1024400076EB08031BD3B9F11F0F18D84C4605468D
:102450000E463A4643462846314602F021FDD3B2A5
:10246000092BDBD91AF0200F05D041221A44D2B231
:102470000A3AD2B2D5E76122F8E74FF00009CDF869
:1024800018A0259B0593249B049303979DF8803007
:102490000293CDF804900CAB00935B460B9A0A991B
:1024A0000998FFF7BAFE15B0BDE8F08F00000000F4
:1024B0002DE9F04F91B004460D4617461E46DDE962
:1024C0001A2310461946FFF7CFFD002840F0ED8093
:1024D0004FF0FF32AE4BDDE91A01FFF713FE002883
:1024E00040F0E3804FF0FF326FF48013DDE91A0112
:1024F000FFF7CCFD002840F0D88000220023DDE962
:102500001A01FFF7C3FD002840F0E2809DED1A7B21
:102510008DED067B1E9B13F480630D9301D1062382
:102520001C93DDE9062310461946CDE9080152EA5D
:10253000030100F0D880C3F30A50C3F3130390469D
:1025400043F07F5949F44019A0F2FF30FFF744FDF2
:102550007DA3D3E90023FFF7CBFC7DA3D3E90023C0
:10256000FFF79EFC82468B4600228A4B4046494636
:10257000FFF7AAFC78A3D3E90023FFF7B9FC0246D2
:102580000B4650465946FFF78BFCFFF749FD824644
:10259000FFF722FD8046894671A3D3E90023FFF7A8
:1025A000A7FC00227C4BFFF77BFCFFF739FD83463D
:1025B0006DA3D3E9002340464946FFF799FC8046C6
:1025C00089465846FFF708FD69A3D3E90023FFF7C2
:1025D0008FFC02460B4640464946FFF775FC804695
:1025E000894602460B46FFF783FCCDE90A010BF250
:1025F000FF3B00210022CDE908124FEA0B5309935B
:102600000023089342464B4640464946FFF748FCA4
:10261000CDE90E0142464B4600204FF08041FFF7C6
:1026200053FC8046894600225C4BDDE90A01FFF736
:1026300085FC00225A4BFFF733FC02460B46DDE9CE
:102640000A01FFF77BFC0022564BFFF729FC0246EC
:102650000B46DDE90A01FFF771FC02460B464046D6
:102660004946FFF71DFC02460B46DDE90E01FFF768
:1026700065FC00224C4BFFF713FCDDE90823FFF754
:1026800037FC80468946CDE90889DDE90623FFF756
:1026900039FD50B30AF1FF3A0022414B404649460A
:1026A000FFF74CFCCDE908011FE01E9B04931D9B26
:1026B00003931C9B02939DED1A7B8DED007B3346AB
:1026C0003A462946204600F003F911B0BDE8F08FE4
:1026D0009FED297B8DED067B1A9B06931B9B03F1D7
:1026E0000043079316E74FF0000A0AF16303C62B75
:1026F00027D84FF004081E9B13F4006F5FD0DDE96C
:10270000081213460B4313D01DA3D3E90023DDE9C0
:102710000601FFF7E3FC002800F0B4801AA3D3E918
:102720000023DDE90601FFF7B1FC002800F0AA80D4
:102730001C9B53453ADDA3EB0A0A0AF1FF331C93B5
:1027400036E04FF00508D6E7FB799F501344D33F9E
:10275000B3C8608B288AC63F61436F63A787D23FA7
:1027600071A379094F930A401655B5BBB16B02406E
:10277000EF39FAFE422EE63F0000000000000000A4
:102780002D431CEBE2361A3F0000000080842E41EE
:10279000FFFFEF7F0000F83F0000E03F00002C400B
:1027A00000002440000018400000F03F00231C936C
:1027B0001E9B43F480631E934FF00008C2461D9B8E
:1027C000984569D2A3EB08091E9B13F0020B04D0B5
:1027D000B8F1000F01D04FF00009BAF1000F07D097
:1027E000DDE90823DDE90601FFF7A8FBCDE90601D5
:1027F00000220023DDE91A01FFF748FC00284ED132
:102800001E9B23F400630493CDF80C901C9B029351
:102810009DED067B8DED007B33463A4629462046EA
:1028200000F056F8B8F1000F3FF44FAF1E9B13F0C5
:10283000200F3CD04FF0450C00F101093346024611
:1028400029466046A0478AEAEA72A2EBEA720523AB
:10285000059308F1FF330493002303930A230293A3
:102860004FEADA700190009233464A4629462046E4
:10287000FFF76FFDBBF1000F3FF427AF0246DDF815
:1028800074901EE01C9B002B99D00D9B002B96D0C2
:102890001C9B013B1C9392E74FF0000994E7DDE994
:1028A0000601024601F10043CDE90623A8E74FF0F7
:1028B000650CC1E702F10108334629462020A047F4
:1028C0004246D31B4B45F5D31046FEE60000000000
:1028D0002DE9F04F2DED028B95B007900A919246AD
:1028E0009B46DDE92089229D42464B4640464946AB
:1028F000FFF7BAFB002835D14FF0FF326FF4801399
:1029000040464946FFF7C2FB00283AD14FF0FF325C
:102910009F4B40464946FFF7F5FB002840D198A35E
:10292000D3E9002340464946FFF7ECFB00284FD18E
:1029300095A3D3E9002340464946FFF7A7FB0028AB
:1029400046D10022002340464946FFF79FFB00285E
:102950004CD100230B93249B13F4806F00F0B780BD
:10296000002456E0249B0393239B029303230193AB
:10297000884B00935B4652460A990798FFF70EFC76
:1029800037E1249B0393239B029304230193824BFF
:1029900000935B4652460A990798FFF7FFFB28E130
:1029A000249B13F004030FD07C4A7BB104232499A9
:1029B000039123990291019300925B4652460A9932
:1029C0000798FFF7EBFB14E1754AEEE70323EEE708
:1029D000249B0493239B03930295CDE900895B46D6
:1029E00052460A990798FFF763FD02E142464B46BB
:1029F00000200021FFF768FA8046894601230B93E7
:102A0000A9E704F150036B44302203F8202C013D68
:102A100001341F2C01D8092DF3D840464946FFF751
:102A2000FFFA0646FFF7D8FA02460B4640464946EB
:102A3000FFF74AFA5B4B03EBC50393ED008B53ECB6
:102A4000182BFFF755FA02460B46CDE90823FFF78E
:102A5000F9FA0746FFF7D2FA02460B46DDE908010C
:102A6000FFF732FA02460B46CDE9082300224E4B0F
:102A7000FFF748FB68B301373846FFF7BFFA024655
:102A80000B4651EC180BFFF715FB08B10136002778
:102A90006DBB3046FFF7A0FA02460B46404649465A
:102AA000FFF712FA0746884600223F4BFFF7EEFA7F
:102AB00000284CD100223C4B38464146FFF722FB10
:102AC000002844D116F0010F41D001363FE0062521
:102AD00046E70022344BDDE90801FFF7D7FA00286A
:102AE000D6D117B117F0010FD2D00137D0E71F2C84
:102AF00017D8013D2D4BA3FB0723DB08194603EB39
:102B00008303A7EB4303621C303304F150000DEB49
:102B1000000404F8203C092F02D90F461446E6E7CA
:102B200014461F2C0AD86B1E45B104F150026A44AA
:102B3000302102F8201C1D460134F2E71F2C06D874
:102B400004F150036B442E2203F8202C01341F2C77
:102B500031D8174A82FB0632F317C3EBA2031A4699
:102B600003EB8303A6EB4303611C303304F15000F5
:102B70000DEB000404F8203C1646DAB10C46E6E7FB
:102B80000000000065CDCD410000000065CDCDC145
:102B9000FFFFEF7FD4580010D8580010CC58001019
:102BA000C8580010E05800100000E03FCDCCCCCC5D
:102BB000676666660C46249B03F00303012B1DD059
:102BC0001F2C09D80B9B002B35D004F150036B440C
:102BD0002D2203F8202C0134249B0393239B029382
:102BE00001940CAB00935B4652460A990798FFF795
:102BF000D5FA15B0BDEC028BBDE8F08F239BB3B1C5
:102C00000B9B1BB9249B13F00C0F12D0239B013B91
:102C10002393194606E004F150036B44302203F875
:102C2000202C01348C42CBD21F2CF4D9C8E7239935
:102C3000F8E72399F6E7249B13F0040F07D004F17B
:102C400050036B442B2203F8202C0134C4E7249B4F
:102C500013F0080FC0D004F150036B44202203F896
:102C6000202C0134B8E700BF2DE9F04F8FB00746A4
:102C700016460D938846002900F0248300240D9BFE
:102C80001878002800F02083252809D0651C3346D9
:102C900022464146B8470D9B01330D932C46EEE783
:102CA00001330D9300250D9B1978A1F12002102A04
:102CB0000AD8DFE802F03809093D090909090909BC
:102CC0000933092E09092900A1F13003DBB2092BD0
:102CD00033D92A2936D000230A930D9B1A782E2A3D
:102CE00040D04FF0000B0D9A1378683B122B77D829
:102CF000DFE803F06476D376567676767676767667
:102D0000727676767676D80045F0010501330D931C
:102D1000C9E745F0020501330D93C4E745F004050A
:102D200001330D93BFE745F0080501330D93BAE772
:102D300045F0100501330D93B5E70DA8FFF71CFA18
:102D40000A90CAE7189B1A1D18921868002804DB1D
:102D50000A900D9B01330D93BFE745F002054342F6
:102D60000A93F6E745F480655A1C0D925A78A2F151
:102D70003003DBB2092B04D92A2A07D04FF0000B0D
:102D8000B1E70DA8FFF7F8F98346ACE7189B1A1DC9
:102D900018921B6823EAE37B0D9B01330D93A2E796
:102DA00045F48071531C0D9352786C2A01D00D4666
:102DB00016E045F4407501330D9311E045F08001B4
:102DC000531C0D935278682A01D00D4608E045F057
:102DD000C00501330D9303E045F4807501320D9277
:102DE0000D9B1878A0F12503532B00F26182DFE8D8
:102DF00013F054025F025F025F025F025F025F0234
:102E00005F025F025F025F025F025F025F025F02BA
:102E10005F025F025F025F025F025F025F025F02AA
:102E20005F025F025F025F025F025F025F025F029A
:102E30005F027401540174015F025F025F025F026E
:102E40005F025F025F025F025F025F025F025F027A
:102E50005F025F025F025F025E005F025F025F026D
:102E60005F025F025F025F025F025F025E009B0122
:102E70005E007401540174015F025E005F025F0234
:102E80005F025F025F025E0039025F025F02D401EF
:102E90005F025E005F025F025E0045F40075013272
:102EA0000D929DE745F4807501320D9298E77828E0
:102EB00009D058283AD06F283AD062283AD025F065
:102EC00010050A2300E01023582835D0692803D0C4
:102ED000642801D025F00C0515F4806F01D025F091
:102EE000010569282BD0642829D015F4007F40F013
:102EF000968015F4807F40F0AE8015F0400F00F012
:102F0000BF80189A111D1891127805950A9904919D
:102F1000CDF80CB002930023019300923346224671
:102F200041463846FFF715FA044629E01023CBE75F
:102F30000823C9E70223C7E745F02005C6E715F4D3
:102F4000007F21D115F4807F42D115F0400F58D079
:102F5000189A111D1891127882EAE271A1EBE271C0
:102F600005950A980490CDF80CB00293D20F019207
:102F700000913346224641463846FFF7EAF90446B7
:102F80000D9B01330D937AE6189A073222F007025F
:102F900002F108011891516812680846002913DBF4
:102FA00008950A9D0795CDF818B004930023059362
:102FB000C90F02910092019033462246414638469D
:102FC000FFF711FA0446DBE7524261EB4100E7E705
:102FD000189A111D1891126882EAE271A1EBE27150
:102FE00005950A980490CDF80CB00293D20F019287
:102FF00000913346224641463846FFF7AAF9044677
:10300000BEE715F0800F05D0189A111D1891B2F97E
:103010000020A1E7189A111D189112689CE7189AD0
:10302000073222F0070202F10801189108950A9967
:103030000791CDF818B00021049305910291D2E9CF
:103040000023CDE900233346224641463846FFF7A8
:10305000CAF9044694E7189A111D189105950A9922
:103060000491CDF80CB002930023019313680093F0
:103070003346224641463846FFF76BF904467FE760
:1030800015F0800F04D0189A111D189112883CE792
:10309000189A111D1891126837E746281AD0189B04
:1030A000073323F0070303F10802189204950A9AE4
:1030B0000392CDF808B0D3E90023CDE900233346CD
:1030C000224641463846FFF703FC04460D9B013378
:1030D0000D93D4E545F02005E1E7672801D04728A6
:1030E00001D145F40065452801D0472801D145F0BC
:1030F0002005189B073323F0070303F108021892F9
:1031000004950A9A0392CDF808B0D3E90023CDE9DB
:1031100000233346224641463846FFF7C9F90446A4
:103120000D9B01330D93AAE515F002051FD04FF05A
:1031300001091898031D189304F1010A3346224629
:1031400041460078B847BDB90D9B01330D935446F5
:1031500095E502F1010A334641462020B8474B4627
:10316000524603F101099B45F3D81446E1E70123D8
:10317000DDF828B02246F4E75246DDF828A006E044
:10318000551C334641462020B847A1462A4609F13E
:103190000104CA45F4D89246D6E7189B1A1D189226
:1031A000D3F800A0BBF1000F1ED14FF0FF33D14682
:1031B00002E009F10109134699F8002012B15A1EE4
:1031C000002BF6D1A9EB0A0915F480630B9302D00A
:1031D000D94528BFD94615F002030C9306D02246E4
:1031E0005C46B3460B9E1DE05B46E0E722460A9C28
:1031F0004B4607E002F10109334641462020B8471B
:103200002B464A465D1C9C42F4D8A9465C46B34610
:103210000B9E07E01C460AF1010A551C5B4641461D
:10322000B8472A469AF8000020B1002EF3D0631E5A
:10323000002CEFD114465E460C9B1BB90D9B01334D
:103240000D931CE5DDF828A006E0551C33464146E9
:103250002020B847A1462A4609F10104CA45F4D8FE
:103260001446EBE745F02105189B1A1D18921B68C0
:10327000059508220492CDF80CB01022029200228B
:10328000019200933346224641463846FFF761F8E3
:1032900004460D9B01330D93F1E4651C3346224631
:1032A00041462520B8470D9B01330D932C46E6E49B
:1032B000651C334622464146B8470D9B01330D93AA
:1032C0002C46DCE4074FD9E4B44201D3721E00E07F
:1032D0002246334641460020B84720460FB0BDE89D
:1032E000F08F00BF6921001000B585B002900391F6
:1032F000009313464FF0FF3202A90348FFF7B4FCD6
:1033000005B05DF804FB00BF6B21001000BEFDE7B7
:103310000346094A126842B1074A10680344074A43
:10332000934206D8044A13607047034A0449116067
:10333000F2E74FF0FF307047B07401200000082022
:103340003C76012008B5FFF7E1FF000000B583B02F
:103350008C46194613465AB1074A5BB10193009255
:1033600063460246054800F04FF90120FFF7CEFF03
:10337000034AF2E7024BF1E73059001040590010C0
:103380003C59001010B5EFF30583DBB203B100BE6A
:10339000FEF760FC044C02E054F8043B9847034BF2
:1033A0009C42F9D310BD00BF404F0010444F0010A5
:1033B00008B5034608461B681146984708BD00003B
:1033C000F8B507460D461646437D13B10024204646
:1033D0000CE003681146284698472EE03B7D10E03C
:1033E0003B68022115489847601C0134B44214DA46
:1033F000002CF3DD2B1913F8013C0D2B14BF002317
:1034000001232A5D0A2AF0D1002BEED1A042E7DA8F
:103410003B68211A28449847E2E7B04203DA3B6848
:10342000311A28449847002E07DD354415F8013C31
:103430000D2B14BF002301233B75F8BD70590010FC
:1034400038B50368BBB105460B4B1C6806E029463E
:1034500051F8042B2046FFF7B3FF24694CB12368D1
:10346000002BFAD0054B1B68002BF0D0A342F4D1FF
:10347000EDE700232B6038BD9C740120A47401206B
:1034800038B505460C460B68802B05D021684B1CCF
:1034900023600C44257138BD0846FFF7D1FFF5E7DE
:1034A00008B5FEF7D1F9074A821841F10003002B55
:1034B00003DB054801F014FD08BD4FF0FF326FF04B
:1034C0000043F6E740420F002872012008B5024889
:1034D00001F0EEFC08BD00BF287201202DE9F04389
:1034E00083B006460D4690461C46FFF7D9FF81463D
:1034F000B5F1FF3F04D044B1174F184B1C6807E0EB
:10350000304601F039FB0546F5E7154FF5E724692C
:10351000BCB12368002BFAD0124B1B680BB1A3423D
:10352000F5D12A4631462046B847B8F1000FEED013
:103530000A238DF8073001220DF107012046B84714
:10354000E5E7B9F1000F03D1284603B0BDE8F083E9
:10355000FFF7BCFFF8E700BFC13300109C740120E7
:10356000B1330010A4740120084A01E003F11002F5
:1035700013683BB18342F9D131B903691360002369
:103580000361704701B11060704700BF9C74012057
:1035900010B5054B1C6801E0984724691CB16368AD
:1035A000002BF9D1F9E710BD9C74012038B5054610
:1035B00001F0E2FA044601231A4601462846FFF7C5
:1035C0008DFFFFF7E5FF204638BD000070B5A2B0C3
:1035D00004460E46FFF764FF054600230193334679
:1035E000224601A90748FFF77FFE044601A8FFF71E
:1035F00027FFFFF7CDFF15B9204622B070BDFFF7BA
:1036000065FFF9E7813400100FB400B583B004A959
:1036100051F8040B0191FFF7D9FF03B05DF804EBFB
:1036200004B0704730B583B086460C464FF0000CAE
:1036300013E00D238DF8073000200DF10701E0B9EC
:10364000936913F0200FFBD10B4613F8011B116097
:1036500001301946F3E70CF1010CA4451FDA114BB8
:103660001A681EF80C50104B9A4214BF0023012315
:103670000E4931F91330AB42DBD08DF807500020F2
:103680000DF107010028E6D1936913F0200FFBD15B
:103690000B4613F8011B116001301946F2E703B025
:1036A00030BD00BF04760120008007400076012075
:1036B00070B582B005460E46002104E09DF8073043
:1036C0008EF800306146B14218DA164B1A689069DC
:1036D00010F0100012D101F1010C05EB010E0DF1FB
:1036E00007010028EAD1936913F0100FFBD1146889
:1036F0000B4603F8014B01301946F2E70A4B1B68F1
:103700004BB1084B1B6850229A635A6B02F0380287
:1037100003F581535A6111B1084602B070BD6FF0D4
:103720000201F9E7047601205474012008B5054B25
:103730001B6833B1044A126800219163034A106880
:10374000984708BD54740120047601205874012064
:10375000034B1A68936913F0080FFBD1704700BF41
:103760000476012038B51C4B1B681C4A934206D0D6
:10377000212410B11A4A12681AB1C8B138BD2224E6
:10378000F7E7174B1860174B196017492046FDF7EC
:10379000BFFA01212046FDF7A9FA0F4B1B68502202
:1037A0009A635A6B02F0380203F581535A61E5E7D8
:1037B0000B4A1268002AE1D000259D632946204665
:1037C000FDF794FA08492046FDF7D2FA044B1D6034
:1037D000044B1D60D2E700BF047601200080074043
:1037E00054740120587401202D37001038B50D464F
:1037F0001C46104B1860101E05DB10F0020F15D090
:103800000B21FDF741F9002C06DB14F0020F0FD05D
:103810000B212046FDF738F92946064B1868FEF7BC
:103820008FF801210448FFF79FFE38BD0221E8E729
:103830000221EEE704760120B069012008B5074BAC
:103840001B78074B1B78074B1B78012300224FF492
:10385000E1310548FFF7CAFF08BD00BFAC5D0010AD
:10386000B05D0010B45D00100000074003BD10B54E
:103870000446FEF7F7F9A04710BD4FF050431B6D0B
:1038800013F0020FF9D04FF05043586540BF704716
:1038900000E020BF4FF050431B6D13F0010FF8D034
:1038A0004FF05043986D70472DE9F04186B00446C3
:1038B0000F4690461920FDF7EDF906460021192024
:1038C000FDF714FA00250095019501230293CDF828
:1038D0000C800497059400E0002506AB03EB8503FC
:1038E00053F8184C9CB12046FFF7C7FFFFF7D0FFF5
:1038F0008442F1D10135052DEFD931461920FDF76C
:10390000F5F906B0BDE8F0814FF050439B6D4FF0E4
:1039100050431B6D13F0010FF6D140BFE3E70000E9
:1039200008B512F0030F11D122F003028B180A4AD6
:10393000926843F80C0C43F8081C084943F8041C2F
:10394000A3F10C010648FFF7AFFF08BD054B064A7F
:103950008E210648FFF7FAFC00ED00E06F380010FA
:103960006D380010205A00103C5A0010E459001025
:1039700008B5064A064B9A4205D819464FF400622C
:10398000FFF7CEFF08BD4FF0FF31F7E7000008203A
:10399000000808204FF0A0420323C2F86434D2F894
:1039A00064349B07FBD10323C2F80C34704700BF7B
:1039B000012070B54FF0041491F80CE05E890EF10F
:1039C000FF3101FA00FC84444FEA0C2C1FFA8CFCF6
:1039D0004CEA06065E819E8949024CEA06069E81F3
:1039E000DE8989B20E43DE815E8A0D4D0E435E8212
:1039F000DE8AAEF1020E0E43DE825E8B4CEA060CCE
:103A0000A3F81AC0DE88B3F81CC031434CEA0E2E6E
:103A1000A3F81CE0D980C2E90154C2E9035470BD87
:103A2000D469012008B54FF41571024B024A0348CE
:103A3000FFF78CFC605A0010DC5B0010885A001005
:103A400008B540F21D51024B024A0348FFF77EFCC5
:103A5000CC5A0010045C0010885A001070B59C46C7
:103A60000124164682B000940CF10D04054624038F
:103A700008460CF10B0144EAC11410230022314620
:103A800000F0D9FB24F47E046EB144F438144FF4F2
:103A900080324FF08073284604492A60C5E901410D
:103AA000EB6002B070BD44F40034F0E700000E405B
:103AB0002DE9F04F3A4F44229DB082460C463846DD
:103AC000002100F0E9FF0220FDF76CF80346042016
:103AD000FB60FDF767F878630320FDF763F80346A2
:103AE000DFF8E4800520FB624546FDF75BF85646AB
:103AF0004FF0FF3338607B610FCE0FC53368C8F8D5
:103B000000402B609BB213B90123A8F81030BAF81B
:103B10000830244A5B08033B9380234B00215A6002
:103B200022480122FDF790FA4FF434710120FEF78C
:103B3000F9FAB4231E4E042170607381C820FEF789
:103B4000F1FA4FF0C809F06006F1200506F1A00B6C
:103B5000A6F8129045F8045C4FF434710120FEF78A
:103B6000E1FAB42302460421C8206A606B81FEF7A3
:103B7000D9FA2035AB4525F80E9C45F8140CE9D14F
:103B800000253E63C6F89C50BFF35F8F094B0A4E79
:103B90001B780A4B1B780A4B1B780A4B1B781AE0E0
:103BA0007C750120C8690120D469012008760120B4
:103BB000DC740120B85D0010DFFF0300BC5D001065
:103BC000C05D0010C45D0010107601200135122D7B
:103BD0004FEA56060AD0F307F8D5284606210135E4
:103BE000FCF752FF122D4FEA5606F4D10520FDF7DF
:103BF00049FF2268DFF87C93B0FBF2F3A9F80030AC
:103C00009BB202FB03F3834240F07C81DAF804505C
:103C10002B681A79202A00F27981D3E9001B0CAEB7
:103C20005200304600F0C2FE334651462846BA4A9A
:103C3000CDE9066BAD68A847B84806A900F0E3FADD
:103C4000DAF80430DFF830A31B688AF800001B792B
:103C5000002B00F05481B44600214FF0FF3542F2B2
:103C6000C40B3CF8022B5A4508BF0D4601318B426C
:103C7000F7D13D640125A84BC7B20021A8481D76A5
:103C8000FFF7C2FCD8F804300022D3F80CB0A349E7
:103C90003B4608A8D847B9F800103A46C801E940A1
:103CA000C0B2090441EA002108AB08919B480021F9
:103CB00000F010FB29469A489AF80070FFF7A4FC20
:103CC000D8F804302A46D3F80C8094493B4608A81B
:103CD000C0472946B9F800003A46C501C840EDB2D0
:103CE000000440EA052008AB08908C4800F0F2FA86
:103CF0008C4A8D4B257E0792069693E8070086E84E
:103D00000700002D40F0E2804CF2040304934CF2D3
:103D1000010305934FF440434CF2440A0393DFF848
:103D2000FC8106A9404600F06EFA06467F4B03214F
:103D30007B481E70FFF768FC01224FF0020B9FEDDD
:103D4000747B0027B9F800300092DA015B08D2B228
:103D50001B04F6B243EA02230893731D721C1B0373
:103D600043EAC21340460321102209935B468DEDBE
:103D70000A7B00F060FA324608AB4046032100F0AF
:103D8000A9FA39460F20FDF7C9F840211020FDF7A8
:103D9000C5F840210A20FDF7C1F8032000F048F9DA
:103DA00003204FF0A045624BC3F8040403F5FF1352
:103DB00010332F606B605F4BAF602B615E4BC5F8BB
:103DC000C070C5F8C4305D4BC5F8C8B0C5F8D03078
:103DD00000F022F95A4A2F646A645A4AAF645A4B77
:103DE0002A655A4A1F605A60594AC3F808B004202D
:103DF0001A6100F011F94CF24403C8F82031A37D98
:103E00002189BB42A37B13BFB846BC464FF0804814
:103E10004FF0804CBB4214BF3A460122A389678908
:103E2000A088A3EB0101A1EB0701A1EB000103981E
:103E3000B4F806E040EA42790598268A40EA4275DD
:103E4000A7F107004FEA004040EA4270628A7644D8
:103E5000B4F814B002EB06043E4AA3EB0103C2E936
:103E6000026449F4803945F4803540EA0A00A1F142
:103E70000304A3EB0703C2E900EBC2E905C9C2E9E9
:103E80000750C2F810804AEA0444A3F103032FD07C
:103E9000049944F0005441EA03464FF020411B04CA
:103EA00043F000534AEA030331439162C2F830C041
:103EB0005462D362284A2949C2E90104284815609E
:103EC00008600120D3601DB0BDE8F08F254B264966
:103ED0004DF2440ACDE90C13244B0E934DF204032A
:103EE00004934DF2010305934FF45043039316E7F7
:103EF000049941EA03464FF000411B04D2E74FF01A
:103F0000FF35B6E601461A48FCF7DAFDFFF798FDE3
:103F100000000E001000202004740120000020503A
:103F2000985B001006FF01004C5C00103776012002
:103F300000200050196080003800005059737E0046
:103F400014002050198082000001005078000050B9
:103F500059937E00C47501208C74012024740120C3
:103F6000E15901202D600370A090F06042A0441040
:103F7000445B001032760120387601200168FFF79B
:103F800097BD00BFF8B51C4E3378834200D1F8BD11
:103F900080224FF4407C194B194F1A4D0146C7F847
:103FA00000C004461A604FF4C230FCF783FE0B21B8
:103FB000284600F017F94FF430622B6823F00B030A
:103FC0002B60114B1A60ACB1104B114A5B68127830
:103FD0001B7903F01F0313440E4AC5F8D830C5F807
:103FE000F030137803F01F03C5F820312B6843F03D
:103FF0000B032B603470F8BD397601207C212050F2
:104000007021205000002050002020501076012008
:10401000387601203776012008B50146024A034868
:10402000FCF782FD08BD00BF585C0010307601200F
:1040300038B50446002501E00135640834B114F0B8
:10404000010FF9D02846FFF7E7FFF5E738BDD0F8B4
:10405000683113B111F0010F05D133B911F0040F1C
:1040600005D00020704700207047012070470120D4
:10407000704708B5C979FFF7EAFF08BD70B5044677
:104080000D461646FFF7F5FFD0B195F90530002B28
:1040900001DBB34217D104F12F4000F56000000DA1
:1040A0000A4B53F820102A7901239340013B03FA6D
:1040B00006F20A4201D1002070BD6FF00800FBE754
:1040C0006FF00A00F8E76FF00A00F5E74874012086
:1040D000F8B506460D461746FFF7D0FF20BB03464E
:1040E00006E003EB070C0CF1120C46F82C400133F0
:1040F0002979994207D92A6832F8134014F4604F9D
:10410000EFD13C44EDE7012303FA01F1013906F157
:104110002F4606F56006360DB940044A52F826309F
:10412000194342F826103846F8BD00BF48740120F4
:1041300010B50A79202A19D800F12F4000F5600047
:10414000000D154B53F8204001239340013B91F99A
:104150000510002910DB0846C2F12002914218DC4C
:104160008B40234201D04FF0FF3010BD0B4B0C4A67
:1041700043210C48FFF7EAF8C2F12000002805DBD4
:1041800003FA00F22242F0D00138F7E76FF008009E
:10419000EBE74FF0FF30E8E7487401207C5C00104B
:1041A000405D0010A85C001008B500F12F4000F53C
:1041B0006000000D02280AD0012806D0054A01EB54
:1041C00080010548FCF7B0FC08BD044AF7E7044A43
:1041D000F5E700BFDC5C0010607401201C5D00107E
:1041E000F85C001070B506460C46002501E001356C
:1041F00064083CB114F0010FF9D029463046FFF7AE
:10420000D3FFF4E770BDF8B505460E46FCF770FC29
:10421000074631462846FFF78BFF041E04DA38466E
:10422000FCF778FC2046F8BD224631462846FFF7C9
:104230004FFF0446F3E7F0B59DF81470D0F86841DD
:10424000121B1F2A43D801EB410400EBC404D4F82D
:10425000DC60D4F8CC5001EB4104E400C8340444E1
:1042600004F540544FF4003CC4F804C017B14FF0BB
:104270001F0E15E04FF0000E12E0540144F0A05460
:1042800001EB410C00EBCC0CCCF8DC404EF460446C
:1042900044F08004CCF8D840053B053202F01F0200
:1042A000052BEAD8520142EA836201EB410400EB9C
:1042B000C404C4F8DC204EF4604343F08003C4F827
:1042C000D830C4F8DC60C4F8CC500020F0BD6FF0EA
:1042D0000400FBE730B589B086468C461446026878
:1042E000012101FA0CF122EA01020260002B38D010
:1042F0001A4619680CEB4C0300EBC303C3F8C81053
:104300009168C3F8D0105168C3F8CC10D268C3F8D4
:10431000DC200CEB4C03DB00D033734403F58053FB
:104320004FF000421A601A604FF0013303FA0CF3A9
:10433000CEF808300CF10402012303FA02F20EF564
:1043400000510A600CF1080293400B6004F01F0456
:104350000CEB4C0C0EEBCC0CCCF8D840002009B088
:1043600030BD04AB002204920592069207924FF4EE
:10437000803204924FF4F83205924FF48022069274
:104380004FF4402206926D460FCB85E80F000CEBF0
:104390004C030EEBC303C3F8C8004FF44022C3F82C
:1043A000D020C3F8CC100022C3F8DC20B1E7000015
:1043B000024B0A460146186800F002B8E469012081
:1043C00038B5A1FB02145CBB00F036F80546C0B15D
:1043D00050F8042C22F00302043A242A13D8132A9A
:1043E0000AD91B2AC0E9004412D9242AC0E9024490
:1043F00011D000F1100200E002460023C2E90033B0
:104400009360284638BD214600F046FB284638BD5B
:1044100000F10802F1E700F11802C0E90444ECE7FA
:1044200000F004F80C2300250360EAE7014B18684C
:10443000704700BFE469012001F10B03162B2DE941
:10444000F04F054683B024D8102900F2F58000F023
:1044500075FB102418220220C04E32445368A2F18A
:1044600008018B4200F0EF805A68284622F00302D0
:10447000D3E902411A44E1608C6003F108045368F7
:1044800043F00103536000F05FFB204603B0BDE83A
:10449000F08F002B23F00704C0F2CE80A14200F27F
:1044A000CB8000F04BFBB4F5FC7FC0F0C281630A07
:1044B00000F03381042B00F29881A30903F1390045
:1044C00003F13807C300A54E3344A3F1080C5B6821
:1044D0009C4507D1BCE0002980F25081DB689C45F7
:1044E00000F0B6805A6822F00302111B0F29F2DD9A
:1044F00033693846DFF87CE2734540F0AF808310C3
:10450000012172689940914240F2D180B7687B687E
:1045100023F00309A9EB04030F2B02DD4C4540F205
:104520000C818F4B07EB090B1B6804EB03088D4BC9
:104530001A68013200F0CB8141F20F024244DFF8E9
:10454000388202EA08084146284600F003FBB0F131
:10455000FF3F8246834B00F0A981B74202D08345DA
:1045600000F2A481804AD34511684144116000F0F3
:10457000A0811868013000F0A781AAEB0B0B594409
:1045800011601AF0070300F0AC81C3F1080128465E
:1045900001938A4441F20801D044C91AA1EB0801F1
:1045A000C1F30B0B594600F0D5FA421C019B6E4A31
:1045B00000F0DE81A0EB0A0000EB0B08106848F069
:1045C0000103B742C6F808A00BEB0001CAF804309B
:1045D000116000F0A981B9F10F0F40F2A7817B684B
:1045E000A9F10C004FF0050C20F0070003F00103C7
:1045F00003430F287B6007EB0003C3E901CC00F203
:10460000AD81DAF804305746584A1068884238BFFE
:104610001160574A1068884238BF116023F00308C0
:104620004445A8EB040302D80F2B00F386802846EC
:10463000002400F089FA28E700240C2320462B6090
:1046400003B0BDE8F08FD3689A427FF40DAF02301B
:104650003369DFF820E173453FF451AF596821F029
:1046600003010A1B0F2A00F3E880002AC6E904EEC2
:1046700058DAB1F5007F80F093804FEAD10C012227
:1046800049090CF1010C8A40716856F83C700A43E4
:1046900006EBCC0108397260C3E9027146F83C3080
:1046A000FB6083100121994091423FF62FAF1142E8
:1046B00005D120F00300490004301142FBD006EB85
:1046C000C0098046CC46DCF80C70BC4507D198E0A8
:1046D000002B80F29F80FF68BC4500F092807A68D2
:1046E00022F00302131B0F2BF2DD391944F00104F1
:1046F00028467C6043F00104D7E902C5CCF80C5091
:10470000C5F808C0C6E904114C6007F10804C1E906
:1047100002EEBB5000F018FAB7E64FF400734020E9
:104720003F27D0E6194403F1080428464B6843F0BC
:1047300001034B6000F008FAA7E63A1944F00104BF
:1047400043F0010328467C6007F10804B26053601F
:1047500000F0FAF9204603B0BDE8F08F106E01209A
:104760000074012018720120D0730120F873012019
:10477000FC730120186E012000F0FFFF1A4403F1C2
:1047800008042846D3E902615368F16043F001034D
:104790008E60536000F0D8F9204603B0BDE8F08F7A
:1047A000B1F5206F4FEA512259D3142A00F2AA80A2
:1047B00002F15C075B32FF0006EB070CF759ACF126
:1047C000080CBC4500F086807A6822F003028A4219
:1047D00002D9BF68BC45F7D1D7F80CC07268C3E9ED
:1047E000027CCCF80830FB605BE7142B3DD9542BDE
:1047F00000F29080230B03F16F0003F16E07C300FA
:1048000061E608F101080CF1080C18F0030F7FF4C1
:104810005AAF35E03A443C46F9682846536843F0BD
:104820000103536054F8083FD9608B6000F08CF9A5
:104830002BE6E00804F108020EE628461D1944F0B4
:1048400001045C6042F00104C6E904556C6003F1A8
:104850000804C5E902EE5A5000F076F915E68A0917
:1048600002F139073832FF00A6E703F15C0003F1DB
:104870005B07C30027E659F808394B4540F09280A2
:1048800010F0030F00F1FF30F5D1736823EA010344
:10489000736049003FF43AAE994203D936E64900C5
:1048A00008F104081942FAD0404608E7B7687B6867
:1048B000B4E6CBF30B0000287FF45BAEC844B768C6
:1048C00048F001037B609FE6C3F800A059E608F1B9
:1048D000100838E692100121914072680A43726014
:1048E0007DE70AEB0801284601934942C1F30B0B0F
:1048F000594600F02FF9431C2B4A019B7FF45AAE16
:104900009B465BE6542A15D80A0B02F16F076E32FC
:10491000FF0051E7B3F5AA7F15D8E30B03F1780048
:1049200003F17707C300CEE557466DE60123CAF8C9
:1049300004307CE6B2F5AA7F21D8CA0B02F17807D1
:104940007732FF0038E740F25452934221D8A30C4B
:1049500003F17D0003F17C07C300B4E507F1080112
:10496000284600F087F9B7680F4A7B6811684BE664
:10497000083B4FF0000B9844A8EB0A081EE640F2F3
:104980005457BA420AD88A0C02F17D077C32FF00E4
:1049900012E74FF47E737F207E2794E54FF47E77F5
:1049A0007E2209E7736874E7D0730120844641EAE8
:1049B000000313F0030349D1403A23D30B6803608B
:1049C0004B6843608B688360CB68C3600B6903618D
:1049D0004B6943618B698361CB69C3610B6A036275
:1049E0004B6A43628B6A8362CB6AC3620B6B03635D
:1049F0004B6B43638B6B8363CB6BC3634030403142
:104A0000403ADBD230320BD30B6803604B68436013
:104A10008B688360CB68C36010301031103AF3D2DA
:104A20000C3205D351F8043B40F8043B043AF9D268
:104A3000043208D0D2071CBF11F8013B00F8013B3B
:104A400001D30B8803806046704700BF082A13D348
:104A50008B07B1D010F00303AED0C3F10403D21A18
:104A6000DB071CBF11F8013B00F8013BA4D331F870
:104A7000023B20F8023B9FE7043AD9D3013A11F8F0
:104A8000013B00F8013BF9D20B7803704B7843707F
:104A90008B7883706046704770B5860748D0541E87
:104AA000002A3FD0CAB2034601E0013C3AD303F8E2
:104AB000012B9D07F9D1032C2DD9CDB20F2C45EA3E
:104AC000052545EA054536D9A4F1100C03F1200E61
:104AD00003F110022CF00F064FEA1C1CB64442E909
:104AE000045542E9025510327245F8D10CF1010229
:104AF00014F00C0F04F00F0C03EB021213D0ACF106
:104B0000040323F003030433134442F8045B934289
:104B1000FBD10CF003042CB1CAB21C4403F8012BE6
:104B20009C42FBD170BD64461346002CF4D1F9E7DA
:104B300003461446BFE71A46A446E0E7014800F0E2
:104B40009FB900BFCC730120014800F09BB900BFA2
:104B5000CC73012038B50022064D044608462A6071
:104B6000FEF7D6FB431C00D038BD2B68002BFBD0D2
:104B7000236038BDA074012020F0030110F0030071
:104B8000C0F1000051F8043B00F1040C4FEACC0CDA
:104B90006FF000021CBF22FA0CF213434FF0010C1D
:104BA0004CEA0C2C4CEA0C4CA3EB0C0222EA03025C
:104BB00012EACC1204BF51F8043B0430F4D0C2F125
:104BC000000102EA0102B2FA82F2C2F11F0200EB16
:104BD000D2007047F8B5234F0C460646FFF7AEFFEC
:104BE000BA6840F6EF7355681B1B1F4C25F0030590
:104BF0002B441C40A4F58054B4F5805F07DB0021F2
:104C00003046FFF7A7FFBB682B44984204D03046DC
:104C1000FFF79AFF0020F8BD61423046FFF79AFF88
:104C200001300DD02D1B114BBA68304645F00105FF
:104C300055601A68121B1A60FFF786FF0120F8BD45
:104C400000213046FFF786FFBA68831A0F2BDEDD9E
:104C500043F0010305495360054B1B68C01A086007
:104C6000D5E700BF106E012000F0FFFFD0730120D8
:104C700018720120002961D0F8B50C460646FFF7EE
:104C80005DFF7C4F54F8042CA4F10805B86822F0AD
:104C9000010105EB010CDCF80430604523F003034F
:104CA00000F08B80D207CCF8043032D454F8082CB2
:104CB00007F10800AD1A1144AA6882426AD00CEBD1
:104CC0000304D4F804E0EC681EF0010FD460A26085
:104CD00000F0978041F001036B60CCF80010B1F553
:104CE000007F35D24A09CB080121013391407A680F
:104CF000114307EBC3027960083A57F83310C5E94E
:104D0000021247F83350CD603046BDE8F840FFF757
:104D10001BBF0CEB03025268D00710D4194407F1F3
:104D20000800DCF80830834273D0DCF80C20DA602D
:104D3000936041F001036B606950D0E7704741F028
:104D40000103B1F5007F44F8043CCCF80010C9D34E
:104D5000B1F5206F4FEA512348D28B0903F1390096
:104D600003F13802C300F818FB580838984259D0AC
:104D70005A6822F003028A4202D99B689842F7D10E
:104D8000D868C5E9023085603046DD60BDE8F8408E
:104D9000FFF7DABE0CEB03025268D20763D40B4470
:104DA0003046DCE90212CA60916043F001026A6099
:104DB000EB50BDE8F840FFF7C7BE0B44D10707D45E
:104DC00054F8082CAD1A1344D5E90212CA60916058
:104DD00043F001026A60284ABD6012689A4293D883
:104DE000264B30461968FFF7F5FE8DE7142B0AD9DC
:104DF000542B1FD80B0B03F16F0003F16E02C3009D
:104E0000B1E719448DE703F15C0003F15B02C300D5
:104E1000A9E741F00103C7E90455C5E902006B6049
:104E2000695071E70121921001FA02F279680A4390
:104E30007A60A6E7B3F5AA7F06D8CB0B03F178001A
:104E400003F17702C3008EE740F25452934206D832
:104E50008B0C03F17D0003F17C02C30083E74FF468
:104E60007E737E227FE741F001036B60CCF8001077
:104E70004AE700BF106E01201C720120007401205F
:104E8000704700BF704700BFF8B500BF00000000CA
:104E900001B40248844601BC604700BFD1570120DD
:104EA00001B40248844601BC604700BFD5650120BB
:104EB00001B40248844601BC604700BF8959012003
:104EC00001B40248844601BC604700BF656501200B
:104ED00001B40248844601BC604700BF6D640120F4
:104EE00001B40248844601BC604700BF5559012007
:104EF00001B40248844601BC604700BF235801202A
:104F0000FD1C0010751C0010A11C0010991D001044
:104F1000DD1C0010091C0010211D0010D51B001005
:104F2000AD100010291D00109D170010511C00101D
:104F30000F1D0010C11C0010790B0010010C001097
:044F40000D0200104E
:104F48002128337520262028696E747074725F7466
:104F58002920646174612900433A2F7069636F2FB7
:104F68007069636F2D706C617967726F756E642FED
:104F78007363616E766964656F2F687363726F6CB3
:104F88006C5F646D615F74696C65732F68736372BD
:104F98006F6C6C5F646D615F74696C65732E630020
:104FA80030203D3D2028337520262028696E7470F6
:104FB80074725F7429206F7574707574290000000D
:104FC8002875696E7433325F74202A29206F7574CE
:104FD800707574203C3D2028627566202B2064651E
:104FE80073742D3E646174615F6D617829000000FF
:104FF80030203D3D2028337520262028696E7470A6
:1050080074725F74296F75747075742900000000DC
:105018006F75747075743332203C20696E6C696EDC
:10502800655F6461746100002875696E7433325F6E
:1050380074202A29206F7574707574203C3D2028CF
:10504800627566202B20646573742D3E64617461FB
:10505800325F6D617829000068737065656420258A
:10506800642F382068616C662D706978656C3D2501
:105078006420776176653D25642028616D703D2543
:105088006429202873707269746573202564292047
:1050980020202020200D0000636F72655F6E756D03
:1050A800203E3D203020262620636F72655F6E7596
:1050B8006D203C203200000052656E646572696E96
:1050C80067206F6E20636F72652025640D0A0000EB
:1050D8007667615F6D6F64652E787363616C6520B8
:1050E8003E3D20320000000076706F73203E3D2068
:1050F800300000004B4559533A00000020202B2F68
:105108002D20202061646A75737420686F72697A33
:105118006F6E6174616C20737065656400000000D7
:105128002020682020202020746F67676C65206825
:10513800616C6620706978656C206D6F646500002D
:105148002020392F3020202075702F646F776E2033
:10515800686F72697A6F6E74616C207370726974AB
:105168006520636F756E7400202077202020202032
:10517800746F67676C652077617665206D6F64650D
:105188000000000020205B2F5D20202061646A75EC
:105198007374207761766520616D706C69747564CD
:1051A8006500000072656E6465725F7363616E6CA2
:1051B800696E655F62670000766964656F5F6D613F
:1051C800696E000072656E6465725F6C6F6F700067
:1051D8007F7E7C79757069625950463B3024180C83
:1051E80000F4E8DCD0C5BAB0A79E97908B8784827C
:1051F800818284878B90979EA7B0BAC5D0DCE8F4EB
:10520800000C1824303B46505962697075797C7ED1
:10521800540010001000000020660000900B0020D1
:10522800100100202000000000010000D701080044
:1052380008000000B0880000208F0020B071002016
:105248000A2A2A2A2050414E4943202A2A2A0A009B
:105258006C6F636B5F6E756D203C204E554D5F53D0
:1052680050494E5F4C4F434B53000000433A2F7058
:1052780069636F2F7069636F2D73646B2F7372632B
:105288002F7270325F636F6D6D6F6E2F686172641D
:10529800776172655F73796E635F7370696E5F6C57
:1052A8006F636B2F73796E635F7370696E5F6C6F7A
:1052B800636B2E63000000007370696E5F6C6F6330
:1052C8006B5F696E6974000064656C7461203E3DB3
:1052D800202D323034382026262064656C746120F5
:1052E8003C3D203230343620262620212864656C47
:1052F8007461202620312900433A2F7069636F2F8B
:105308007069636F2D73646B2F7372632F727032C1
:105318005F636F6D6D6F6E2F686172647761726520
:105328005F6972712F6972712E63000021286465AC
:105338006C7461203E3E20313175290063757272AC
:10534800656E74203D3D205F5F756E68616E646CAC
:1053580065645F757365725F697271207C7C206318
:10536800757272656E74203D3D2068616E646C656F
:10537800720000006972715F68616E646C65725FCB
:10538800636861696E5F667265655F736C6F745F91
:1053980068656164203E3D203000000076746162DB
:1053A8006C655F68616E646C6572203D3D205F5F6F
:1053B800756E68616E646C65645F757365725F694C
:1053C80072710000212828282875696E747074721B
:1053D8005F742972656D6F76655F7468756D625F5D
:1053E80062697428767461626C655F68616E646C6A
:1053F80065722929202D20282875696E74707472A9
:105408005F74296972715F68616E646C65725F634D
:105418006861696E5F736C6F747329292025207326
:10542800697A656F6628737472756374206972711E
:105438005F68616E646C65725F636861696E5F73F3
:105448006C6F74292900000030783163203D3D20BD
:10545800282A696E7374293E3E31317500000000B8
:1054680021657863657074696F6E207C7C2065782F
:1054780063657074696F6E203D3D206E756D202BDD
:1054880020565441424C455F46495253545F495255
:105498005100000066616C736500000069735F73FA
:1054A80068617265645F6972715F7261775F686174
:1054B8006E646C657228736C6F745F68616E646C7F
:1054C80065722900657863657074696F6E00000005
:1054D800666F756E640000006972715F6164645F75
:1054E8007461696C5F746F5F667265655F6C697320
:1054F80074000000696E736572745F626C5F3332AA
:10550800000000006972715F72656D6F76655F6893
:10551800616E646C657200006D616B655F6A5F3116
:10552800360000007265736F6C76655F6A5F3136AE
:10553800000000006972715F7365745F6578636C61
:1055480075736976655F68616E646C6572000000EA
:1055580031203D3D202875696E747074725F74291E
:105568006C2D3E7370696E5F6C6F636B000000009A
:10557800433A2F7069636F2F7069636F2D73646B83
:105588002F7372632F636F6D6D6F6E2F7069636F0A
:105598005F73796E632F6D757465782E63000000F4
:1055A800746F74616C0000006D74782D3E636F72C7
:1055B800652E7370696E5F6C6F636B006C6F636BE5
:1055C8005F69735F6F776E65725F69645F76616C40
:1055D8006964286D74782D3E6F776E6572290000B6
:1055E8006D74782D3E656E7465725F636F756E7449
:1055F800000000006D757465785F65786974000057
:105608006D757465785F656E7465725F626C6F63E3
:105618006B5F756E74696C0072756E74696D655F29
:10562800696E69745F6D757465780000706F6F6C72
:105638002D3E74696D65725F616C61726D5F6E7528
:105648006D203D3D2074696D65725F616C61726D9E
:105658005F6E756D00000000433A2F7069636F2F0D
:105668007069636F2D73646B2F7372632F636F6D33
:105678006D6F6E2F7069636F5F74696D652F7469E4
:105688006D652E630000000064656661756C745F6B
:10569800616C61726D5F706F6F6C5F696E69746960
:1056A800616C697A6564282900000000616C617288
:1056B8006D5F706F6F6C5F6765745F646566617559
:1056C8006C740000616C61726D5F706F6F6C5F6904
:1056D80072715F68616E646C657200004861726423
:1056E8007761726520616C61726D20256420616C40
:1056F800726561647920636C61696D65640000009E
:1057080076636F5F66726571203E3D205049434F56
:105718005F504C4C5F56434F5F4D494E5F46524574
:10572800515F485A2026262076636F5F667265713E
:10573800203C3D205049434F5F504C4C5F56434FEF
:105748005F4D41585F465245515F485A000000007E
:10575800433A2F7069636F2F7069636F2D73646BA1
:105768002F7372632F7270325F636F6D6D6F6E2F60
:1057780068617264776172655F706C6C2F706C6CB5
:105788002E6300006662646976203E3D2031362033
:105798002626206662646976203C3D20333230003C
:1057A80028706F73745F64697631203E3D20312024
:1057B800262620706F73745F64697631203C3D2023
:1057C80037292026262028706F73745F6469763223
:1057D800203E3D203120262620706F73745F646957
:1057E8007632203C3D203729000000007265665F54
:1057F80066726571203C3D202876636F5F6672652E
:1058080071202F2031362900706C6C5F696E6974C5
:10581800000000004F7574206F66206D656D6F7213
:10582800790000004465627567000000626F6F745C
:10583800325F77323571303830000000322E322E28
:10584800300000007069636F320000006873637293
:105858006F6C6C5F646D615F74696C6573000000E8
:1058680041756720313920323032350005005250F9
:10587800DE65F468FCCE0110060052505422A29D49
:105888006858001006005250861C03025458001035
:1058980006005250BBFF3CB64C5800100600525050
:1058A800ABB360534458001006005250E182887F21
:1058B8003458001006005250D3F075422C5800108E
:1058C800666E6900666E692B000000006E616E00EE
:1058D800666E692D00000000000000000000F03F27
:1058E80000000000000024400000000000005940B3
:1058F8000000000000408F40000000000088C34006
:1059080000000000006AF8400000000080842E417A
:1059180000000000D01263410000000084D79741C6
:105928000000000065CDCD412C2066756E6374695A
:105938006F6E3A2000000000617373657274696FBE
:105948006E2022257322206661696C65643A2066A0
:10595800696C6520222573222C206C696E652025D0
:1059680064257325730A00000D0A0000554152543E
:1059780020737464696E0000554152542073746436
:105988006F7574005541525420737464696E202FEA
:10599800207374646F7574000600525053B4F4A1F8
:1059A8008C59001008005250120000000800525094
:1059B800921000006D757465785F69735F696E6930
:1059C8007469616C697A656428266C6F636B6F759E
:1059D800745F6D757465782900000000433A2F7074
:1059E80069636F2F7069636F2D73646B2F737263B4
:1059F8002F7270325F636F6D6D6F6E2F7069636F9A
:105A08005F6D756C7469636F72652F6D756C746901
:105A1800636F72652E6300002128737461636B5F86
:105A280073697A655F6279746573202620337529F6
:105A3800000000006D756C7469636F72655F6C615E
:105A4800756E63685F636F7265315F776974685FED
:105A5800737461636B000000217368617265645F31
:105A680073746174652E646D612E62756666657205
:105A7800735F746F5F72656C656173650000000029
:105A8800433A2F7069636F2F7069636F2D6578745F
:105A98007261732F7372632F7270325F636F6D6DF3
:105AA8006F6E2F7069636F5F7363616E766964658B
:105AB8006F5F6470692F7363616E766964656F2EBA
:105AC800630000006D61785F696E7374727563744A
